:020000040800F2
:10000000580C0020B9020008E52300084922000826
:10001000E1230008BF030008A52900080000000034
:10002000000000000000000000000000212900087E
:10003000C303000800000000E9230008232900088A
:10004000D3020008D3020008D3020008D30200083C
:10005000D3020008D3020008D3020008D30200082C
:10006000D3020008D3020008D3020008D30200081C
:10007000D3020008D3020008D3020008D30200080C
:10008000D3020008D3020008D3020008D3020008FC
:10009000D3020008CD030008D3020008D3020008F1
:1000A000D3020008D3020008D3020008D3020008DC
:1000B000D3020008D3020008D3020008D3020008CC
:1000C000D3020008D3020008D3020008D3020008BC
:1000D000D3020008D3020008D3020008D3020008AC
:1000E000D3020008D3020008D3020008D30200089C
:1000F000D3020008D3020008D3020008D30200088C
:10010000D3020008D3020008D3020008D30200087B
:10011000D3020008D3020008D3020008D30200086B
:10012000D3020008D3020008D3020008D30200085B
:10013000D3020008D3020008D3020008D30200084B
:10014000D3020008D3020008D3020008D30200083B
:10015000D3020008D3020008D3020008D30200082B
:10016000D3020008D3020008D3020008D30200081B
:10017000D3020008D3020008D3020008D30200080B
:10018000D3020008D3020008D3020008D3020008FB
:10019000D30200080000000031040008D302000868
:1001A000A5040008D3020008D3020008D302000807
:1001B000D3020008D3020008D3020008D3020008CB
:1001C000D3020008D3020008D3020008D3020008BB
:1001D000D3020008D302000800F002F800F05CF837
:1001E0000AA090E8000C82448344AAF10107DA4592
:1001F00001D100F051F8AFF2090EBAE80F0013F088
:10020000010F18BFFB1A43F001031847082B000029
:10021000282B00000A444FF0000C10F8013B13F0AB
:10022000070408BF10F8014B1D1108BF10F8015B4F
:10023000641E05D010F8016B641E01F8016BF9D142
:1002400013F0080F1EBF10F8014BAD1C0C1B09D199
:100250006D1E58BF01F801CBFAD505E014F8016B0B
:1002600001F8016B6D1EF9D59142D6D3704700009D
:100270000023002400250026103A28BF78C1FBD8AF
:10028000520728BF30C148BF0B6070471FB502F04E
:1002900028FD1FBD10B510BD00F058F81146FFF73E
:1002A000F5FF02F09DFB00F076F803B4FFF7F2FFD4
:1002B00003BC00F07DF8000009488047094800476A
:1002C000FEE7FEE7FEE7FEE7FEE7FEE7FEE7FEE706
:1002D000FEE7FEE704480549054A064B7047000063
:1002E00091290008D901000858060020580C002068
:1002F00058080020580800204FF0000200B51346AF
:1003000094469646203922BFA0E80C50A0E80C5035
:10031000B1F12001BFF4F7AF090728BFA0E80C50E6
:1003200048BF0CC05DF804EB890028BF40F8042BDF
:1003300008BF704748BF20F8022B11F0804F18BF4C
:1003400000F8012B7047704770477047754600F002
:100350002BF8AE4605006946534620F00700854657
:1003600018B020B5FFF7B6FFBDE820404FF00006FB
:100370004FF000074FF000084FF0000B21F007018D
:10038000AC46ACE8C009ACE8C009ACE8C009ACE8D0
:10039000C0098D46704710B50446AFF30080204673
:1003A000BDE81040FFF781BF00487047F805002006
:1003B00001491820ABBEFEE726000200704700BFCF
:1003C000FEE7704772B600BFFEE7000010B50248B6
:1003D00000F051FB10BD00003404002010B588B0BF
:1003E0000446002002900390022004900120059012
:1003F00000200690079002A9204600F05DFA10B197
:10040000022008B010BD00200346022211460090D1
:10041000204600F083FA08B10220F2E7204600F0FF
:100420006CFE00220121204600F080F90020E8E760
:1004300010B5024800F01FFB10BD0000980400201A
:1004400010B588B00446002002900390022004906A
:100450000120059000200690079002A9204600F098
:100460002BFA10B1022008B010BD02A9204600F0FE
:1004700023FA08B10220F6E70020034602221146C3
:100480000090204600F04AFA08B10220EBE720462F
:1004900000F033FE00220121204600F047F9002041
:1004A000E1E7000010B5024800F0E5FA10BD0000D9
:1004B000FC04002010B588B0044600200290039090
:1004C000022004900120059000200690079002A9C8
:1004D000204600F0F1F910B1022008B010BD002054
:1004E0000346022211460090204600F017FA08B198
:1004F0000220F2E7204600F000FE00220121204603
:1005000000F014F900220821204600F00FF9002025
:10051000E3E7000010B51D4A1D4C0368A34201D15A
:1005200002F554721B4C0368A34201D102F5D46258
:1005300002640368D3F8803023F4F814838E44EA0D
:1005400003430468C4F8803002F170034364036815
:10055000D3F8803023F0706490F8383044EA0363B5
:100560000468C4F8803002F1B0038364D833C364F4
:10057000D833036518334365114602E000230B604E
:10058000091D02F554739942F8D310BD00A4004030
:1005900000680040006C00402DE9F041054614461B
:1005A0001E46D1F804C0BCF1000F0AD1D1F810C02A
:1005B000D1F808804CEA080CB1F800804CEA884376
:1005C0000BE0D1F810C04CF0804CD1F808804CEA18
:1005D000080CD1F800804CEA080391F82080D1F88B
:1005E0001CC04CEA086CD1F818804CEA080CD1F811
:1005F00014804CEA080CD1F80C804CEA080706EB92
:10060000C608D5F854C00CEBC8021360121D176061
:10061000121D002019E000F1030C14F80CC04FEA81
:100620000C6800F1020C14F80CC048EA0C4800F108
:10063000010C14F80CC048EA0C2C14F800804CEAA9
:10064000080CC2F800C0121D001DDFF81880D1F898
:100650000CC008EB1C4C9CF800C08445DBD8BDE8FE
:10066000F0810000EC2C0008F0B589B007460C467C
:1006700015461E4624216846FFF73EFE00950020E1
:1006800001900290300403900020049005900690A1
:100690000790089022466946384600F0D8F810B115
:1006A000012009B0F0BD0020FBE7000010B52DEDE2
:1006B000028BB0EE408AF0EE608A9FED100B53EC97
:1006C000102B51EC180B02F065FA00D20EE09FEDF2
:1006D0000B0B53EC102B51EC180B02F0CBF905D897
:1006E00051EC180B02F0AEF941EC180BB0EE480AD1
:1006F000F0EE680ABDEC028B10BD000000000000A7
:100700000000000070B5044600F0FAFD06462546DC
:10071000681C10B104480068054400BF00F0F0FDFB
:10072000801BA842FAD370BD1C00002070B50346A0
:10073000144693F85C5001F4C07000B100BF012D65
:1007400001D0022D7DD11868826D01F0070010B133
:1007500002F0010018B301F0380010B102F00200FD
:10076000E8B101F4E07010B102F00400B8B101F496
:10077000F05010B102F0080088B101F4604010B1EF
:1007800002F0100058B101F4403010B102F0200026
:1007900028B101F47C0040B102F0400028B918688B
:1007A000C06D40F001001E68F06501F0070010B157
:1007B00002F0010018BB01F0380010B102F0020095
:1007C000E8B901F4E07010B102F00400B8B901F426
:1007D000F05010B102F0080088B901F4604010B187
:1007E00002F0100058B901F4403010B102F02000BE
:1007F00028B901F47C0040B102F0400028B118682B
:10080000C06D40F002001E68F06501F0800030B15C
:100810001868D0F8DC0020431E68C6F8DC0001F43C
:10082000807030B11868D0F8E00020431E68C6F828
:10083000E0001868406D08431E687065002070BDB8
:10084000FFE7186E40F0020018660120F7E72DE977
:10085000F04104460E461746706800B900E000BF3C
:1008600094F85C00022821D12068D0F8C40000F47C
:10087000001030B1206E40F4007020660120BDE809
:10088000F0812068D0F8C400C0F301452B463A46F9
:1008900031462046FFF780FE0120A8402168C1F8BC
:1008A000CC000120A840A0650020E8E7206E40F0C1
:1008B000080020660120E2E7F0B5024692F85C608D
:1008C000012E01D0022E23D1086880B9087A800752
:1008D0000F7B40EAC7600F8A40EA07404F6940EA51
:1008E0000704176C486807EB80031C600EE00F7B61
:1008F000086940EA47740F7A486940EA8775576C7F
:10090000486807EBC0031C601B1D1D600020F0BD84
:10091000106E40F0020010660120F8E770B5044642
:10092000049D94F85C00012810D1080140EA82007F
:1009300040EA430028432668D6F8806026F03F0648
:1009400030432668C6F88000002070BD206E40F05D
:10095000040020660120F8E7704770472DE9F04356
:1009600004460E469C4694F85C80B8F1020F79D19B
:10097000402E17D12068D0F8900000F00F0030B959
:10098000206E40F4807020660120BDE8F08320686E
:10099000D0F89000C0F3012303EBC309A06C00EB77
:1009A000C90115E02068D0F8980000F00F0028B9C0
:1009B000206E40F4807020660120E6E72068D0F8C1
:1009C0009800C0F3012303EBC309E06C00EBC901FD
:1009D000086800F080405060506820B90868C0F393
:1009E0008A40106003E0086820F0604010600868EA
:1009F00000F000509060086800F000401061091D90
:100A0000088880B2D061086800F47020D06008685F
:100A100000F480105061086800F4001090610868CC
:100A2000C0F3066010620868C00F5062091D0F46CF
:100A3000002503E0785D0CF805006D1CDFF83090B0
:100A4000D06809EB10400078A842F3D8402E04D1BA
:100A50002068C0F8943003E004E02068C0F89C30BF
:100A6000002092E7206E40F00800206601208CE70D
:100A7000EC2C000870472DE9F05F04462068006DFB
:100A800000F4E0552068406D05402068006D00F0DE
:100A900007062068406D06402068006D00F03807AA
:100AA0002068406D07402068006D00F471082068E0
:100AB000406D00EA08082068006D00F46029206895
:100AC000406D00EA09092068006D00F0400050B157
:100AD0002068406D00F0400028B140202168086582
:100AE0002046FFF7C7FF2068006D00F48070A0B1BA
:100AF0002068406D00F4807078B12068D0F8D8B0DC
:100B00002068D0F8E00000EA0B0B4FF480702168F9
:100B100008655946204600F009FB2DB1206805659F
:100B20002946204600F004FB2EB1206806653146B8
:100B3000204600F083FA2FB1206807653946204629
:100B400000F0DAFA2068006D00F4007058B12068F7
:100B5000406D00F4007030B14FF4007021680865FA
:100B6000204600F0E6FA2068006D00F0800098B1A1
:100B70002068406D00F0800070B12068D0F8D4A0EB
:100B80002068D0F8DC0000EA0A0A802021680865A5
:100B90005146204600F0CBFA2068006D00F400506A
:100BA00058B12068406D00F4005030B14FF400504F
:100BB00021680865204600F0B8FA2068006D00F44E
:100BC000004058B12068406D00F4004030B14FF44F
:100BD000004021680865204600F0A6FA2068006DF4
:100BE00000F4804060B12068406D00F4804038B16E
:100BF0004FF4804021680865206E40F08000206638
:100C0000B9F1000F06D02068C0F850904946204640
:100C1000FFF7A3FEB8F1000F06D02068C0F850809F
:100C2000206E40EA08002066206E10B12046FFF7D3
:100C300093FEBDE8F09F000070B504460CB901209A
:100C400070BD81492068884200D100BFA068B0F51E
:100C5000407F00D100BF94F85C0028B9002084F8E0
:100C60005D00204600F0F4F82068806920F0100054
:100C70002168886100F044FB05460DE000F040FB70
:100C8000401B0A2808D9206E40F00100206603208E
:100C900084F85C000120D3E72068806900F0080038
:100CA0000828EBD02068806940F001002168886145
:100CB00000F026FB05460DE000F022FB401B0A2851
:100CC00008D9206E40F001002066032084F85C0003
:100CD0000120B5E72068806900F001000028EBD012
:100CE0002068806940F002002168886156492068C8
:100CF000884202D1554960680860207C012806D1ED
:100D00002068806920F040002168886105E0206843
:100D1000806940F0400021688861607C012806D12C
:100D20002068806940F480402168886105E020687F
:100D3000806920F4804021688861A07C012806D168
:100D40002068806920F480502168886105E020686F
:100D5000806940F48050216888612068806920F4AF
:100D60004070A1680843216888612068806920F08C
:100D7000A400216888612068006920F010002168C3
:100D80000861E068012806D12068806940F004000D
:100D90002168886120E0E068F0B1E068022815D0A1
:100DA0002068806940F080002168886120680069BF
:100DB00040F0100021680861E06803280CD1206829
:100DC000806940F020002168886105E02068806922
:100DD00040F0200021688861207E401E4106E069C5
:100DE000401E41EA0020216A491E0843A18A491E8B
:100DF00040EA01402168C861A068B0F5407F0FD18A
:100E0000A06A401EE16A491E40EA0121206B401E93
:100E100041EA0011A08C401E41EA00402168C860F0
:100E20002068D0F8C000E16B08432168C1F8C00019
:100E30002046FFF76FFB0020A0652066012084F8A4
:100E40005C000020FCE600000064004000650040FB
:100E500010B59CB00446142117A8FFF74DFA542191
:100E600002A8FFF749FA6E492068884244D18014ED
:100E700002904003109002A800F0AEFB08B1FFF70B
:100E8000A1FA68480068401C664908600846006886
:100E900001280DD100BF6448806D40F000706249A8
:100EA00088650846806D00F00070019000BF00BFAB
:100EB00000BF5D48C06C40F008005B49C86408464C
:100EC000C06C00F00800019000BF00BF0320179025
:100ED00002201890002019901A9009201B9017A941
:100EE000524800F027F900221146152000F08CFA34
:100EF000152000F075FA90E04D492068884244D1F1
:100F0000801402904003109002A800F065FB08B125
:100F1000FFF758FA43480068401C424908600846F9
:100F2000006801280DD100BF3F48806D40F000707F
:100F30003D4988650846806D00F00070019000BF53
:100F400000BF00BF3848C06C40F002003649C8649A
:100F50000846C06C00F00200019000BF00BF602096
:100F6000179002201890002019901A9009201B90C9
:100F700017A9304800F0DEF800221146562000F094
:100F800043FA562000F02CFA47E02B4920688842AB
:100F900043D1801402904003109002A800F01CFB83
:100FA00008B1FFF70FFA1F480068401C1D49086090
:100FB0000846006801280DD100BF1B48806D40F035
:100FC0000070194988650846806D00F00070019036
:100FD00000BF00BF00BF1448C06C40F002001249BF
:100FE000C8640846C06C00F00200019000BF00BF5A
:100FF0001820179002201890002019901A900B20AA
:101000001B9017A90B4800F095F8002211465820B4
:1010100000F0FAF9582000F0E3F91CB010BD000010
:10102000006400401000002000100240000C004846
:101030000068004000040048006C004030B58DB0EE
:1010400004460D46294920680968884215D10020C8
:101050000190029001AB03AA40212046FFF77EFCDD
:101060000398B0F5007F07D90398B0F5027F03D845
:1010700001A9039801F010FA00BF1D492068096812
:10108000884215D100200190029001AB03AA4021B3
:101090002046FFF763FC0398B0F5007F07D903985B
:1010A000B0F5027F03D801A9039801F0F5F900BF5C
:1010B000104920680968884215D1002001900290EB
:1010C00001AB03AA40212046FFF748FC0398B0F586
:1010D000007F07D90398B0F5027F03D801A90398D0
:1010E00001F0DAF900BF0DB030BD0000340400207B
:1010F00098040020FC0400207047014691F85C0031
:1011000001280BD1022081F85C000868806920F07A
:1011100001000A689061002008667047086E40F080
:10112000040008660120F8E7704770477047704771
:101130007047704778B502460B460021CAE0012689
:101140008E401D6805EA0604002C73D01D7905F059
:101150000305012D04D01D7905F00305022D13D1DF
:1011600090684E000325B540A8434E00DD68B540A9
:1011700028439060506801258D40A8431D79C5F330
:1011800000158D40284350601D7905F00305032D9F
:1011900009D0D0684E000325B540A8434E009D6895
:1011A000B5402843D0601D7905F00305022D13D109
:1011B000CE0802F1200555F826004D07EE0E0F254A
:1011C000B540A8434E07F60E1D69B5402843CE082A
:1011D00002F1200545F8260010684E000325B540B1
:1011E000A8431D7905F003054E00B5402843106063
:1011F0005D6805F44035002D6BD000BF384D2D6E75
:1012000045F00105364E356635462D6E05F0010573
:10121000009500BF00BF4FEAB6358E0855F826008E
:101220008D072E0F0F25B540A843B2F1904F02D184
:1012300000251AE04DE02B4DAA4201D1012514E012
:10124000294DAA4201D102250FE0284DAA4201D121
:1012500003250AE0264DAA4201D1042505E0254DCB
:10126000AA4201D1052500E006258E07360FB540BC
:101270002843214D8E0845F82600204D2868A043BC
:101280005D6805F4801505B120431C4D28602D1DB7
:101290002868A0435D6805F4001505B12043174D8B
:1012A0002D1D2860154D2D1F2868A0435D6805F48D
:1012B000003505B12043114D2D1F28602D1F2868D2
:1012C000A0435D6805F4803505B120430B4D083D12
:1012D0002860491C1D68CD40002D7FF430AF78BDDB
:1012E000001002400004004800080048000C0048BC
:1012F00000100048001400480800014008040140A4
:10130000014800687047000014000020034800688E
:101310000349096808440149086070471400002027
:101320001C00002010B50024032000F0ABF80F20B3
:1013300000F008F808B1012401E000F02FF8204681
:1013400010BD000070B50446002511480068D8B1F2
:101350000F4800684FF47A71B1FBF0F00D4909684D
:10136000B1FBF0F6304600F055FF58B9102C07D20B
:1013700000222146501E00F047F80748046004E0B0
:10138000012502E0012500E00125284670BD00008E
:101390001C000020200000201800002008B500BF1D
:1013A0000E48006E40F001000C4908660846006EC9
:1013B00000F00100009000BF00BF00BF0846806D34
:1013C00040F0805088650846806D00F080500090A5
:1013D00000BF00BF00F0F6F808BD0000001002409A
:1013E0000146084600280DDB00BF00BF00F01F03C8
:1013F00001229A4043099B0003F1E023C3F8002136
:1014000000BF00BF00BF70472DE9F05F80460D466A
:10141000164601F0C9FA074639462A46334601F016
:101420000700C0F1070ABAF1040F02D94FF0040A0D
:1014300001E0C0F1070AD14600F1040ABAF1070F32
:1014400002D24FF0000A01E0A0F1030AD4464FF0A7
:10145000010A0AFA09FAAAF1010A0AEA020A0AFAD0
:101460000CFA4FF0010B0BFA0CFBABF1010B0BEA82
:10147000030B4AEA0B042146404601F09DFABDE801
:10148000F09F000000BF00F00702064B19684FF6FE
:10149000FF031940044B0B4343EA0221014B19603F
:1014A00000BF70470CED00E00000FA0502468ABB61
:1014B0004148006800F4C060B0F5806F2BD13E4811
:1014C0008030006820F480703B4BC3F880001846E1
:1014D000006820F4C06040F400701860374800686D
:1014E00032235843364BB0FBF3F0411C00E0491E59
:1014F0003148406900F48060B0F5806F01D1002967
:10150000F5D12D48406900F48060B0F5806F51D16D
:101510000320704708E028488030006820F480707D
:10152000254BC3F8800045E0B2F5007F3AD1224850
:10153000006800F4C060B0F5806F2AD11E4880308A
:10154000006840F480701C4BC3F8800018460068A7
:1015500020F4C06040F4007018601848006832231E
:101560005843174BB0FBF3F0411C00E0491E1248F2
:10157000406900F48060B0F5806F01D10029F5D199
:101580000D48406900F48060B0F5806F12D10320EF
:10159000BFE709488030006840F48070064BC3F80C
:1015A000800007E00448006820F4C06040F48060D8
:1015B000014B18600020ACE70070004020000020C4
:1015C00040420F000348806840F480400149886031
:1015D00070470000007000402DE9F84304460027E2
:1015E000B846206800F40020B0F5002F73D1B9464A
:1015F000FD48806D00F0805078B900BFFA48806DDA
:1016000040F08050F84988650846806D00F08050B1
:10161000009000BF00BF4FF00109F448006840F49B
:101620008070F2490860FFF76BFE064606E0FFF7A0
:1016300067FE801B022801D9032705E0EB480068FC
:1016400000F480700028F2D000BF002F46D1E64899
:101650009030006800F44075CDB1206DA84216D0DE
:10166000E1489030006820F44075DF48D0F89000E1
:1016700040F48030DC49C1F890000846D0F8900072
:1016800020F48030C1F890000846C0F8905005F072
:101690000100A0B1FFF734FE064608E0FFF730FE78
:1016A000801B41F28831884201D9032706E0CE48E9
:1016B0009030006800F002000028EFD000BF5FB952
:1016C000C9489030006820F44070216D0843C64935
:1016D000C1F8900003E00CE0B84600E0B846B9F16C
:1016E000010F05D1C048806D20F08050BE4988654B
:1016F00000BF207800F0010048B1BB488830006886
:1017000020F0030061680843B749C1F888002078D9
:1017100000F00200022809D1B3488830006820F0A8
:101720000C00A1680843B049C1F88800207800F097
:101730000400042809D1AC488830006820F030004B
:10174000E1680843A849C1F88800207800F0080043
:10175000082809D1A4488830006820F0C000216919
:101760000843A149C1F88800207800F01000102833
:1017700009D19D488830006820F4407061690843B1
:101780009949C1F88800207800F02000202809D16C
:1017900095488830006820F44060A1690843924968
:1017A000C1F88800207800F04000402809D18E4818
:1017B0008830006820F44050E16908438A49C1F844
:1017C0008800207800F08000802809D18648883081
:1017D000006820F44040216A08438349C1F888002A
:1017E000208800F48070B0F5807F09D17E48883071
:1017F000006820F44030616A08437B49C1F88800E2
:10180000206800F40030B0F5003F09D176489C30E4
:10181000006820F00300A16A08437349C1F89C00E6
:10182000208800F40070B0F5007F09D16E48883040
:10183000006820F44020E16A08436B49C1F8880041
:10184000208800F48060B0F5806F13D1664888303E
:10185000006820F44010216B084363498831086018
:10186000206BB0F5801F05D15F48C06840F4801040
:101870005D49C860208800F40060B0F5006F13D1A6
:1018800059488830006820F44000616B084356498D
:1018900088310860606BB0F5800F05D15248C06890
:1018A00040F480105049C860208800F48050B0F5A2
:1018B000805F13D14C488830006820F04070A16BE5
:1018C0000843494988310860A06BB0F1807F05D199
:1018D0004548C06840F480104349C860208800F43F
:1018E0000050B0F5005F13D13F488830006820F009
:1018F0004060E16B08433C4988310860E06BB0F11F
:10190000006F05D13848C06840F480103649C8607F
:10191000208800F48040B0F5804F13D132488830E1
:10192000006820F04060216C08432F49883108602E
:10193000206CB0F1006F05D12B48C06840F48010D6
:101940002949C860208800F40040B0F5004F13D149
:1019500025488830006820F04050616C08432249D7
:1019600088310860606CB0F1805F05D11E48C068A6
:1019700040F480301C49C860206800F48030B0F525
:10198000803F13D118488830006820F04040A16C97
:101990000843154988310860A06CB0F1804F05D12B
:1019A0001148C06840F480300F49C860206800F4D6
:1019B0008020B0F5802F13D10B489C30006820F4B4
:1019C0004010E16C084308499C310860E06CB0F5B8
:1019D000001F05D10448C06840F480100249C86067
:1019E0004046BDE8F883000000100240007000404F
:1019F0002DE9F04104460D464FF0000814B90120CE
:101A0000BDE8F0817D48006800F00F00A8420ED2CA
:101A10007A48006820F00F0028437849086008469B
:101A2000006800F00F00A84201D00120E8E720780C
:101A300000F00100002864D06068032823D17048BA
:101A4000006800F0007008B90120D9E700F0CEFC72
:101A500006466C48864237D96948806800F0F00035
:101A600030B1207800F0020002282DD1A06858BBC8
:101A70006348806820F0F00040F080006049886092
:101A80004FF0800820E06068022806D15C480068BA
:101A900000F4003040B90120B2E75948006800F472
:101AA000806008B90120ABE700F0B4F8064655485D
:101AB000864209D95248806820F0F00040F080004A
:101AC0004F4988604FF080084D48806820F003003F
:101AD000616808434A498860FFF712FC074608E03E
:101AE000FFF70EFCC01B41F28831884201D9032068
:101AF00086E74348806800F00C006168B0EB810F16
:101B0000EED1207800F00200022820D1207800F0E9
:101B10000400042805D13A48806840F4E060384960
:101B20008860207800F00800082807D134488068D1
:101B300020F4605040F4E0603149886030488068AB
:101B400020F0F000A16808432D49886008E0B8F152
:101B5000800F05D12A48806820F0F000284988606D
:101B60002648006800F00F00A84219D923480068F1
:101B700020F00F00284321490860FFF7C1FB07460A
:101B800008E0FFF7BDFBC01B41F28831884201D954
:101B9000032035E71948006800F00F00A842F0D193
:101BA000207800F00400042807D11548806820F44C
:101BB000E060E168084312498860207800F008007E
:101BC000082808D10E48806820F46050216940EA56
:101BD000C1000B49886000F01DF809498968C1F30C
:101BE0000311094A515C01F01F01C8400749086010
:101BF00007480068FFF7A6FB02E70000002002404C
:101C00000010024000B4C404FC2C00082000002096
:101C10001800002070B5224DAD6805F00C05042DAC
:101C200001D120483AE01E4DAD6805F00C05082DA5
:101C300001D11D4832E01A4DAD6805F00C050C2DA0
:101C40002BD1174DED6805F00304154DED68C5F374
:101C500003156A1C022C0CD0032C09D1124DB5FBC4
:101C6000F2F50F4EF668C6F3062605FB06F10AE00C
:101C700000BF0C4DB5FBF2F5094EF668C6F306261B
:101C800005FB06F100BF00BF054DED68C5F34165DA
:101C90006D1C6B00B1FBF3F000E0002070BD000094
:101CA000001002400024F400001BB7002DE9F843A7
:101CB000044614B90120BDE8F883207800F0010043
:101CC000002865D0FC48806800F00C07FA48C0681E
:101CD00000F003060C2F01D1032E01D0082F0AD1EA
:101CE000F548006800F40030002851D060680028F2
:101CF0004ED10120DFE700BF6068B0F5803F06D11C
:101D0000ED48006840F48030EB4908601AE06068F4
:101D1000B0F5A02F0BD1E848006840F48020E649D8
:101D200008600846006840F4803008600AE0E24835
:101D3000006820F48030E04908600846006820F41C
:101D40008020086000BF606888B1FFF7D9FA0546B7
:101D500006E0FFF7D5FA401B642801D90320AAE763
:101D6000D548006800F400300028F2D010E0FFF7FA
:101D7000C7FA054606E0FFF7C3FA401B642801D9FD
:101D8000032098E7CC48006800F400300028F2D126
:101D9000207800F00200022860D1C748806800F077
:101DA0000C07C548C06800F003060C2F01D1022EB5
:101DB00001D0042F18D1C048006800F4806018B129
:101DC000E06808B9012076E7BB48406820F0FE4093
:101DD000217C40EA0160B8494860B8480068FFF7D4
:101DE000B1FA18B3012066E7E06800B3B2480068B2
:101DF00040F48070B0490860FFF782FA054606E0BB
:101E0000FFF77EFA401B022801D9032053E7AA48B6
:101E1000006800F480600028F2D0A748406820F0F5
:101E2000FE40217C40EA0160A349486016E0A248D8
:101E3000006820F48070A0490860FFF761FA054649
:101E400006E0FFF75DFA401B022801D9032032E7C4
:101E50009948006800F480600028F2D1207800F0F2
:101E60000800082836D16069D0B1934894300068E2
:101E700040F001009049C1F89400FFF741FA05468F
:101E800006E0FFF73DFA401B022801D9032012E7C4
:101E900089489430006800F002000028F1D019E071
:101EA00085489430006820F001008349C1F894000F
:101EB000FFF726FA054606E0FFF722FA401B022844
:101EC00001D90320F7E67C489430006800F0020056
:101ED0000028F1D1207800F00400042872D14FF0DE
:101EE00000087548806D012121EA107078B100BFAB
:101EF0007148806D40F080506F4988650846806D5C
:101F000000F08050009000BF00BF4FF001086C4807
:101F1000006800F48070B0B96948006840F48070CF
:101F200067490860FFF7ECF9054606E0FFF7E8F9B6
:101F3000401B022801D90320BDE66148006800F477
:101F400080700028F2D000BFA068012808D15A484C
:101F50009030006840F001005749C1F8900021E03E
:101F6000A06805280FD154489030006840F0040064
:101F70005149C1F890000846D0F8900040F00100A7
:101F8000C1F890000EE04C489030006820F001004D
:101F90004949C1F890000846D0F8900020F00400AC
:101FA000C1F8900000BFA068A8B1FFF7A9F90546E5
:101FB00009E0FFF7A5F9401B41F28831884202D9B8
:101FC000032078E625E03C489030006800F00200ED
:101FD0000028EED013E0FFF793F9054608E0FFF77D
:101FE0008FF9401B41F28831884201D9032062E613
:101FF00031489030006800F002000028EFD1B8F1BD
:10200000010F05D12C48806D20F080502A49886549
:1020100000BF207800F02000202836D1A069D0B180
:1020200025489830006840F001002349C1F8980025
:10203000FFF766F9054606E0FFF762F9401B022844
:1020400001D9032037E61C489830006800F00200F0
:102050000028F1D019E018489830006820F00100FD
:102060001549C1F89800FFF74BF9054606E0FFF760
:1020700047F9401B022801D903201CE60E4898307E
:10208000006800F002000028F1D1E069002860D06B
:102090000948806800F00C000C287FD0E069022815
:1020A00058D10548006820F0807003490860FFF7A8
:1020B00027F905460DE0000000100240180000203E
:1020C00000700040FFF71CF9401B022801D90320D3
:1020D000F1E54D48006800F000700028F2D1D4E925
:1020E0000810401E41EA0011A06A41EA0021208E3A
:1020F0000122C2EB500041EA40513420005DC2EBA6
:10210000500041EA40612C20005D41EAC0603E4938
:10211000C9683E4A114008433B49C8600846006808
:1021200040F0807008600846C06840F08070C86069
:10213000FFF7E6F8054606E0FFF7E2F8401B022845
:1021400001D90320B7E53048006800F0007000288E
:10215000F2D056E02C48006820F080702A490860D0
:102160000846C06820F00300C8600846C0682849D7
:1021700008402549C860FFF7C3F8054607E00DE0B1
:10218000FFF7BEF8401B022801D9032093E51E4843
:10219000006800F000700028F2D132E0E069012808
:1021A00000D188E51848C66806F00301206A81421C
:1021B00025D106F0F001606A401EB1EB001F1ED170
:1021C00006F4FE41A06AB1EB002F18D106F0784169
:1021D0002C20005DB1EBC06F11D106F4C001208E40
:1021E0000122C2EB5000B1EB405F08D106F0C061A4
:1021F0003420005DC2EB5000B1EB406F01D00120F4
:1022000059E5002057E50000001002400C809F01B6
:10221000FFFFEEFE70B504462546681EB0F1807FD4
:1022200001D301200FE0681E4FF0E02148610F212B
:102230004FF0FF3000F0C0FB00204FF0E02188613C
:1022400007200861002070BD00BFFEE710B51348ED
:102250001349086000204860002111488160C16076
:102260000174417481741121416101218161062150
:10227000C1610321016211214162012181620721B3
:10228000C162022101630121416300218163C163B5
:10229000FEF7D2FC08B1FEF795F810BD00640040CF
:1022A0003404002010B5134813490860002048602A
:1022B000002111488160C160017441748174112151
:1022C0004161012181610621C16103210162112166
:1022D0004162012181620721C16202210163012162
:1022E000416300218163C163FEF7A6FC08B1FEF7DC
:1022F00069F810BD006800409804002010B513482C
:102300001349086000204860002111488160C160C5
:10231000017441748174112141610121816106219F
:10232000C161032101621121416201218162072102
:10233000C162022101630121416300218163C16304
:10234000FEF77AFC08B1FEF73DF810BD006C0040C6
:10235000FC04002008B500BF2048C06C40F0040019
:102360001E49C8640846C06C00F00400009000BF1D
:1023700000BF00BF0846C06C40F02000C86408469B
:10238000C06C00F02000009000BF00BF00BF0846F6
:10239000C06C40F00100C8640846C06C00F0010049
:1023A000009000BF00BF00BF0846C06C40F00800AE
:1023B000C8640846C06C00F00800009000BF00BF71
:1023C00000BF0846C06C40F00200C8640846C06CFC
:1023D00000F00200009000BF00BF08BD00100240E6
:1023E00000BFFEE700BFFEE77047000070B5164D66
:1023F000ED6805F00304144DED68C5F303156B1C7F
:10240000022C0CD0032C09D1104DB5FBF3F50E4E68
:10241000F668C6F3062605FB06F10AE000BF0C4D80
:10242000B5FBF3F5084EF668C6F3062605FB06F184
:1024300000BF00BF044DED68C5F341656D1C6A0027
:10244000B1FBF2F070BD000000100240001BB700AD
:102450000024F4002DE9F04107460C4615461E46BF
:1024600033462A4621460948FEF7FEF833462A46F7
:1024700021460748FEF7F8F833462A462146054824
:10248000FEF7F2F80020BDE8F081000034040020DF
:1024900098040020FC04002070B505460E46012477
:1024A00013E004F50070A8420ED1601EC0EBC0001E
:1024B0000849084431680160B1888180B17981712F
:1024C000E0B200F039F870BD641C092CE9DB00BFF4
:1024D000F9E700006005002010B5014600204A1E03
:1024E000C2EBC202134B1A4492780123B3EBE21FF2
:1024F00011D14A1EC2EBC2020E4B1A44D3784A1EB7
:10250000C2EBC2020B4C2244927803EB0222A2F5EA
:102510007F40FF380DE04A1EC2EBC202054B1A4451
:10252000D3784A1EC2EBC202024C2244927803EBDB
:10253000022010BD6005002010B588B00146481E7D
:10254000C0EBC0021F4B1A445278C0EBC0031D4CB5
:10255000E35C02EB03224DF820205DF820201A4BAB
:1025600053F82030D21AB2F5805F09DB174A52F8CF
:102570002020A2F5F852FF3A144B43F8202011E036
:102580005DF82020104B53F82030D21A12F5805FEE
:1025900008DC0E4A52F8202041F6FF731A440B4B18
:1025A00043F820205DF82020074B43F82020074AFD
:1025B00052F820205DF820301A44054B43F82020C3
:1025C00008B010BD60050020D8050020B805002027
:1025D0009805002070B505460C46012C3FDB082C01
:1025E0003DDC002600BF1F48854201DC054604E0B3
:1025F00042F21070854200DB0546042C0BDC4FF4E0
:102600000076C5F307216000801E174A1154600050
:10261000401E15540CE040F2FF16201FC4B2C5F353
:1026200007216000801E114A11546000401E15549D
:10263000B6F5007F11D108239A010B490C48FFF72A
:1026400009FF08239A0108490A48FFF703FF0823F6
:102650009A0105490848FFF7FDFE002070BD0120E2
:10266000FCE70000F0D8FFFF2C0400202404002029
:102670003404002098040020FC04002070B52DEDE7
:10268000068B06460D46681EC4B200EE106AB8EE10
:10269000C00AA14800EB841080ED000AE8B2FFF701
:1026A0001BFF00EE100AB8EEC00A9B4800EB841036
:1026B00080ED010A984800EB841090ED020A9648DC
:1026C00000EB841080ED030A934800EB841090ED3A
:1026D000000A914800EB8410D0ED010A30EE600A48
:1026E0008D4800EB841080ED020A8B4800EB8410CB
:1026F00090ED0E0A10EE101A084600F081FA41EC37
:10270000180B854800EB841090ED020A10EE101AA9
:10271000084600F075FA41EC1A0BB0EE4A0AF0EEEA
:102720006A0AFDF7C3FFB0EE409AF0EE609A53ECF0
:10273000182B51EC190B00F09DF906D29FED770A8A
:10274000754800EB841080ED020A734800EB84109A
:1027500090ED040A704800EB8410D0ED020A30EED0
:10276000200A6D4800EB841080ED040A6A4800EBF3
:10277000841090ED040A684800EB8410D0ED0F0A35
:10278000B4EEE00AF1EE10FA05DB634800EB8410CA
:1027900090ED0F0A1DE0604800EB841090ED040AF4
:1027A0005D4800EB8410D0ED0F0AF1EE600AB4EE44
:1027B000E00AF1EE10FA07D8574800EB841090EDCC
:1027C0000F0AB1EE400A04E0534800EB841090ED8C
:1027D000040A514800EB841080ED040A4E4800EBD7
:1027E000841090ED050A4C4800EB8410D0ED020AED
:1027F00020EE200A484800EB841080ED0A0A464883
:1028000000EB841090ED060A434800EB8410D0EDF5
:10281000040A20EE200A404800EB841080ED0B0AE9
:102820003D4800EB841090ED020A3B4800EB841019
:10283000D0ED030A30EE600A374800EB8410D0ED8B
:10284000070A20EE200A344800EB841080ED0C0AC1
:10285000314800EB841090ED0A0A2F4800EB8410F9
:10286000D0ED0B0A30EE200A2B4800EB8410D0ED9F
:102870000C0A30EE200A284800EB841080ED0D0A87
:10288000254800EB8410D0ED0D0A234800EB84109E
:1028900090ED080AB8EEC00AF4EEC00AF1EE10FAA4
:1028A00007DB1D4800EB841090ED080AB8EEC00A63
:1028B0001DE0194800EB8410D0ED0D0A164800EB1E
:1028C000841090ED090AB8EEC00AF4EEC00AF1EEE9
:1028D00010FA07D8104800EB841090ED090AB8EE02
:1028E000C00A04E00C4800EB841090ED0D0A0A4881
:1028F00000EB841080ED0D0AE9B2074A02EB841266
:1029000092ED0D0ABDEEC00A10EE100AFFF762FE4E
:10291000BDEC068B70BD000024000020000000000C
:10292000704710B5FEF7F2FC10BD00B593B038212A
:1029300005A8FDF7E1FC14216846FDF7DDFC002049
:10294000FEF7B4FD012005900004069002200C90D3
:1029500003210D910E9155210F910221109111919A
:10296000129105A8FFF7A2F908B1FDF72BFD0F2082
:102970000090032001900020029003900490042115
:102980006846FFF735F808B1FDF71CFD13B000BD30
:102990000348006840F47000014908607047000077
:1029A00088ED00E000BFFEE702480068C0F30220A7
:1029B000704700000CED00E010B5002804DB0A07AA
:1029C000130E054A135406E00A07140E034A00F0DA
:1029D0000F031B1FD45410BD00E400E018ED00E00D
:1029E000FEF7A0FCFFF7A1FFFFF7B4FCFFF72EFCFA
:1029F000FFF758FCFFF782FC0C48FDF7EFFC0C4892
:102A0000FDF71EFD0B48FDF755FD0EE00A48017865
:102A10000A480068FFF732FE07480078FFF75CFDC0
:102A2000074908600120FDF76DFEEFE73404002040
:102A300098040020FC040020000000200C0000206E
:102A40000400002081F00041704780F00040704792
:102A500021F00041704720F000407047491058BFF6
:102A6000C1F140415B1058BFC3F140438B42EFF3CB
:102A70000080704751EA030C17D41CF5801F58BF23
:102A8000BCF5801F00F10680994218BF704708BF4F
:102A90009042704707D711F5801F58BF13F5801F6C
:102AA00019D499427047894270471CF5801F08D598
:102AB000BCF5801FF7D58B4218BF704708BF824214
:102AC00070474FF4001C1CEB410F38BF1CEB430F49
:102AD00001D28B42704770B500F008F8922449008B
:102AE0004FF000514FF08053FFF7B8BF0EF1020EC8
:102AF0002EF0030E5EF8046B364205D4012A43EB38
:102B0000030515F5001F12D8012841EB010C1CF537
:102B1000001F0CD80ED14FEAD17C15F5001F0CEB2D
:102B20004C0C0CF1020C08BF4CEBD37C04E04FF0D2
:102B3000080C01E04FEAD37C0CEB4C0526FA05F6B5
:102B400006F00706B6F1040C06D20EEB860CBDE8C3
:102B500070404CF0010C6047DFE80CF0090B0202FA
:102B60004FF000414FF00000A1F5002170BD194663
:102B70001046012851EB010418BFD4F5001484BF9E
:102B8000002001F0004170BD0808A0F500114FEAD7
:102B90003101704753EA010C17D41CF5801F58BF50
:102BA000BCF5801F00F106808B4218BF704708BF3C
:102BB0008242704707D713F5801F58BF11F5801F59
:102BC00019D48B4270479B4270471CF5801F08D573
:102BD000BCF5801FF7D5994218BF704708BF9042D7
:102BE00070474FF4001C1CEB430F38BF1CEB410F28
:102BF00001D2994270470FB40CBC03BCFFF76BBF06
:102C000043004FEAD30C4FEA3C0C43401FBF400740
:102C10000CF1605113F0FE4F70471CF0006F03D1B0
:102C200000200CF0004170470CF0004343EA507064
:102C300010B540EACC0000F00EF800BF0000009292
:102C40004FEA0001FFF7A0BF4FF000414FF0000036
:102C5000A1F5002170470EF1020E2EF0030E5EF872
:102C6000044B244204D44FEA4102B2F17F4F11D801
:102C70004FEA4003B3F17F4F0CD80ED14FEAD07C1E
:102C8000B2F17F4F0CEB4C0C0CF1020C08BF4CEB7B
:102C9000D17C04E04FF0080C01E04FEAD17C0CEB52
:102CA0004C0324FA03F404F00704B4F1040C06D234
:102CB0000EEB840CBDE810404CF0010C6047DFE8DF
:102CC0000CF0070802024FF00040A0F5800010BD94
:102CD0000846420018BFD2F1807288BF00F0004061
:102CE00010BD4FF04070E1EE100A70470001020382
:102CF00004050607080C10141820304000000000DE
:102D0000000000000102030406070809000000009B
:102D100001020304342D00080000002034040000E8
:102D200014020008B42D0008340400202408000018
:102D300070020008720123DC05A388133210391CCD
:102D4000031824F482411B803E040412C1FFFF1AC1
:102D500020240BFD7A4440091D400BB24041C08540
:102D6000CDCCCC3D23B0360B1250C94013C8420421
:102D700014409C460D600AD7233C40310915400899
:102D80000938CDCC4C400AD7A33B400B3DCC3DC0CD
:102D90000E363E6F12833A80314A3FC00B182041F5
:102DA000400B184843C04B4C4040091A800B12FAA4
:042DB000444000009B
:04000005080001D915
:00000001FF
