:020000040800F2
:10000000B00A002065020008C31C0008E51A0008B9
:10001000C11C00085B0400088123000800000000E8
:10002000000000000000000000000000C71C0008E5
:100030006105000800000000C51C0008C91C00087C
:100040007F0200087F0200087F0200087F0200088C
:100050007F0200087F0200087F0200087F0200087C
:100060007F0200087F0200087F0200085D0400088C
:100070007F020008690400087F0200087504000878
:100080007F0200087F0200087F0200087F0200084C
:100090007F0200087F0200087F0200087F0200083C
:1000A0007F0200087F0200087F0200087F0200082C
:1000B0007F0200087F0200087F0200087F0200081C
:1000C0007F0200087F0200087F0200087F0200080C
:1000D0007F020008C12200087F0200087F0200089A
:1000E0007F0200087F0200087F0200087F020008EC
:1000F0007F0200087F0200087F02000881040008D8
:100100007F0200087F0200087F0200087F020008CB
:100110007D1D0008DD1D00087F0200087F02000829
:100120007F0200088D040008990400087F0200087F
:100130007F02000800000000000000007F020008AD
:100140007F0200087F0200087F0200087F0200088B
:100150007F020008A5040008B1040008212300085C
:100160007F0200087F0200087F0200087F0200086B
:100170007F0200087F0200087F02000800000000E4
:10018000000000007F0200080000000000000000E6
:100190007F02000800000000000000007F0200084D
:1001A0000000000000000000000000007F020008C6
:1001B0007F0200087F0200087F0200087F0200081B
:1001C0007F02000800F002F800F03CF80AA090E876
:1001D000000C82448344AAF10107DA4501D100F002
:1001E00031F8AFF2090EBAE80F0013F0010F18BF93
:1001F000FB1A43F0010318472C2200004C22000098
:10020000103A24BF78C878C1FAD8520724BF30C842
:1002100030C144BF04680C60704700000023002414
:1002200000250026103A28BF78C1FBD8520728BF06
:1002300030C148BF0B6070471FB502F0DDF81FBD2D
:1002400010B510BD00F0CFF81146FFF7F5FF02F032
:10025000A9F800F0EDF803B4FFF7F2FF03BC00F0DB
:10026000F5F800000948804709480047FEE7FEE727
:10027000FEE7FEE7FEE7FEE7FEE7FEE7FEE7FEE756
:1002800004480549054A064B704700006D1D0008EB
:10029000C5010008B0040020B00A0020B00600200C
:1002A000B006002053EA020C00F069802DE9F04B03
:1002B0004FF00006002B1FBFB3FA83F503FA05F4D5
:1002C00024FA05F65E4012BF1643B2FA82F502FA2E
:1002D00005F4C5F120051EBF22FA05FC44EA0C0412
:1002E000203556EA044C4FEA144418BF641C4FF002
:1002F00000084FF00009904271EB030C39D300293C
:1003000019BFB1FA81F701FA07F6B0FA80F700FADF
:1003100007F6C7F120071EBF20FA07FC46EA0C06C5
:100320002037B6FBF4FCA7EB0507103F07F01F0BC7
:10033000CBF120060CFA0BFB2CFA06F644BFB346B1
:100340000026202FA4BF5E464FF0000B5BEA060C90
:1003500008BF4FF0010B19EB0B09ABFB027C48EB1C
:100360000608C01B06FB02CC0BFB03CC71EB0C0197
:10037000C1E70B46024641464846BDE8F08B13B53F
:100380004FF000004FF00001AFF30080BDE81C40CB
:1003900070474FF0000200B5134694469646203948
:1003A00022BFA0E80C50A0E80C50B1F12001BFF42E
:1003B000F7AF090728BFA0E80C5048BF0CC05DF894
:1003C00004EB890028BF40F8042B08BF704748BFE2
:1003D00020F8022B11F0804F18BF00F8012B704756
:1003E000704770477047754600F02CF8AE46050020
:1003F0006946534620F00700854618B020B5FFF740
:100400003FFFBDE820404FF000064FF000074FF0DF
:1004100000084FF0000B21F00701AC46ACE8C00922
:10042000ACE8C009ACE8C009ACE8C0098D4670472B
:1004300010B50446AFF300802046BDE81040FFF73A
:100440000ABF0000004870475004002001491820EE
:10045000ABBEFEE7260002007047FEE7014800F051
:10046000DDB8000010020020014800F0D7B80000FD
:1004700050010020014800F0D1B80000B001002078
:10048000014800F0CBB8000070020020014800F0E5
:10049000C5B8000090030020014800F0BFB800007C
:1004A000D0020020014800F0B9B80000F00300209D
:1004B000014800F0B3B800003003002001681823A1
:1004C000CAB2103AB2FBF3F2054B6FF30901032AEB
:1004D0009B5CC36500D9091D816508467047000013
:1004E0000224000810B5014600208B698A6A4FF08B
:1004F000C07453B1B3F5005F15D072B1012A0CD0AE
:10050000022A0AD0032A09D104E01AB1012A06D02E
:10051000022A03D1C96AC90100D5012010BDC96AE8
:10052000A142FAD010BD002AF7D0012AF2D0022A47
:10053000F3D0032AF3D010BD30B50468256825F444
:1005400080252560046863608368402B036803D0BE
:1005500099600068C26030BD9A600068C16030BDBB
:10056000704772B6FEE72DE9F0410446876D00F052
:10057000B5FA064694F835000025022806D08020FA
:10058000606584F834500120BDE8F081206801687E
:1005900021F0160101602068416921F0800141616C
:1005A000206C08B9A06C20B12068016821F0080116
:1005B00001602068016821F0010101600CE000F099
:1005C0008DFA801B052807D920206065032084F858
:1005D000350084F83450D7E720680068C007EED1B2
:1005E00094F85C103F208840B860012084F8350002
:1005F00084F834500020C7E790F83510022903D062
:100600008021416501207047052180F83510006880
:10061000016821F001010160002070472DE9F843D5
:1006200004464FF00009CDF8009063484FF416518E
:10063000A56D0068B0FBF1F72E6894F85C100820F7
:1006400000FA01F131420FD021680A6852070BD538
:100650000A6822F004020A6094F85C108840A860DE
:10066000606D40F00100606594F85C104FF0010887
:1006700008FA01F0304208D021684969090604D51A
:10068000A860606D40F00200606594F85C10042082
:100690008840304208D021680968890704D5A860DD
:1006A000606D40F00400606594F85C101020884094
:1006B000304218D021680968090714D5A86020685D
:1006C0000168490304D50068000308D5A16C07E060
:1006D0000168C90503D4016821F008010160216C9B
:1006E00009B12046884794F85C10202088403042A9
:1006F00031D021680968C9062DD5A86094F8350065
:1007000005282068016806D0490347D50068000322
:100710001DD4616C1CE021F0160101602068416964
:1007200021F080014161206C08B9A06C20B12068E3
:10073000016821F00801016094F85C103F208840B6
:10074000A86084F8358084F83490216D1FE0E16B57
:1007500009B120468847606D00282BD0606DC00726
:1007600014D0052084F835002068016821F00101CB
:1007700001600098401C0090B84203D820680068CF
:10078000C007F6D184F8358084F83490E16C0029F4
:1007900010D001B02046BDE8F04308470168C90504
:1007A000D5D4016821F01001016084F8358084F807
:1007B0003490CCE7BDE8F883180000202DE9F04123
:1007C000044600F08BF906465CB1022084F835003F
:1007D000002584F834502068016821F0010101608F
:1007E0000DE00120BDE8F08100F078F9801B0528BC
:1007F00005D920206065032084F83500F2E72068E1
:100800000068C007F0D12268116820480140D4E98F
:1008100001031843D4E9033633431843636918438B
:10082000A3691843E3691843236A18430843616ABC
:10083000042903D1D4E90B1319430843106020683D
:100840004069666A20F0070130460E4301270428FC
:100850000CD1A06A0643E06A40B12046FFF742FE91
:1008600020B14020606584F83570BAE720684661A1
:100870002046FFF723FE94F85C203F2191408160E1
:10088000656584F835700020ACE700003F8010F00B
:100890002DE9F0410446866D90F8340000250128CA
:1008A0000DD0012084F8340094F835700020012F19
:1008B00007D084F8340002252846BDE8F0810220E4
:1008C000FBE7022784F8357060652046FFF734FEA9
:1008D00094F85C103F208840B0602068016841F0C7
:1008E00016010160206C20B12068016841F0080108
:1008F00001602068016841F001010160DCE700004F
:100900002DE9F84FDFF8ACA10022012403254FF0B8
:100910000F090AF1040BAAF1040E00BF0B6804FAD8
:1009200002F63340B3426ED10F7907F00307012F6F
:1009300001D0022F16D187684FEA420805FA08FC59
:1009400027EA0C07D1F80CC00CFA08FC4CEA070C9B
:10095000C0F808C04768B7430E79C6F30016964042
:100960003E4346600E79F643B6070AD0C6684FEAA2
:10097000420C05FA0CF7BE438F6807FA0CF73743B1
:10098000C7600E7906F00306022E10D1D60800EBE0
:100990008608D8F8206057074FEAD76C09FA0CF799
:1009A000BE430F6907FA0CF73743C8F82070066892
:1009B0004FEA420C05FA0CF7BE430F7907F0030724
:1009C00007FA0CF7374307604E6816F4403F6BD0C8
:1009D000394E376847F480473760366822F003079E
:1009E00006F480460096354E07EB060CDCF80868E6
:1009F00097074FEA177809FA08F7BE43304FB84215
:100A000002D100271FE04FE02E4FB84201D101274D
:100A100019E02D4FB84201D1022714E02B4FB84204
:100A200001D103270FE02A4FB84201D104270AE081
:100A3000284FB84201D1052705E0274FB84201D120
:100A4000062700E0072707FA08F73743CCF80878AD
:100A5000DAF800605746D1F804C09E435FEACC2C18
:100A600000D51E433E60DBF800605F46D1F804C04D
:100A70009E435FEA8C2C00D51E433E60DEF800608A
:100A80007746D1F804C09E435FEA8C3C00D51E43F4
:100A90003E60084F083F3E68D1F804C09E435FEABD
:100AA000CC3C00D51E433E60521C102AFFF436AFEA
:100AB000BDE8F88F083C0140443802400030014056
:100AC000000002400004024000080240000C024006
:100AD00000100240001402400018024001488068E3
:100AE000704700000C000020024881680278114421
:100AF000816070470C0000200B4810B5016841F47C
:100B000000710160016841F480610160016841F495
:100B100080710160032000F06FF80F2000F006F8EC
:100B200000F024F8002010BD003C024070B50D4DCF
:100B300004464FF47A712878B1FBF0F00A4909684D
:100B4000B1FBF0F000F074FB48B9102C07D2002282
:100B50002146501E00F030F800206C6070BD01206E
:100B600070BD00000C000020180000200A4808B5E5
:100B7000016841F480410160006800F48040009009
:100B80000548001F016841F080510160006800F0D5
:100B90008050009008BD000044380240002809DB66
:100BA00000F01F02012191404009800000F1E02087
:100BB000C0F8001170470000F0B40E4B1B680C46E3
:100BC000C3F30223C3F10705042D00D90425191D21
:100BD000072901D2002300E0DB1E012606FA05F1F9
:100BE000491E214099409E40761E16403143F0BC7C
:100BF00001F0C7BB0CED00E0064900F007020868F1
:100C00004FF6FF03184040EA0220034A10430860F1
:100C1000704700000CED00E00000FA052DE9F843F4
:100C20001748016841F0805101600068154F00F0DD
:100C30008050012600903E64FFF750FF05464FF4B8
:100C40007A78114C05E000BFFFF748FF401B404594
:100C50000DD86068C003F7D57E64FFF73FFF0546F7
:100C6000464607E0FFF73AFF401BB04202D9032097
:100C7000BDE8F88360688003F4D50020F8E7000041
:100C80004038024000000E42007000402DE9F0475D
:100C90000E46050065D0DFF81481D8F80000F7B2E1
:100CA00000F00F00B04207D288F80070D8F80000BA
:100CB00000F00F00B04254D128683D4C810712D596
:100CC000400703D5206840F4E050206028780007F2
:100CD00003D5206840F4604020602068A96820F0B7
:100CE000F000084320602878C0072DD0304968689C
:100CF0000839012812D0022813D0032811D009681E
:100D0000890700292DDA216821F0030101432160C0
:100D1000FFF7E4FE814641F2883A0EE00968890354
:100D2000EFE709688901ECE7FFF7D8FEA0EB0901BE
:100D3000514502D90320BDE8F0872068696800F0BA
:100D40000C00B0EB810FEFD1D8F80010404601F055
:100D50000F01B14207D90770006800F00F00B042E0
:100D600001D00120E7E72878400705D52068E96829
:100D700020F4E050084320602878000706D520685A
:100D8000296920F4604040EAC100206000F038F892
:100D90002168084AC1F30311515CC8400649086044
:100DA00006480068FFF7C2FE0020C4E7003C02408E
:100DB000083802400A240008180000201000002013
:100DC0000448054900680968044AC1F38221515C5E
:100DD000C840704718000020083802401A24000854
:100DE0000448054900680968044AC1F34231515C6E
:100DF000C840704718000020083802401A24000834
:100E0000224810B5006810F00C02214815D0214985
:100E1000042A11D01D4C241F082A0FD00C2A0CD1F3
:100E20002268236802F03F025B0221D52068C0F3EC
:100E30008810A0FB010120E0084610BD226823684D
:100E400002F03F025B0205D52068C0F38810A0FBCA
:100E5000010104E02168C1F38811A1FB0001002316
:100E6000FFF720FA2168C1F30141491C49000AE05B
:100E70002168C1F38811A1FB00010023FFF712FADA
:100E80002168C1F30271B0FBF1F010BD08380240D7
:100E90000024F40040787D012DE9F84F04007DD056
:100EA000DFF878B32078ABF10407C007A7F1040599
:100EB00050D0DBF800105846C1F3810101290FD052
:100EC0000168C1F38101022902D13968490207D4BE
:100ED0000068C0F38100032809D13868400206D5B4
:100EE0002868800336D560680028D8D032E0606872
:100EF000B0F5803F10D0B0F5A02F286810D020F4B6
:100F000080302860286820F4802028606068A0B1C4
:100F1000FFF7E4FD06460CE0286840F48030F4E773
:100F200040F480202860F7E7FFF7D8FD801B642895
:100F300076D828688003F7D50CE0FFF7CFFD06468A
:100F400005E000BFFFF7CAFD801B6428F0D82868C1
:100F50008003F7D42078DFF8C89280074FF0000AAA
:100F600044D5DBF80010584611F00C0F0FD0016883
:100F7000C1F38101022902D13968490207D500680D
:100F8000C0F3810003280AD13868400207D42868DA
:100F9000800715D5E068012800D111E03AE1E0684A
:100FA000B0B10120C9F80000FFF798FD064604E043
:100FB000FFF794FD801B0228BAD828688007F7D570
:100FC0002868216920F0F80040EAC10028600DE09F
:100FD000C9F800A0FFF782FD064604E0FFF77EFD9A
:100FE000801B02281CD828688007F7D420780007C7
:100FF00027D5DFF828828B48616908F16C0881B138
:1010000001210160FFF76AFD064604E0FFF766FD77
:10101000801B022804D8D8F800008007F6D510E01D
:1010200089E0C0F800A0FFF759FD064605E000BFC3
:10103000FFF754FD801B02287DD8D8F800008007F8
:10104000F6D42078400769D574484FF0000838304E
:101050000068C0000BD471483830016841F08051FD
:10106000016000684FF0010800F0805000906E4E63
:101070003068C00511D4306840F480703060FFF7EC
:101080002DFD009006E000BFFFF728FD0099401AF3
:10109000022850D83068C005F6D5604EA068683682
:1010A00001280FD00528306810D020F001003060F2
:1010B000306820F004003060A068B8B1FFF70EFD82
:1010C00000900FE0306840F00100F4E740F00400C9
:1010D0003060F7E7FFF702FD0099411A41F28830CE
:1010E000814264D830688007F4D50EE0FFF7F6FC43
:1010F000009007E0FFF7F2FC0099411A41F28830B6
:10110000814254D830688007F4D4B8F1000F05D07C
:1011100042483830016821F080510160A069A8B3CD
:10112000DBF80010C1F38101022947D00228C9F879
:1011300060A005D000E03AE0FFF7D0FC044639E0BB
:10114000FFF7CCFC064604E0FFF7C8FC801B022832
:101150002DD828688001F7D4F4E907010843E16835
:10116000324A490802EB0141A26841EA8211084370
:10117000217C40EA0160217D40EA01703860012055
:10118000C9F86000FFF7AAFC044606E044E000BF8F
:10119000FFF7A4FC001B022809D828688001F7D5B6
:1011A0003AE000BFFFF79AFC001B022802D9032097
:1011B000BDE8F88F28688001F4D42DE00128F7D02D
:1011C0003868E26900F48001914223D1226A00F07C
:1011D0003F0191421ED147F6C071626A0140B1EBF6
:1011E000821F17D1A26A4FF0FF3300F4403103EBA6
:1011F0005202B1EB024F0DD194F82C2000F0706137
:10120000B1EB026F06D194F8301000F0E040B0EB83
:10121000017F01D00120CBE70020C9E70838024058
:1012200000004742800E4742007000400000FFFF70
:1012300010B5401EB0F1807F01D3012010BD4FF0EA
:10124000E02460610F21601701F09BF80020A0618D
:1012500007202061002010BD704710B504460068CB
:10126000406994F83D10C0F3C010212911D180B11C
:101270002068143050E8001F21F0800140E800127F
:10128000002AF5D1606B08B1FFF76DF9204600F038
:101290009DFE2068406994F83E10C0F3801022291A
:1012A00011D180B12068143050E8001F21F04001B6
:1012B00040E80012002AF5D1A06B08B1FFF753F9FE
:1012C000204600F05CFE002010BD7047F8B50168B4
:1012D00004460868CA684B6910F00F0F4FF000050C
:1012E00059D003F0010602F49077374365D0C10767
:1012F00005D0D10503D5216C41F0010121644107DE
:1013000005D5D90703D0216C41F002012164810782
:1013100005D5D90703D0216C41F0040121640107F0
:1013200007D502F02001314303D0216C41F00801C0
:101330002164216C00293AD0800604D5900602D59C
:10134000204600F051FE20684069216CC0F38010F7
:10135000090700D460B3204600F011FE2068406900
:10136000400621D52068143050E8001F21F04001CC
:1013700040E80012002AF5D1A06BA8B16C490165C4
:10138000A06BFFF739F9002811D0A06B016D01B0F7
:10139000BDE8F040084783060FD593060DD52046DB
:1013A000BDE8F84000F020BE2046FFF78EFFF8BDF4
:1013B0002046FFF78AFF2564F8BD266B2023012E07
:1013C00079D1C60677D5D60675D5086848680090E5
:1013D0004869400640D5A16B086840680004000CCD
:1013E000EAD0A28D8242E7D9E085C869B0F5807F56
:1013F0002DD020680C3050E8001F21F4807140E8A7
:101400000012002AF5D12068143050E8001F21F0A6
:10141000010140E80012002AF5D12068143050E89C
:10142000001F21F0400140E80012002AF5D184F8A5
:101430003E30256320680C3050E8001F21F0100179
:1014400040E80012002AF5D1A06BFFF78CF8A08DC0
:10145000E18D401A81B229E0A08DE18D401A81B260
:10146000E08D0028A8D00029A6D020680C3050E8D4
:10147000002F22F4907240E80026002EF5D120685B
:10148000143050E8002F22F0010240E80026002E20
:10149000F5D184F83E30256320680C3050E8002FE9
:1014A00022F0100240E80023002BF5D12046FFF780
:1014B000D3FEF8BDFFE705062BD5150629D594F810
:1014C0003D002128F5D1A068B0F5805F01D12069E9
:1014D000B0B1206A411C2162216800784860E08C2C
:1014E000401E0004000CE084E3D12068C16821F0B4
:1014F0008001C1602068C16841F04001C160D8E747
:10150000206A0088C0F308004860206A801C2062BE
:10151000E5E74006CDD55006CBD5CA68204622F077
:101520004002CA6084F83D3000F0DAFAC1E70000FA
:101530003D1E000870B5040004D094F83D0000255D
:1015400010B106E0012070BD84F83C50204600F048
:1015500023F8242084F83D002068C16821F400515C
:10156000C160204600F0A0FD2068016921F490418F
:1015700001612068416921F02A0141612068C16848
:1015800041F40051C1602564202084F83D0084F8B6
:101590003E00002070BD00002DE9F04F87B00446EA
:1015A00014216846FEF7F5FEE548DFF89083103811
:1015B0002668DFF88CB3032102220823DFF884E3D6
:1015C000402705154FF000694FF0000C46455ED1ED
:1015D000DBF80080E246664648F40028CBF800803D
:1015E000DBF800C00CF4002CCDF814C0D0F800C01B
:1015F0004CF0010CC0F800C0006800F0010005903C
:101600008DE84600CDE9031369467046FFF778F987
:10161000DFF83883CC494046C8F80010C0E901968D
:10162000C0E90365C8F81460C8F81860C8F81C6001
:10163000C8F82060C8F82460FFF7C0F808B1FEF7CA
:1016400090FFC24EC4F83880BF486036C8F83840B2
:101650003030B760C6E90009C6E903A5C6F814A092
:10166000C6F818A0C6F81CA0C6F820A03046C6F8D8
:1016700024A0FFF7A3F808B1FEF773FF666300220A
:1016800011463420B463FFF797FA34207EE0DFF888
:10169000C08246457ED1DBF80080E246664648F4CB
:1016A0008018CBF80080DBF800C00CF4801CCDF86B
:1016B00014C0D0F800C04CF0040CC0F800C0D0F842
:1016C00000C00CF0040CCDF814C0D0F800C04CF0F1
:1016D000080CC0F800C00068884600F008000590BB
:1016E0004FF48050009001AA02209B4682E84109F5
:1016F00069469848FFF704F90420009001AA0220E7
:1017000082E8410969469448FFF7FAF8DFF83C821D
:101710008D4908F1C00830394046C8F80010C0E9CA
:101720000196C0E90365C8F81460C8F81860C8F8E5
:101730001C60C8F82060C8F82460FFF73FF808B1C3
:10174000FEF70FFF854EC4F838807F48C8F8384050
:101750007830B760C6E90009C6E903A5C6F814A049
:10176000C6F818A0C6F81CA0C6F820A03046C6F8D7
:1017700024A0FFF723F808B1FEF7F3FE666300220A
:1017800011463520B463FFF717FA3520FFF706FA44
:1017900007B000E001E0BDE8F08FDFF8C481DFF8BA
:1017A000A0A146450AF1040A60D1E0466646DAF88F
:1017B00000C04CF0100CCAF800C0DAF8003003F09A
:1017C00010030593036843F001030360006800F011
:1017D000010005904FF4C0608DE845000720CDE979
:1017E000031069467046FFF78BF8DFF870A15D497A
:1017F0000AF1600A5046CAF80010C0E90196C0E933
:101800000365CAF81460CAF81860CAF81C60CAF800
:101810002060CAF82460FEF7D1FF08B1FEF7A1FEF0
:101820004E4EC4F838A04F48C036CAF83840783019
:10183000B760C6E90009C6E90385C6F81480C6F892
:101840001880C6F81C80C6F820803046C6F8248070
:10185000FEF7B4FF08B1FEF784FE6663002211466E
:101860002520B463FFF7A8F925208FE7DFF8F8807B
:1018700046458DD1DAF80080E146664648F02008FA
:10188000CAF80080DAF800C00CF0200CCDF814C0C3
:10189000D0F800C04CF0040CC0F800C0006800F0A4
:1018A00004000590CDE90313C0208DE8450069468A
:1018B0002848FFF725F82B49DFF8B0801839404653
:1018C0004FF0206AC8F80010C0E901A6C0E903651E
:1018D000C8F81460C8F81860C8F81C60C8F8206020
:1018E000C8F82460FEF76AFF08B1FEF73AFE1F4E03
:1018F000C4F838801B486036C8F838406030B7609C
:10190000C6E9000AC6E90395C6F81490C6F818900F
:10191000C6F81C90C6F820903046C6F82490FEF712
:101920004DFF08B1FEF71DFE6663002211464720F9
:10193000B463FFF741F9472028E70000004C00405E
:101940004038024000000240406002405001002048
:101950000050004000080240000C024070020020CD
:101960000010014040640240001401409003002038
:1019700090F83E30202B0ED159B152B190F83C3046
:10198000012B08D0012380F83C300023036300F0D2
:1019900011BC01207047022070477047704700005B
:1019A0002DE9F843044690F83D001F4616460D46C3
:1019B00020284CD1C5B1BEB194F83C00012846D0D6
:1019C000012084F83C004FF00008C4F8408021203A
:1019D00084F83D00FFF782F8A6848146E684A0687B
:1019E000B0F5805F03D004E00120BDE8F8832069F2
:1019F00028B12E465FF0000584F83C800EE00026FA
:101A0000FAE78021204600F01FFCA0B9AEB116F81D
:101A1000010B21684860E08C401EE084E08C4B465E
:101A20004FF0000200970028EBD14FF04001204614
:101A300000F00AFC30B10320D7E735F8020BC0F301
:101A40000800E6E7202084F83D000020CDE70220D2
:101A5000CBE7000070B5044690F83D00202836D151
:101A600091B38AB394F83C00012830D0012084F867
:101A70003C002162A284E28400252564212084F8B0
:101A80003D00636B1348D863636B13481864636B42
:101A90001248D864606B134605652668606B321D7A
:101AA000FEF7F6FE21686FF04000086084F83C50B5
:101AB0002068143050E8001F41F0800140E8001217
:101AC000002AF5D1002070BDFFE70120FBE70220CE
:101AD000F9E70000331F0008751F00084D1E0008BD
:101AE00070477047FEE70000294808B5016841F4D7
:101AF00080010160016801F480010091016841F4F6
:101B0000001101600068002200F4001000901146EE
:101B10000B20FFF751F80B20FFF740F80022114689
:101B20000D20FFF749F80D20FFF738F80022114685
:101B30000F20FFF741F80F20FFF730F80022114681
:101B40002F20FFF739F82F20FFF728F80022114641
:101B50003920FFF731F83920FFF720F8002211462D
:101B60003A20FFF729F83A20FFF718F8002211462B
:101B70004520FFF721F84520FFF710F80022114615
:101B80004620FFF719F8BDE808404620FFF706B8E1
:101B900030380240114808B5016841F08001016009
:101BA000016801F080010091016841F001010160CC
:101BB000016801F001010091016841F00401016038
:101BC000016801F004010091016841F00801016021
:101BD000006800F00800009008BD000030380240A6
:101BE0000C4810B50A4901604FF4E1314160002111
:101BF00081600C22C160C0E904128161C161FFF7FC
:101C000099FC002803D0BDE81040FEF7AABC10BD27
:101C1000004C0040400000200C4810B50A4901600B
:101C20004FF4E1314160002181600C22C160C0E9C4
:101C300004128161C161FFF77DFC002803D0BDE87B
:101C40001040FEF78EBC10BD005000408400002004
:101C50000C4810B50A4901604FF4E13141600021A0
:101C600081600C22C160C0E904128161C161FFF78B
:101C700061FC002803D0BDE81040FEF772BC10BD27
:101C800000100140C80000200C4810B50A4901604E
:101C90004FF4E1314160002181600C22C160C0E954
:101CA00004128161C161FFF745FC002803D0BDE843
:101CB0001040FEF756BC10BD001401400C0100207E
:101CC000FEE7FEE770477047FEF70EBF30B593B0F2
:101CD00034216846FEF75DFB14210DA8FEF759FB81
:101CE00020480025016841F080510160006800F043
:101CF000805012901C48016841F440410160006826
:101D0000022400F44040129001200390102004901F
:101D1000009406940820CDE90750B420CDE90904C9
:101D20000B9468460C94FFF7B7F808B172B6FEE75B
:101D3000FEF774FF08B172B6FEE70DA90F2081E827
:101D400031004FF4A05010904FF4805011900521B5
:101D50000DA8FEF79BFF002801D072B6FEE713B076
:101D600030BD000040380240007000400248016869
:101D700041F470010160704788ED00E038B5134808
:101D8000FFF7A4FA114C1249206888421CD1006860
:101D9000C043C00618D42046FFF75FFA0D4800681C
:101DA0004068C0B2C0F10900C2B220680168406852
:101DB000009009492046FFF74DFE2046BDE8384017
:101DC00009220549FFF7D4BD38BD000040000020BE
:101DD000004C0040500100202500002038B5134879
:101DE000FFF774FA114C1249206888421CD1006830
:101DF000C043C00618D42046FFF72FFA0D480068EC
:101E00004068C0B2C0F10900C2B2206801684068F1
:101E1000009009492046FFF71DFE2046BDE83840E6
:101E200009220549FFF7A4BD38BD00008400002049
:101E300000500040100200202E00002010B5806BE2
:101E40000021C185C184FFF740FA10BD70B5846BD5
:101E50002068406994F83D10C0F3C0100025212986
:101E600004D118B1E584204600F0B0F8206840693C
:101E700094F83E10C0F38010222904D118B1E585F2
:101E8000204600F07CF8206C40F0100020642046D2
:101E9000FFF71BFA70BD10B50146806B0968096831
:101EA000C9052FD40021C18501680C3151E8002FEC
:101EB00022F4807241E80023002BF5D1016814312F
:101EC00051E8002F22F0010241E80023002BF5D158
:101ED0000168143151E8002F22F0400241E800234C
:101EE000002BF5D1202180F83E10016B012909D18A
:101EF00001680C3151E8002F22F0100241E8002364
:101F0000002BF5D1016B012902D0FFF746FD10BD72
:101F1000818DFFF7A1F910BD10B5806B016B012910
:101F200002D0FFF73BFD10BD818D4908FFF794F902
:101F300010BD10B50146806B09680968C90516D443
:101F40000021C1840168143151E8002F22F0800281
:101F500041E80023002BF5D101680C3151E8002F36
:101F600042F0400241E80023002BF5D110BDFFF7FD
:101F7000B7FD10BD10B5806BFFF7B3FD10BD016854
:101F80000C3151E8002F22F4907241E80023002B1D
:101F9000F5D10168143151E8002F22F0010241E827
:101FA0000023002BF5D1016B012909D101680C3107
:101FB00051E8002F22F0100241E80023002BF5D158
:101FC000202180F83E1000210163704701680C3128
:101FD00051E8002F22F0C00241E80023002BF5D188
:101FE000202180F83D10704708B590F83E10222956
:101FF00001D0022008BD82684FF480539A4201D17B
:10200000016921B1816A9A421BD04AB10AE0026893
:10201000816A5268C2F308020A80816A891C08E05A
:10202000026972B10268526802F07F020A70816A26
:10203000491C8162C18D491E0904090CC18503D068
:1020400019E002685268F1E70168CA6822F02002CC
:10205000CA600168CA6822F48072CA6001684A696D
:1020600022F001024A61202180F83E10016B012913
:1020700003D0FFF792FC002008BD00210163016836
:102080000C3151E8002F22F0100241E80023002B10
:10209000F5D101680A68D20602D50A68496800913C
:1020A000818DFFF7D9F8E6E770B50446006801694D
:1020B000E26821F44051114301612169A068E2699D
:1020C00008436169114308432168CA6849F20C63F7
:1020D0009A430243CA6020684169A26921F44071B1
:1020E0001143416131492068884202D03049884219
:1020F00002D1FEF775FE01E0FEF762FEE269002301
:10210000192164253226B2F5004F626828D0A0FB61
:102110000101930F9200FEF7C5F80146B0FBF5F000
:102120006FF01802504301EB800006EB0010B0FB8B
:10213000F5F000F0F002B1FBF5F002EB0012B1FB9C
:10214000F5F06FF01803584301EB800006EB001028
:10215000B0FBF5F000F00F0021681044886070BDFE
:10216000A0FB010192185B41FEF79CF80146B0FB11
:10217000F5F00201B1FBF5F06FF01803584301EBE5
:10218000800006EBC000B0FBF5F000F0F80002EBB9
:102190004002B1FBF5F0584301EB800006EBC000B4
:1021A000B0FBF5F000F00700D6E70000001001409A
:1021B0000014014038B5816282850025134604462B
:1021C0000564222084F83E00A26B1C48D063A26BF9
:1021D0001B481064A26B1B48D064A06B0A460565BF
:1021E0002168A06B091DFEF753FB20680168406859
:1021F000009084F83C50206948B120680C3050E8C9
:10220000001F41F4807140E80012002AF5D12068D7
:10221000143050E8001F41F0010140E80012002A8C
:10222000F5D12068143050E8001F41F0400140E82B
:102230000012002AF5D1002038BD0000971E0008CA
:10224000191F00084D1E00082DE9F0419846174659
:102250000E460446069D27E0681C25D02DB1FEF7EA
:102260003DFCA0EB0800A8421ED920680C3050E8C5
:10227000001F21F4D07140E80012002AF5D1206837
:10228000143050E8001F21F0010140E80012002A3C
:10229000F5D1202084F83D0084F83E00002084F829
:1022A0003C000320BDE8F0812068006836EA0000A9
:1022B00004D00020B842CFD00020F3E70120F9E796
:1022C00038B51348FFF702F8114C124920688842CC
:1022D0001CD10068C043C00618D42046FEF7BDFFDD
:1022E0000D4800684068C0B2C0F10900C2B2206861
:1022F00001684068009009492046FFF7ABFB204683
:10230000BDE8384009220549FFF732BB38BD00005F
:10231000C800002000100140D00200201C00002056
:1023200038B51348FEF7D2FF114C12492068884295
:102330001CD10068C043C00618D42046FEF78DFFAC
:102340000D4800684068C0B2C0F10900C2B2206800
:1023500001684068009009492046FFF77BFB204652
:10236000BDE8384009220549FFF702BB38BD00002F
:102370000C010020001401409003002037000020D1
:10238000FEE70907090E002804DB00F1E02080F8D1
:102390000014704700F00F0000F1E02080F8141DD9
:1023A00070470000FEF7A8FBFFF790FCFFF7F2FB79
:1023B000FFF79AFBFFF74CFCFFF766FCFFF72CFCDE
:1023C000FFF70EFC09480068C16841F01001C160C8
:1023D00042F210730B2206490448FFF7E1FA092282
:1023E00004490248FFF7C4FAFEE70000C8000020D5
:1023F000000000201C0000204FF04070E1EE100AA9
:1024000070470006101600061016000000000000BD
:102410000000010203040607080900000000010291
:102420000304000044240008000000201C000000F9
:1024300000020008602400081C000020940A00002C
:102440001C020008554152543120676F6F64000030
:102450000100000010000000000000000024F40053
:04000005080001C529
:00000001FF
