:020000040800F2
:100000008807002029020008C7110008CB1000084B
:10001000C5110008410500088D130008000000000C
:10002000000000000000000000000000DD120008D9
:100030004305000800000000C9110008DF12000895
:10004000430200084302000843020008430200087C
:10005000430200084302000843020008430200086C
:10006000430200084302000843020008430200085C
:10007000430200084302000843020008430200084C
:10008000430200084302000843020008430200083C
:10009000430200084302000843020008430200082C
:1000A000430200084302000843020008430200081C
:1000B000430200084302000843020008430200080C
:1000C00043020008430200084302000843020008FC
:1000D00043020008430200084302000843020008EC
:1000E00043020008430200084302000843020008DC
:1000F00043020008430200084302000843020008CC
:1001000043020008430200084302000843020008BB
:1001100043020008430200084302000843020008AB
:10012000430200084302000843020008430200089B
:100130004302000800000000000000004302000825
:10014000430200084302000843020008430200087B
:10015000430200084302000843020008430200086B
:10016000430200084302000843020008430200085B
:1001700043020008430200080000000000000000E5
:10018000430200084302000800F002F800F03CF8C7
:100190000AA090E8000C82448344AAF10107DA45E2
:1001A00001D100F031F8AFF2090EBAE80F0013F0F8
:1001B000010F18BFFB1A43F001031847E8160000AF
:1001C00008170000103A24BF78C878C1FAD852073F
:1001D00024BF30C830C144BF04680C6070470000C1
:1001E0000023002400250026103A28BF78C1FBD840
:1001F000520728BF30C148BF0B6070471FB501F0E0
:1002000043FB1FBD10B510BD00F046F91146FFF7C6
:10021000F5FF01F01DF900F064F903B4FFF7F2FFF8
:1002200003BC00F06BF9000009488047094800470B
:10023000FEE7FEE7FEE7FEE7FEE7FEE7FEE7FEE796
:10024000FEE7FEE704480549054A064B70470000F3
:100250007D1300088901000888010020880700201C
:10026000880300208803002053EA020C00F0698014
:100270002DE9F04B4FF00006002B1FBFB3FA83F5BA
:1002800003FA05F424FA05F65E4012BF1643B2FAEB
:1002900082F502FA05F4C5F120051EBF22FA05FC1D
:1002A00044EA0C04203556EA044C4FEA144418BFC3
:1002B000641C4FF000084FF00009904271EB030CF2
:1002C00039D3002919BFB1FA81F701FA07F6B0FA5C
:1002D00080F700FA07F6C7F120071EBF20FA07FCD7
:1002E00046EA0C062037B6FBF4FCA7EB0507103FE7
:1002F00007F01F0BCBF120060CFA0BFB2CFA06F6CD
:1003000044BFB3460026202FA4BF5E464FF0000B2B
:100310005BEA060C08BF4FF0010B19EB0B09ABFBB6
:10032000027C48EB0608C01B06FB02CC0BFB03CC8F
:1003300071EB0C01C1E70B46024641464846BDE859
:10034000F08B13B54FF000004FF00001AFF30080C9
:10035000BDE81C407047032A40F2308010F0030CC7
:1003600000F0158011F8013BBCF1020F624498BF08
:1003700011F801CB00F8013B38BF11F8013BA2F1A5
:10038000040298BF00F801CB38BF00F8013B11F020
:10039000030300F04F80083AC0F0088051F8043B96
:1003A000083A51F804CBA0E80810F5E7121D5CBF2D
:1003B00051F8043B40F8043BAFF30080D20724BF60
:1003C00011F8013B11F801CB48BF11F8012B24BFF4
:1003D00000F8013B00F801CB48BF00F8012B704743
:1003E0004FF0000200B5134694469646203922BFCE
:1003F000A0E80C50A0E80C50B1F12001BFF4F7AF19
:10040000090728BFA0E80C5048BF0CC05DF804EBFA
:10041000890028BF40F8042B08BF704748BF20F868
:10042000022B11F0804F18BF00F8012B7047704766
:100430007047704710B5203AC0F00B80B1E81850F3
:10044000203AA0E81850B1E81850A0E81850BFF4BE
:10045000F5AF5FEA027C24BFB1E81850A0E818505D
:1004600044BF18C918C0BDE810405FEA827C24BFB1
:1004700051F8043B40F8043B08BF7047D20728BF3F
:1004800031F8023B48BF11F8012B28BF20F8023B8E
:1004900048BF00F8012B7047754600F02BF8AE46B8
:1004A00005006946534620F00700854618B020B580
:1004B000FFF7C8FEBDE820404FF000064FF00007F0
:1004C0004FF000084FF0000B21F00701AC46ACE8FC
:1004D000C009ACE8C009ACE8C009ACE8C0098D4669
:1004E000704710B50446AFF300802046BDE81040C9
:1004F000FFF793BE004870472801002001491820EB
:10050000ABBEFEE7260002007047000000B50B49B5
:100510008FB0132281F8200010316846FFF71BFFCF
:100520002322064905A8FFF716FF0DF1140C9CE8DD
:100530000F0001F02BF80FB000BD000002010020F9
:10054000FEE7704772B6FEE770B5044600F010F99A
:100550000546601C02D004480078044400F008F905
:10056000401BA042FAD370BD000000202DE9F84FD7
:10057000DFF8BCA10022012503264FF00F090AF184
:10058000040BAAF1040E00BF0B6805FA02F4234025
:10059000A34270D10F7907F00307012F01D0022F7A
:1005A00016D187684FEA420806FA08FC27EA0C07CA
:1005B000D1F80CC00CFA08FC4CEA070CC0F808C0D3
:1005C0004768A7430C79C4F3001494403C4344604B
:1005D0000C79E443A4070AD0C4684FEA420C06FA37
:1005E0000CF7BC438F6807FA0CF72743C7600C79F8
:1005F00004F00304022C12D1D40800EB840CDCF8C4
:1006000020405707FF0E09FA07F824EA0804D1F83A
:10061000108008FA07F848EA0408CCF8208004683B
:100620004FEA420C06FA0CF7BC430F7907F00307B8
:1006300007FA0CF7274307604C6814F4403F70D06A
:100640003C4C276847F480472760246822F0030762
:1006500004F480440094384C07EB040CDCF80848A0
:1006600097074FEA177809FA08F7BC43334FB842A7
:1006700002D1002724E054E0314FB84201D10127D4
:100680001EE0304FB84201D1022719E02E4FB84288
:1006900001D1032714E02D4FB84201D104270FE008
:1006A0002B4FB84201D105270AE02A4FB84201D1A9
:1006B000062705E0284FB84201D1072700E00827A8
:1006C00007FA08F72743CCF80878DAF800405746CD
:1006D000D1F804C09C435FEACC2C00D51C433C609D
:1006E000DBF800405F46D1F804C09C435FEA8C2CE5
:1006F00000D51C433C60DEF800407746D1F804C0CA
:100700009C435FEA8C3C00D51C433C60084F083F8B
:100710003C68D1F804C09C435FEACC3C00D51C4344
:100720003C60521C102AFFF42FAFBDE8F88F000088
:10073000083C0140443802400030014000000240C3
:100740000004024000080240000C02400010024079
:100750000014024000180240001C024000690840DA
:1007600000D0012070470AB1816170470904FBE79E
:10077000014880687047000000000020024881683E
:100780000278114481607047000000200B4810B5CA
:10079000016841F400710160016841F48061016009
:1007A000016841F480710160032000F061F80F20BE
:1007B00000F006F800F024F8002010BD003C0240D4
:1007C00070B50D4D04464FF47A712878B1FBF0F006
:1007D0000A490968B1FBF0F000F063FC48B9102C3D
:1007E00007D200222146501E00F022F800206C6043
:1007F00070BD012070BD0000000000200C00002032
:100800000A4808B5016841F480410160006800F4BD
:10081000804000900548001F016841F08051016050
:10082000006800F08050009008BD0000443802408D
:10083000F0B40E4B1B680C46C3F30223C3F107054B
:10084000042D00D90425191D072901D2002300E039
:10085000DB1E012606FA05F1491E214099409E4003
:10086000761E16403143F0BC00F091BD0CED00E067
:10087000064900F0070208684FF6FF03184040EAF7
:100880000220034A10430860704700000CED00E0AE
:100890000000FA052DE9F0470E46050065D0DFF8A7
:1008A0001481D8F80000F7B200F00700B04207D278
:1008B00088F80070D8F8000000F00700B04254D16A
:1008C00028683D4C810712D5400703D5206840F4C5
:1008D000E05020602878000703D5206840F460408D
:1008E00020602068A96820F0F00008432060287884
:1008F000C0072DD0304968680839012812D0022875
:1009000013D0032811D00968890700292DDA21683E
:1009100021F0030101432160FFF72AFF814641F2E4
:10092000883A0EE009688903EFE709688901ECE776
:10093000FFF71EFFA0EB0901514502D90320BDE8D6
:10094000F0872068696800F00C00B0EB810FEFD1F0
:10095000D8F80010404601F00701B14207D90770EE
:10096000006800F00700B04201D00120E7E72878D6
:10097000400705D52068E96820F4E050084320606E
:100980002878000706D52068296920F4604040EAED
:10099000C100206000F018F82168084AC1F3031173
:1009A000515CC8400649086006480068FFF708FF28
:1009B0000020C4E7003C02400838024092180008BA
:1009C0000C00002004000020154810B5006810F04D
:1009D0000C02144813D01449042A0FD0082A0ED14F
:1009E0000F4C241F2268236802F03F025B0207D5E8
:1009F0002068C0F38810A0FB010106E0084610BD86
:100A00002168C1F38811A1FB00010023FFF72CFC32
:100A10002168C1F30141491C4900B0FBF1F010BD50
:100A2000083802400024F40040787D012DE9F84F99
:100A300004006ED02078DFF84C93C007A9F10405BC
:100A40004AD009F104000168C1F38101012908D0ED
:100A50000068C0F3810002280AD1D9F800004002E2
:100A600006D52868800337D560680028E1D033E0D8
:100A70006068B0F5803F10D0B0F5A02F286810D086
:100A800020F480302860286820F480202860606886
:100A9000A8B1FFF76DFE06460DE0286840F48030EF
:100AA000F4E740F480202860F7E700BFFFF760FE1E
:100AB000801B642873D828688003F7D50CE0FFF703
:100AC00057FE064605E000BFFFF752FE801B642874
:100AD000F0D828688003F7D42078DFF8AC8280074C
:100AE0004FF0000A3ED5A748001D016811F00C0F19
:100AF00008D00068C0F3810002280BD1D9F80000AB
:100B0000400207D42868800716D5E068012800D184
:100B100012E033E1E068B8B10120C8F80000FFF747
:100B200027FE064605E000BFFFF722FE801B0228D5
:100B3000C0D828688007F7D52868216920F0F80018
:100B400040EAC10028600DE0C8F800A0FFF710FEE1
:100B5000064604E0FFF70CFE801B02281FD8286819
:100B60008007F7D42078000722D5864F874861692F
:100B7000703771B101210160FFF7FAFD064604E00C
:100B8000FFF7F6FD801B022809D838688007F7D5E3
:100B90000EE0C0F800A0FFF7EBFD064605E082E09E
:100BA000FFF7E6FD801B02287DD838688007F7D460
:100BB0002078400768D5DFF8CCB100270BF13C0B5B
:100BC000DBF80000C0000BD4DBF8001041F08051CE
:100BD000CBF80010DBF80000012700F080500090F7
:100BE0006B4E3068C00510D4306840F480703060BF
:100BF000FFF7BEFD009005E0FFF7BAFD0099401A2F
:100C0000022850D83068C005F6D55E4EA0686C3614
:100C100001280FD00528306810D020F00100306086
:100C2000306820F004003060A068B8B1FFF7A0FD84
:100C300000900FE0306840F00100F4E740F004005D
:100C40003060F7E7FFF794FD0099411A41F28830D0
:100C5000814266D830688007F4D50EE0FFF788FD42
:100C6000009007E0FFF784FD0099411A41F28830B7
:100C7000814256D830688007F4D42FB1DBF80010D9
:100C800021F08051CBF80010A069C8B33D49091D7F
:100C90000968C1F3810102294AD00228504607D0D1
:100CA000C8F8600000E03CE0FFF762FD04463BE06E
:100CB0004746C8F86000FFF75BFD064605E000BF49
:100CC000FFF756FD801B02282BD828688001F7D437
:100CD000D4E907010843A16A2E4A490802EB014101
:100CE000626A41EA8211084394F82C1040EA0161DB
:100CF000C9F8001001203866FFF73AFD044606E007
:100D00003EE000BFFFF734FD001B022809D8286829
:100D10008001F7D534E000BFFFF72AFD001B022851
:100D200002D90320BDE8F88F28688001F4D427E0B9
:100D30000128F7D0D9F80000E26900F4800191425F
:100D40001CD1226A00F03F01914217D147F6C071D1
:100D5000626A0140B1EB821F10D1A26A4FF0FF33EB
:100D600000F4403103EB5202B1EB024F06D194F88C
:100D70002C1000F07060B0EB016F01D00120D1E7C2
:100D80000020CFE70438024000004742800E47426F
:100D9000007000400000FFFF70B5040009D0606AD9
:100DA000002540B125616561A56294F8510040B10C
:100DB0000CE0012070BD6068B0F5827FF4D0E56181
:100DC000F2E784F85050204600F044F8022084F8FE
:100DD00051002068016821F040010160A08821894C
:100DE00000F4827001F404410843A18901F4006118
:100DF0000843217C01F002010843217D01F001013B
:100E00000843218B01F400710843217F01F0380170
:100E1000084394F8201001F080010843218D01F46B
:100E20000051084321680860A069042101EA1040CC
:100E300094F8241001F010010843216848602068EC
:100E4000C16921F40061C1616565012084F8510028
:100E5000002070BD10B586B0044614216846FFF727
:100E6000BFFA14492068884221D113480021026842
:100E700042F400420260006800F4004005900E4811
:100E80001038026842F004020260006800F00400BA
:100E900005904FF4E05000900220CDE901010320BD
:100EA00003900620049069460448FFF75FFB06B0F4
:100EB00010BD0000003C00404038024000080240E5
:100EC0002DE9F84F044690F8500000270A9E1D4671
:100ED00092468B464FF0010901280ED0012084F87C
:100EE0005000FFF745FC804694F8510061680128E6
:100EF0000CD0B1F5827F07D102E00220BDE8F88F67
:100F0000A16809B9042801D00227C2E0BBF1000F93
:100F100027D0BAF1000F24D01DB394F85100042853
:100F200002D0052084F8510000206065C4F838A084
:100F3000E587A587C4F830B0E586A586206460649F
:100F400020680168490603D4016841F0400101604E
:100F5000E068B0F5006F606805D0E8B3012D46D0B9
:100F60007FE0012795E008B1012D39D1206B216880
:100F70000088C860206B801C2063E08E401EE086E5
:100F80002EE02068816889070FD5E18E69B1B9F13B
:100F9000010F0AD1216B0988C160206B801C20637E
:100FA000E08E401EE0864FF0000920688168C90786
:100FB0000CD0E18F51B1C068A16B0880A06B801C80
:100FC000A063E08F401EE0874FF00109FFF7D0FBE0
:100FD000A0EB0800B04200E009E001D3701C50D142
:100FE000E08E0028CDD1E08F0028CAD13FE0206BF1
:100FF000216800780873206B401C2063E08E401E3F
:10100000E0862EE02068816889070FD5E18E69B1FE
:10101000B9F1010F0AD1216B09780173206B401CD3
:101020002063E08E401EE0864FF000092068816852
:10103000C9070CD0E18F51B1C068A16B0870A06BDB
:10104000401CA063E08F401EE0874FF00109FFF7CE
:101050008FFBA0EB0800B04202D3701C01D010E05F
:101060007EB1E08E0028CDD1E08F0028CAD1424663
:101070003146204600F0AAF828B1012720206065FB
:1010800007E0032705E0A06818B92068C1688068F8
:101090000090012084F85100002084F85000384668
:1010A0002CE710B5401EB0F1807F01D3012010BDA8
:1010B0004FF0E02460610F21601700F068F9002014
:1010C000A06107202061002010BDFEE7F0B587B0C9
:1010D00014216846FFF784F92548016841F0800132
:1010E0000160016801F080010591016841F0010192
:1010F0000160016801F001010591016841F00401FE
:101100000160016801F004010591016841F00801E6
:101110000160016801F008010591016841F00201D8
:1011200001600068134E00F00200059000220421C7
:101130003046FFF718FB104F002218213846FFF702
:1011400012FB01240420CDE9000402256946304643
:10115000CDE90245FFF70AFA1820CDE900046946F7
:101160003846CDE90245FFF701FA07B0F0BD0000AF
:1011700030380240000C024000040240104810B514
:101180000E4901604FF48271416000218160C160AD
:101190004FF400720161C0E905121022C0E9072175
:1011A000416281620A21C162FFF7F6FD002803D087
:1011B000BDE81040FFF7C6B910BD0000003C00407C
:1011C0003C000020FEE7FEE77047000038B504460B
:1011D0001248134B0068B0FBF3F04FF47A73584396
:1011E00000906068B0F5827F0DD10B46009200221E
:1011F0008021204600F016F870B1606D40F02000AC
:101200006065032038BD009830B1401E0090206812
:101210008068C0430006F6D5002038BD0C000020D1
:1012200000366E012DE9F8431E4691468846044675
:10123000089DFFF79DFA401B351AFFF799FA0746FC
:1012400025480068C0F3CB30684338E0701C37D0C5
:10125000FFF78EFAC01BA84203D215B1009860B305
:101260002CE02068416821F0E00141606068B0F541
:10127000827F0BD1A068B0F5004F02D0B0F5806F2F
:1012800004D12068016821F040010160A06AB0F536
:10129000005F09D12068016821F4005101602068D5
:1012A000016841F400510160012084F851000020E0
:1012B00084F850000320BDE8F8830025401E00900C
:1012C0002068816838EA010004D000214945BDD179
:1012D0000020F0E70121F9E70C0000207047FFF73C
:1012E0004DBA000030B593B030216846FFF778F86A
:1012F00014210CA8FFF774F81E480025016841F07E
:1013000080510160006800F0805011901A48016817
:1013100041F4804101600068022400F48040119093
:1013200001200090000401908001CDE906401920C1
:1013300008904FF4A870CDE9090404200B9068468A
:10134000FFF774FB08B172B6FEE70CA90F2081E825
:1013500031004FF4A0500F904FF4805010900521B1
:101360000CA8FFF797FA002801D072B6FEE713B079
:1013700030BD000040380240007000400248016863
:1013800041F470010160704788ED00E0FEE7090755
:10139000090E002804DB00F1E02080F800147047FB
:1013A00000F00F0000F1E02080F8141D70470000ED
:1013B00004490348D1F8011001602020FFF7A6B8C6
:1013C000020100201B00002003E00721491EC9B2D2
:1013D000FCD2401EF9D2704710B510211948FFF712
:1013E000BDF901282DD000F049F8174A174C78B103
:1013F0000020107003E000BF24F81100491C0729E9
:10140000FADB124B0E3301E05854491C1A29FBDB5E
:101410001078002815D00D48203800F08FF80028EB
:101420000FD00A482038807B7B280AD1074900204A
:10143000B1F1200131F8102024F81020401C0728B9
:10144000F8DB10BD0004024010000020B4000020B2
:10145000FFF79CF9FFF746FFFFF738FEFFF78EFE18
:1014600000F048F95FF06400FFF76EF8FFF7B4FF93
:1014700000F04AF9FFF79CFF0120F5E71CB50FA12A
:101480000522D1E90001CDE900016946302000F0D4
:10149000E3F805226946102000F014F800206946A0
:1014A0000A5CA52A03D1401CC0B20528F8D3052840
:1014B00001D001201CBD00201CBD0000A5A5A5A5D4
:1014C000A50000002DE9F041DFF83C8015460F46ED
:1014D0000446002204214046FFF745F9204600F06B
:1014E000F9F80646002405E0FF2000F0F3F838552F
:1014F000641CE4B2AC42F7D3012204214046FFF75A
:1015000032F93046BDE8F081000C024070B50A4D5A
:101510000446002204212846FFF725F9204600F062
:10152000D9F8FF2000F0D6F804460122042128460D
:10153000FFF719F9204670BD000C024070B5064651
:1015400000240720FFF7E2FF05460146272000F0B0
:10155000A7F8680615D56020FFF7D8FF04462128B4
:1015600005D2024631466120FFF7ACFF00E00024BF
:10157000FF21E22000F094F80349C5F3420081F80E
:101580002100204670BD0000020100200FB400229F
:1015900010B50D4C08212046FFF7E5F8FF21E120AA
:1015A00000F07EF89DF829009DF8282040F0A80062
:1015B00002A900F051F8012208212046FFF7D3F8D4
:1015C00010BC5DF814FB00000004024010B5204C74
:1015D000002208212046FFF7C6F80321232000F04F
:1015E0005FF805221B492A2000F036F8012121204E
:1015F00000F056F80121222000F052F81A21242090
:1016000000F04EF80121252000F04AF8072126209D
:1016100000F046F80F21202000F042F8FF21E120E1
:1016200000F03EF8FF21E22000F03AF801213C20D2
:1016300000F036F806213D2000F032F801220821A2
:101640002046FFF790F8BDE810408220FFF7BCBEAF
:1016500000040240110000202DE9F041DFF83C8039
:1016600015460F460446002204214046FFF77BF84A
:10167000204600F02FF80646002404E0385D00F014
:1016800029F8641CE4B2AC42F8D30122042140469C
:10169000FFF769F83046BDE8F0810000000C024019
:1016A00070B50B4D0E460446002204212846FFF774
:1016B0005AF8204600F00EF80446304600F00AF8CA
:1016C000012204212846FFF74EF8204670BD000095
:1016D000000C024001B582B064200090012301AAF1
:1016E00002A90348FFF7ECFB9DF804000EBD0000C3
:1016F0003C0000202DE91040FFF7C0FE0028FBD180
:10170000BDE81040FFF762BF564B10B5198803F1D2
:101710000E0001F001020270C1F340024270C1F3F9
:1017200080028270C1F3C002C270C1F30012027164
:10173000C1F340124271C1F380128271C1F3C01231
:10174000C2719A7802F001040472C2F34004447238
:10175000C2F380048472C2F3C004C472C2F30014E2
:101760000473C2F340144473C2F380148473C2F34D
:10177000C012C273C1F380220274C1F3C02242744A
:10178000C1F300328274C1F34032C274C1F38032BB
:101790000275C1F3C03242751A7BC2F3C003837570
:1017A000C2F38003C375C2F34003037602F0010263
:1017B0004276C1F300228276C1F34021C176014610
:1017C0001C221C30FEF7C7FD012000F04DF8254A11
:1017D00000232A3219304FF4BE7432280AD901206E
:1017E00000F042F8BE30A04204D8012000F03CF8DE
:1017F000D08300E0D383002000F036F8193032287F
:101800000AD9002000F030F8BE30A04204D80020F1
:1018100000F02AF8908300E09383022000F024F87F
:10182000193032280AD9022000F01EF8BE30A0423A
:1018300004D8022000F018F8108400E0138403207C
:1018400000F012F8193032280AD9032000F00CF801
:10185000BE30A04204D8032000F006F8508410BD2A
:10186000538410BDB400002001460648012900EB56
:101870004100B0F9040001D0002901D1404200B27A
:1018800070470000B40000204FF04070E1EE100AF5
:10189000704700000000000000000102030406077A
:1018A00008090000C4180008000000203C000000E7
:1018B000C4010008001900083C0000204C0700008B
:1018C000E00100080100000010000000000000001E
:1018D0000024F4000120222C010C20222C01010103
:1018E00001010100000000000000000000000000F5
:1018F00000000000000000000000000000000000E8
:040000050800018965
:00000001FF
