:020000040800F2
:10000000700B0020A5020008751D0008891C00085F
:10001000711D00089B04000819230008000000005F
:100020000000000000000000000000003D22000869
:100030007D05000800000000791D00083F2200082F
:10004000BF020008BF020008BF020008BF0200088C
:10005000BF020008BF020008BF020008BF0200087C
:10006000BF020008BF020008BF020008BF0200086C
:10007000BF020008BF020008BF020008BF0200085C
:10008000BF020008BF020008BF020008BF0200084C
:10009000A1040008BF020008B1040008BF02000864
:1000A000BF020008BF020008BF020008BF0200082C
:1000B000BF020008BF020008BF020008BF0200081C
:1000C000BF020008BF020008BF020008BF0200080C
:1000D000BF020008BF020008BF020008BF020008FC
:1000E000BF020008BF020008BF020008BF020008EC
:1000F000BF020008BF020008BF020008BF020008DC
:10010000BF020008BF020008BF020008BF020008CB
:10011000BF020008BF020008BF020008BF020008BB
:10012000BF020008BF020008BF020008BF020008AB
:10013000BF0200080000000000000000BF0200082D
:10014000BF020008C1040008D1040008BF02000873
:10015000BF020008BF020008BF020008BF0200087B
:10016000BF020008BF020008BF020008BF0200086B
:10017000BF020008BF020008BF0200080000000024
:1001800000000000BF0200080000000000000000A6
:10019000BF0200080000000000000000BF020008CD
:1001A000000000000000000000000000BF02000886
:1001B000BF020008BF020008BF020008BF0200081B
:1001C000BF02000800F002F800F05CF80AA090E816
:1001D000000C82448344AAF10107DA4501D100F002
:1001E00051F8AFF2090EBAE80F0013F0010F18BF73
:1001F000FB1A43F00103184758240000782400003C
:100200000A444FF0000C10F8013B13F0070408BF3C
:1002100010F8014B1D1108BF10F8015B641E05D0DA
:1002200010F8016B641E01F8016BF9D113F0080F8F
:100230001EBF10F8014BAD1C0C1B09D16D1E58BF21
:1002400001F801CBFAD505E014F8016B01F8016B58
:100250006D1EF9D59142D6D37047000000230024CB
:1002600000250026103A28BF78C1FBD8520728BFC6
:1002700030C148BF0B6070471FB502F0D8F91FBDF1
:1002800010B510BD00F0CFF81146FFF7F5FF02F0F2
:1002900061F800F0EDF803B4FFF7F2FF03BC00F0E3
:1002A000F5F800000948804709480047FEE7FEE7E7
:1002B000FEE7FEE7FEE7FEE7FEE7FEE7FEE7FEE716
:1002C00004480549054A064B70470000052300080D
:1002D000C501000870050020700B00207007002089
:1002E0007007002053EA020C00F069802DE9F04B02
:1002F0004FF00006002B1FBFB3FA83F503FA05F495
:1003000024FA05F65E4012BF1643B2FA82F502FAED
:1003100005F4C5F120051EBF22FA05FC44EA0C04D1
:10032000203556EA044C4FEA144418BF641C4FF0C1
:1003300000084FF00009904271EB030C39D30029FB
:1003400019BFB1FA81F701FA07F6B0FA80F700FA9F
:1003500007F6C7F120071EBF20FA07FC46EA0C0685
:100360002037B6FBF4FCA7EB0507103F07F01F0B87
:10037000CBF120060CFA0BFB2CFA06F644BFB34671
:100380000026202FA4BF5E464FF0000B5BEA060C50
:1003900008BF4FF0010B19EB0B09ABFB027C48EBDC
:1003A0000608C01B06FB02CC0BFB03CC71EB0C0157
:1003B000C1E70B46024641464846BDE8F08B13B5FF
:1003C0004FF000004FF00001AFF30080BDE81C408B
:1003D00070474FF0000200B5134694469646203908
:1003E00022BFA0E80C50A0E80C50B1F12001BFF4EE
:1003F000F7AF090728BFA0E80C5048BF0CC05DF854
:1004000004EB890028BF40F8042B08BF704748BFA1
:1004100020F8022B11F0804F18BF00F8012B704715
:10042000704770477047754600F02CF8AE460500DF
:100430006946534620F00700854618B020B5FFF7FF
:100440003FFFBDE820404FF000064FF000074FF09F
:1004500000084FF0000B21F00701AC46ACE8C009E2
:10046000ACE8C009ACE8C009ACE8C0098D467047EB
:1004700010B50446AFF300802046BDE81040FFF7FA
:100480000ABF0000004870470C05002001491820F1
:10049000ABBEFEE726000200704700BFFEE700008B
:1004A00010B5024800F0C5FA10BD00002404002079
:1004B00010B5024800F0BDFA10BD00002404002071
:1004C00010B5024800F0B5FA10BD00004C04002041
:1004D00010B5024800F0ADFA10BD00004C04002039
:1004E00030B58BB0054623492868096888421AD17F
:1004F00000200690079001200890002001900290B3
:10050000039004900590012009900A9001A92846C3
:1005100000F024F9284600F07CFD0221284600F076
:100520005DF8044620E014492868096888421BD118
:100530000F200690002007900120089000200190D5
:100540000290039004900120059009900F200A90DA
:1005500001A9284600F002F9284600F05AFD1021B2
:10056000284600F03BF804460CB100F008F80BB048
:1005700030BD0000240400204C040020704772B6F7
:1005800000BFFEE710B52DED028BB0EE408AF0EE15
:10059000608A9FED100B53EC102B51EC180B01F0FF
:1005A0009FFF00D20EE09FED0B0B53EC102B51EC94
:1005B000180B01F005FF05D851EC180B01F0E8FE0F
:1005C00041EC180BB0EE480AF0EE680ABDEC028B65
:1005D00010BD0000000000000000000010B5024641
:1005E00092F82030012B01D0022B06D1106840690F
:1005F000084314686061002010BD506A40F48020F8
:1006000050620120F8E7F0B504460D461E4694F806
:10061000207020688368A86800B900E000BF012F3F
:1006200001D0022F7CD103F0806030B903F000606C
:1006300018B903F08050002873D0C3F30161022978
:1006400005D9606A40F4000060620120F0BD01201D
:1006500088403060A86860B9B5F800C0E86840EA32
:100660004C5C206800F5C07000EB0110C0F800C0C1
:100670000FE0D5E901C040EACC00D5F80CC040EA53
:100680000C00D4F800C00CF5C07C0CEB011CCCF8BD
:100690000000D5F810C0206800F5C07000EB011014
:1006A000C0F804C0287D01280ED1206800F5C07074
:1006B00000EB0110406840F4807C206800F5C070B9
:1006C00000EB0110C0F804C0D079000692F806C013
:1006D00040EA0C4092F805C040EA0C2C10794CEA34
:1006E000000C206800F5C07000EB0110C0F80CC0D1
:1006F000D078000692F802C040EA0C4092F801C09F
:1007000040EA0C2092F800C040EA0C00D4F800C087
:100710000CF5C07C0CEB011CCCF80800206801E053
:1007200016E00FE000F5C07000EB0110006840F02B
:10073000010C206800F5C07000EB0110C0F800C08B
:10074000002083E7606A40F40010606201207DE7CA
:10075000606A40F480206062012077E7F0B50446CB
:100760000A46216894F82050012D01D0022D7ED137
:10077000424901F50071086840F00100086008680E
:1007800020F47C5008600868566A40EA0620086039
:10079000107D00F01F06012000FA06F3C869984397
:1007A000C861A1F50071D069C8B9D1F80C029843AD
:1007B000C1F80C02908880B2968940EA064601F59D
:1007C0001070576940F83760108880B2168940EA87
:1007D000064601F51070576900EBC7004660D06906
:1007E000012819D1D1F80C021843C1F80C029088E5
:1007F00080B2168840EA064601F51070576940F845
:100800003760908980B2168940EA064601F510707B
:10081000576900EBC7004660906928B9D1F8040217
:100820009843C1F8040204E0D1F804021843C1F867
:100830000402106928B9D1F814029843C1F81402CF
:1008400004E0D1F814021843C1F81402106A012818
:1008500004D1D1F81C021843C1F81C02D1F80002DF
:1008600020F00100C1F800020020F0BDFFE7606A3F
:1008700040F4802060620120F7E70000006400403F
:10088000704770B5044694F82050012D01D0022D18
:100890007DD151B92068C06800F0030080B9606A5A
:1008A00040F400106062012070BD2068006900F013
:1008B000030028B9606A40F4001060620120F3E789
:1008C000206800F5D87000EB0110006800F004000B
:1008D0009060906840B9206800F5D87000EB011076
:1008E0000068400D106007E0206800F5D87000EB4C
:1008F00001100068C0085060206800F5D87000EB57
:100900000110006800F00200D060206800F5D87087
:1009100000EB0110406800F00F001061206800F546
:10092000D87000EB0110406800F47F40000A90612D
:10093000206800F5D87000EB01104068000C506191
:10094000206800F5D87000EB0110806818702068EE
:1009500000F5D87000EB0110806800F47F40000AB9
:100960005870206800F5D87000EB0110806800F422
:100970007F00000C9870206800F5D87000EB011023
:100980008068000ED870206800F5D87000E02FE075
:1009900000EB0110C0681871206800F5D87000EBFA
:1009A0000110C06800F47F40000A5871206800F50B
:1009B000D87000EB0110C06800F47F00000C987143
:1009C000206800F5D87000EB0110C068000ED871E7
:1009D00031B92068C06840F020002668F06005E06A
:1009E0002068006940F020002668306100205BE745
:1009F000606A40F480206062012055E701460020D3
:100A000091F82020012A01D0022A11D10B689B689D
:100A100003F0806303B1401C0B689B6803F0006324
:100A200003B1401C0B689B6803F0805303B1401C6A
:100A300070472DE9F05F044600252068466920686C
:100A4000D0F80490206887682068D0F80CA020684F
:100A5000D0F810B02068D0F8188006F00100002807
:100A600055D007F00100C0B101202168886007F06F
:100A7000020018B1204600F0FCFA0EE007F0040076
:100A800010B145F4006508E007F0080010B145F426
:100A9000805502E0204600F0EBFA07F48070C8B100
:100AA0004FF480702168886007F4007018B1204608
:100AB00000F0E1FA0EE007F4806010B145F4005553
:100AC00008E007F4006010B145F4804502E02046DC
:100AD00000F0D0FA07F48030C8B14FF480302168BC
:100AE000886007F4003018B1204600F0C6FA0EE026
:100AF00007F4802010B145F4004508E007F4002019
:100B000010B145F4803502E0204600F0B5FA06F059
:100B1000080038B10AF0100020B145F4007510202B
:100B20002168C86006F0040040B10AF0080028B14E
:100B300008202168C860204600F01EFA06F0020076
:100B400038B12068C06800F0030010B1204600F002
:100B500015FA06F0400038B10BF0100020B145F452
:100B6000806510202168086106F0200040B10BF07C
:100B7000080028B1082021680861204600F022FA08
:100B800006F0100038B12068006900F0030010B1D1
:100B9000204600F019FA06F4003040B109F01000C8
:100BA00028B1102021684860204600F031FA06F490
:100BB000803040B109F0080028B108202168486061
:100BC000204600F05BFA06F4004088B309F0040008
:100BD00078B306F4807020B108F0010008B145F048
:100BE000010506F4007020B108F0020008B145F0DC
:100BF000020506F4806020B108F0040008B145F059
:100C0000040506F40060A0B108F0700088B108F097
:100C10007000402817D006DC10280BD020280CD0FC
:100C2000302819D10CE0502810D0602814D110E0E1
:100C30001DE019E045F008050FE045F010050CE057
:100C400045F0200509E045F0400506E045F0800547
:100C500003E045F4807500E000BF00BF20688069B4
:100C600020F07000216888610420216848602DB15F
:100C7000606A284360622046FFF702FEBDE8F09FED
:100C800070B504460CB9012070BD94F8200010B96D
:100C9000204600F0AFF82068006840F001002168AD
:100CA000086000F0F3FA05460DE000F0EFFA401B93
:100CB0000A2808D9606A40F400306062052084F890
:100CC00020000120E0E72068406800F001000028D3
:100CD000EBD02068006820F002002168086000F076
:100CE000D5FA05460DE000F0D1FA401B0A2808D9D4
:100CF000606A40F400306062052084F82000012022
:100D0000C2E72068406800F002000028EBD1207E96
:100D1000012806D12068006840F080002168086042
:100D200005E02068006820F0800021680860607E8F
:100D3000012806D12068006840F040002168086062
:100D400005E02068006820F0400021680860A07E6F
:100D5000012806D12068006840F020002168086062
:100D600005E02068006820F0200021680860E07E2F
:100D7000012806D12068006820F010002168086072
:100D800005E02068006840F0100021680860207FBE
:100D9000012806D12068006840F00800216808603A
:100DA00005E02068006820F0080021680860607F86
:100DB000012806D12068006840F00400216808601E
:100DC00005E02068006820F0040021680860D4E98C
:100DD0000201084321690843616908436168491EAB
:100DE00008432168C86100206062012084F8200067
:100DF000002049E710B586B00446142101A8FFF78A
:100E0000E8FA5749206888424AD156480068401C91
:100E1000544908600846006801280FD100BF00202F
:100E200000905148006840F000704F490860084643
:100E3000006800F00070009000BF00BF00BF0020FD
:100E4000009049481038006840F0010046491039C8
:100E500008600846006800F00100009000BF00BF75
:100E60004FF4C05001900220029000200390032014
:100E700004900920059001A93C4800F015F90022D2
:100E80001146142000F08CFA142000F079FA0022A8
:100E90001146162000F084FA162000F071FA5DE089
:100EA00033492068884259D100BF002000902E4865
:100EB000006840F080602C4908600846006800F037
:100EC0008060009000BF00BF26480068401C254994
:100ED00008600846006801280FD100BF002000907C
:100EE0002148006840F000701F490860084600680B
:100EF00000F00070009000BF00BF00BF0020009015
:100F000019481038006840F002001749103908608D
:100F10000846006800F00200009000BF00BF4FF4D8
:100F20004050019002200290002003900320049082
:100F30000920059001A90F4800F0B6F800221146DB
:100F4000412000F02DFA412000F01AFA002211464B
:100F5000422000F025FA422000F012FA06B010BD3F
:100F600000640040000000204038024000000240C1
:100F700000680040000402407047000010B58AB0CD
:100F800004460F4920680968884217D10020019063
:100F9000029001AB03AA00212046FFF772FC0598DE
:100FA00058B90398B0F5007F07D90398B0F5027FD0
:100FB00003D801A9039800F011FF00BF0AB010BDCB
:100FC000240400207047000010B58AB004460F4981
:100FD00020680968884217D100200190029001AB77
:100FE00003AA01212046FFF74CFC059858B9039845
:100FF000B0F5007F07D90398B0F5027F03D801A9A7
:10100000039800F0EBFE00BF0AB010BD4C040020B6
:10101000704770B5044694F82000012822D10220C0
:1010200084F820002068006820F001002168086032
:1010300000F02CF905460DE000F028F9401B0A28C5
:1010400008D9606A40F400306062052084F820000E
:10105000012070BD2068406800F001000028EBD13D
:101060006062F6E7606A40F4002060620120F0E709
:10107000704770477047704770477047704700006F
:1010800070B5044600F002F906462546681C10B10A
:1010900004480078054400BF00F0F8F8801BA8421F
:1010A000FAD370BD0C000020F8B502460B460025AF
:1010B000002400200021D1E0012606FA01F51E6877
:1010C00006EA0504AC4274D11E7906F00306012E2F
:1010D00004D01E7906F00306022E13D190684F004B
:1010E0000326BE40B0434F00DE68BE4030439060F0
:1010F000506801268E40B0431E79C6F300168E401C
:10110000304350601E7906F00306032E09D0D068E4
:101110004F000326BE40B0434F009E68BE403043A0
:10112000D0601E7906F00306022E13D1CF0802F11B
:10113000200656F827004E07F70E0F26BE40B04394
:101140004F07FF0E1E69BE403043CF0802F1200654
:1011500046F8270010684F000326BE40B0431E79B2
:1011600006F003064F00BE40304310605E6806F490
:101170004036002E71D000BF00260096394E3668EA
:1011800046F48046374F3E603E46366806F4804659
:10119000009600BF00BF344E8F0856F827008E0718
:1011A000370F0F26BE40B043304EB24202D1002668
:1011B0001FE052E02E4EB24201D1012619E02D4E21
:1011C000B24201D1022614E02B4EB24201D10326D5
:1011D0000FE02A4EB24201D104260AE0284EB24264
:1011E00001D1052605E0274EB24201D1062600E0D6
:1011F00007268F073F0FBE4030431B4E8F0846F82F
:101200002700214E3068A0435E6806F4801606B1C0
:1012100020431D4E3060361D3068A0435E6806F4E2
:10122000001606B12043184E361D3060164E361F8C
:101230003068A0435E6806F4003606B12043124EC3
:10124000361F3060361F3068A0435E6806F4803673
:1012500006B120430C4E083E3060491C1029FFF4B3
:101260002BAFF8BD4438024008380140000002406E
:101270000004024000080240000C0240001002403E
:101280000014024000180240083C01400148006878
:1012900070470000040000200348006803490978F3
:1012A0000844014908607047040000200C00002039
:1012B00010B50D48006840F400700B4908600846FE
:1012C000006840F4806008600846006840F4807060
:1012D0000860032000F0A2F80F2000F007F800F0EB
:1012E0002BF8002010BD0000003C024070B5044601
:1012F0000E4800784FF47A71B1FBF0F00C490968A0
:10130000B1FBF0F5284600F0A5FC08B1012070BD46
:10131000102C07D200222146501E00F041F805484B
:10132000046001E00120F2E70020F0E70C0000205B
:10133000100000200800002008B500BF0020009029
:101340000E48006840F480400C4908600846006878
:1013500000F48040009000BF00BF00BF002000905C
:10136000081F006840F08050091F086008460068A8
:1013700000F08050009000BF00BF08BD443802401C
:1013800001460846002809DB00F01F0301229A40AD
:1013900043099B0003F1E023C3F8002100BF70471D
:1013A0002DE9F05F80460D461646002700F0B6FF97
:1013B000074639462A46334601F00700C0F1070ABE
:1013C000BAF1040F02D94FF0040A01E0C0F1070A94
:1013D000D14600F1040ABAF1070F02D24FF0000A19
:1013E00001E0A0F1030AD4464FF0010A0AFA09FA13
:1013F000AAF1010A0AEA020A0AFA0CFA4FF0010BF2
:101400000BFA0CFBABF1010B0BEA030B4AEA0B04E2
:101410002146404600F08AFFBDE8F09F00BF00F083
:101420000702064B19684FF6FF031940044B0B43A4
:1014300043EA0221014B196000BF70470CED00E048
:101440000000FA0538B5002400BF002000901D48B8
:10145000006840F080501B4908600846006800F0B2
:101460008050009000BF00BF012017490864FFF7BB
:101470000DFF044607E0FFF709FF001BB0F57A7F78
:1014800001D9032038BD1148406800F48030B0F520
:10149000803FF0D101200C494864FFF7F7FE044675
:1014A00007E0FFF7F3FE001BB0F57A7F01D90320B8
:1014B000E8E70648406800F40030B0F5003FF0D19E
:1014C0000020DFE74038024000000E42007000407C
:1014D00070B504460D460CB9012070BD584800682F
:1014E00000F00F00A84209D255490D700846006867
:1014F00000F00F00A84201D00120EEE7207800F0B4
:10150000020002281DD1207800F00400042805D133
:101510004C48006840F4E0504A490860207800F0E8
:101520000800082805D14748006840F46040454954
:1015300008604448006820F0F000A1680843414971
:101540000860207800F00100A8B36068012807D186
:101550003C4808380068C0F34040B8B90120BCE7F7
:101560006068022802D06068032807D1354808382F
:101570000068C0F3406048B90120AEE73148083840
:101580000068C0F3400008B90120A6E72D480068B4
:1015900020F00300616808432A490860FFF776FEDF
:1015A000064609E0FFF772FE801B41F2883188424F
:1015B00002D9032091E707E02248006800F00C0000
:1015C0006168B0EB810FEDD11D48006800F00F009D
:1015D000A84209D91A490D700846006800F00F00AA
:1015E000A84201D0012078E7207800F00400042808
:1015F00007D11448006820F4E050E168084311491D
:101600000860207800F00800082808D10D4800681C
:1016100020F46040216940EAC1000A49086000F0F6
:1016200019F808490968C1F30311074A515CC84019
:101630000649086006480068FFF758FE00204CE79E
:10164000003C024008380240382600081000002004
:10165000080000202DE9F047002400250026A146BF
:10166000A2463F48006800F00C0030B1042807D0C3
:10167000082808D00C286BD138E0DFF8E8A06AE031
:10168000DFF8E4A067E03648001F006800F03F0480
:101690003348001F006800F4800078B132483049B8
:1016A000091F0968C1F38811A0FB01700146224699
:1016B00000233846FEF716FE05460DE02948284966
:1016C000091F0968C1F38811A0FB0171224600239C
:1016D0003846FEF707FE05462148001F0068C0F3A4
:1016E0000140401C4600B5FBF6FA34E01C48001FE0
:1016F000006800F03F041A48001F006800F48000F2
:1017000078B119481649091F0968C1F38811A0FB6F
:1017100001700146224600233846FEF7E3FD0546E8
:101720000EE010480E49091F0968C1F38811A0FB9B
:1017300001700146224600233846FEF7D3FD0546D8
:101740000748001F0068C0F30279B5FBF9FA02E010
:10175000DFF810A000BF00BF5046BDE8F0870000D2
:10176000083802400024F40040787D01F8B50446B2
:101770000CB90120F8BD207800F0010000286FD0DE
:10178000FE48006800F00C0004281BD0FB480068ED
:1017900000F00C00082807D1F848001F006800F48A
:1017A0008000B0F5800F0DD0F448006800F00C0008
:1017B0000C2813D1F148001F006800F48000B0F538
:1017C000800F0BD1ED4808380068C0F34040002876
:1017D00059D06068002856D10120CBE700BF60686F
:1017E000B0F5803F08D1E5480838006840F4803003
:1017F000E249083908601EE06068B0F5A02F0DD1FD
:10180000DE480838006840F48020DC490839086068
:101810000846006840F4803008600CE0D74808387B
:10182000006820F48030D54908390860084600680F
:1018300020F48020086000BF606890B1FFF726FDAB
:10184000054606E0FFF722FD401B642801D903206E
:1018500090E7CA4808380068C0F340400028F1D03B
:1018600011E0FFF713FD054606E0FFF70FFD401BF3
:10187000642801D903207DE7C04808380068C0F318
:1018800040400028F1D1207800F0020002286BD1FE
:10189000BA48006800F00C00B8B1B848006800F021
:1018A0000C00082805D1B548001F006800F480002E
:1018B00058B1B248006800F00C000C281CD1AF48A9
:1018C000001F006800F48000B0B9AC480838006818
:1018D000C0F3400020B1E068012801D0012049E7B1
:1018E000A6480838006820F0F800216940EAC100E5
:1018F000A2490839086037E0E06800B30120A04938
:101900000860FFF7C3FC054606E0FFF7BFFC401B7D
:10191000022801D903202DE7984808380068C0F351
:1019200040000028F1D095480838006820F0F80001
:10193000216940EAC10091490839086014E000209B
:101940008F490860FFF7A2FC054606E0FFF79EFC02
:10195000401B022801D903200CE78848083800689A
:10196000C0F340000028F1D1207800F008000828DA
:101970002CD16069A8B1012082490860FFF786FC7C
:10198000054606E0FFF782FC401B022801D9032030
:10199000F0E67A486C300068C0F340000028F1D0CF
:1019A00014E0002077490860FFF770FC054606E068
:1019B000FFF76CFC401B022801D90320DAE66F48D0
:1019C0006C300068C0F340000028F1D1207800F0AE
:1019D0000400042870D1002768483830006800F0FF
:1019E000805090B900BF00200090644838300068F3
:1019F00040F080506149383108600846006800F0C6
:101A00008050009000BF00BF01275F48006800F4CD
:101A10008070B0B95C48006840F480705A49086032
:101A2000FFF734FC054606E0FFF730FC401B0228B8
:101A300001D903209EE65448006800F48070002815
:101A4000F2D000BFA068012808D14C486830006877
:101A500040F001004949683108601DE0A068052890
:101A60000DD146486830006840F0040043496831B1
:101A700008600846006840F0010008600CE03F483C
:101A80006830006820F001003C4968310860084671
:101A9000006820F00400086000BFA068A8B1FFF74C
:101AA000F5FB054609E0FFF7F1FB401B41F28831E9
:101AB000884202D903205DE626E03048683000689D
:101AC000C0F340000028EED013E0FFF7DFFB05462F
:101AD00008E0FFF7DBFB401B41F28831884201D967
:101AE000032047E6254868300068C0F3400000281E
:101AF000EFD1012F07D121483830006820F0805005
:101B00001E493831086000BFA069002851D01B4829
:101B1000006800F00C00082861D0A069022849D1B3
:101B2000002017490866FFF7B1FB054606E0FFF7FE
:101B3000ADFB401B022801D903201BE60F480838E3
:101B40000068C0F340600028F1D1D4E907010843E0
:101B5000616A40EA81110122A06AC2EB500041EAA9
:101B600000412C20005D41EA00613020005D41EA27
:101B700000700249091F0860012007E00838024090
:101B800000004742800E4742007000402F4908661F
:101B9000FFF77CFB054606E0FFF778FB401B0228B9
:101BA00001D90320E6E52A480068C0F34060002818
:101BB000F2D048E0002025490866FFF767FB05469C
:101BC00006E0FFF763FB401B022801D90320D1E5A3
:101BD0001F480068C0F340600028F2D133E0A069DC
:101BE000012800D1C6E51A48001D0668A069012831
:101BF00027D006F48001E069814222D106F03F013E
:101C0000206A81421DD147F6C0703040616AB0EB56
:101C1000811F16D106F440310122A06AC2EB5000A8
:101C2000B1EB004F0DD106F070612C20005DB1EBDF
:101C3000006F06D106F0E0413020005DB1EB007F7F
:101C400001D0012096E5002094E500000000474205
:101C50000038024070B504462546681EB0F1807F0A
:101C600001D301200FE0681E4FF0E02148610F21F1
:101C70004FF0FF3000F05AFB00204FF0E021886168
:101C800007200861002070BD00BFFEE710B50D48B9
:101C90000D4908600920486000210B488160C1603F
:101CA0004FF48031016109014161002101764176E3
:101CB0008176C17601774177FEF7E2FF08B1FEF742
:101CC0005EFC10BD006400402404002010B50D48E7
:101CD0000D4908600920486000210B488160C160FF
:101CE0004FF48031016109014161002101764176A3
:101CF0008176C17601774177FEF7C2FF08B1FEF722
:101D00003EFC10BD006800404C04002008B500BF38
:101D1000002000901548006840F0800013490860DA
:101D20000846006800F08000009000BF00BF00BFC0
:101D3000002000900846006840F002000860084655
:101D4000006800F00200009000BF00BF00BF00204C
:101D500000900846006840F00100086008460068EE
:101D600000F00100009000BF00BF08BD3038024005
:101D700000BFFEE700BFFEE770472DE9F04387B0E4
:101D800007460C4615461E464FF001084FF0000965
:101D9000002003900490019505963846FEF72EFE2C
:101DA00000F0FF0904E03846FEF728FE00F0FF09C6
:101DB000B9F1000FF7D00220FFF762F901232246A4
:101DC00001A93846FEF71FFC8046B8F1000F03D08A
:101DD000022007B0BDE8F0830020FAE770B50546A1
:101DE0000E46012413E004F50070A8420ED1601ED7
:101DF000C0EBC0000849084431680160B1888180A7
:101E0000B1798171E0B200F039F870BD641C092C21
:101E1000E9DB00BFF9E700007404002010B50146BB
:101E200000204A1EC2EBC202134B1A4492780123CF
:101E3000B3EBE21F11D14A1EC2EBC2020E4B1A4491
:101E4000D3784A1EC2EBC2020B4C2244927803EBB9
:101E50000222A2F57F40FF380DE04A1EC2EBC2020B
:101E6000054B1A44D3784A1EC2EBC202024C2244EC
:101E7000927803EB022010BD7404002010B588B0E6
:101E80000146481EC0EBC0021F4B1A445278C0EBFB
:101E9000C0031D4CE35C02EB03224DF820205DF8EB
:101EA00020201A4B53F82030D21AB2F5805F09DB9C
:101EB000174A52F82020A2F5F852FF3A144B43F883
:101EC000202011E05DF82020104B53F82030D21A6A
:101ED00012F5805F08DC0E4A52F8202041F6FF73AD
:101EE0001A440B4B43F820205DF82020074B43F8A1
:101EF0002020074A52F820205DF820301A44054B74
:101F000043F8202008B010BD74040020EC04002029
:101F1000CC040020AC04002070B505460C46012C12
:101F200030DB082C2EDC002600BF1748854201DC80
:101F3000054604E042F21070854200DB0546042CA1
:101F40000BDC4FF40076C5F307216000801E0F4ABA
:101F500011546000401E15540CE040F2FF16201F83
:101F6000C4B2C5F307216000801E094A1154600005
:101F7000401E1554B2B2082304490648FFF7FDFE7F
:101F8000002070BD0120FCE7F0D8FFFF1404002002
:101F90001C0400202404002070B52DED068B06469D
:101FA0000D46681EC4B200EE106AB8EEC00AA14821
:101FB00000EB841080ED000AE8B2FFF72FFF00EE7F
:101FC000100AB8EEC00A9B4800EB841080ED010AAD
:101FD000984800EB841090ED020A964800EB8410BC
:101FE00080ED030A934800EB841090ED000A9148BD
:101FF00000EB8410D0ED010A30EE600A8D4800EB52
:10200000841080ED020A8B4800EB841090ED0E0ADC
:1020100010EE101A084600F099FA41EC180B8548AA
:1020200000EB841090ED020A10EE101A084600F042
:102030008DFA41EC1A0BB0EE4A0AF0EE6A0AFEF78E
:10204000A1FAB0EE409AF0EE609A53EC182B51ECE6
:10205000190B00F0B5F906D29FED770A754800EB31
:10206000841080ED020A734800EB841090ED040A9E
:10207000704800EB8410D0ED020A30EE200A6D4863
:1020800000EB841080ED040A6A4800EB841090EDA8
:10209000040A684800EB8410D0ED0F0AB4EEE00AA1
:1020A000F1EE10FA05DB634800EB841090ED0F0AA7
:1020B0001DE0604800EB841090ED040A5D4800EBE1
:1020C0008410D0ED0F0AF1EE600AB4EEE00AF1EEF2
:1020D00010FA07D8574800EB841090ED0F0AB1EEC4
:1020E000400A04E0534800EB841090ED040A514884
:1020F00000EB841080ED040A4E4800EB841090ED54
:10210000050A4C4800EB8410D0ED020A20EE200AAC
:10211000484800EB841080ED0A0A464800EB841022
:1021200090ED060A434800EB8410D0ED040A20EE3F
:10213000200A404800EB841080ED0B0A3D4800EB7C
:10214000841090ED020A3B4800EB8410D0ED030AA6
:1021500030EE600A374800EB8410D0ED070A20EE1D
:10216000200A344800EB841080ED0C0A314800EB63
:10217000841090ED0A0A2F4800EB8410D0ED0B0A72
:1021800030EE200A2B4800EB8410D0ED0C0A30EE24
:10219000200A284800EB841080ED0D0A254800EB4A
:1021A0008410D0ED0D0A234800EB841090ED080A4E
:1021B000B8EEC00AF4EEC00AF1EE10FA07DB1D48D3
:1021C00000EB841090ED080AB8EEC00A1DE0194833
:1021D00000EB8410D0ED0D0A164800EB841090ED52
:1021E000090AB8EEC00AF4EEC00AF1EE10FA07D8F8
:1021F000104800EB841090ED090AB8EEC00A04E024
:102200000C4800EB841090ED0D0A0A4800EB841096
:1022100080ED0D0AE9B2074A02EB841292ED0D0A35
:10222000BDEEC00A10EE100AFFF776FEBDEC068B7D
:1022300070BD00001400002000000000704710B5C1
:10224000FFF72AF810BD000000B593B0342106A8AE
:10225000FEF7BFF8142101A8FEF7BBF800BF00206D
:1022600000902648006840F08050244908600846E5
:10227000006800F08050009000BF00BF00BF002049
:1022800000901F48006840F440401D49086008461F
:10229000006800F44040009000BF00BF012006909D
:1022A0000004079002200C9041050D910F210E9122
:1022B000D8210F91022110911191129106A8FFF7D8
:1022C00055FA08B1FEF75BF9FFF7BCF808B1FEF765
:1022D00056F90F20019003200290002003904FF444
:1022E000A05004904FF480500590052101A8FFF7FD
:1022F000EFF808B1FEF743F913B000BD40380240D3
:10230000007000400348006840F470000149086014
:102310007047000088ED00E000BFFEE7024800685B
:10232000C0F30220704700000CED00E010B500285B
:1023300004DB0A07130E054A135406E00A07140EBD
:10234000034A00F00F031B1FD45410BD00E400E04B
:1023500018ED00E0FEF7ACFFFFF776FFFFF7D6FCC5
:10236000FFF794FCFFF7B2FC0748FEF7B9F80748FF
:10237000FEF7B6F807E002214FF47A70FFF70CFE83
:102380000A20FEF77DFEF6E7240400204C0400201E
:1023900081F00041704780F00040704721F000411B
:1023A000704720F000407047491058BFC1F14041CC
:1023B0005B1058BFC3F140438B42EFF3008070477E
:1023C00051EA030C17D41CF5801F58BFBCF5801FC1
:1023D00000F10680994218BF704708BF90427047CD
:1023E00007D711F5801F58BF13F5801F19D49942E4
:1023F0007047894270471CF5801F08D5BCF5801FC7
:10240000F7D58B4218BF704708BF824270474FF420
:10241000001C1CEB410F38BF1CEB430F01D28B4259
:10242000704770B500F008F8922449004FF0005151
:102430004FF08053FFF7B8BF0EF1020E2EF0030EDF
:102440005EF8046B364205D4012A43EB030515F50B
:10245000001F12D8012841EB010C1CF5001F0CD8FD
:102460000ED14FEAD17C15F5001F0CEB4C0C0CF192
:10247000020C08BF4CEBD37C04E04FF0080C01E0E9
:102480004FEAD37C0CEB4C0526FA05F606F007065E
:10249000B6F1040C06D20EEB860CBDE870404CF091
:1024A000010C6047DFE80CF0090B02024FF000411D
:1024B0004FF00000A1F5002170BD1946104601281B
:1024C00051EB010418BFD4F5001484BF002001F0C3
:1024D000004170BD0808A0F500114FEA31017047B6
:1024E00053EA010C17D41CF5801F58BFBCF5801FA0
:1024F00000F106808B4218BF704708BF82427047C8
:1025000007D713F5801F58BF11F5801F19D48B42D0
:1025100070479B4270471CF5801F08D5BCF5801F93
:10252000F7D5994218BF704708BF904270474FF4E3
:10253000001C1CEB430F38BF1CEB410F01D299422A
:1025400070470FB40CBC03BCFFF76BBF43004FEAEE
:10255000D30C4FEA3C0C43401FBF40070CF16051C5
:1025600013F0FE4F70471CF0006F03D100200CF0F9
:10257000004170470CF0004343EA507010B540EA48
:10258000CC0000F00EF800BF000000924FEA0001FE
:10259000FFF7A0BF4FF000414FF00000A1F5002170
:1025A00070470EF1020E2EF0030E5EF8044B24422B
:1025B00004D44FEA4102B2F17F4F11D84FEA4003F1
:1025C000B3F17F4F0CD80ED14FEAD07CB2F17F4FE0
:1025D0000CEB4C0C0CF1020C08BF4CEBD17C04E072
:1025E0004FF0080C01E04FEAD17C0CEB4C0324FACD
:1025F00003F404F00704B4F1040C06D20EEB840CCF
:10260000BDE810404CF0010C6047DFE80CF0070813
:1026100002024FF00040A0F5800010BD08464200C5
:1026200018BFD2F1807288BF00F0004010BD4FF09B
:102630004070E1EE100A704700000000000000004A
:102640000102030406070809000000000102030458
:10265000702600080000002024040000000200088A
:10266000F4260008240400204C0700005C02000847
:102670008132104201031824F482411B803E04047D
:1026800012C1FFFF1A20240B5A7A44400D38CDCCDA
:102690004C3F400B7E803FC0210B7C404180093481
:1026A0004085CDCCCC3D23B0360B1250C94013C869
:1026B000420414409C460D600AD7233C4031091562
:1026C00040210F36A0400AD7A33B400D3DCDCCCCD6
:1026D0003DC00E383E6F12833AC0114A3FC00B18FE
:1026E0002041400B184843C04B4C4040091A800B16
:0426F00012FA444056
:04000005080001C529
:00000001FF
