:020000040800F2
:1000000040080020A101000831060008350600085C
:10001000390600083D0600084106000800000000FF
:10002000000000000000000000000000450600087D
:100030004706000800000000490600084B060008BB
:10004000BB010008BB010008BB010008BB010008A0
:10005000BB01000853060008BB010008BB010008F3
:10006000BB010008BB010008BB010008BB01000880
:10007000BB010008BB010008BB010008BB01000870
:10008000BB010008BB010008BB01000855060008C1
:100090005F060008BB010008BB010008BB010008A7
:1000A000BB010008BB010008BB010008BB01000840
:1000B000BB010008BB010008BB010008BB01000830
:1000C000BB010008BB010008BB010008BB01000820
:1000D000BB010008BB010008BB010008BB01000810
:1000E000BB010008BB010008BB010008BB01000800
:1000F000BB010008BB010008BB010008BB010008F0
:10010000BB010008BB010008BB010008BB010008DF
:10011000BB010008BB010008BB010008BB010008CF
:10012000BB010008BB010008BB010008BB010008BF
:10013000BB01000800000000000000006906000884
:10014000BB01000873060008BB010008BB010008E2
:10015000BB010008BB010008BB010008BB0100088F
:10016000BB010008BB010008BB010008BB0100087F
:10017000BB010008BB0100080000000000000000F7
:10018000BB010008BB010008DFF810D003F0A0F8A5
:100190000048004779020008AFF3008040080020C3
:1001A0000648804706480047FEE7FEE7FEE7FEE711
:1001B000FEE7FEE7FEE7FEE7FEE7FEE7C1240008F4
:1001C0008901000872B600BFFEE700B593B0302188
:1001D00007A802F0E5FE142102A802F0E1FE00BF2C
:1001E000002001905448006840F080505249086057
:1001F0000846006800F08050019000BF00BF00BFBB
:10020000002001904D48006840F480404B49086050
:100210000846006800F48040019000BF00BF022043
:10022000079001200A9010200B9002200D900021D1
:100230000E9108210F91A821109102211191042102
:10024000129107A800F0D6FF08B1FFF7BBFF0F20FF
:10025000029002200390002004904FF4A0500590DB
:100260004FF480500690052102A801F05FFA08B112
:10027000FFF7A8FF13B000BD02F041F8FFF7A5FF9C
:1002800000F062F800F092F800F0ACF82C4802F0B0
:100290007FF92C4802F07CF906E00121642002F08D
:1002A00085FA012002F08CF8F7E710B58AB0044611
:1002B000234920680968884218D1002001900290E3
:1002C00001AB03AA00211E4800F039FD059860B972
:1002D0000398B0F5007F08D940F2092103988842BD
:1002E00003D801A9039802F097FD00BF0AB010BD22
:1002F00010B58AB00446134920680968884218D1AD
:1003000000200190029001AB03AA01210D4800F0EA
:1003100016FD059860B90398B0F5007F08D940F242
:1003200009210398884203D801A9039802F074FDBB
:1003300000BF0AB010BD000040380240007000400D
:100340005C0300208403002008B500BF002000905B
:100350001548006840F080001349086008460068AE
:1003600000F08000009000BF00BF00BF00200090A0
:100370000846006840F0020008600846006800F087
:100380000200009000BF00BF00BF002000900846A0
:10039000006840F0010008600846006800F00100B5
:1003A000009000BF00BF08BD3038024010B598482B
:1003B0009849086007204860002196488160C16024
:1003C0004FF480310161490141610021017641769C
:1003D0008176C1760177417700F081F908B1FFF7A6
:1003E000F1FE10BD10B58C488C49086007204860AC
:1003F00000218A488160C1604FF400310161C90069
:1004000041610021017641768176C176017741779D
:1004100000F065F908B1FFF7D5FE10BD10B586B044
:100420000446142101A802F0BBFD794920688842E6
:100430004AD17B480068401C79490860084600683A
:1004400001280FD100BF002000907648006840F0DE
:100450000070744908600846006800F00070009061
:1004600000BF00BF00BF002000906E481038006839
:1004700040F001006B49103908600846006800F040
:100480000100009000BF00BF4FF4C0500190022057
:10049000029000200390032004900920059001A9F8
:1004A000614801F049FB00221146132001F040FD94
:1004B000132001F07BFD00221146142001F038FDCD
:1004C000142001F073FD5DE053492068884259D142
:1004D00000BF002000905348006840F08060514900
:1004E00008600846006800F08060009000BF00BF10
:1004F0004B480068401C4A490860084600680128CB
:100500000FD100BF002000904648006840F0007006
:10051000444908600846006800F00070009000BF81
:1005200000BF00BF002000903E481038006840F037
:1005300002003C49103908600846006800F00200DB
:10054000009000BF00BF4FF4405001900220029085
:1005500000200390032004900920059001A933484E
:1005600001F0EAFA002211463F2001F0E1FC3F20B1
:1005700001F01CFD00221146412001F0D9FC412070
:1005800001F014FD06B010BD10B5044620492068E6
:10059000884219D122480068401E21490860084657
:1005A000006828B91F48006820F000701D490860E5
:1005B0004FF4C0511C4801F0A2FB132001F006FDCE
:1005C000142001F003FD22E01349206888421ED167
:1005D0001448006820F080601249086010480068E4
:1005E000401E0F4908600846006828B90D48006899
:1005F00020F000700B4908604FF440510B4801F0A7
:100600007EFB3F2001F0E2FC412001F0DFFC10BD49
:10061000006400405C030020006800408403002068
:100620000000002040380240000002400004024068
:1006300000BFFEE700BFFEE700BFFEE700BFFEE72A
:1006400000BFFEE770477047704710B501F093FE9A
:1006500010BD704710B5094800F079FC10BD10B509
:10066000064800F074FC10BD10B5054800F06FFCA2
:1006700010BD10B5024800F06AFC10BD5C030020FC
:100680008403002008B500BF0020009012480068D5
:1006900040F48040104908600846006800F480403B
:1006A000009000BF00BF00BF00200090081F00683E
:1006B00040F08050091F08600846006800F0805034
:1006C000009000BF00BF00221146052001F030FC61
:1006D000052001F06BFC08BD44380240704770B53E
:1006E00004460CB9012070BD94F8200010B92046D2
:1006F000FFF794FE2068006840F001002168086060
:1007000001F041FE05460DE001F03DFE401B0A28C8
:1007100008D9606A40F400306062052084F8200047
:100720000120E0E72068406800F001000028EBD0DD
:100730002068006820F002002168086001F023FEB4
:1007400005460DE001F01FFE401B0A2808D9606A2B
:1007500040F400306062052084F820000120C2E7E8
:100760002068406800F002000028EBD1207E0128BC
:1007700006D12068006840F080002168086005E02C
:100780002068006820F0800021680860607E0128F1
:1007900006D12068006840F040002168086005E04C
:1007A0002068006820F0400021680860A07E0128D1
:1007B00006D12068006840F020002168086005E04C
:1007C0002068006820F0200021680860E07E012891
:1007D00006D12068006820F010002168086005E05C
:1007E0002068006840F0100021680860207F012820
:1007F00006D12068006840F008002168086005E024
:100800002068006820F0080021680860607F0128E7
:1008100006D12068006840F004002168086005E007
:100820002068006820F0040021680860D4E9020113
:10083000084321690843616908436168491E084308
:100840002168C86100206062012084F82000002037
:1008500049E7704770B5044694F82000022828D173
:100860002068006840F001002168086001F08BFDFD
:1008700005460DE001F087FD401B0A2808D9606A93
:1008800040F400306062052084F82000012070BD33
:100890002068406800F001000028EBD02068006864
:1008A00020F0020021680860012084F82000002068
:1008B000EDE7606A40F4801060620120E7E710B560
:1008C00004460CB9012010BD2046FFF7C3FF2046A7
:1008D000FFF75AFE2068006840F400402168086075
:1008E0000020606284F8200000BFECE7F0B5044609
:1008F0000A46216894F82050012D01D0022D7ED1A6
:10090000F94901F50071086840F0010008600868C5
:1009100020F47C5008600868566A40EA06200860A7
:10092000107D00F01F06012000FA06F3C869984305
:10093000C861A1F50071D069C8B9D1F80C0298431B
:10094000C1F80C02908880B2968940EA064601F50B
:100950001070576940F83760108880B2168940EAF5
:10096000064601F51070576900EBC7004660D06974
:10097000012819D1D1F80C021843C1F80C02908853
:1009800080B2168840EA064601F51070576940F8B3
:100990003760908980B2168940EA064601F51070EA
:1009A000576900EBC7004660906928B9D1F8040286
:1009B0009843C1F8040204E0D1F804021843C1F8D6
:1009C0000402106928B9D1F814029843C1F814023E
:1009D00004E0D1F814021843C1F81402106A012887
:1009E00004D1D1F81C021843C1F81C02D1F800024E
:1009F00020F00100C1F800020020F0BDFFE7606AAE
:100A000040F4802060620120F7E770B5044694F856
:100A10002000012822D1022084F8200020680068EC
:100A200020F001002168086001F0ADFC05460DE0F2
:100A300001F0A9FC401B0A2808D9606A40F4003084
:100A40006062052084F82000012070BD20684068A5
:100A500000F001000028EBD16062F6E7606A40F424
:100A6000002060620120F0E7014691F82020012A71
:100A700001D0022A07D10868006840F002000B6824
:100A8000186000207047486A40F4802048620120C6
:100A9000F8E718B5014600200090944B91F820200B
:100AA000012A01D0022A19D10868006820F002004A
:100AB0000C68206000BF0098401C0090009898428D
:100AC00005D9486A40F400304862012018BD086822
:100AD000406800F002000028EDD1F7E7486A40F4D2
:100AE000802048620120F1E70146002091F8202093
:100AF000012A01D0022A05D10B685B6803F00203CA
:100B000003B101207047F0B504460D461E4694F827
:100B1000207020688368A86800B900E000BF012F3A
:100B200001D0022F7ED103F0806030B903F0006065
:100B300018B903F08050002875D0C3F30161022971
:100B400005D9606A40F4000060620120F0BD012018
:100B500088403060A86860B9B5F800C0E86840EA2D
:100B60004C5C206800F5C07000EB0110C0F800C0BC
:100B70000FE0D5E901C040EACC00D5F80CC040EA4E
:100B80000C00D4F800C00CF5C07C0CEB011CCCF8B8
:100B90000000D5F810C0206800F5C07000EB01100F
:100BA000C0F804C0287D01280ED1206800F5C0706F
:100BB00000EB0110406840F4807C206800F5C070B4
:100BC00000EB0110C0F804C0D079000692F806C00E
:100BD00040EA0C4092F805C040EA0C2C10794CEA2F
:100BE000000C206800F5C07000EB0110C0F80CC0CC
:100BF000D078000692F802C040EA0C4092F801C09A
:100C000040EA0C2092F800C040EA0C00D4F800C082
:100C10000CF5C07C0CEB011CCCF80800206800F53A
:100C2000C07001E014E00DE000EB0110006840F03E
:100C3000010C206800F5C07000EB0110C0F800C086
:100C4000002083E7606A40F40010606201207DE7C5
:100C5000606A40F480206062012077E710B50246A8
:100C600092F82030012B01D0022B1CD101F00100A1
:100C700028B11068806840F080001468A06001F01E
:100C8000020028B11068806840F400401468A06039
:100C900001F0040028B11068806840F40000146876
:100CA000A060002010BD506A40F4802050620120F6
:100CB000F8E70146002091F82020012A01D0022AFD
:100CC00011D10B689B6803F0806303B1401C0B6873
:100CD0009B6803F0006303B1401C0B689B6803F042
:100CE000805303B1401C70470064004040420F0035
:100CF00010B50246002092F82030012B01D0022BC3
:100D000007D11468A46804EA8164B4EB816F00D051
:100D1000012010BD30B50246002092F82040012C81
:100D200001D0022C0AD191FAA1F5B5FA85F3156824
:100D300005F5C07505EB03156D68280C30BD70B561
:100D4000044694F82050012D01D0022D7DD151B9D7
:100D50002068C06800F0030080B9606A40F40010A9
:100D60006062012070BD2068006900F0030028B9AE
:100D7000606A40F4001060620120F3E7206800F52B
:100D8000D87000EB0110006800F0040090609068DB
:100D900040B9206800F5D87000EB01100068400DE4
:100DA000106007E0206800F5D87000EB01100068C3
:100DB000C0085060206800F5D87000EB0110006892
:100DC00000F00200D060206800F5D87000EB011040
:100DD000406800F00F001061206800F5D87000EB4B
:100DE0000110406800F47F40000A9061206800F51F
:100DF000D87000EB01104068000C5061206800F5CD
:100E0000D87000EB011080681870206800F5D87069
:100E100000EB0110806800F47F40000A58702068E1
:100E200000F5D87000EB0110806800F47F00000C22
:100E30009870206800F5D87000EB01108068000EF3
:100E4000D870206800F5D87000E02FE000EB0110AA
:100E5000C0681871206800F5D87000EB0110C068F8
:100E600000F47F40000A5871206800F5D87000EB4C
:100E70000110C06800F47F00000C9871206800F534
:100E8000D87000EB0110C068000ED87131B920682D
:100E9000C06840F020002668F06005E02068006926
:100EA00040F020002668306100205BE7606A40F473
:100EB00080206062012055E710B50246002092F8BC
:100EC0002030012B01D0022B09D121B91468E4682C
:100ED00004F0030003E01468246904F0030010BD6B
:100EE00010B5024692F82030012B01D0022B06D11A
:100EF00010684069084314686061002010BD506AA2
:100F000040F4802050620120F8E710B5024692F8C4
:100F10002030012B01D0022B06D110684069884394
:100F200014686061002010BD506A40F48020506257
:100F30000120F8E770477047704770477047704767
:100F400070477047704770477047704770472DE98A
:100F5000F05F04460025206846692068D0F80490B8
:100F6000206887682068D0F80CA02068D0F810B0FE
:100F70002068D0F8188006F00100002855D007F04E
:100F80000100C0B101202168886007F0020018B19B
:100F90002046FFF7DBFF0EE007F0040010B145F438
:100FA000006508E007F0080010B145F4805502E044
:100FB0002046FFF7CAFF07F48070C8B14FF4807075
:100FC0002168886007F4007018B12046FFF7BCFF65
:100FD0000EE007F4806010B145F4005508E007F416
:100FE000006010B145F4804502E02046FFF7ABFFFA
:100FF00007F48030C8B14FF480302168886007F46E
:10100000003018B12046FFF79DFF0EE007F4802066
:1010100010B145F4004508E007F4002010B145F494
:10102000803502E02046FFF78CFF06F0080038B15B
:101030000AF0100020B145F4007510202168C86046
:1010400006F0040040B10AF0080028B10820216829
:10105000C8602046FFF774FF06F0020038B1206830
:10106000C06800F0030010B12046FFF71EF906F03B
:10107000400038B10BF0100020B145F4806510201D
:101080002168086106F0200040B10BF0080028B18B
:101090000820216808612046FFF750FF06F0100085
:1010A00038B12068006900F0030010B12046FFF756
:1010B00044FF06F4003040B109F0100028B11020C0
:1010C000216848602046FFF737FF06F4803040B1C2
:1010D00009F0080028B10820216848602046FFF781
:1010E0002AFF06F4004088B309F0040078B306F440
:1010F000807020B108F0010008B145F0010506F448
:10110000007020B108F0020008B145F0020506F4B5
:10111000806020B108F0040008B145F0040506F431
:101120000060A0B108F0700088B108F0700040289D
:1011300017D006DC10280BD020280CD0302819D16D
:101140000CE0502810D0602814D110E01DE019E008
:1011500045F008050FE045F010050CE045F02005CE
:1011600009E045F0400506E045F0800503E045F460
:10117000807500E000BF00BF2068806920F070002B
:10118000216888610420216848602DB1606A284385
:1011900060622046FFF7CEFEBDE8F09F014691F861
:1011A0002000012801D002280CD10A68526802F000
:1011B00002020AB1042005E00A68126802F0020285
:1011C00002B1032070470146486A7047014600207B
:1011D00091F82020012A01D0022A02D100234B627B
:1011E00004E04B6A43F480234B6201207047000007
:1011F00000207047F8B504460CB90120F8BD2078EE
:1012000000F00100002874D0F948006800F00C00DC
:1012100004280DD0F648006800F00C00082813D10F
:10122000F348001F006800F48000B0F5800F0BD178
:10123000EF4808380068C0F34040002859D0606883
:10124000002856D10120D9E700BF6068B0F5803F83
:1012500008D1E7480838006840F48030E44908398C
:1012600008601EE06068B0F5A02F0DD1E048083896
:10127000006840F48020DE490839086008460068AC
:1012800040F4803008600CE0D9480838006820F449
:101290008030D749083908600846006820F480206B
:1012A000086000BF606890B101F06DF8054606E087
:1012B00001F069F8401B642801D903209EE7CC485F
:1012C00008380068C0F340400028F1D011E001F078
:1012D0005AF8054606E001F056F8401B642801D98B
:1012E00003208BE7C24808380068C0F3404000285C
:1012F000F1D1207800F0020002285FD1BC480068DC
:1013000000F00C0058B1BA48006800F00C00082842
:101310001CD1B748001F006800F48000B0B9B44881
:1013200008380068C0F3400020B1E068012801D00F
:10133000012063E7AE480838006820F0F800216912
:1013400040EAC100AA490839086037E0E06800B304
:101350000120A849086001F016F8054606E001F0F2
:1013600012F8401B022801D9032047E7A04808389B
:101370000068C0F340000028F1D09D48083800689C
:1013800020F0F800216940EAC10099490839086055
:1013900014E000209749086000F0F5FF054606E0DC
:1013A00000F0F1FF401B022801D9032026E79048F6
:1013B00008380068C0F340000028F1D1207800F020
:1013C000080008282CD16069A8B101208A4908606A
:1013D00000F0D9FF054606E000F0D5FF401B0228CB
:1013E00001D903200AE782486C300068C0F340004E
:1013F0000028F1D014E000207F49086000F0C3FF0E
:10140000054606E000F0BFFF401B022801D903207B
:10141000F4E677486C300068C0F340000028F1D152
:10142000207800F00400042870D10027704838307C
:10143000006800F0805090B900BF002000906C4818
:101440003830006840F080506949383108600846FB
:10145000006800F08050009000BF00BF012767487F
:10146000006800F48070B0B96448006840F480708F
:101470006249086000F087FF054606E000F083FF40
:10148000401B022801D90320B8E65C48006800F43C
:1014900080700028F2D000BFA068012808D154480D
:1014A0006830006840F001005149683108601DE073
:1014B000A06805280DD14E486830006840F004004F
:1014C0004B49683108600846006840F00100086038
:1014D0000CE047486830006820F00100444968315A
:1014E00008600846006820F00400086000BFA0689B
:1014F000A8B100F048FF054609E000F044FF401B9A
:1015000041F28831884202D9032077E626E0384844
:1015100068300068C0F340000028EED013E000F00F
:1015200032FF054608E000F02EFF401B41F28831F3
:10153000884201D9032061E62D4868300068C0F375
:1015400040000028EFD1012F07D12948383000682A
:1015500020F0805026493831086000BFA06900287B
:1015600045D02348006800F00C0008285DD0A06931
:10157000022845D100201F49086600F004FF0546F7
:1015800006E000F000FF401B022801D9032035E6E9
:10159000174808380068C0F340600028F1D1D4E94A
:1015A00007010843616A40EA81110122A06AC2EB87
:1015B000500041EA00412C20005D41EA00600C49E6
:1015C000091F086001200B49086600F0DCFE054693
:1015D00006E000F0D8FE401B022801D903200DE6EA
:1015E000034808380068C0F340600028F1D049E0A3
:1015F0000838024000004742800E47420070004019
:101600000020F849086600F0BEFE054606E000F03E
:10161000BAFE401B022801D90320EFE5F24800681A
:10162000C0F340600028F2D12CE0A069012800D16D
:10163000E4E5ED48001D0668A069012820D006F405
:101640008001E06981421BD106F03F01206A81429E
:1016500016D147F6C0703040616AB0EB811F0FD1E0
:1016600006F440310122A06AC2EB5000B1EB004FFA
:1016700006D106F070612C20005DB1EB006F01D047
:101680000120BBE50020B9E52DE9F0470024002545
:101690000026A146D4480830006800F00C0020B1B4
:1016A000042805D008283AD105E0DFF8409339E056
:1016B000DFF83C9336E0CC48001D006800F03F04A2
:1016C000C948001D006800F4800078B1C848C649C8
:1016D000091D0968C1F38811A0FB0170014622466B
:1016E0000023384601F024FC05460EE0BF48BE4901
:1016F000091D0968C1F38811A0FB0170014622464B
:101700000023384601F014FC0546B748001D006868
:10171000C0F30140401C4600B5FBF6F902E0DFF8DB
:10172000CC9200BF00BF4846BDE8F08770B50446C4
:101730000D460CB9012070BDAE48006800F00700EE
:10174000A84209D2AB490D700846006800F00700B6
:10175000A84201D00120EEE7207800F00200022824
:1017600023D1207800F00400042807D19E480830D7
:10177000006840F4E0509C4908310860207800F08F
:101780000800082807D198480830006840F46040F5
:1017900095490831086094480830006820F0F0004E
:1017A000A1680843904908310860207800F00100E2
:1017B000A0B36068012806D18B480068C0F34040A0
:1017C000A8B90120B7E76068022802D06068032842
:1017D00006D185480068C0F3406040B90120AAE7FF
:1017E00081480068C0F3400008B90120A3E77E48A3
:1017F0000830006820F00300616808437A49083126
:10180000086000F0C0FD064609E000F0BCFD801B4A
:1018100041F28831884202D903208CE708E07248FF
:101820000830006800F00C006168B0EB810FECD16B
:101830007048006800F00700A84209D96D490D7092
:101840000846006800F00700A84201D0012072E7B6
:10185000207800F00400042809D1634808300068AB
:1018600020F4E050E16808435F49083108602078BF
:1018700000F0080008280AD15B480830006820F40E
:101880006040216940EAC100574908310860FFF70C
:10189000FBFE554908310968C1F30311564A515CF2
:1018A000C840564908605648006800F008FD00200E
:1018B00041E770B586B006460C46154656BB00BFDC
:1018C0000020009048483030006840F00100464950
:1018D000303108600846006800F00100009000BF49
:1018E00000BF881501900220029003200490002080
:1018F0000390059001A9434800F01EF93A480830CA
:10190000006820F0EC6044EA0501084336490831DC
:10191000086029E000BF00200090334830300068A4
:1019200040F004003049303108600846006800F09B
:101930000400009000BF00BF4815019002200290F3
:101940000320049000200390059001A92E4800F088
:10195000F3F825480830006820F0784044EAC501D3
:10196000084321490831086006B070BD01201D49B7
:10197000C864704700201B49C86470471F4800684E
:10198000704700B5FFF7FAFF174908310968C1F33E
:1019900082211E4A515CC84000BD00B5FFF7EEFF32
:1019A000114908310968C1F34231184A515CC840F5
:1019B00000BD0F2101600C49096801F48021B1F5D7
:1019C000802F03D14FF4A021416023E0064909682C
:1019D00001F48031B1F5803F1AD14FF4803141607C
:1019E00018E0000000004742003802400024F400E4
:1019F00040787D01003C0240683300081000002060
:101A0000080000200000024000080240783300086F
:101A1000002141604649096801F0010111B101212D
:101A2000C16001E00021C16041490968C1F3C401FE
:101A300001613F497031096801F00401042902D1B4
:101A4000052181600AE03A497031096801F001011D
:101A500011B10121816001E00021816034497431BC
:101A6000096801F0010111B10121416101E000218A
:101A700041612F49096801F08071B1F1807F02D185
:101A80000221816101E0012181612949091D096863
:101A900001F48002C2612649091D096801F03F0274
:101AA00002622349091D0968C1F388124262204974
:101AB000091D096801F4403101F58031CA0B8262C9
:101AC0001B49091D0968C1F30362C26270470F22F6
:101AD0000260174A0832126802F003024260144A98
:101AE0000832126802F0F0028260114A083212686D
:101AF00002F4E052C2600E4A0832126802F46042F8
:101B0000D20802610B4A126802F007020A607047AD
:101B1000704710B506480C30006800F0800080283F
:101B200005D1FFF7F5FF802001490E31087010BD87
:101B300000380240003C0240F8B502460B46002542
:101B4000002400200021D6E0012606FA01F51E68D7
:101B500006EA0504AC4274D11E7906F00306012E94
:101B600004D01E7906F00306022E13D190684F00B0
:101B70000326BE40B0434F00DE68BE403043906055
:101B8000506801268E40B0431E79C6F300168E4081
:101B9000304350601E7906F00306032E09D0D0684A
:101BA0004F000326BE40B0434F009E68BE40304306
:101BB000D0601E7906F00306022E13D1CF0802F181
:101BC000200656F827004E07F70E0F26BE40B043FA
:101BD0004F07FF0E1E69BE403043CF0802F12006BA
:101BE00046F8270010684F000326BE40B0431E7918
:101BF00006F003064F00BE40304310605E6806F4F6
:101C00004036002E76D000BF00260096AC4E3668D7
:101C100046F48046AA4F3E603E46366806F480464B
:101C2000009600BF00BFA74E8F0856F827008E070A
:101C3000370F0F26BE40B043A34EB24202D100265A
:101C400024E057E0A14EB24201D101261EE0A04E91
:101C5000B24201D1022619E09E4EB24201D10326C2
:101C600014E09D4EB24201D104260FE09B4EB242D9
:101C700001D105260AE09A4EB24201D1062605E0BE
:101C8000984EB24201D1072600E008268F073F0F89
:101C9000BE4030438B4E8F0846F82700924E306886
:101CA000A0435E6806F4801606B120438E4E306075
:101CB000361D3068A0435E6806F4001606B1204366
:101CC000894E361D3060884E361F3068A0435E68EE
:101CD00006F4003606B12043834E361F3060361FAF
:101CE0003068A0435E6806F4803606B120437E4E1D
:101CF000083E3060491C1029FFF426AFF8BDF0B54E
:101D00000C46002500220023002196E0012606FA59
:101D100001F504EA0502AA427ED16A4E8F0856F800
:101D200027308E07370F0F26BE403340664EB04235
:101D300001D1002623E0654EB04201D101261EE00C
:101D4000634EB04201D1022619E0624EB04201D189
:101D5000032614E0604EB04201D104260FE05F4E2E
:101D6000B04201D105260AE05D4EB04201D10626FF
:101D700005E05C4EB04201D1072600E008268F073F
:101D80003F0FBE409E4226D1574E083E36689643CE
:101D9000554F083F3E603E1D366896433F1D3E60EE
:101DA000514E361D366896434F4F3F1D3E603E1FD5
:101DB000366896433F1F3E608E07370F0F2606FAA0
:101DC00007F3404E8F0856F827609E433D4F4FEA79
:101DD000910C47F82C6006684FEA410C032707FA7C
:101DE0000CF7BE430660CF0800F1200656F82760C6
:101DF0004F074FEAD76C0F2707FA0CF7BE434FEA9D
:101E0000D10C00F1200747F82C60C6684FEA410C5E
:101E1000032707FA0CF700E00EE0BE43C6604668F1
:101E200001278F40BE43466086684FEA410C032776
:101E300007FA0CF7BE438660491C1029FFF466AF11
:101E4000F0BD024613690B400BB1012000E00020F9
:101E500070470AB1816101E00B048361704710B5DE
:101E6000426921EA020302EA010443EA044383616E
:101E700010BD08B502464FF480300090009808432A
:101E800000900098D061D1610098D061D069009035
:101E9000D06900F4803008B1002008BD0120FCE7C3
:101EA000704710B5044610480C300068204028B137
:101EB0000D480C3004602046FFF7F2FF10BD000013
:101EC000443802400838014000000240000402404B
:101ED00000080240000C02400010024000140240C2
:101EE00000180240001C0240083C014010B50028C8
:101EF00004DB0A07130EEC4A135406E00A07140E1B
:101F0000EA4A00F00F031B1FD45410BD00BF00F0BD
:101F10000702E64B0C3B19684FF6FF031940E44BF0
:101F20000B4343EA0221E14B0C3B196000BF7047B1
:101F30002DE9F05F80460D461646002700F0AEF909
:101F4000074639462A46334601F00700C0F1070A22
:101F5000BAF1040F02D94FF0040A01E0C0F1070AF8
:101F6000D14600F1040ABAF1070F02D24FF0000A7D
:101F700001E0A0F1030AD4464FF0010A0AFA09FA77
:101F8000AAF1010A0AEA020A0AFA0CFA4FF0010B56
:101F90000BFA0CFBABF1010B0BEA030B4AEA0B0447
:101FA00021464046FFF7A2FFBDE8F09F01460846E4
:101FB000002809DB00F01F0301229A4043099B001F
:101FC00003F1E023C3F8002100BF704710B50146BC
:101FD0000846002817DB00F01F0301229A40B54B8A
:101FE000440943F8242000BF00BF00BFBFF34F8F58
:101FF00000BF00BF00BF00BF00BF00BFBFF36F8FB7
:1020000000BF00BF00BF00BF10BD00BF00BF00BFCA
:1020100000BF00BFBFF34F8F00BF00BF00BFA3488A
:102020000C38006800F4E060A1490843001D9F4996
:102030000C39086000BF00BF00BFBFF34F8F00BF67
:1020400000BF00BF00BF00BFFDE770B504462546D6
:10205000681EB0F1807F01D301200FE0681E4FF0B1
:10206000E02148610F214FF0FF30FFF73FFF0020D4
:102070004FF0E021886107200861002070BD00BF9B
:1020800000BF00BFBFF35F8F00BF00BF00BF874826
:102090000C30006820F4803084490C310860002046
:1020A00082497C310860704740F001017F4A7C32F0
:1020B00011607E490C31096841F480317B4A0C3251
:1020C000116000BF00BF00BFBFF34F8F00BF00BF54
:1020D00000BF00BF00BF00BFBFF36F8F00BF00BFD6
:1020E00000BF70474178714A803211600178F9B1C0
:1020F000121D41681160017B0907C27A41EA026141
:10210000827A41EAC241427B41EA8241827B41EAD2
:102110004241C27B41EA0241427A41EA0221027A0B
:1021200041EA420102781143604A8832116005E0B9
:1021300000215E4A84321160121D1160704710B593
:1021400000F0ACF810BD2DE9F0430446204600280D
:1021500003DB554F3F5C3F0907E0544F00F00F0C85
:10216000ACF1040C17F80C703F093D460E4606F022
:102170000700C0F10708B8F1040F02D94FF00408B6
:1021800001E0C0F10708C44600F10408B8F1070FE8
:1021900002D24FF0000801E0A0F10308474625FAFB
:1021A00007F84FF0010909FA0CF9A9F1010908EA49
:1021B0000908C2F800804FF0010808FA07F8A8F1F2
:1021C000010808EA0508C3F8008000BFBDE8F083F5
:1021D00010B501460846002808DB00F01F03012265
:1021E0009A40344B8033440943F8242000BF10BD8B
:1021F00010B50146084600280EDB2E4A80324309FE
:1022000052F8232000F01F040123A3401A400AB112
:10221000012202E0002200E00022104610BD10B5AD
:1022200001460846002807DB00F01F0301229A4000
:10223000214B440943F8242000BF10BD10B50146CE
:10224000084600280EDB1C4A8032430952F823203E
:1022500000F01F040123A3401A400AB1012202E04A
:10226000002200E00022104610BD042808D14FF0E3
:10227000E021096941F004014FF0E022116107E01B
:102280004FF0E021096921F004014FF0E0221161D3
:102290007047704710B5FFF7FCFF10BD03480C38BE
:1022A0000068C0F30220704700E400E018ED00E091
:1022B0000000FA0580E100E080E200E0704770B5C0
:1022C0000446754800784FF47A71B1FBF0F0734919
:1022D0000968B1FBF0F52846FFF7B7FE08B1012009
:1022E00070BD102C07D200222146501EFFF720FEA1
:1022F0006B48046001E00120F2E70020F0E710B530
:102300006848006840F40070664908600846006844
:1023100040F4806008600846006840F480700860FF
:102320000320FFF7F3FD0F20FFF7C9FFFEF7AAF91F
:10233000002010BD704710B54FF0FF305A490860BB
:1023400000200860401E091D086000200860401E33
:1023500055491039086000200860401E091D0860BA
:1023600000200860401E091D086000200860FFF77B
:10237000E1FF002010BD4D48006847490978084436
:102380004A490860704749480068704744480068F7
:10239000704770B5044600253F480078A0420AD037
:1023A0003D48067804703E480068FFF788FF054600
:1023B0000DB139480670284670BD3748007870471F
:1023C00070B50446FFF7DFFF06462546681C10B1CE
:1023D00031480078054400BFFFF7D5FF801BA842B5
:1023E000FAD370BD4FF0E020006920F002004FF0FA
:1023F000E021086170474FF0E020006940F00200E2
:102400004FF0E0210861704729487047294800686B
:10241000000C704727480068C0F30B007047254840
:10242000406840F0010023494860704721484068F7
:1024300020F001001F49486070471E48406840F086
:1024400002001C49486070471A48406820F00200AA
:102450001849486070471748406840F00400154923
:10246000486070471348406820F0040011494860F4
:102470007047012010490860704700200E4908602D
:1024800070470E48006870470C48001D0068704790
:102490000A480830006870470C0000201000002037
:1024A00008000020003C02402038024004000020C8
:1024B00000010801002004E000042742107AFF1FF9
:1024C0002D48006840F470002B490860704770B5D3
:1024D00000200022022300240221284D2D6805F04F
:1024E0000C0020B1042806D0082834D107E0244D80
:1024F000244E356033E0244D224E35602FE01F4DD1
:102500002D1F2D68C5F380541C4D2D1F2D6805F01F
:102510003F0154B11C4DB5FBF1F5184E361F36681E
:10252000C6F3881605FB06F209E0154DB5FBF1F57B
:10253000124E361F3668C6F3881605FB06F20F4D9D
:102540002D1F2D68C5F301456D1C6B00B2FBF3F523
:102550000C4E356003E00A4D0A4E356000BF00BFE7
:10256000064D2D68C5F30315084E705D054D2D68A9
:10257000C540044E356070BD88ED00E0083802406B
:102580000024F4001000002040787D01683300082A
:1025900030B58BB0054638492868096888421AD199
:1025A00000200690079001200890002001900290E2
:1025B000039004900590012009900A9001A92846F3
:1025C000FEF794F92846FEF720FA02212846FEF786
:1025D00087FC044620E029492868096888421BD105
:1025E0000F20069000200790012008900020019005
:1025F0000290039004900120059009900F200A900A
:1026000001A92846FEF772F92846FEF7FEF91021C7
:102610002846FEF765FC04460CB1FDF7D3FD0BB070
:1026200030BD2DE9F04186B006460C46154601271F
:102630004FF00008009508200490002002900390BD
:102640003046FEF736FB00F0FF0804E03046FEF7A8
:1026500030FB00F0FF08B8F1000FF7D0022322464C
:1026600069463046FEF74FFA07461FB1022006B012
:10267000BDE8F0810020FAE75C030020840300201D
:102680002DE9F04387B007460C4615461E464FF02D
:1026900001084FF000090020039004900195059671
:1026A0003846FEF706FB00F0FF0904E03846FEF767
:1026B00000FB00F0FF09B9F1000FF7D0012322461B
:1026C00001A93846FEF71FFA8046B8F1000F03D083
:1026D000022007B0BDE8F0830020FAE770B5054698
:1026E0000C46012C2DDB082C2BDC002600BFFE48FD
:1026F000854201DC054604E047F23050854200DBAC
:102700000546042C02DC40F2FF1603E040F2FF26EF
:10271000201FC4B2C5F307216000801EF34A115484
:102720006000401E1554B2B20823F049F048FFF78C
:10273000A7FFB2B20823ED49EE48FFF7A1FF002042
:1027400070BD0120FCE710B5014600204A1E02EBD7
:102750004202E94B03EB420292780123B3EBE21F02
:1027600013D14A1E02EB4202E34B03EB4202D37841
:102770004A1E02EB4202E04C04EB4202927803EB69
:102780000222A2F57F40FF380FE04A1E02EB420210
:10279000D94B03EB4202D3784A1E02EB4202D64CDD
:1027A00004EB4202927803EB022010BD70B506469E
:1027B0000D46681EC4B204EB840000EBC400CF4990
:1027C00051F8200004EB840101EBC401CB4A02EB79
:1027D00081014860E8B2FFF7B6FF04EB840101EB2A
:1027E000C401C64A02EB8101086304EB840000EBDC
:1027F000C400114601EB8000006B301A04EB840129
:1028000001EBC40142F8210004EB840000EBC4009A
:10281000114601EB8000806804EB840101EBC401E8
:1028200052F82110084404EB840101EBC40102EBCF
:102830008101886004EB840000EBC400114601EBC9
:102840008000806842F21071884201DB084614E083
:1028500004EB840000EBC400A84901EB8000806811
:10286000A749884201DC084607E004EB840000EB3E
:10287000C400A24901EB8000806804EB840101EBF5
:10288000C4019E4A02EB8101886004EB840000EBE6
:10289000C400114601EB8000D0ED030A04EB840074
:1028A00000EBC40051F8200000EE100AB8EEC00A98
:1028B00020EE800A04EB840000EBC40001EB8000F2
:1028C00080ED080A04EB840000EBC40001EB8000FB
:1028D000D0ED040A04EB840000EBC40001EB80009F
:1028E00090ED020AB8EEC00A20EE800A04EB8400E4
:1028F00000EBC40001EB800080ED090A04EB8400CA
:1029000000EBC40051F8200004EB840101EBC4018A
:1029100002EB81014968401A00EE100AB8EEC00AC5
:1029200004EB840000EBC400114601EB8000D0ED05
:10293000050A20EE200A04EB840000EBC40001EB42
:10294000800080ED0A0A04EB840000EBC40001EB78
:10295000800090ED080A04EB840000EBC40001EB5A
:102960008000D0ED090A30EE200A04EB840000EB71
:10297000C40001EB8000D0ED0A0A30EE200A04EB1F
:10298000840000EBC40001EB800080ED0B0A04EB37
:10299000840000EBC40001EB8000D0ED0B0A04EBD7
:1029A000840000EBC40001EB800090ED060AB8EE55
:1029B000C00AF4EEC00AF1EE10FA0ADB04EB840060
:1029C00000EBC40001EB800090ED060AB8EEC00AEF
:1029D0002BE004EB840000EBC400484901EB8000CD
:1029E000D0ED0B0A04EB840000EBC40001EB800087
:1029F00090ED070AB8EEC00AF4EEC00AF1EE10FA44
:102A00000AD804EB840000EBC40001EB800090EDD9
:102A1000070AB8EEC00A08E004EB840000EBC4002B
:102A2000364901EB800090ED0B0A04EB840000EBCB
:102A3000C400324901EB800080ED0B0A04EB8400F6
:102A400000EBC40001EB800090ED0B0AB5EEC00A6C
:102A5000F1EE10FA00DB00E000BFE9B204EB840203
:102A600002EBC402254B03EB820292ED0B0ABDEE92
:102A7000C00A10EE100AFFF731FE70BD0146481E75
:102A8000204A52F82000704701464A1E1E4B9A5CAD
:102A9000520300EE902AF8EEE00A60EE800A9FED05
:102AA0001B1AC0EE811AFDEEE10A10EE900A704783
:102AB0002DE9F04106460D46284600EE106AB8EEB4
:102AC000C00AFFF7E1FF0746681EC4B204EB8400AA
:102AD00000EBC4000E4951F8200004EB840101EB27
:102AE000C4010B4A16E00000D08AFFFF5403002007
:102AF0005C03002084030020AC03002014000020AD
:102B0000F0D8FFFFDC030020803300080000B4434E
:102B1000B401002002EB81014860E8B2FFF7AEFF8C
:102B2000381A04EB840101EBC401F84A42F8210091
:102B300004EB840000EBC400114601EB80008068C8
:102B400004EB840101EBC40152F82110084404EBAA
:102B5000840101EBC40102EB8101886004EB840075
:102B600000EBC400114601EB8000806844F6206150
:102B7000884201DB084614E004EB840000EBC4004B
:102B8000E24901EB80008068E149884201DC0846A7
:102B900007E004EB840000EBC400DC4901EB80009B
:102BA000806804EB840101EBC401D84A02EB810187
:102BB000886004EB840000EBC400114601EB800048
:102BC000D0ED030A04EB840000EBC40051F82000B0
:102BD00000EE100AB8EEC00A20EE800A04EB840072
:102BE00000EBC40001EB800080ED080A04EB8400D8
:102BF00000EBC40001EB8000D0ED040A04EB84007C
:102C000000EBC40001EB800090ED020AB8EEC00AB0
:102C100020EE800A04EB840000EBC40001EB80008E
:102C200080ED090A04EB840000EBC40051F8200099
:102C300004EB840101EBC40102EB81014968401AF5
:102C400000EE100AB8EEC00A04EB840000EBC400EA
:102C5000114601EB8000D0ED050A20EE200A04EBBE
:102C6000840000EBC40001EB800080ED0A0A04EB55
:102C7000840000EBC40001EB800090ED080A04EB37
:102C8000840000EBC40001EB8000D0ED090A30EEB7
:102C9000200A04EB840000EBC40001EB8000D0EDBF
:102CA0000A0A30EE200A04EB840000EBC40001EBBA
:102CB000800080ED0B0A04EB840000EBC40001EB04
:102CC0008000D0ED0B0A04EB840000EBC40001EBA4
:102CD000800090ED060AB8EEC00AF4EEC00AF1EEEC
:102CE00010FA0ADB04EB840000EBC40001EB800067
:102CF00090ED060AB8EEC00A2BE004EB840000EB6E
:102D0000C400824901EB8000D0ED0B0A04EB840083
:102D100000EBC40001EB800090ED070AB8EEC00A9A
:102D2000F4EEC00AF1EE10FA0AD804EB840000EBCE
:102D3000C40001EB800090ED070AB8EEC00A08E07D
:102D400004EB840000EBC400704901EB800090EDBF
:102D50000B0A04EB840000EBC4006C4901EB80001B
:102D600080ED0B0A04EB840101EBC401674A02EB1E
:102D7000810191ED0B0ABDEEC00A10EE100A294642
:102D8000FFF714FDBDE8F08110B588B00146481E7C
:102D900000EB40025F4B03EB4202527800EB400332
:102DA0005C4C14F8133002EB03224DF820205DF840
:102DB0002020594B53F82030D21AB2F5805F09DB3E
:102DC000564A52F82020A2F5F852FF3A534B43F8E6
:102DD000202011E05DF820204F4B53F82030D21A0C
:102DE00012F5805F08DC4D4A52F8202041F6FF734F
:102DF0001A444A4B43F820205DF82020464B43F804
:102E00002020464A52F820205DF820301A44444BD6
:102E100043F8202008B010BD70B505460E460124C9
:102E200012E004F50170A8420DD1601E00EB4000D5
:102E3000384901EB400031680160B1888180E0B21F
:102E4000FFF7A2FF70BD641C092CEADB00BFF9E7A5
:102E500010B5014600204A1E02EB42022D4B03EB47
:102E6000420292780123B3EBE21F13D14A1E02EB18
:102E70004202284B03EB420253794A1E02EB420204
:102E8000244C04EB4202127903EB0222A2F57F40AC
:102E9000FF380FE04A1E02EB42021E4B03EB4202D8
:102EA00053794A1E02EB42021A4C04EB4202127999
:102EB00003EB022010BD70B52DED088B05460C46C6
:102EC000611E184A515C480300F056F941EC190B99
:102ED000284600F051F941EC1B0B9FED130B53EC0E
:102EE000102B00F068F841EC1A0B53EC192B00F092
:102EF000D4F841EC180B00F050F90646304600F0CB
:102F00003BF941EC100BBDEC088B70BDB401002007
:102F1000E0B1FFFFAC0300201C040020FC030020F4
:102F2000DC030020803300080000000000807640B1
:102F30002DE9F05F0546002092469B4688460646EE
:102F4000814640241BE0284641464746224600F081
:102F500052F953465A46C01A914110D311461846A9
:102F6000224600F039F92D1A67EB01084F46224638
:102F70000120002100F030F917EB00094E41201E1E
:102F8000A4F10104DFDC484631462A464346BDE849
:102F9000F09FD2B201E000F8012B491EFBD270472E
:102FA0000022F6E710B513460A4604461946FFF715
:102FB000F0FF204610BD2DE9FE4F81EA030404F026
:102FC000004421F0004100944FF0000B23F0004337
:102FD00050EA01045ED052EA03045BD0C3F30A5402
:102FE000C1F30A552C44A4F2F3340194A0FB02541B
:102FF000C1F3130141F48011C3F3130343F48013AD
:1030000001FB024400FB034E840A970A44EA815400
:1030100047EA8357A4FB076802958D0A05FB0785DD
:103020004FEA932C04FB0C542705029D4FEA0658E7
:1030300047EA1637B5EB08056EEB070C870E920EC4
:1030400047EA811742EA8312A7FB0201B6EB0B01A4
:1030500064EB00042B0D43EA0C335E1844EB1C5068
:10306000DA465146E7FB0201C5F313044FEA0B337E
:1030700043EA14534FEA0432019C43EA0603A4F1E5
:103080000C040294009CCDE900B400F0D3F803B026
:10309000BDE8F08F00200146F9E72DE9F04D81EA07
:1030A000030404F0004B21F0004514464FF0000AE1
:1030B00023F0004150EA050220D054EA01021DD05D
:1030C000C5F30A570246C5F31303C1F31300C1F356
:1030D0000A5640F4801543F48013A7EB0608101B32
:1030E000D64608F2FD3873EB050002D308F101085B
:1030F00001E092185B41B8F1000F03DA00200146AD
:10310000BDE8F08D00204FF48011064684460EE0A5
:10311000171B73EB050705D3121B63EB050306436F
:103120004CEA010C49084FEA300092185B4150EA22
:103130000107EDD152EA030012D082EA040083EACB
:103140000501084305D0101BAB4106D20122002324
:1031500006E000224FF0004302E06FF0010253103E
:103160001AEB06004CEB085110EB0A0041EB0B0187
:10317000BDE8F04D00F04FB80EB5C10F80EAE07029
:103180000844CA07002140F233438DE80E000A4686
:103190000B4600F04FF803B000BD70B5C1F30A5202
:1031A00001F000450024C1F3130140F2FF3341F464
:1031B00080119A4201DA002070BD40F233439A42F6
:1031C000A2F2334203DC524200F015F800E09040D6
:1031D0002C43F1D0404270BD202A04DB203A00FA93
:1031E00002F1002070479140C2F1200320FA03F35E
:1031F000194390407047202A04DB203A21FA02F05C
:103200000021704721FA02F3D040C2F12002914020
:1032100008431946704710B5141E73F1000408DA0C
:10322000401C41F1000192185B411A4301D120F08A
:10323000010010BD2DE9F04D92469B4611B1B1FA47
:1032400081F202E0B0FA80F220329046FFF7C4FF2C
:1032500004460F4640EA0A0041EA0B0153465A462B
:10326000084313D0114653EA010019D0C8F14002B7
:103270005046FFF7C0FF05460E46504659464246A7
:10328000FFF7AAFF084305D0012004E02046394695
:10329000BDE8F08D0020054346EAE0762C43374335
:1032A0000A986305E40AA0EB08000022FD0A44EA3C
:1032B00047540A3002D500200146E9E701051019FC
:1032C0006941DDE9084500196941BDE8F04DA2E713
:1032D000064C074D06E0E06840F0010394E8070063
:1032E00098471034AC42F6D3FCF752FF88330008FD
:1032F000A833000870B58C1810F8015B15F00703AF
:1033000001D110F8013B2A1106D110F8012B03E07E
:1033100010F8016B01F8016B5B1EF9D12B0705D486
:103320000023521E0DD401F8013BFAE710F8013BCF
:10333000CB1A921C03E013F8015B01F8015B521EEB
:10334000F9D5A142D8D3002070BD02E008C8121FF1
:1033500008C1002AFAD170477047002001E001C17E
:10336000121F002AFBD1704700000000000000007F
:10337000010203040607080900000000010203041B
:103380000101010101010101A83300080000002032
:103390005C030000F4320008F03300085C030020F6
:1033A000E40400005A3300088132104201F324F48F
:1033B00083204214E093040522206CFBFF0A694835
:1033C0003423803F0BF8A040342930612308020CDD
:1033D00027F8FDFF340D5ACDCC4C3D347CCDCCAC20
:1033E000342340010B20C0FE340CC76666A63400AF
:040000050800018965
:00000001FF
