:020000040800F2
:10000000C0060020790200086D1900086918000870
:10001000691900087B0300087D1F0008000000002C
:10002000000000000000000000000000DD190008D2
:100030007F0300080000000071190008DF190008A4
:10004000930200089302000893020008930200083C
:10005000930200089302000893020008930200082C
:10006000930200089302000893020008930200081C
:10007000930200089302000893020008930200080C
:1000800093020008930200089302000893020008FC
:1000900093020008930200089302000893020008EC
:1000A0009302000893020008651A000893020008F2
:1000B00093020008930200089302000893020008CC
:1000C00093020008930200089302000893020008BC
:1000D00093020008930200089302000893020008AC
:1000E000930200089302000893020008930200089C
:1000F000930200089302000893020008930200088C
:10010000930200089302000893020008930200087B
:10011000930200089302000893020008930200086B
:10012000930200089302000893020008930200085B
:10013000930200089302000893020008930200084B
:10014000930200089302000893020008930200083B
:10015000930200089302000893020008930200082B
:10016000930200089302000893020008930200081B
:10017000930200089302000893020008930200080B
:1001800093020008930200089302000893020008FB
:100190009302000800000000930200089302000888
:1001A00093020008930200089302000893020008DB
:1001B00093020008930200089302000893020008CB
:1001C00093020008930200089302000893020008BB
:1001D000930200089302000800F002F800F03CF8D7
:1001E0000AA090E8000C82448344AAF10107DA4592
:1001F00001D100F031F8AFF2090EBAE80F0013F0A8
:10020000010F18BFFB1A43F001031847441E0000FA
:10021000641E0000103A24BF78C878C1FAD852078B
:1002200024BF30C830C144BF04680C607047000070
:100230000023002400250026103A28BF78C1FBD8EF
:10024000520728BF30C148BF0B6070471FB501F08F
:10025000EDFE1FBD10B510BD00F058F81146FFF7B8
:10026000F5FF01F0A9FE00F076F803B4FFF7F2FF06
:1002700003BC00F07BF800000948804709480047AC
:10028000FEE7FEE7FEE7FEE7FEE7FEE7FEE7FEE746
:10029000FEE7FEE704480549054A064B70470000A3
:1002A000511A0008D9010008C0000020C006002033
:1002B000C0020020C00200204FF0000200B513462B
:1002C00094469646203922BFA0E80C50A0E80C5076
:1002D000B1F12001BFF4F7AF090728BFA0E80C5027
:1002E00048BF0CC05DF804EB890028BF40F8042B20
:1002F00008BF704748BF20F8022B11F0804F18BF8D
:1003000000F8012B7047704770477047754600F042
:1003100029F8AE4605006946534620F00700854699
:1003200018B020B5FFF7B6FFBDE820404FF000063B
:100330004FF000074FF000084FF0000B21F00701CD
:10034000AC46ACE8C009ACE8C009ACE8C009ACE810
:10035000C0098D4670470446AFF300802046FFF782
:1003600084FF0000004870475C000020014918200D
:10037000ABBEFEE726000200704700BFFEE77047F5
:1003800072B600BFFEE7000070B5044600F0F6F854
:1003900006462546681C10B104480068054400BFA5
:1003A00000F0ECF8801BA842FAD370BD08000020D2
:1003B00078B502460B460021CAE001268E401D6832
:1003C00005EA0604002C73D01D7905F00305012D04
:1003D00004D01D7905F00305022D13D190684E005D
:1003E0000325B540A8434E00DD68B5402843906022
:1003F000506801258D40A8431D79C5F300158D4037
:10040000284350601D7905F00305032D09D0D068FD
:100410004E000325B540A8434E009D68B5402843D3
:10042000D0601D7905F00305022D13D1CE0802F12D
:10043000200555F826004D07EE0E0F25B540A843C0
:100440004E07F60E1D69B5402843CE0802F120057F
:1004500045F8260010684E000325B540A8431D79D5
:1004600005F003054E00B540284310605D6805F4B3
:100470004035002D6BD000BF384D2D6E45F0010585
:10048000364E356635462D6E05F00105009500BFE8
:1004900000BF4FEAB6358E0855F826008D072E0F9F
:1004A0000F25B540A843B2F1904F02D100251AE0C4
:1004B0004DE02B4DAA4201D1012514E0294DAA425D
:1004C00001D102250FE0284DAA4201D103250AE0FF
:1004D000264DAA4201D1042505E0254DAA4201D1AD
:1004E000052500E006258E07360FB5402843214D2F
:1004F0008E0845F82600204D2868A0435D6805F465
:10050000801505B120431C4D28602D1D2868A0438F
:100510005D6805F4001505B12043174D2D1D2860B9
:10052000154D2D1F2868A0435D6805F4003505B101
:100530002043114D2D1F28602D1F2868A0435D68A2
:1005400005F4803505B120430B4D083D2860491C5A
:100550001D68CD40002D7FF430AF78BD0010024003
:100560000004004800080048000C00480010004843
:1005700000140048080001400804014001480068D8
:100580007047000000000020034800680349096824
:10059000084401490860704700000020080000205E
:1005A00010B50024032000F0ABF80F2000F008F88D
:1005B00008B1012401E000F02FF8204610BD000032
:1005C00070B50446002511480068D8B10F4800688E
:1005D0004FF47A71B1FBF0F00D490968B1FBF0F608
:1005E000304600F049FD58B9102C07D200222146B0
:1005F000501E00F047F80748046004E0012502E0BF
:10060000012500E00125284670BD000008000020FB
:100610000C0000200400002008B500BF0E48006E4A
:1006200040F001000C4908660846006E00F0010029
:10063000009000BF00BF00BF0846806D40F08050B2
:1006400088650846806D00F08050009000BF00BFB4
:1006500000F0F6F808BD0000001002400146084610
:1006600000280DDB00BF00BF00F01F0301229A40ED
:1006700043099B0003F1E023C3F8002100BF00BF42
:1006800000BF70472DE9F05F80460D46164601F029
:1006900077FC074639462A46334601F00700C0F189
:1006A000070ABAF1040F02D94FF0040A01E0C0F1C1
:1006B000070AD14600F1040ABAF1070F02D24FF03F
:1006C000000A01E0A0F1030AD4464FF0010A0AFA39
:1006D00009FAAAF1010A0AEA020A0AFA0CFA4FF028
:1006E000010B0BFA0CFBABF1010B0BEA030B4AEA13
:1006F0000B042146404601F04BFCBDE8F09F000092
:1007000000BF00F00702064B19684FF6FF031940BF
:10071000044B0B4343EA0221014B196000BF7047B1
:100720000CED00E00000FA0502468ABB4148006873
:1007300000F4C060B0F5806F2BD13E488030006877
:1007400020F480703B4BC3F880001846006820F40A
:10075000C06040F400701860374800683223584386
:10076000364BB0FBF3F0411C00E0491E31484069B4
:1007700000F48060B0F5806F01D10029F5D12D48DB
:10078000406900F48060B0F5806F51D1032070475C
:1007900008E028488030006820F48070254BC3F8BA
:1007A000800045E0B2F5007F3AD12248006800F4AD
:1007B000C060B0F5806F2AD11E488030006840F4D8
:1007C00080701C4BC3F880001846006820F4C0609D
:1007D00040F4007018601848006832235843174BE3
:1007E000B0FBF3F0411C00E0491E1248406900F4E0
:1007F0008060B0F5806F01D10029F5D10D484069C6
:1008000000F48060B0F5806F12D10320BFE7094883
:100810008030006840F48070064BC3F8800007E029
:100820000448006820F4C06040F48060014B186008
:100830000020ACE7007000400C00002040420F0098
:100840000348806840F48040014988607047000098
:10085000007000402DE9F04104460D464FF00008BD
:1008600014B90120BDE8F0817D48006800F00F0058
:10087000A8420ED27A48006820F00F002843784939
:1008800008600846006800F00F00A84201D001206F
:10089000E8E7207800F00100002864D060680328B1
:1008A00023D17048006800F0007008B90120D9E732
:1008B00001F060F806466C48864237D9694880687E
:1008C00000F0F00030B1207800F0020002282DD1B5
:1008D000A06858BB6348806820F0F00040F08000BA
:1008E000604988604FF0800820E06068022806D1E7
:1008F0005C48006800F4003040B90120B2E7594874
:10090000006800F4806008B90120ABE700F0B4F89B
:1009100006465548864209D95248806820F0F000C2
:1009200040F080004F4988604FF080084D48806853
:1009300020F00300616808434A498860FFF71EFE03
:10094000074608E0FFF71AFEC01B41F288318842D3
:1009500001D9032086E74348806800F00C006168F5
:10096000B0EB810FEED1207800F00200022820D1F8
:10097000207800F00400042805D13A48806840F44B
:10098000E06038498860207800F00800082807D126
:100990003448806820F4605040F4E0603149886059
:1009A0003048806820F0F000A16808432D49886035
:1009B00008E0B8F1800F05D12A48806820F0F000E7
:1009C000284988602648006800F00F00A84219D91D
:1009D0002348006820F00F00284321490860FFF7F2
:1009E000CDFD074608E0FFF7C9FDC01B41F2883185
:1009F000884201D9032035E71948006800F00F004C
:100A0000A842F0D1207800F00400042807D115484E
:100A1000806820F4E060E16808431249886020782B
:100A200000F00800082808D10E48806820F46050C3
:100A3000216940EAC1000B49886000F01DF80949AE
:100A40008968C1F30311094A515C01F01F01C840D4
:100A50000749086007480068FFF7B2FD02E7000099
:100A6000002002400010024000B4C40436200008F8
:100A70000C0000200400002070B5224DAD6805F088
:100A80000C05042D01D120483AE01E4DAD6805F05B
:100A90000C05082D01D11D4832E01A4DAD6805F056
:100AA0000C050C2D2BD1174DED6805F00304154DE9
:100AB000ED68C5F303156A1C022C0CD0032C09D178
:100AC000124DB5FBF2F50F4EF668C6F3062605FB90
:100AD00006F10AE000BF0C4DB5FBF2F5094EF668D1
:100AE000C6F3062605FB06F100BF00BF054DED6805
:100AF000C5F341656D1C6B00B1FBF3F000E0002015
:100B000070BD0000001002400024F40040787D0118
:100B10002DE9F843044614B90120BDE8F883207894
:100B200000F00100002865D0FC48806800F00C0748
:100B3000FA48C06800F003060C2F01D1032E01D043
:100B4000082F0AD1F548006800F40030002851D081
:100B5000606800284ED10120DFE700BF6068B0F573
:100B6000803F06D1ED48006840F48030EB490860D2
:100B70001AE06068B0F5A02F0BD1E848006840F497
:100B80008020E64908600846006840F4803008602C
:100B90000AE0E248006820F48030E0490860084636
:100BA000006820F48020086000BF606888B1FFF70B
:100BB000E5FC054606E0FFF7E1FC401B642801D98F
:100BC0000320AAE7D548006800F400300028F2D0DE
:100BD00010E0FFF7D3FC054606E0FFF7CFFC401B13
:100BE000642801D9032098E7CC48006800F400305D
:100BF0000028F2D1207800F00200022860D1C74816
:100C0000806800F00C07C548C06800F003060C2F90
:100C100001D1022E01D0042F18D1C048006800F481
:100C2000806018B1E06808B9012076E7BB484068E9
:100C300020F0FE40217C40EA0160B8494860B84895
:100C40000068FFF7BDFC18B3012066E7E06800B359
:100C5000B248006840F48070B0490860FFF78EFC2D
:100C6000054606E0FFF78AFC401B022801D9032055
:100C700053E7AA48006800F480600028F2D0A74833
:100C8000406820F0FE40217C40EA0160A3494860B2
:100C900016E0A248006820F48070A0490860FFF7C1
:100CA0006DFC054606E0FFF769FC401B022801D9F0
:100CB000032032E79948006800F480600028F2D1F0
:100CC000207800F00800082836D16069D0B1934838
:100CD0009430006840F001009049C1F89400FFF79B
:100CE0004DFC054606E0FFF749FC401B022801D9F0
:100CF000032012E789489430006800F002000028C1
:100D0000F1D019E085489430006820F00100834953
:100D1000C1F89400FFF732FC054606E0FFF72EFC11
:100D2000401B022801D90320F7E67C489430006874
:100D300000F002000028F1D1207800F0040004281F
:100D400072D14FF000087548806D012121EA1070C2
:100D500078B100BF7148806D40F080506F49886560
:100D60000846806D00F08050009000BF00BF4FF03B
:100D700001086C48006800F48070B0B969480068E8
:100D800040F4807067490860FFF7F8FB054606E00D
:100D9000FFF7F4FB401B022801D90320BDE66148A0
:100DA000006800F480700028F2D000BFA06801281D
:100DB00008D15A489030006840F001005749C1F806
:100DC000900021E0A06805280FD1544890300068B9
:100DD00040F004005149C1F890000846D0F8900056
:100DE00040F00100C1F890000EE04C4890300068DF
:100DF00020F001004949C1F890000846D0F8900061
:100E000020F00400C1F8900000BFA068A8B1FFF76F
:100E1000B5FB054609E0FFF7B1FB401B41F2883105
:100E2000884202D9032078E625E03C4890300068EB
:100E300000F002000028EED013E0FFF79FFB05460C
:100E400008E0FFF79BFB401B41F28831884201D943
:100E5000032062E631489030006800F0020000286C
:100E6000EFD1B8F1010F05D12C48806D20F08050F2
:100E70002A49886500BF207800F02000202836D15C
:100E8000A069D0B125489830006840F0010023499E
:100E9000C1F89800FFF772FB054606E0FFF76EFB0E
:100EA000401B022801D9032037E61C48983000680F
:100EB00000F002000028F1D019E0184898300068CE
:100EC00020F001001549C1F89800FFF757FB0546CF
:100ED00006E0FFF753FB401B022801D903201CE664
:100EE0000E489830006800F002000028F1D1E06957
:100EF000002860D00948806800F00C000C287FD0E2
:100F0000E069022858D10548006820F08070034944
:100F10000860FFF733FB05460DE0000000100240BB
:100F20000400002000700040FFF728FB401B02284F
:100F300001D90320F1E54D48006800F00070002859
:100F4000F2D1D4E90810401E41EA0011A06A41EA3A
:100F50000021208E0122C2EB500041EA4051342092
:100F6000005DC2EB500041EA40612C20005D41EA87
:100F7000C0603E49C9683E4A114008433B49C860C9
:100F80000846006840F0807008600846C06840F07D
:100F90008070C860FFF7F2FA054606E0FFF7EEFA48
:100FA000401B022801D90320B7E53048006800F053
:100FB00000700028F2D056E02C48006820F08070C5
:100FC0002A4908600846C06820F00300C860084647
:100FD000C068284908402549C860FFF7CFFA054690
:100FE00007E00DE0FFF7CAFA401B022801D90320F1
:100FF00093E51E48006800F000700028F2D132E04E
:10100000E069012800D188E51848C66806F00301A8
:10101000206A814225D106F0F001606A401EB1EBE2
:10102000001F1ED106F4FE41A06AB1EB002F18D1BB
:1010300006F078412C20005DB1EBC06F11D106F4B1
:10104000C001208E0122C2EB5000B1EB405F08D1FD
:1010500006F0C0613420005DC2EB5000B1EB406F80
:1010600001D0012059E5002057E5000000100240A2
:101070000C809F01FFFFEEFE70B504462546681EFA
:10108000B0F1807F01D301200FE0681E4FF0E02116
:1010900048610F214FF0FF3000F07AFF00204FF041
:1010A000E021886107200861002070BD704770470B
:1010B0007047000010B50246002300BF92F83C00C4
:1010C000012801D1022010BD012082F83C0000BFA0
:1010D00023F0FF00CC6840EA040323F440708C68DE
:1010E00040EA040323F480604C6840EA040323F4DC
:1010F00000600C6840EA040323F480500C6940EA65
:10110000040323F400504C6940EA040323F48040B4
:101110000C6B40EA040323F470200C8B40EA044378
:10112000224C1068A04207D0214C1068A04203D086
:10113000204C1068A04204D123F08050CC6940EAD2
:1011400004031A4C1068A04207D0194C1068A04242
:1011500003D0184C1068A0421FD123F470000C8DEE
:1011600040EA045323F080700C6A40EA040323F041
:1011700000704C6A40EA04030C4C1068A04207D08F
:101180000B4C1068A04203D00A4C1068A04204D156
:1011900023F00050CC6A40EA04031068436400BFA7
:1011A000002082F83C0000BF00BF8CE7002C01400B
:1011B000003401400050014070477047704770474D
:1011C00010B504460CB9012010BD94F83D0028B9B3
:1011D000002084F83C00204600F02AF8022084F821
:1011E0003D00211D206800F045FC012084F84800E6
:1011F00000BF84F83E0001213F20015540200155E9
:1012000041200155422001554320015500BF00BF38
:10121000012084F84400452001554620015547200F
:10122000015500BF012084F83D000020CCE70000FC
:1012300038B504460D492068884215D100BF0C48D6
:10124000006E40F480200A4908660846006E00F4EB
:101250008020009000BF00BF002211461A20FFF737
:1012600011FA1A20FFF7FAF938BD000000480140D2
:1012700000100240704710B5044620680069C0F3B2
:101280004000D8B12068C068C0F34000B0B16FF032
:10129000020021680861012020772068806900F041
:1012A000030018B12046FFF7E5FF05E0204600F0F7
:1012B00031F9204600F01FFA0020207720680069ED
:1012C000C0F38000D8B12068C068C0F38000B0B11E
:1012D0006FF004002168086102202077206880698F
:1012E00000F4407018B12046FFF7C4FF05E0204627
:1012F00000F010F9204600F0FEF900202077206869
:101300000069C0F3C000D8B12068C068C0F3C00055
:10131000B0B16FF0080021680861042020772068D0
:10132000C06900F0030018B12046FFF7A3FF05E0F5
:10133000204600F0EFF8204600F0DDF9002020778D
:1013400020680069C0F30010D8B12068C068C0F3FD
:101350000010B0B16FF010002168086108202077FC
:101360002068C06900F4407018B12046FFF782FF82
:1013700005E0204600F0CEF8204600F0BCF9002041
:1013800020772068006900F0010058B12068C0682B
:1013900000F0010030B16FF00100216808612046C3
:1013A00000F060FA20680069C0F3C01058B12068EE
:1013B000C068C0F3C01030B16FF0800021680861D0
:1013C0002046FFF774FE20680069C0F3002058B182
:1013D0002068C068C0F3C01030B16FF4807021681D
:1013E00008612046FFF762FE20680069C0F38010A4
:1013F00058B12068C068C0F3801030B16FF0400071
:1014000021680861204600F02EFA20680069C0F3C8
:10141000401058B12068C068C0F3401030B16FF080
:101420002000216808612046FFF742FE206800691D
:10143000C0F3005058B12068C068C0F3005030B10C
:101440006FF48010216808612046FFF7B6FE20681F
:101450000069C0F3405058B12068C068C0F34050E4
:1014600030B16FF40010216808612046FFF7A4FE38
:1014700020680069C0F3805058B12068C068C0F38C
:10148000805030B16FF48000216808612046FFF77A
:1014900095FE20680069C0F3C05058B12068C0684C
:1014A000C0F3C05030B16FF40000216808612046DD
:1014B000FFF785FE10BD000010B586B0044614216C
:1014C00001A8FEF7F9FE1049206888421AD100BF32
:1014D0000E48C06C40F002000C49C8640846C06C5D
:1014E00000F00200009000BF00BF481501900220EC
:1014F00002900020039004900120059001A9044867
:10150000FEF756FF06B010BD004801400010024033
:101510000004004870472DE9F04104460D46164688
:10152000002700BF94F83C00012802D10220BDE84A
:10153000F081012084F83C0000BF0C2E51D005DC66
:101540004EB1042E1ED0082E7AD133E0102E60D07A
:10155000142EF9D175E02946206800F00DFB2068B3
:10156000806940F00800216888612068806920F067
:10157000040021688861206880692969084321681E
:10158000886178E02946206800F054FB2068806973
:1015900040F40060216888612068806920F48060E0
:1015A0002168886120688069296940EA01202168F2
:1015B000886160E02946206800F0A0FB2068C069CF
:1015C00040F008002168C8612068C06920F004006C
:1015D0002168C8612068C069296908432168C86119
:1015E00049E02946206800F0EBFB2068C06940F420
:1015F00000602168C8612068C06920F480602168AB
:10160000C8612068C069296940EA01202168C86171
:1016100031E02946206800F037FC2068006D40F07A
:101620000800216808652068006D20F0040021682A
:1016300008652068006D29690843216808651AE07B
:1016400017E02946206800F05BFC2068006D40F43C
:101650000060216808652068006D20F480602168C2
:1016600008652068006D296940EA01202168086545
:1016700001E0012700BF00BF00BF002084F83C004C
:1016800000BF384653E710B504460CB9012010BD21
:1016900094F83D0028B9002084F83C00204600F072
:1016A00029F8022084F83D00211D206800F0E2F9AD
:1016B000012084F8480000BF84F83E0001213F204B
:1016C000015540200155412001554220015543203C
:1016D000015500BF00BF012084F84400452001559A
:1016E000462001554720015500BF012084F83D00E8
:1016F0000020CCE77047704770B504460D4615B919
:1017000094F83E0015E0042D02D13F20005D10E06A
:10171000082D02D14020005D0BE00C2D02D14120AC
:10172000005D06E0102D02D14220005D01E0432063
:10173000005D012801D0012070BD1DB9022084F890
:101740003E001AE0042D03D102213F20015514E090
:10175000082D03D10221402001550EE00C2D03D1AC
:1017600002214120015508E0102D03D10221422021
:10177000015502E00221432001550122294620683B
:1017800000F0E8F92D492068884213D02C492068E0
:1017900088420FD02B49206888420BD02A49206804
:1017A000884207D029492068884203D02849206808
:1017B000884201D1012000E0002028B12068406C5F
:1017C00040F40040216848641C49206888421BD0CE
:1017D0002068B0F1804F17D01E492068884213D08E
:1017E0001D49206888420FD01C49206888420BD0D0
:1017F00013492068884207D012492068884203D0E4
:1018000013492068884210D120688068144900EA92
:101810000106062E0FD0B6F5803F0CD02068006878
:1018200040F001002168086005E02068006840F091
:1018300001002168086000207EE70000002C0140C4
:101840000034014000400140004401400048014094
:10185000005001400004004000080040000C00401F
:10186000070001007047704700BFFEE708B500BFE2
:101870001348C06C40F020001149C8640846C06C91
:1018800000F02000009000BF00BF00BF0846C06C01
:1018900040F00100C8640846C06C00F001000090F0
:1018A00000BF00BF00BF0846C06C40F00200C86423
:1018B0000846C06C00F00200009000BF00BF08BDE9
:1018C0000010024000B595B01C210EA8FEF7F4FCF4
:1018D000342101A8FEF7F0FC2148224908609F202E
:1018E000486000211F48816040F2F311C16000216F
:1018F000016141618161FFF763FC08B1FEF740FDC2
:101900001848FFF7C0FE08B1FEF73AFD60200E90C0
:1019100000200F90109011901290139014900022BC
:101920000EA91048FFF7F7FD08B1FEF729FD0020CA
:10193000019002900390049005904FF4005006909F
:10194000002007900D9001A90648FFF7B3FB08B1EE
:10195000FEF716FD0348FFF7AFFD15B000BD000010
:10196000004801401000002000BFFEE700BFFEE776
:101970007047000070B5164DED6805F00304144D76
:10198000ED68C5F303156B1C022C0CD0032C09D198
:10199000104DB5FBF3F50E4EF668C6F3062605FBB3
:1019A00006F10AE000BF0C4DB5FBF3F5084EF668F2
:1019B000C6F3062605FB06F100BF00BF044DED6827
:1019C000C5F341656D1C6A00B1FBF2F070BD00000B
:1019D0000010024040787D010024F400704710B5EB
:1019E000FEF7D2FD10BD00B593B0382105A8FEF773
:1019F00063FC14216846FEF75FFC0020FEF794FEAE
:101A0000012005900004069002200C9003210D9106
:101A100005210E9140210F910221109111911291F7
:101A200005A8FFF775F808B1FEF7AAFC0F20009093
:101A30000320019000200290039004900421684646
:101A4000FEF708FF08B1FEF79BFC13B000BD0000D5
:101A50000348006840F470000149086070470000C6
:101A600088ED00E010B50248FFF705FC10BD00004E
:101A70001000002010B502682D4B984211D0B0F133
:101A8000804F0ED02B4B98420BD02B4B984208D056
:101A90002A4B984205D02A4B984202D0294B9842B3
:101AA00003D122F070024B681A43214B98421AD09E
:101AB000B0F1804F17D01F4B984214D01E4B984264
:101AC00011D01E4B98420ED01D4B98420BD01E4B8E
:101AD000984208D01D4B984205D01D4B984202D029
:101AE000184B984203D122F44072CB681A4322F07B
:101AF00080034C6943EA040202608B68C3620B688E
:101B000083620B4B98420ED00D4B98420BD00E4B7C
:101B1000984208D00D4B984205D00D4B984202D008
:101B2000084B984201D10B6903630123436110BD47
:101B3000002C01400004004000080040000C004060
:101B40000034014000500140004001400044014089
:101B50000048014030B501F01F05012404FA05F3E7
:101B6000046A9C430462046A01F01F0502FA05F549
:101B70002C43046230BD000030B5056A25F0010534
:101B80000562026A43688469234D2C4024F00304F3
:101B90000D682C4322F002028D682A431F4DA84293
:101BA00000D113E01E4DA84200D10FE01D4DA84208
:101BB00000D10BE01C4DA84200D107E01B4DA8420C
:101BC00000D103E01A4DA84206D100BF22F008025E
:101BD000CD682A4322F00402104DA8420ED0104DC9
:101BE000A8420BD00F4DA84208D00F4DA84205D0F7
:101BF0000E4DA84202D00E4DA84207D123F48073A7
:101C000023F400734D692B438D692B43436084613A
:101C10004D684563026230BD8FFFFEFF002C01401E
:101C200000340140004001400044014000480140B0
:101C30000050014030B5056A25F010050562026AC2
:101C400043688469264D2C4024F440740D6844EAAE
:101C5000052422F020028D6842EA0512214DA84297
:101C600000D113E0204DA84200D10FE01F4DA84243
:101C700000D100BF1E4DA84200D100BF1D4DA8429B
:101C800000D100BF1C4DA84207D100BF22F0800246
:101C9000CD6842EA051222F04002124DA8420ED051
:101CA000114DA8420BD0114DA84208D0104DA842AA
:101CB00005D0104DA84202D00F4DA84209D123F4FF
:101CC000806323F400634D6943EA85038D6943EA29
:101CD0008503436084614D688563026230BD000006
:101CE000FF8FFFFE002C0140003401400040014006
:101CF00000440140004801400050014030B5056AF1
:101D000025F480750562026A4368C469254D2C403C
:101D100024F003040D682C4322F400728D6842EA1B
:101D20000522214DA84200D113E0204DA84200D148
:101D30000FE01F4DA84200D100BF1E4DA84200D1A8
:101D400000BF1D4DA84200D100BF1C4DA84207D1C5
:101D500000BF22F40062CD6842EA052222F48062CC
:101D6000114DA8420ED0114DA8420BD0104DA842E3
:101D700008D0104DA84205D00F4DA84202D00F4DFB
:101D8000A84209D123F4805323F400534D6943EA58
:101D900005138D6943EA05134360C4614D68C5634B
:101DA000026230BD8FFFFEFF002C01400034014075
:101DB0000040014000440140004801400050014003
:101DC00030B5056A25F480550562026A4368C46926
:101DD000264D2C4024F440740D6844EA052422F476
:101DE00000528D6842EA0532214DA84200D113E02D
:101DF000204DA84200D10FE01F4DA84200D100BFE6
:101E00001E4DA84200D100BF1D4DA84200D100BF09
:101E10001C4DA84207D100BF22F40042CD6842EA1F
:101E2000053222F48042124DA8420ED0114DA84234
:101E30000BD0114DA84208D0104DA84205D0104D2E
:101E4000A84202D00F4DA84209D123F4804323F4C5
:101E500000434D6943EA85138D6943EA8513436066
:101E6000C4614D680564026230BD0000FF8FFFFE53
:101E7000002C01400034014000400140004401407A
:101E8000004801400050014030B5056A25F4803516
:101E90000562026A4368046D124D2C400D682C43A4
:101EA00022F400320D8942EA05420F4DA8420ED0BD
:101EB0000E4DA8420BD00E4DA84208D00D4DA842A1
:101EC00005D00D4DA84202D00C4DA84204D123F4F8
:101ED00080334D6943EA0523436004654D6885649A
:101EE000026230BD8FFFFEFF002C01400034014034
:101EF00000400140004401400048014000500140C2
:101F000030B5056A25F480150562026A4368046DE0
:101F1000134D2C400D6844EA052422F400120D896B
:101F200042EA05520F4DA8420ED00F4DA8420BD0E9
:101F30000E4DA84208D00E4DA84205D00D4DA84226
:101F400002D00D4DA84204D123F480234D6943EA09
:101F50008523436004654D68C564026230BD00009E
:101F6000FF8FFFFE002C0140003401400040014083
:101F700000440140004801400050014000BFFEE71E
:101F800002480068C0F30220704700000CED00E03A
:101F900010B5002804DB0A07130E054A135406E0A7
:101FA0000A07140E034A00F00F031B1FD45410BD80
:101FB00000E400E018ED00E0FEF7F2FAFFF713FD91
:101FC000FFF754FCFFF77EFC00211748FFF794FB56
:101FD000002527E000240EE0204604EBD0714910D4
:101FE000A4EB410101B96D1C0F4800684563012055
:101FF000FEF7CAF9641CB4F57A7FEDDB00240EE02D
:10200000204604EBD0714910A4EB410101B96D1ECB
:102010000548006845630120FEF7B6F9641CB4F575
:102020007A7FEDDBD6E70000100000204FF0407013
:10203000E1EE100A704700000000000000000102FD
:102040000304060708090000000001020304000061
:10205000702000080000002010000000140200089A
:102060008020000810000020B006000030020008A8
:102070000000000010000000010000000024F40037
:04000005080001D915
:00000001FF
