:020000040800F2
:1000000088070020790200089B1600086315000885
:10001000991600087F030008A119000800000000DD
:10002000000000000000000000000000211900088E
:1000300081030008000000009D1600082319000835
:10004000930200089302000893020008930200083C
:10005000930200089302000893020008930200082C
:10006000930200089302000893020008930200081C
:10007000930200089302000893020008930200080C
:1000800093020008930200089302000893020008FC
:1000900093020008930200089302000893020008EC
:1000A00093020008930200089302000893020008DC
:1000B00093020008930200089302000893020008CC
:1000C00093020008930200089302000893020008BC
:1000D00093020008930200089302000893020008AC
:1000E000930200089302000893020008930200089C
:1000F000930200089302000893020008930200088C
:10010000930200089302000893020008930200087B
:10011000930200089302000893020008930200086B
:10012000930200089302000893020008930200085B
:10013000930200089302000893020008930200084B
:10014000930200089302000893020008930200083B
:10015000930200089302000893020008930200082B
:10016000930200089302000893020008930200081B
:10017000930200089302000893020008930200080B
:1001800093020008930200089302000893020008FB
:100190009302000800000000930200089302000888
:1001A00093020008930200089302000893020008DB
:1001B00093020008930200089302000893020008CB
:1001C00093020008930200089302000893020008BB
:1001D000930200089302000800F002F800F03CF8D7
:1001E0000AA090E8000C82448344AAF10107DA4592
:1001F00001D100F031F8AFF2090EBAE80F0013F0A8
:10020000010F18BFFB1A43F001031847F417000051
:1002100014180000103A24BF78C878C1FAD85207E1
:1002200024BF30C830C144BF04680C607047000070
:100230000023002400250026103A28BF78C1FBD8EF
:10024000520728BF30C148BF0B6070471FB501F08F
:10025000CAFB1FBD10B510BD00F058F81146FFF7DE
:10026000F5FF01F0AEFB00F076F803B4FFF7F2FF04
:1002700003BC00F07DF800000948804709480047AA
:10028000FEE7FEE7FEE7FEE7FEE7FEE7FEE7FEE746
:10029000FEE7FEE704480549054A064B70470000A3
:1002A00091190008D9010008880100208807002062
:1002B00088030020880300204FF0000200B5134699
:1002C00094469646203922BFA0E80C50A0E80C5076
:1002D000B1F12001BFF4F7AF090728BFA0E80C5027
:1002E00048BF0CC05DF804EB890028BF40F8042B20
:1002F00008BF704748BF20F8022B11F0804F18BF8D
:1003000000F8012B7047704770477047754600F042
:100310002BF8AE4605006946534620F00700854697
:1003200018B020B5FFF7B6FFBDE820404FF000063B
:100330004FF000074FF000084FF0000B21F00701CD
:10034000AC46ACE8C009ACE8C009ACE8C009ACE810
:10035000C0098D46704710B50446AFF300802046B3
:10036000BDE81040FFF781BF00487047240100201E
:1003700001491820ABBEFEE7260002007047FEE7E9
:1003800070470000F8B5064600200F4DADF800009C
:1003900002464FF480542146284600F0EFF90A2324
:1003A00001226946304600F0D3FE0122214628464C
:1003B00000F0E4F9BDF80010C1F3CB00CA0B03490B
:1003C00000D008880880F8BD000400481000002014
:1003D000F8B506460020ADF8000002464FF4004490
:1003E0004FF090452146284600F0C8F90A23012223
:1003F0006946304600F0ACFE01222146284600F056
:10040000BDF9BDF80010C1F3CB00CA0B024900D002
:1004100048884880F8BD0000100000202DE9F04712
:100420002048FFF7AFFF20494FF4006801F10A05AB
:100430008880AA88C8F10009821AA1F132044245D5
:1004400003DDA268A2F5805204E04A45A26802DA00
:1004500002F58052A260144E8A460A3E1118B6F97F
:100460000420A6F11407891AB960A8800F48FFF785
:10047000AFFFAAF80600E988411A414503DDE168AB
:10048000A1F5805104E04945E16802DA01F58051A7
:10049000E160B6F906200144891AF960E880BDE8F8
:1004A000F0870000140000200E01002078000020DA
:1004B00010B53021124801F050F93021114801F0F7
:1004C0004CF900240E48FFF75DFF0E48FFF780FF50
:1004D000002000F01DF8641CE4B2322CF2D308486E
:1004E000FFF750FF084CA0800648FFF771FFE0803F
:1004F00004F11400A1888180E188C18010BD000052
:1005000014000020780000200401002072B6FEE7ED
:1005100070B5044600F038F90546601C02D0044866
:100520004068044400F030F9401BA042FAD370BD8B
:10053000000000202DE9F04FDFF820920023012673
:100540000324A9F1040B85B00F2709F1040AABF1CC
:10055000040EFAE006FA03F52A407CD091F804C0B4
:100560000CF0030CBCF1010F02D0BCF1020F26D13C
:10057000D0F808C0CDF800C04FEA430C04FA0CF8DC
:10058000CDF810C0DDF800C02CEA080CCDF800C092
:10059000D1F80C80DDF810C008FA0CF8DDF800C0C6
:1005A00048EA0C08C0F80880D0F804C02CEA050C12
:1005B0000D79C5F300159D4045EA0C0545600D79A0
:1005C000ED43AD070ED0C5684FEA430804FA08FCB6
:1005D00025EA0C05D1F808C00CFA08FC4CEA050C19
:1005E000C0F80CC00D7905F00305022D16D1DD0809
:1005F00000EB850CCDF808C0DCF820805D074FEAE1
:10060000D56C07FA0CF528EA05080D6905FA0CF512
:10061000DDF808C045EA0805CCF8205005684FEA27
:10062000430CCDF808C004FA0CFC25EA0C0591F83F
:1006300004C00CF00308DDF808C008FA0CF848EA1A
:100640000508C0F800804D6815F4403F7CD0444D4B
:10065000D5F860C000E077E04CF0010CC5F860C050
:100660002D6E23F0030C05F0010500953D4D65440A
:100670000295AD684FEA837C4FEA1C7807FA08FCC4
:1006800025EA0C05B0F1904F06D0DFF8DCC06045DC
:1006900005D14FF0010C20E04FF0000C1DE0DFF819
:1006A000CCC0604502D14FF0020C16E0DFF8C0C0AC
:1006B000604502D14FF0030C0FE0DFF8B8C0604591
:1006C00002D14FF0040C08E0DFF8ACC0604502D165
:1006D0004FF0050C01E04FF0060C0CFA08FC4CEA58
:1006E000050C029DC5F808C0D9F80050CC46D1F8D9
:1006F000048095435FEAC82800D51543CCF8005024
:10070000DAF80050D446D1F8048095435FEA88288F
:1007100000D51543CCF80050DBF80050DC46D1F88A
:10072000048095435FEA883800D51543CCF8005023
:10073000DEF80050F446D1F8048095435FEAC838EB
:1007400000D51543CCF800505B1C0A6832FA03F55B
:100750007FF400AF05B0BDE8F08F00000804014051
:10076000001002400000014000040048000800485A
:10077000000C004800100048001400480AB18161D4
:100780007047816270470000014880687047000030
:10079000000000200248816842681144816070476F
:1007A0000000002010B50024032000F065F80F20A1
:1007B00000F008F808B1012401E000F025F8204617
:1007C00010BD000070B50E4E05460024706898B14B
:1007D0004FF47A71B1FBF0F00A490968B1FBF0F00F
:1007E00000F0ABFE40B9102D06D200222946501E63
:1007F00000F022F8356000E00124204670BD0000C2
:10080000000000200C0000200A4882B0016E41F078
:1008100001010166016E01F001010091816D41F05D
:1008200080518165806D00F08050009002B000F032
:1008300093B8000000100240F0B40E4B1B680C4649
:10084000C3F30223C3F10705042D00D90425191DA4
:10085000072901D2002300E0DB1E012606FA05F17C
:10086000491E214099409E40761E16403143F0BCFF
:1008700001F097B80CED00E0064900F007020868A7
:100880004FF6FF03184040EA0220034A1043086075
:10089000704700000CED00E00000FA052B492C4BDE
:1008A0000A6832214A432B4940B1B0F5007F0868FD
:1008B00029D020F4C06040F480602CE00868C0F3C8
:1008C0004120022804D051F8800F20F4807022E0EB
:1008D000D1F8800020F48070C1F88000086820F40E
:1008E000C06040F400700860B2FBF3F0401C00E010
:1008F000401E4A69520501D50028F9D148694005D2
:100900000AD503207047C0F34120022806D051F8D1
:10091000800F40F48070086000207047D1F880009C
:1009200040F48070C1F88000086820F4C06040F492
:1009300000700860B2FBF3F0401C00E0401E4A6902
:100940005205DBD50028F9D1D8E700000C000020C3
:1009500040420F00007000400248816841F480412D
:1009600081607047007000402DE9F0470E46050099
:100970004FF0000725D0DFF8AC81D8F8000000F078
:100980000F00B0420CD2D8F8001021F00F01314313
:10099000C8F80010D8F8000000F00F00B04210D1E5
:1009A0002968614CC80741F2883A5AD06868DFF874
:1009B0007C91032808D0022820682DD0400500280B
:1009C0002CDB0120BDE8F08720688001F9D5E068C4
:1009D00000F00302E068C0F30310401C032A19D0A2
:1009E000534A00BFB2FBF0F0E268C2F30622504364
:1009F000E268C2F34162521C5200B0FBF2F048457B
:100A000017D9A06810F0F00F0CD0880711D5A8688E
:100A100040B10EE0474AE5E78003D0E700F092F8E6
:100A2000484506D9A06820F0F00040F08000A060A2
:100A30008027A068696820F003000843A060FFF7E2
:100A4000A3FE814606E000BFFFF79EFEA0EB090172
:100A500051453AD8A068696800F00C00B0EB810FEE
:100A6000F2D12868810714D5400703D5A06840F467
:100A7000E060A0602878000705D5A06820F46050E9
:100A800040F4E060A060A068A96820F0F00008438E
:100A900004E0802F03D1A06820F0F000A060D8F817
:100AA0000010404601F00F01B14216D9016821F053
:100AB0000F0131430160FFF767FE074607E000BF03
:100AC000FFF762FEC11B514501D903207AE7D8F830
:100AD000000000F00F00B042F2D12878400705D5A1
:100AE000A068E96820F4E0600843A0602878000767
:100AF00006D5A068296920F4605040EAC100A060D2
:100B000000F020F8A1680C4AC1F30311515C01F018
:100B10001F01C8400949086009480068BDE8F0475E
:100B2000FFF750BE002002400010024000B4C40491
:100B30000024F40000127A00F01900080C000020D4
:100B400000000020184910B58868C0F381021748DA
:100B5000012A0BD08A684310C2F38102022A06D010
:100B60008A68C2F38102032A03D0002010BD184610
:100B700010BDCA6802F00304CA68C2F30312521C13
:100B8000032C02D0B0FBF2F001E0B3FBF2F0CA6834
:100B9000C968C2F306225043C1F34161491C4900B0
:100BA000B0FBF1F010BD0000001002400024F40082
:100BB0002DE9F84304007AD02078FA4DC00747D0D9
:100BC000A868E96800F00C0001F003010C2802D0CD
:100BD000082817D001E0032914D06068B0F5803FE1
:100BE00017D0B0F5A02F286817D020F480302860E7
:100BF000286820F4802028606068E0B1FFF7C4FD19
:100C0000064614E02868800322D560680028D2D008
:100C10001EE0286840F48030EDE740F48020286032
:100C2000F7E700BFFFF7B0FD801B642870D8286885
:100C30008003F7D50CE0FFF7A7FD064605E000BFEF
:100C4000FFF7A2FD801B6428F0D828688003F7D442
:100C5000207880074CD5A868E96800F00C0001F006
:100C600003010C2802D004280DD001E002290AD08B
:100C7000E068002828682BD040F480702860FFF7D7
:100C800083FD064619E02868400502D5E068002883
:100C900091D06868217C20F0FE4040EA01606860E5
:100CA000C1480068FFF78EFD002800D120E076E102
:100CB000FFF76AFD801B0228B8D828684005F7D5E1
:100CC0006868217C20F0FE4040EA016068600FE027
:100CD00020F480702860FFF757FD064605E000BF4E
:100CE000FFF752FD801B0228A0D828684005F7D4E2
:100CF0002078000729D560690028D5F8940013D022
:100D000040F00100C5F89400FFF73EFD064606E0FE
:100D100090E000BFFFF738FD801B022886D8D5F889
:100D200094008007F6D510E020F00100C5F894008B
:100D3000FFF72AFD064604E0FFF726FD801B022888
:100D400078D8D5F894008007F6D42078400761D58C
:100D5000A86D0026C00008D4A86D40F08050A8659A
:100D6000A86D012600F08050009090480168C905E8
:100D700011D40168804641F480710160FFF704FDE1
:100D8000074604E0FFF700FDC01B022852D8D8F840
:100D90000000C005F6D5A068012815D00528D5F8B3
:100DA000900016D020F00100C5F89000D5F8900012
:100DB00020F00400C5F89000A06841F28838B8B16E
:100DC000FFF7E2FC07460EE0D5F8900040F0010086
:100DD000F0E740F00400C5F89000F5E7FFF7D4FC19
:100DE000C11B414526D8D5F890008007F6D50CE008
:100DF000FFF7CAFC074604E0FFF7C6FCC11B4145EC
:100E000018D8D5F890008007F6D41EB1A86D20F050
:100E10008050A8652078800629D5A0690028D5F8DB
:100E2000980013D040F00100C5F89800FFF7ACFC23
:100E3000064606E077E000BFFFF7A6FC801B02280D
:100E400077D8D5F898008007F6D510E020F001009B
:100E5000C5F89800FFF798FC064604E0FFF794FCFD
:100E6000801B022865D8D5F898008007F6D4E06981
:100E7000F0B3A968C1F38101032961D00228286871
:100E800020F0807028600BD0E86820F00300E86054
:100E9000E86847490840E860FFF776FC04464BE005
:100EA000FFF772FC064604E0FFF76EFC801B022889
:100EB0003FD828688001F7D4F4E908016FF00F02E9
:100EC00002EB01110843218A5204490802EB415107
:100ED000A26841EA02210843217D4FF07E42490881
:100EE00002EB41610843217B40EAC160E96800E010
:100EF00062E0304A11400843E860286840F08070A2
:100F00002860E86840F08070E860FFF73DFC044628
:100F100005E000BFFFF738FC001B022809D828684D
:100F20008001F7D548E004E0FFF72EFC001B022803
:100F300002D90320BDE8F88328688001F4D43BE09F
:100F40000128F7D0E868226A00F00301914226D117
:100F5000616A00F0F0020901103991421FD1A26AC2
:100F600000F4FE41B1EB022F19D194F82C2000F0CF
:100F70007841B1EBC26F12D1218E00F4C002490852
:100F80004905A1F50011914209D194F8341000F0FF
:100F9000C06049084906A1F1007181420CD00120CE
:100FA000C8E7000000100240000000200070004070
:100FB000FFFFEEFE0C809F010020BBE770B5040030
:100FC00009D0606A002540B125616561A56294F889
:100FD0005D0040B10CE0012070BD6068B0F5827F1B
:100FE000F4D0E561F2E784F85C50204600F05CF84C
:100FF000022084F85D002068016821F04001016052
:10100000E1684FF4E062914201D9002001E04FF421
:101010008050B1F5706F02D0914200D0A562A188D6
:10102000228901F4827102F404421143227C02F00D
:1010300002021143227D02F001021143228B02F4CD
:1010400000721143227F02F03802114394F82020ED
:1010500002F080021143228D02F4005211432268F3
:101060001160A169042202EA114194F8242000F4DD
:10107000805002F01002114394F8342002F008026C
:101080001143A28902F47062114301432068416058
:101090002068C16921F40061C1612566012084F8DE
:1010A0005D00002070BD000010B586B0044614211C
:1010B0006846FFF701F92368204C002120480222EE
:1010C000A34219D1836D43F480438365836D03F498
:1010D00080430593C36C43F00203C364C06C00F00B
:1010E00002000590A0000090CDE901210520CDE986
:1010F0000310694613481CE0134CA3421BD1836DB7
:1011000043F400438365836D03F400430593C36C8C
:1011100043F00403C364C06C00F0040005904FF476
:10112000E0500090CDE901210620CDE90310694689
:101130000648FFF7FFF906B010BD00000038004078
:101140000010024000040048003C00400008004835
:101150002DE9F84F044640680025984616460F468C
:101160004FF0040BB0F5827F01D1A06888B194F8EC
:101170005C00012818D0012084F85C00FFF704FB14
:10118000814694F85D004FF0000A01280ED0022538
:1011900099E084F85DB013460A462046CDF80080F9
:1011A00000F09AF8BDE8F88F0220FBE7002F77D017
:1011B000002E75D084F85DB0C4F860A02764A4F850
:1011C0004460A4F84660C4F838A0A4F83CA0A4F891
:1011D0003EA0C4F84CA0C4F850A0E0684FF4E06111
:1011E00088422068426802D922F4805201E042F429
:1011F00080524260A068B0F5004F09D120680268B3
:1012000022F0400202602068026822F480420260FC
:1012100020680268520603D4026842F0400202606D
:10122000E06888421DD93FE020688168C9070BD07B
:10123000017B206C0170206C401C2064B4F84600D7
:10124000401EA4F846000CE0FFF79EFAA0EB09014F
:10125000414503D3B8F1FF3F03D03BE0B8F1000FA5
:1012600038D0B4F846000028DED121E0206881683B
:10127000C9070BD0C068216C0880206C801C2064DA
:10128000B4F84600401EA4F846000DE0FFF77CFAD3
:10129000A0EB0901414504D3B8F1FF3F04D019E0A8
:1012A00010E0B8F1000F15D0B4F846000028DDD1E9
:1012B0004A464146204600F0F2F908B12020206657
:1012C000206E00B10125012084F85D0084F85CA047
:1012D000284667E70325F6E72DE9F05F044690F816
:1012E0005C0000270A9E1D4692468B464FF001097E
:1012F00001280ED0012084F85C00FFF745FA8046F3
:1013000094F85D00616801280CD0B1F5827F07D1A7
:1013100002E00220BDE8F09FA16809B9042801D0CD
:10132000022700E1BBF1000F24D0BAF1000F21D059
:1013300005B394F85D00042802D0052084F85D0010
:1013400000202066C4F840A0A4F84650A4F84450F9
:10135000C4F838B0E587A587E0642065E0684FF4FD
:10136000E061884201D8012D06D92068426822F444
:10137000805205E00127D6E02068426842F480529E
:10138000426020680268520603D4026842F04002BC
:101390000260E0688842606845D908B1012D3AD101
:1013A000A06B21680088C860A06B801CA063E08FE0
:1013B000401EE0872FE02068816889070FD5E18F04
:1013C00069B1B9F1010F0AD1A16B0988C160A06BA5
:1013D000801CA063E08F401EE0874FF0000920686A
:1013E0008168C9070FD0B4F8461061B1C068216C9C
:1013F0000880206C801C2064B4F84600401EA4F8CD
:1014000046004FF00109FFF7BFF9A0EB0800B0421A
:1014100001D3701C75D1E08F0028CCD1B4F8460000
:101420000028C8D176E008B1012D6CD1E08F0128E9
:10143000A06B08D921680088C860A06B801CA063DD
:10144000E08F801E07E0216800780873A06B401CC5
:10145000A063E08F401EE08755E02068816889071F
:101460001AD5E18FC1B1B9F1010F15D1E18F012971
:10147000A16B07D90988C160A06B801CA063E08FB5
:10148000801E06E009780173A06B401CA063E08F0A
:10149000401EE0874FF0000920688168C90728D006
:1014A000B4F8461029B3B4F84610012914D9C0681D
:1014B000216C0880206C801C2064B4F84600801EDB
:1014C000A4F84600B4F84600012810D82068416806
:1014D00041F4805141600AE0007B216C0870206C6F
:1014E000401C2064B4F84600401EA4F846004FF0AB
:1014F0000109FFF749F9A0EB0800B04202D3701CC4
:1015000001D018E0BEB1E08F0028A6D1B4F84600A3
:101510000028A2D142463146204600F0FAF810B128
:10152000012720202066012084F85D00002084F837
:101530005C003846EEE60327F5E710B5401EB0F133
:10154000807F01D3012010BD4FF0E02460610F21A6
:10155000601700F026FA0020A0610720206100201B
:1015600010BDFEE72DE9F04186B014216846FEF774
:10157000A3FE1F48C16C41F00201C164C16C01F0BF
:1015800002010591C16C41F00101C164C16C01F01F
:1015900001010591C16C41F00401C164C06C154F9B
:1015A00000F004004FF48054059000222146384694
:1015B000FFF7E4F8E6004FF090480022314640463D
:1015C000FFF7DCF80125CDE90045002402946946C7
:1015D00038460394FEF7AEFF0096CDE90154694604
:1015E00040460394FEF7A6FF06B0BDE8F081000078
:1015F0000010024000040048124810B51049016074
:101600004FF48271416000214FF47062C0E9021210
:101610000222026101224261520282613022C0E94B
:10162000072107224162C0E90A1201634163FFF703
:10163000C5FC002803D0BDE81040FEF767BF10BD11
:101640000038004014000020124810B51049016015
:101650004FF48271416000214FF47062C0E90212C0
:101660000222026101224261520282613022C0E9FB
:10167000072107224162C0E90A1201634163FFF7B3
:101680009DFC002803D0BDE81040FEF73FBF10BD11
:10169000003C004078000020FEE7FEE770472DE99F
:1016A000F843044640684FF48276154689464FF465
:1016B00000474FF48068B04209D1A068B84201D019
:1016C000404504D12068016821F0400101604B468B
:1016D000002280212046009500F0C6F880B960689D
:1016E000B04214D1A068B84201D040450FD14B465A
:1016F00000224FF4C0612046009500F045F830B15B
:10170000206E40F0200020660320BDE8F883002012
:10171000FBE7F8B515460E460B460092044600223C
:101720004FF4C05100F030F888B9334600228021D0
:101730002046009500F098F848B9334600224FF44F
:10174000C0612046009500F01FF8002804D0206EEC
:1017500040F0200020660320F8BD10B50268136831
:1017600023F040031360026813684FF6C7742340E8
:101770001360026813680B4313600068016841F04E
:101780004001016010BD00002DE9FE4F4FF0000A3E
:10179000984617460E4604460C9D8DF804A0FEF7A9
:1017A000F3FF411BA8EB0105FEF7EEFF8146206821
:1017B0004FF4C06B0C3002902A480068C0EBC000A8
:1017C00000EB8000000D6843009043E05E4506D1C9
:1017D0002FB9029800788DF804009DF80400B8F144
:1017E000FF3F37D0FEF7D0FFA0EB0900A84203D29D
:1017F00015B1009858B32BE02068416821F0E00152
:1018000041606068B0F5827F0BD1A068B0F5004FF1
:1018100002D0B0F5806F04D12068016821F040014A
:101820000160A06AB0F5005F09D12068016821F469
:10183000005101602068016841F4005101600120FD
:1018400084F85D0084F85CA00320BDE8FE8F0025CD
:10185000401E0090206880683040B842B6D1002019
:10186000F3E700000C0000202DE9F8431E469146E6
:1018700088460446089DFEF787FF401B351AFEF791
:1018800083FF074625480068C0F3CB30684338E043
:10189000701C37D0FEF778FFC01BA84203D215B1E9
:1018A000009860B32CE02068416821F0E0014160BD
:1018B0006068B0F5827F0BD1A068B0F5004F02D010
:1018C000B0F5806F04D12068016821F0400101600B
:1018D000A06AB0F5005F09D12068016821F40051C9
:1018E00001602068016841F400510160012084F822
:1018F0005D00002084F85C000320BDE8F88300252B
:10190000401E00902068816838EA010004D0002160
:101910004945BDD10020F0E70121F9E70C00002086
:101920007047FEF737BF00B593B038216846FEF721
:10193000C3FC14210EA8FEF7BFFC4FF40070FEF7A5
:10194000ADFF0220C1010391402104910421CDE9A2
:10195000080100904B21CDE90A1007900C900D90E2
:101960006846FFF725F908B172B6FEE70F200E9022
:1019700003200F90002010901190129004210EA8C7
:10198000FEF7F2FF002801D072B6FEE713B000BDEB
:101990000248016841F470010160704788ED00E081
:1019A000FEE70907090E002804DB00F1E02080F8BB
:1019B0000014704700F00F0000F1E02080F8141DC3
:1019C0007047FEF7EFFEFFF7AEFFFFF7CBFDFFF727
:1019D00013FEFFF739FEFEF76BFDFEF71FFD01203A
:1019E000FEF796FDF9E74FF04070E1EE100A704700
:1019F00000000000000000000102030406070809BF
:101A0000201A000800000020140000001402000842
:101A1000341A000814000020740700003002000887
:101A20001000000001000000000000000024F4008D
:041A300000000000B2
:04000005080001D915
:00000001FF
