:020000040800F2
:10000000700B0020A5020008EF1700082517000854
:10001000ED1700089B040008491B000800000000C1
:10002000000000000000000000000000911A00081D
:100030004D05000800000000F1170008931A0008A1
:10004000BF020008BF020008BF020008BF0200088C
:10005000BF020008BF020008BF020008BF0200087C
:10006000BF020008BF020008BF020008BF0200086C
:10007000BF020008BF020008BF020008BF0200085C
:10008000BF020008BF020008BF020008BF0200084C
:100090009D040008BF020008A9040008BF02000870
:1000A000BF020008BF020008BF020008BF0200082C
:1000B000BF020008BF020008BF020008BF0200081C
:1000C000BF020008BF020008BF020008BF0200080C
:1000D000BF020008BF020008BF020008BF020008FC
:1000E000BF020008BF020008BF020008BF020008EC
:1000F000BF020008BF020008BF020008BF020008DC
:10010000BF020008BF020008BF020008BF020008CB
:10011000BF020008BF020008BF020008BF020008BB
:10012000BF020008BF020008BF020008BF020008AB
:10013000BF0200080000000000000000BF0200082D
:10014000BF020008B5040008C1040008BF0200088F
:10015000BF020008BF020008BF020008BF0200087B
:10016000BF020008BF020008BF020008BF0200086B
:10017000BF020008BF020008BF0200080000000024
:1001800000000000BF0200080000000000000000A6
:10019000BF0200080000000000000000BF020008CD
:1001A000000000000000000000000000BF02000886
:1001B000BF020008BF020008BF020008BF0200081B
:1001C000BF02000800F002F800F05CF80AA090E816
:1001D000000C82448344AAF10107DA4501D100F002
:1001E00051F8AFF2090EBAE80F0013F0010F18BF73
:1001F000FB1A43F001031847681C0000881C00002C
:100200000A444FF0000C10F8013B13F0070408BF3C
:1002100010F8014B1D1108BF10F8015B641E05D0DA
:1002200010F8016B641E01F8016BF9D113F0080F8F
:100230001EBF10F8014BAD1C0C1B09D16D1E58BF21
:1002400001F801CBFAD505E014F8016B01F8016B58
:100250006D1EF9D59142D6D37047000000230024CB
:1002600000250026103A28BF78C1FBD8520728BFC6
:1002700030C148BF0B6070471FB501F0E4FD1FBDE2
:1002800010B510BD00F0CFF81146FFF7F5FF01F0F3
:100290006DFC00F0EDF803B4FFF7F2FF03BC00F0D3
:1002A000F5F800000948804709480047FEE7FEE7E7
:1002B000FEE7FEE7FEE7FEE7FEE7FEE7FEE7FEE716
:1002C00004480549054A064B70470000391B0008E1
:1002D000C501000870050020700B00207007002089
:1002E0007007002053EA020C00F069802DE9F04B02
:1002F0004FF00006002B1FBFB3FA83F503FA05F495
:1003000024FA05F65E4012BF1643B2FA82F502FAED
:1003100005F4C5F120051EBF22FA05FC44EA0C04D1
:10032000203556EA044C4FEA144418BF641C4FF0C1
:1003300000084FF00009904271EB030C39D30029FB
:1003400019BFB1FA81F701FA07F6B0FA80F700FA9F
:1003500007F6C7F120071EBF20FA07FC46EA0C0685
:100360002037B6FBF4FCA7EB0507103F07F01F0B87
:10037000CBF120060CFA0BFB2CFA06F644BFB34671
:100380000026202FA4BF5E464FF0000B5BEA060C50
:1003900008BF4FF0010B19EB0B09ABFB027C48EBDC
:1003A0000608C01B06FB02CC0BFB03CC71EB0C0157
:1003B000C1E70B46024641464846BDE8F08B13B5FF
:1003C0004FF000004FF00001AFF30080BDE81C408B
:1003D00070474FF0000200B5134694469646203908
:1003E00022BFA0E80C50A0E80C50B1F12001BFF4EE
:1003F000F7AF090728BFA0E80C5048BF0CC05DF854
:1004000004EB890028BF40F8042B08BF704748BFA1
:1004100020F8022B11F0804F18BF00F8012B704715
:10042000704770477047754600F02CF8AE460500DF
:100430006946534620F00700854618B020B5FFF7FF
:100440003FFFBDE820404FF000064FF000074FF09F
:1004500000084FF0000B21F00701AC46ACE8C009E2
:10046000ACE8C009ACE8C009ACE8C0098D467047EB
:1004700010B50446AFF300802046BDE81040FFF7FA
:100480000ABF0000004870470C05002001491820F1
:10049000ABBEFEE7260002007047FEE7014800F011
:1004A00012BA000024040020014800F00CBA000039
:1004B00024040020014800F006BA00004C0400208B
:1004C000014800F000BA00004C04002030B51D497E
:1004D000036801220D6800218BB00446AB4211D1A4
:1004E000CDE90612059103910992009101910291C3
:1004F00004910892694600F0D5F8204600F040FCCF
:10050000022116E0104D2D68AB4215D105AB0F202E
:1005100083E80700009101910291CDE90312CDE932
:1005200008206946204600F0BDF8204600F028FC6F
:100530001021204600F036F8002801D000F007F81E
:100540000BB030BD240400204C040020704772B66C
:10055000FEE7000010B52DED048BB0EE408AF0EE02
:10056000608A9FED0E9B51EC180B53EC192B01F098
:10057000C3FB0CD353EC192B51EC180B01F02CFBE3
:1005800005D851EC180B01F00FFB41EC180BB0EE45
:10059000480AF0EE680ABDEC048B10BD00000000B4
:1005A0000000000090F82020012A07D0022A05D080
:1005B000416A41F48021416201207047006842692C
:1005C0000A43426100207047F0B590F8205004685B
:1005D000A468012D05D0022D03D0416A41F4802189
:1005E0005DE014F0406F01D1E50055D5C4F301641E
:1005F000022C03D9416A41F4000150E00125A540D5
:100600001D608D684FF4C0739DB1CE6835434E6850
:1006100045EAC605066803EB0417F5514FF4C275A9
:10062000076805EB04150E697E51097D012905D087
:1006300009E00E88CD6845EA4655EBE701684E595A
:1006400046F480764E511179D579567941EA0561A3
:1006500095792D0445EA062529434FF4C6760568A9
:1006600006EB0416A9511178D57841EA0561957811
:1006700052782D0445EA022211434FF4C4750268F2
:1006800005EB04155151006803EB0411425842F088
:10069000010242500020F0BD416A41F40011416264
:1006A0000120F0BD10B590F82020012A07D0022AC1
:1006B00005D0416A41F480214162012010BD3B48D0
:1006C000D0F8002242F00102C0F80022D0F8002247
:1006D00022F47C52C0F80022D0F800224B6A42EA91
:1006E0000322C0F800220A7D02F01F0301229A4073
:1006F000D0F81C329343C0F81C32CB69B3B9D0F8A0
:100700000C329343C0F80C328C894B6864F31F435E
:100710004C6900EBC404C4F840320C890B6864F3E4
:100720001F434C6900EBC404C4F84432CB69012B6D
:1007300016D1D0F80C321343C0F80C320C884B6839
:1007400064F31F434C6900EBC404C4F840320C89C5
:10075000CB6864F31F434C6900EBC404C4F8443213
:100760008B69002BD0F804320ED01343C0F804324A
:100770000B69002BD0F8143208D01343C0F81432A0
:10078000096A012904D008E09343EFE79343F5E7B2
:10079000D0F81C121143C0F81C12D0F8001221F03E
:1007A0000101C0F80012002010BD000000640040EC
:1007B000704730B590F82040012C05D0022C03D0B2
:1007C000416A41F480215DE00468002955D0246924
:1007D000A40754D04FF4D874056804EB01142D59C4
:1007E00015F00405956005682D594ED0ED0855604B
:1007F00005682C5904F00204D4604FF4DA740568DB
:1008000004EB01142D5905F00F05156105682D59EC
:10081000C5F30725956105682C59240C54614FF4E4
:10082000DC72046802EB0112A4581C700468A4581E
:10083000240A5C700468A458240C9C700468A258B4
:10084000120EDA704FF4DE72046802EB0112A45843
:100850001C710468A458240A5C710468A458240C10
:100860009C710468A258120EDA71006881B10169A6
:1008700041F020010161002030BDE468A8E7416A31
:1008800041F400114162012030BD6D0D1560AFE7EC
:10089000C16841F02001C160EDE70246002092F8F6
:1008A0002010012901D002290CD111688A68520157
:1008B00000D501208A68120100D5401C8968C90052
:1008C00000D5401C70472DE9F05F05460068002404
:1008D0004669D0F804908768D0F80CB0D0F810A022
:1008E000D0F81880F10748D0F90714D001218160B1
:1008F000B80703D5284600F070FA0CE0780702D557
:100900004FF4006407E0380702D54FF4805402E04A
:10091000284600F061FAF80516D529684FF4807072
:100920008860B80503D5284600F059FA0CE0780530
:1009300002D544F4005407E0380502D544F480445D
:1009400002E0284600F04AFAF80316D529684FF469
:1009500080308860B80303D5284600F042FA0CE0E6
:10096000780302D544F4004407E0380302D544F488
:10097000803402E0284600F033FA300707D55FEAFA
:10098000CB6004D52968102044F40074C860700757
:100990004FF0080707D55FEA0B7004D52868C760D9
:1009A000284600F0ABF9B00706D52868C068800774
:1009B00002D0284600F0A4F9700607D55FEACA60A5
:1009C00004D52968102044F480640861B00607D576
:1009D0005FEA0A7004D528680761284600F0AEF97E
:1009E000F00606D528680069800702D0284600F086
:1009F000A7F9B00308D55FEAC96005D529681020BA
:100A00004860284600F0BAF9F00307D55FEA09709C
:100A100004D528684760284600F0E4F9300446D53C
:100A20005FEA497040D5F00504D55FEAC87001D08F
:100A300044F00104B00504D55FEA887001D544F0A4
:100A40000204700504D55FEA487001D544F004043F
:100A5000300529D518F0700F26D008F07000402816
:100A600015D006DC102809D020280AD0302816D14D
:100A70000AE050280ED0602811D10EE044F008049E
:100A80000DE044F010040AE044F0200407E044F0D4
:100A9000400404E044F0800401E044F480742868D9
:100AA000816921F070018161296804204860002C6F
:100AB00005D0686A204368622846FFF779FEBDE8E2
:100AC000F09F70B5040003D094F8200010B104E04A
:100AD000012070BD204600F081F82068016841F0D7
:100AE0000101016000F080FA0546052604E000F0EF
:100AF0007BFA401B0A2811D820684068C007F6D04E
:100B00002068016821F00201016000F06DFA0546DD
:100B10000BE000F069FA401B0A2806D9606A40F42D
:100B20000030606284F82060D2E720684068800767
:100B3000EFD4207E0128206801683DD021F080019B
:100B40000160607E01282068016838D021F04001F2
:100B50000160A07E01282068016833D021F02001C7
:100B60000160E07E0128206801682ED041F010016C
:100B70000160207F01282068016829D021F0080148
:100B80000160607F01282068016824D021F0040101
:100B90000160D4E902010843D4E904121143084377
:100BA0006168491E08432168C86100206062012015
:100BB00084F82000002070BD41F08001C0E741F0C2
:100BC0004001C5E741F02001CAE721F01001CFE75D
:100BD00041F00801D4E741F00401D9E7F0B587B04E
:100BE000044614216846FFF7F4FB3F4B3F48DFF80B
:100BF000F4E01968D4F800C03C4A0225032609270E
:100C000010300024491CF4452CD11960012907D16A
:100C1000016841F000710160006800F0007005900B
:100C2000106840F001001060106802AB00F0010095
:100C300005904FF4C050CDE9000583E8D000694627
:100C40002B4800F0E3F800221146142000F03AFA95
:100C5000142000F029FA00221146162000F032FA82
:100C600016203BE0DFF88CE0F44539D1D0F800C025
:100C70004CF0806CC0F800C0D0F800C001290CF026
:100C8000806CCDF814C0196007D1016841F0007183
:100C90000160006800F000700590106840F00200EC
:100CA0001060106802AB00F0020005904FF4405055
:100CB000CDE9000583E8D00069460F4800F0A6F8AA
:100CC00000221146412000F0FDF9412000F0ECF92E
:100CD00000221146422000F0F5F9422000F0E4F92C
:100CE00007B0F0BD00640040000000203038024032
:100CF000000002400068004000040240704700000D
:100D000000B50D4A016889B01268914211D10021E5
:100D100000916B4602AA0191FFF74BFD0498002851
:100D200007D10298A0F20121072902D8694600F0F4
:100D30007DFD09B000BD00002404002070470000C4
:100D400000B50D4A016889B01268914212D10021A4
:100D5000009101916B4602AA0121FFF72AFD049838
:100D6000002807D10298A0F20121072902D869467C
:100D700000F05CFD09B000BD4C040020704700008D
:100D800070B5044690F82000012804D0606A40F451
:100D90000020606218E0022084F8200020680168CA
:100DA00021F00101016000F01FF905460EE000BFCF
:100DB00000F01AF9401B0A2808D9606A40F4003094
:100DC0006062052084F82000012070BD2068406822
:100DD000C007EDD1606270BD7047704770477047C3
:100DE000704770477047000070B5044600F0FCF88B
:100DF0000546601C02D004480078044400F0F4F872
:100E0000401BA042FAD370BD040000202DE9F84F2A
:100E1000DFF8ACA10022012403254FF00F090AF1ED
:100E2000040BAAF1040E00BF0B6804FA02F633406B
:100E3000B3426ED10F7907F00307012F01D0022FC3
:100E400016D187684FEA420805FA08FC27EA0C0722
:100E5000D1F80CC00CFA08FC4CEA070CC0F808C02A
:100E60004768B7430E79C6F3001696403E43466086
:100E70000E79F643B6070AD0C6684FEA420C05FA67
:100E80000CF7BE438F6807FA0CF73743C7600E793B
:100E900006F00306022E10D1D60800EB8608D8F81B
:100EA000206057074FEAD76C09FA0CF7BE430F6969
:100EB00007FA0CF73743C8F8207006684FEA420C6F
:100EC00005FA0CF7BE430F7907F0030707FA0CF792
:100ED000374307604E6816F4403F6BD0394E376891
:100EE00047F480473760366822F0030706F48046EF
:100EF0000096354E07EB060CDCF8086897074FEABA
:100F0000177809FA08F7BE43304FB84202D10027DC
:100F10001FE04FE02E4FB84201D1012719E02D4FBD
:100F2000B84201D1022714E02B4FB84201D1032768
:100F30000FE02A4FB84201D104270AE0284FB842F7
:100F400001D1052705E0274FB84201D1062700E06F
:100F5000072707FA08F73743CCF80878DAF8006073
:100F60005746D1F804C09E435FEACC2C00D51E43FF
:100F70003E60DBF800605F46D1F804C09E435FEA44
:100F80008C2C00D51E433E60DEF800607746D1F819
:100F900004C09E435FEA8C3C00D51E433E60084F70
:100FA000083F3E68D1F804C09E435FEACC3C00D5C0
:100FB0001E433E60521C102AFFF436AFBDE8F88F86
:100FC000083C01404438024000300140000002402B
:100FD0000004024000080240000C024000100240E1
:100FE0000014024000180240014880687047000069
:100FF0000400002002488168027811448160704733
:10100000040000200B4810B5016841F40071016034
:10101000016841F480610160016841F48071016000
:10102000032000F06FF8002000F006F800F024F82C
:10103000002010BD003C024070B50D4D04464FF439
:101040007A712878B1FBF0F00A490968B1FBF0F039
:1010500000F054FB48B9102C07D200222146501E44
:1010600000F030F800206C6070BD012070BD000001
:1010700004000020100000200A4808B5016841F46F
:1010800080410160006800F4804000900548001F26
:10109000016841F080510160006800F080500090CC
:1010A00008BD000044380240002809DB00F01F02A0
:1010B000012191404009800000F1E020C0F80011BA
:1010C00070470000F0B40E4B1B680C46C3F30223BC
:1010D000C3F10705042D00D90425191D072901D2E4
:1010E000002300E0DB1E012606FA05F1491E21401F
:1010F00099409E40761E16403143F0BC00F025BD5D
:101100000CED00E0064900F0070208684FF6FF0307
:10111000184040EA0220034A10430860704700006C
:101120000CED00E00000FA052DE9F84317480168CE
:1011300041F0805101600068154F00F08050012699
:1011400000903E64FFF750FF05464FF47A78114C4B
:1011500005E000BFFFF748FF401B40450DD8606821
:10116000C003F7D57E64FFF73FFF0546464607E01C
:10117000FFF73AFF401BB04202D90320BDE8F883D5
:1011800060688003F4D50020F8E700004038024092
:1011900000000E42007000402DE9F0470E460500A9
:1011A00065D0DFF81481D8F80000F7B200F00F0026
:1011B000B04207D288F80070D8F8000000F00F00A5
:1011C000B04254D128683D4C810712D5400703D561
:1011D000206840F4E05020602878000703D520689C
:1011E00040F4604020602068A96820F0F0000843C7
:1011F00020602878C0072DD0304968680839012858
:1012000012D0022813D0032811D0096889070029B9
:101210002DDA216821F0030101432160FFF7E4FE8C
:10122000814641F2883A0EE009688903EFE70968D0
:101230008901ECE7FFF7D8FEA0EB0901514502D97F
:101240000320BDE8F0872068696800F00C00B0EB6F
:10125000810FEFD1D8F80010404601F00F01B142E4
:1012600007D90770006800F00F00B04201D00120DC
:10127000E7E72878400705D52068E96820F4E050C2
:10128000084320602878000706D52068296920F4E3
:10129000604040EAC100206000F018F82168084A68
:1012A000C1F30311515CC840064908600648006854
:1012B000FFF7C2FE0020C4E7003C024008380240AD
:1012C000501E00081000002008000020224810B521
:1012D000006810F00C02214815D02149042A11D0D1
:1012E0001D4C241F082A0FD00C2A0CD12268236819
:1012F00002F03F025B0221D52068C0F38810A0FBFA
:10130000010120E0084610BD2268236802F03F0278
:101310005B0205D52068C0F38810A0FB010104E042
:101320002168C1F38811A1FB00010023FEF7DAFF59
:101330002168C1F30141491C49000AE02168C1F359
:101340008811A1FB00010023FEF7CCFF2168C1F347
:101350000271B0FBF1F010BD083802400024F40027
:1013600040787D012DE9F84F04007DD0DFF878B397
:101370002078ABF10407C007A7F1040550D0DBF8D3
:1013800000105846C1F3810101290FD00168C1F353
:101390008101022902D13968490207D40068C0F3EB
:1013A0008100032809D13868400206D528688003E7
:1013B00036D560680028D8D032E06068B0F5803F4C
:1013C00010D0B0F5A02F286810D020F4803028600D
:1013D000286820F4802028606068A0B1FFF704FE30
:1013E00006460CE0286840F48030F4E740F48020A2
:1013F0002860F7E7FFF7F8FD801B642876D8286897
:101400008003F7D50CE0FFF7EFFD064605E000BFCF
:10141000FFF7EAFD801B6428F0D828688003F7D422
:101420002078DFF8C89280074FF0000A44D5DBF837
:101430000010584611F00C0F0FD00168C1F3810164
:10144000022902D13968490207D50068C0F381003A
:1014500003280AD13868400207D42868800715D5C8
:10146000E068012800D111E03AE1E068B0B1012064
:10147000C9F80000FFF7B8FD064604E0FFF7B4FD29
:10148000801B0228BAD828688007F7D52868216908
:1014900020F0F80040EAC10028600DE0C9F800A083
:1014A000FFF7A2FD064604E0FFF79EFD801B022821
:1014B0001CD828688007F7D42078000727D5DFF8E4
:1014C00028828B48616908F16C0881B101210160B3
:1014D000FFF78AFD064604E0FFF786FD801B022821
:1014E00004D8D8F800008007F6D510E089E0C0F8ED
:1014F00000A0FFF779FD064605E000BFFFF774FD89
:10150000801B02287DD8D8F800008007F6D4207808
:10151000400769D574484FF0000838300068C000B3
:101520000BD471483830016841F080510160006887
:101530004FF0010800F0805000906E4E3068C005FA
:1015400011D4306840F480703060FFF74DFD00909A
:1015500006E000BFFFF748FD0099401A022850D866
:101560003068C005F6D5604EA068683601280FD0F7
:101570000528306810D020F001003060306820F07D
:1015800004003060A068B8B1FFF72EFD00900FE0B6
:10159000306840F00100F4E740F004003060F7E705
:1015A000FFF722FD0099411A41F28830814264D848
:1015B00030688007F4D50EE0FFF716FD009007E0D5
:1015C000FFF712FD0099411A41F28830814254D848
:1015D00030688007F4D4B8F1000F05D042483830A5
:1015E000016821F080510160A069A8B3DBF8001008
:1015F000C1F38101022947D00228C9F860A005D0B3
:1016000000E03AE0FFF7F0FC044639E0FFF7ECFCBD
:10161000064604E0FFF7E8FC801B02282DD8286866
:101620008001F7D4F4E907010843E168324A490828
:1016300002EB0141A26841EA82110843217C40EAA1
:101640000160217D40EA017038600120C9F8600026
:10165000FFF7CAFC044606E044E000BFFFF7C4FC05
:10166000001B022809D828688001F7D53AE000BF9E
:10167000FFF7BAFC001B022802D90320BDE8F88F4F
:1016800028688001F4D42DE00128F7D03868E26999
:1016900000F48001914223D1226A00F03F0191427F
:1016A0001ED147F6C071626A0140B1EB821F17D1AB
:1016B000A26A4FF0FF3300F4403103EB5202B1EB6A
:1016C000024F0DD194F82C2000F07061B1EB026F45
:1016D00006D194F8301000F0E040B0EB017F01D06B
:1016E0000120CBE70020C9E708380240000047424C
:1016F000800E4742007000400000FFFF10B5401E02
:10170000B0F1807F01D3012010BD4FF0E024606173
:101710000F21601700F019FA0020A0610720206156
:10172000002010BDFEE700000F4810B50D49016014
:101730000321416000214FF430228160C0E903128F
:101740004FF480124261017641768176C17601774D
:101750004177FFF7B6F9002803D0BDE81040FEF747
:10176000F6BE10BD00640040240400200F4810B5F0
:101770000D4901600321416000214FF43022816056
:10178000C0E903124FF480124261017641768176FE
:10179000C17601774177FFF794F9002803D0BDE8BF
:1017A0001040FEF7D4BE10BD006800404C0400207D
:1017B0000D4808B5016841F080010160016801F041
:1017C00080010091016841F002010160016801F0AF
:1017D00002010091016841F001010160006800F020
:1017E0000100009008BD000030380240FEE7FEE72F
:1017F000704730B587B00546002000920290CDE9D1
:1018000003030C462846FFF748F8C3B2002BF9D073
:101810000220FFF7E9FA0123224669462846FEF72F
:10182000D3FE002800D0022007B030BD5FF00102D7
:1018300002F5007398420DD1084BC2EBC200184468
:101840000B6840F8073D8B88838089798171D0B21D
:1018500000F01CB8521C092AEADB7047B4040020CF
:10186000C0EBC0010748084410F8051D4078CA09BC
:1018700004D0054A02EB01210844704700EB012027
:1018800070470000B40400200100FFFF30B5411E86
:10189000174AC1EBC1039C18D25C647888B004EB92
:1018A0000223134C4DF82130203C401E54F82120D7
:1018B0009D1AA4F12002B5F5805F52F8200003DBE9
:1018C000A0F5F850FF3805E015F5805F04DC41F61F
:1018D000FF75284442F8210044F8213052F82100D5
:1018E000034A1844383242F8210008B030BD0000E5
:1018F000B404002010B54A1E072A20D8114A90428D
:1019000002DD5242904200DB1046042904D84FF415
:101910000072040A0C4B06E0091F0B4B040A40F24C
:10192000FF12C9B2083303EB4101082301F8024D4D
:10193000487005490548FFF75CFF002010BD0120F5
:1019400010BD0000F0D8FFFF140000204C04002060
:1019500070B50D4600EE100A4B496A1ED2B2B8EEC1
:10196000C00A2DED048B01EB8214E8B284ED000A6D
:10197000FFF776FF00EE100AB8EEC00A84ED010A08
:1019800094ED020A84ED030A94EC020A30EE608AB8
:1019900084ED028AA06B00F0E5F941EC190B18EE1A
:1019A000100A00F0DFF941EC100BFEF7D3FD53EC09
:1019B000192B51EC100B00F00FF903D29FED330AF5
:1019C00084ED020A94ED040AD4ED020A30EE200AF6
:1019D00084ED040AD4ED0F0AB4EEE00AF1EE10FA39
:1019E00006DAF1EE600AB4EEE00AF1EE10FA01D880
:1019F000B0EE600A84ED040A94ED050AD4ED020A03
:101A000020EE200A84ED0A0A94ED060AD4ED040AB9
:101A100020EE200A84ED0B0A94ED020AD4ED030AAD
:101A200030EE600AD4ED070A20EE200A84ED0C0A9D
:101A3000D4ED0A0A94ED0B1A70EE810A30EE800A9A
:101A400084ED0D0AD4ED080AB8EEE01AB4EEC10A2E
:101A5000F1EE10FA08DAD4ED090AB8EEE01AB4EEA5
:101A6000C10AF1EE10FA01D8B8EEE00AE9B284ED4D
:101A70000D0ABDEEC00ABDEC048B10EE100ABDE8E5
:101A80007040FFF737BF0000240000200000000076
:101A90007047FFF7AFBA000030B593B03421684605
:101AA000FEF797FC14210DA8FEF793FC20480025B3
:101AB000016841F080510160006800F08050129090
:101AC0001C48016841F4404101600068022400F4B0
:101AD000404012900120039010200490009406943E
:101AE0000820CDE90750B420CDE909040B946846DD
:101AF0000C94FFF737FC08B172B6FEE7FFF714FB52
:101B000008B172B6FEE70DA90F2081E831004FF44D
:101B1000A05010904FF48050119005210DA8FFF7B0
:101B20003BFB002801D072B6FEE713B030BD0000C9
:101B300040380240007000400248016841F47001E2
:101B40000160704788ED00E0FEE70907090E0028F4
:101B500004DB00F1E02080F80014704700F00F0073
:101B600000F1E02080F8141D70470000FFF74AFAEA
:101B7000FFF792FFFFF71CFEFFF7D6FDFFF7F6FD1C
:101B80000748FEF7A3FC0748FEF7A0FC4FF47A7461
:101B900001212046FFF7DCFE0120FFF725F9F7E7DA
:101BA000240400204C04002081F00041704780F0A4
:101BB0000040704721F00041704720F0004070471E
:101BC000491058BFC1F140415B1058BFC3F14043B9
:101BD0008B42EFF30080704751EA030C17D41CF5D9
:101BE000801F58BFBCF5801F00F10680994218BFC6
:101BF000704708BF9042704707D711F5801F58BF44
:101C000013F5801F19D499427047894270471CF51B
:101C1000801F08D5BCF5801FF7D58B4218BF7047D1
:101C200008BF824270474FF4001C1CEB410F38BFC5
:101C30001CEB430F01D28B42704770B500F008F8DF
:101C4000922449004FF000514FF08053FFF7B8BF86
:101C50000EF1020E2EF0030E5EF8046B364205D430
:101C6000012A43EB030515F5001F12D8012841EBAB
:101C7000010C1CF5001F0CD80ED14FEAD17C15F5D4
:101C8000001F0CEB4C0C0CF1020C08BF4CEBD37C8E
:101C900004E04FF0080C01E04FEAD37C0CEB4C055C
:101CA00026FA05F606F00706B6F1040C06D20EEB8E
:101CB000860CBDE870404CF0010C6047DFE80CF08A
:101CC000090B02024FF000414FF00000A1F5002186
:101CD00070BD19461046012851EB010418BFD4F518
:101CE000001484BF002001F0004170BD0808A0F579
:101CF00000114FEA3101704753EA010C17D41CF56B
:101D0000801F58BFBCF5801F00F106808B4218BFB2
:101D1000704708BF8242704707D713F5801F58BF2E
:101D200011F5801F19D48B4270479B4270471CF5F8
:101D3000801F08D5BCF5801FF7D5994218BF7047A2
:101D400008BF904270474FF4001C1CEB430F38BF94
:101D50001CEB410F01D2994270470FB40CBC03BC7D
:101D6000FFF76BBF43004FEAD30C4FEA3C0C4340F4
:101D70001FBF40070CF1605113F0FE4F70471CF07D
:101D8000006F03D100200CF0004170470CF00043BD
:101D900043EA507010B540EACC0000F00EF800BFE6
:101DA000000000924FEA0001FFF7A0BF4FF0004192
:101DB0004FF00000A1F5002170470EF1020E2EF049
:101DC000030E5EF8044B244204D44FEA4102B2F100
:101DD0007F4F11D84FEA4003B3F17F4F0CD80ED19B
:101DE0004FEAD07CB2F17F4F0CEB4C0C0CF1020CA3
:101DF00008BF4CEBD17C04E04FF0080C01E04FEA47
:101E0000D17C0CEB4C0324FA03F404F00704B4F186
:101E1000040C06D20EEB840CBDE810404CF0010C13
:101E20006047DFE80CF0070802024FF00040A0F521
:101E3000800010BD0846420018BFD2F1807288BFF2
:101E400000F0004010BD4FF04070E1EE100A704706
:101E5000000000000000000001020304060708095A
:101E6000801E00080000002024040000000200087A
:101E7000041F0008240400204C0700005C02000836
:101E80004132018210032824F482411B803E040465
:101E900012C1FFFF1A20240B5A7A44400D38CDCCD2
:101EA0004C3F400B7E803FC0210B7C404180093479
:101EB0004085CDCCCC3D23B0360B1250C94013C861
:101EC000420414409C460D600AD7233C403109155A
:101ED00040210F36A0400AD7A33B400D3DCDCCCCCE
:101EE0003DC00E383E6F12833AC0114A3FC00B18F6
:101EF0002041400B184843C04B4C4040091A802BEE
:041F0000FA4440005F
:04000005080001C529
:00000001FF
