:020000040800F2
:10000000D80A0020290200085D210008291F0008E5
:10001000592100081F0400084D2B000800000000B3
:100020000000000000000000000000006321000844
:10003000AF050008000000006121000865210008EC
:10004000430200084302000843020008430200087C
:10005000430200084302000843020008430200086C
:10006000430200084302000843020008430200085C
:100070002504000843020008350400084302000874
:100080004504000855040008430200084302000824
:10009000430200084302000843020008430200082C
:1000A000430200084302000843020008430200081C
:1000B000430200084302000843020008430200080C
:1000C00043020008430200084302000843020008FC
:1000D000430200086D290008E52900085D2A000890
:1000E00043020008430200084302000843020008DC
:1000F00043020008430200084302000843020008CC
:1001000043020008430200084302000843020008BB
:1001100043020008430200084302000843020008AB
:100120004302000865040008750400084302000843
:100130004302000800000000000000004302000825
:10014000430200084302000843020008430200087B
:10015000430200088504000895040008D52A000819
:10016000430200084302000843020008430200085B
:1001700043020008430200080000000000000000E5
:10018000430200084302000800F002F800F03CF8C7
:100190000AA090E8000C82448344AAF10107DA45E2
:1001A00001D100F031F8AFF2090EBAE80F0013F0F8
:1001B000010F18BFFB1A43F001031847502A000033
:1001C000702A0000103A24BF78C878C1FAD85207C4
:1001D00024BF30C830C144BF04680C6070470000C1
:1001E0000023002400250026103A28BF78C1FBD840
:1001F000520728BF30C148BF0B6070471FB502F0DF
:10020000EFFC1FBD10B510BD00F0CFF81146FFF791
:10021000F5FF02F0B9FC00F0EDF803B4FFF7F2FFD0
:1002200003BC00F0F5F80000094880470948004782
:10023000FEE7FEE7FEE7FEE7FEE7FEE7FEE7FEE796
:10024000FEE7FEE704480549054A064B70470000F3
:100250002522000889010008D8040020D80A0020BF
:10026000D8060020D806002053EA020C00F069806E
:100270002DE9F04B4FF00006002B1FBFB3FA83F5BA
:1002800003FA05F424FA05F65E4012BF1643B2FAEB
:1002900082F502FA05F4C5F120051EBF22FA05FC1D
:1002A00044EA0C04203556EA044C4FEA144418BFC3
:1002B000641C4FF000084FF00009904271EB030CF2
:1002C00039D3002919BFB1FA81F701FA07F6B0FA5C
:1002D00080F700FA07F6C7F120071EBF20FA07FCD7
:1002E00046EA0C062037B6FBF4FCA7EB0507103FE7
:1002F00007F01F0BCBF120060CFA0BFB2CFA06F6CD
:1003000044BFB3460026202FA4BF5E464FF0000B2B
:100310005BEA060C08BF4FF0010B19EB0B09ABFBB6
:10032000027C48EB0608C01B06FB02CC0BFB03CC8F
:1003300071EB0C01C1E70B46024641464846BDE859
:10034000F08B13B54FF000004FF00001AFF30080C9
:10035000BDE81C4070474FF0000200B513469446BC
:100360009646203922BFA0E80C50A0E80C50B1F10D
:100370002001BFF4F7AF090728BFA0E80C5048BF21
:100380000CC05DF804EB890028BF40F8042B08BFBF
:10039000704748BF20F8022B11F0804F18BF00F8BB
:1003A000012B7047704770477047754600F02CF876
:1003B000AE4605006946534620F00700854618B052
:1003C00020B5FFF73FFFBDE820404FF000064FF09B
:1003D00000074FF000084FF0000B21F00701AC467A
:1003E000ACE8C009ACE8C009ACE8C009ACE8C00999
:1003F0008D46704710B50446AFF300802046BDE837
:100400001040FFF70ABF0000004870477404002046
:1004100001491820ABBEFEE726000200704700BF6E
:10042000FEE7000010B5024800F030F910BD0000F2
:10043000F402002010B5024800F028F910BD0000B9
:100440005403002010B5024800F020F910BD000050
:100450003402002010B5024800F018F910BD000069
:100460009402002010B5024800F010F910BD000001
:10047000B403002010B5024800F008F910BD0000D8
:100480007401002010B5024800F000F910BD000012
:100490001404002010B5024800F0F8F810BD000068
:1004A000D40100200146087810381823B0FBF3F27D
:1004B0000848805CC865032A05D908686FF30900FD
:1004C000001D886503E008686FF309008865886D82
:1004D00070470000EA2B0008014600208A6A8B69F9
:1004E000CBB932B1012A0DD0022A03D0032A10D190
:1004F0000EE000BFCB6A03F08073B3F1807F00D1C0
:10050000012007E0CB6AB3F1C07F00D1012001E0F8
:1005100000E000BF34E08B69B3F5005F1AD132B15F
:10052000012A07D0022A03D0032A11D10AE000BF12
:1005300001200EE0CB6A03F08073B3F1807F00D11D
:10054000012006E0CB6AB3F1C07F00D1012000E0BA
:1005500000BF15E032B1012A05D0022A04D0032AD7
:100560000CD103E000BF00BF012008E0CB6A03F01C
:100570008073B3F1807F00D1012000E000BF00BF95
:10058000704730B50468246824F4802405682C6022
:10059000046863608468402C04D10468A260046825
:1005A000E16003E00468A1600468E26030BD704768
:1005B00072B600BFFEE770B50446A56D00F040FBC3
:1005C000064694F83500022808D08020606500BFF8
:1005D000002084F8340000BF012070BD206800684E
:1005E00020F01600216808602068406920F0800033
:1005F00021684861206C08B9A06C28B120680068A7
:1006000020F00800216808602068006820F00100E0
:100610002168086010E000F013FB801B05280BD94F
:1006200020206065032084F8350000BF002084F896
:10063000340000BF0320D0E72068006800F001000C
:100640000028E8D194F85C103F208840A860012081
:1006500084F8350000BF002084F8340000BF00BFDC
:10066000BBE7014691F83500022803D08020486599
:1006700001207047052081F835000868006820F0E7
:1006800001000A6810600020F3E70000F8B5044696
:10069000002000908C4800684FF41651B0FBF1F731
:1006A000A56D2E6894F85C1008208840304098B101
:1006B0002068006800F0040070B12068006820F035
:1006C00004002168086094F85C1008208840A86045
:1006D000606D40F00100606594F85C100120884076
:1006E000304068B12068406900F0800040B194F863
:1006F0005C1001208840A860606D40F002006065D9
:1007000094F85C1004208840304068B1206800688C
:1007100000F0020040B194F85C1004208840A8600A
:10072000606D40F00400606594F85C101020884013
:10073000304078B32068006800F0080050B394F8A7
:100740005C1010208840A8602068006800F48020B9
:1007500080B12068006800F4002028B9206CC8B17E
:100760002046216C884715E0A06C98B12046A16C0A
:1007700088470FE02068006800F4807028B920687E
:10078000006820F0080021680860206C10B1204645
:10079000216C884794F85C10202088403040002865
:1007A00065D02068006800F0100000285FD094F841
:1007B0005C1020208840A86094F83500052828D1D6
:1007C0002068006820F016002168086020684069F1
:1007D00020F0800021684861206C08B9A06C28B125
:1007E0002068006820F008002168086094F85C1018
:1007F0003F208840A860012084F8350000BF002019
:1008000084F8340000BF206D10B12046216D884768
:10081000F8BD2068006800F4802080B1206800687E
:1008200000F4002028B9606C10B12046616C884744
:100830001DE0E06BD8B12046E16B884717E02068E7
:10084000006800F4807068B92068006820F010002B
:1008500021680860012084F8350000BF002084F87A
:10086000340000BFE06B10B12046E16B8847606D3B
:1008700038B3606D00F00100F0B1052084F8350058
:100880002068006820F001002168086000BF00981F
:10089000401C0090B84200D905E02068006800F0D4
:1008A00001000028F3D100BF012084F8350000BF0B
:1008B000002084F8340000BFE06C10B12046E16CE9
:1008C000884700BFA4E700003C0000202DE9F0416C
:1008D0000446002500F0B4F9074614B90120BDE82C
:1008E000F081606A00B100BF022084F8350000BFCB
:1008F000002084F8340000BF2068006820F0010068
:10090000216808600AE000F09BF9C01B052805D9A2
:1009100020206065032084F83500E0E72068006847
:1009200000F001000028EED120680568214805404C
:10093000D4E901010843E16808432169084361697A
:100940000843A1690843E1690843216A0843054354
:10095000606A042803D1D4E90B01084305432068E9
:1009600005602068456925F00705606A0543606AEF
:1009700004280DD1A06A0543E06A48B12046FFF77C
:10098000ABFD28B140206065012084F83500A6E762
:10099000206845612046FFF785FD064694F85C1007
:1009A0003F208840B06000206065012084F8350059
:1009B000002094E73F8010F02DE9F04704460D46F3
:1009C00016461F464FF00008D4F8589000BF94F820
:1009D0003400012802D10220BDE8F087012084F80C
:1009E000340000BF94F83500012825D1022084F896
:1009F0003500002060653B46324629462046FFF719
:100A0000C0FD94F85C103F208840C9F808002068B9
:100A1000006840F0160021680860206C28B120684A
:100A2000006840F00800216808602068006840F015
:100A300001002168086006E000BF002084F834004F
:100A400000BF4FF002084046C6E70000F8B5024676
:100A50000B460025002400200021D6E0012606FADE
:100A600001F51E6806EA0504AC4274D11E7906F051
:100A70000306012E04D01E7906F00306022E13D1C0
:100A800090684F000326BE40B0434F00DE68BE4072
:100A900030439060506801268E40B0431E79C6F303
:100AA00000168E40304350601E7906F00306032E78
:100AB00009D0D0684F000326BE40B0434F009E6867
:100AC000BE403043D0601E7906F00306022E13D1DB
:100AD000CF0802F1200656F827004E07F70E0F2622
:100AE000BE40B0434F07FF0E1E69BE403043CF08E3
:100AF00002F1200646F8270010684F000326BE408A
:100B0000B0431E7906F003064F00BE40304310602C
:100B10005E6806F44036002E76D000BF00260096B0
:100B20003C4E366846F480463A4F3E603E46366854
:100B300006F48046009600BF00BF374E8F0856F877
:100B400027008E07370F0F26BE40B043334EB24208
:100B500002D1002624E057E0314EB24201D10126F5
:100B60001EE0304EB24201D1022619E02E4EB242B2
:100B700001D1032614E02D4EB24201D104260FE02C
:100B80002B4EB24201D105260AE02A4EB24201D1D3
:100B9000062605E0284EB24201D1072600E00826CD
:100BA0008F073F0FBE4030431B4E8F0846F827008B
:100BB000224E3068A0435E6806F4801606B12043DA
:100BC0001E4E3060361D3068A0435E6806F4001685
:100BD00006B12043194E361D3060184E361F30685E
:100BE000A0435E6806F4003606B12043134E361F5C
:100BF0003060361F3068A0435E6806F4803606B168
:100C000020430E4E083E3060491C1029FFF426AFE9
:100C1000F8BD00004438024008380140000002409E
:100C20000004024000080240000C02400010024094
:100C30000014024000180240001C0240083C014021
:100C40000148006870470000300000200348006839
:100C500003490978084401490860704730000020C2
:100C60003800002010B50D48006840F400700B49B2
:100C700008600846006840F4806008600846006824
:100C800040F480700860032000F0A2F80F2000F00C
:100C900007F800F02BF8002010BD0000003C0240D7
:100CA00070B504460E4800784FF47A71B1FBF0F04D
:100CB0000C490968B1FBF0F5284600F02BFC08B19F
:100CC000012070BD102C07D200222146501E00F0DA
:100CD00041F80548046001E00120F2E70020F0E758
:100CE000380000203C0000203400002008B500BF80
:100CF000002000900E48006840F480400C490860D5
:100D00000846006800F48040009000BF00BF00BFAC
:100D100000200090081F006840F08050091F086004
:100D20000846006800F08050009000BF00BF08BD7A
:100D30004438024001460846002809DB00F01F0342
:100D400001229A4043099B0003F1E023C3F80021EC
:100D500000BF70472DE9F05F80460D46164600271C
:100D600001F0F6FE074639462A46334601F00700F1
:100D7000C0F1070ABAF1040F02D94FF0040A01E0EA
:100D8000C0F1070AD14600F1040ABAF1070F02D2F6
:100D90004FF0000A01E0A0F1030AD4464FF0010A27
:100DA0000AFA09FAAAF1010A0AEA020A0AFA0CFA8C
:100DB0004FF0010B0BFA0CFBABF1010B0BEA030B31
:100DC0004AEA0B042146404601F0CAFEBDE8F09F06
:100DD00000BF00F00702064B19684FF6FF031940E9
:100DE000044B0B4343EA0221014B196000BF7047DB
:100DF0000CED00E00000FA0570B504460D460CB994
:100E0000012070BD5848006800F00700A84209D2D0
:100E100055490D700846006800F00700A84201D04F
:100E20000120EEE7207800F0020002281DD1207892
:100E300000F00400042805D14C48006840F4E0505C
:100E40004A490860207800F00800082805D1474882
:100E5000006840F46040454908604448006820F05C
:100E6000F000A168084341490860207800F00100C3
:100E7000A8B36068012807D13C4808380068C0F36F
:100E80004040B8B90120BCE76068022802D0606821
:100E9000032807D1354808380068C0F3406048B9D6
:100EA0000120AEE7314808380068C0F3400008B9B7
:100EB0000120A6E72D48006820F003006168084380
:100EC0002A490860FFF7BCFE064609E0FFF7B8FEB6
:100ED000801B41F28831884202D9032091E707E064
:100EE0002248006800F00C006168B0EB810FEDD182
:100EF0001D48006800F00700A84209D91A490D7082
:100F00000846006800F00700A84201D0012078E7F9
:100F1000207800F00400042807D11448006820F469
:100F2000E050E168084311490860207800F00800AB
:100F3000082808D10D48006820F46040216940EA83
:100F4000C1000A49086000F03FF808490968C1F388
:100F50000311074A515CC84006490860064800680A
:100F6000FFF79EFE00204CE7003C0240083802409C
:100F7000F22B00083C0000203400002001480068EB
:100F8000704700003C00002000B5FFF7F7FF044960
:100F90000968C1F38221034A515CC84000BD0000CA
:100FA00008380240022C000800B5FFF7E7FF0449AB
:100FB0000968C1F34231034A515CC84000BD0000DA
:100FC00008380240022C00082DE9F04700240025D3
:100FD0000026A1462548006800F00C0020B1042836
:100FE00005D008283AD105E0DFF8849039E0DFF831
:100FF000849036E01D48001F006800F03F041B4845
:10100000001F006800F4800078B11A481749091FD2
:101010000968C1F38811A0FB017001462246002334
:101020003846FFF721F905460EE011480F49091F20
:101030000968C1F38811A0FB017001462246002314
:101040003846FFF711F905460848001F0068C0F34D
:101050000140401C4600B5FBF6F902E0DFF81090B5
:1010600000BF00BF4846BDE8F087000008380240D6
:101070000024F40040787D01F8B504460CB9012045
:10108000F8BD207800F00100002874D0F94800680D
:1010900000F00C0004280DD0F648006800F00C00A9
:1010A000082813D1F348001F006800F48000B0F551
:1010B000800F0BD1EF4808380068C0F3404000288B
:1010C00059D06068002856D10120D9E700BF606878
:1010D000B0F5803F08D1E7480838006840F4803018
:1010E000E449083908601EE06068B0F5A02F0DD112
:1010F000E0480838006840F48020DE49083908607C
:101100000846006840F4803008600CE0D948083890
:10111000006820F48030D749083908600846006824
:1011200020F48020086000BF606890B1FFF788FD60
:10113000054606E0FFF784FD401B642801D9032023
:101140009EE7CC4808380068C0F340400028F1D042
:1011500011E0FFF775FD054606E0FFF771FD401B46
:10116000642801D903208BE7C24808380068C0F31F
:1011700040400028F1D1207800F0020002285FD121
:10118000BC48006800F00C0058B1BA48006800F094
:101190000C0008281CD1B748001F006800F480002C
:1011A000B0B9B44808380068C0F3400020B1E06826
:1011B000012801D0012063E7AE480838006820F01C
:1011C000F800216940EAC100AA490839086037E0FF
:1011D000E06800B30120A8490860FFF731FD05462B
:1011E00006E0FFF72DFD401B022801D9032047E749
:1011F000A04808380068C0F340000028F1D09D489E
:101200000838006820F0F800216940EAC1009949D7
:101210000839086014E0002097490860FFF710FDC6
:10122000054606E0FFF70CFD401B022801D903200C
:1012300026E7904808380068C0F340000028F1D144
:10124000207800F0080008282CD16069A8B101209E
:101250008A490860FFF7F4FC054606E0FFF7F0FC5A
:10126000401B022801D903200AE782486C3000683D
:10127000C0F340000028F1D014E000207F4908604E
:10128000FFF7DEFC054606E0FFF7DAFC401B02280C
:1012900001D90320F4E677486C300068C0F34000C1
:1012A0000028F1D1207800F00400042870D1002734
:1012B00070483830006800F0805090B900BF0020BE
:1012C00000906C483830006840F0805069493831EF
:1012D00008600846006800F08050009000BF00BF22
:1012E00001276748006800F48070B0B9644800685E
:1012F00040F4807062490860FFF7A2FC054606E0F2
:10130000FFF79EFC401B022801D90320B8E65C4889
:10131000006800F480700028F2D000BFA0680128A7
:1013200008D154486830006840F0010051496831E4
:1013300008601DE0A06805280DD14E48683000689F
:1013400040F004004B49683108600846006840F0EE
:10135000010008600CE047486830006820F0010098
:101360004449683108600846006820F004000860BD
:1013700000BFA068A8B1FFF763FC054609E0FFF7CE
:101380005FFC401B41F28831884202D9032077E696
:1013900026E0384868300068C0F340000028EED0EE
:1013A00013E0FFF74DFC054608E0FFF749FC401B42
:1013B00041F28831884201D9032061E62D48683026
:1013C0000068C0F340000028EFD1012F07D1294861
:1013D0003830006820F0805026493831086000BF5E
:1013E000A069002845D02348006800F00C000828B8
:1013F0005DD0A069022845D100201F490866FFF78B
:101400001FFC054606E0FFF71BFC401B022801D924
:10141000032035E6174808380068C0F3406000280C
:10142000F1D1D4E907010843616A40EA8111012240
:10143000A06AC2EB500041EA00412C20005D41EA65
:1014400000600C49091F086001200B490866FFF77E
:10145000F7FB054606E0FFF7F3FB401B022801D926
:1014600003200DE6034808380068C0F340600028F8
:10147000F1D049E00838024000004742800E474260
:1014800000700040002021490866FFF7D9FB05469F
:1014900006E0FFF7D5FB401B022801D90320EFE54A
:1014A0001B480068C0F340600028F2D12CE0A0691E
:1014B000012800D1E4E51648001D0668A06901284E
:1014C00020D006F48001E06981421BD106F03F0183
:1014D000206A814216D147F6C0703040616AB0EB95
:1014E000811F0FD106F440310122A06AC2EB5000E7
:1014F000B1EB004F06D106F070612C20005DB1EB1E
:10150000006F01D00120BBE50020B9E50000474293
:101510000038024070B504462546681EB0F1807F51
:1015200001D301200FE0681E4FF0E02148610F2138
:101530004FF0FF3001F014FB00204FF0E0218861F4
:1015400007200861002070BD704770B50446002573
:1015500020684069C0F3C01594F83D00212817D1D8
:10156000B5B100BF00BF2168143151E8001F21F060
:1015700080002168143141E80002002AF3D100BF45
:10158000606B10B1606BFFF716F8204600F067FF44
:1015900020684069C0F3801594F83E00222817D1D6
:1015A000B5B100BF00BF2168143151E8001F21F020
:1015B00040002168143141E80002002AF3D100BF45
:1015C000A06B10B1A06BFEF7F6FF204600F001FF04
:1015D000002070BD704700002DE9F84F04462068D8
:1015E00005682068C668206847694FF00009CA4648
:1015F00005F00F09B9F1000F0AD105F0200038B14C
:1016000006F0200020B1204600F03CFFBDE8F88F36
:10161000B9F1000F7CD007F0010018B906F4907002
:10162000002875D005F0010030B106F4807018B1C3
:10163000206C40F00100206405F0040030B107F098
:10164000010018B1206C40F00200206405F0020097
:1016500030B107F0010018B1206C40F004002064A4
:1016600005F0080048B106F0200010B907F00100AD
:1016700018B1206C40F008002064206C002846D08F
:1016800005F0200028B106F0200010B1204600F03F
:10169000F9FE20684069C0F3801A206C00F0080051
:1016A00010B9BAF1000F2DD0204600F092FE20684C
:1016B000406900F04000402820D100BF00BF2168F1
:1016C000143151E8001F21F040002168143141E835
:1016D0000002002AF3D100BFA06B50B17548A16B86
:1016E0000865A06BFEF7BDFF88B1A06B016D884750
:1016F0000DE02046FFF76EFF09E009E02046FFF706
:1017000069FF04E02046FFF765FF002020647DE7C5
:10171000206B012876D105F01000002872D006F069
:1017200010000028FAD000BF002000902068006858
:10173000009020684068009000BF00BF20684069AA
:1017400000F0400040285ED1A06B006840681FFA9E
:1017500080F8B8F1000F54D0A08D404551DDA4F8B9
:101760002E80A06BC069B0F5807F43D000BF00BF62
:1017700021680C3151E8001F21F4807021680C3180
:1017800041E80002002AF3D100BF00BF00BF21687A
:10179000143151E8001F21F001002168143141E8A3
:1017A0000002002AF3D100BF00BF00BF216814313E
:1017B00051E8001F21F040002168143141E8000287
:1017C000002AF3D100BF202084F83E0000202063CF
:1017D00000BF00BF21680C3151E8001F21F010004C
:1017E00021680C3141E80002002AF3D100BFA06B50
:1017F000FEF7E1FEA08DE28D801A81B22046FFF750
:10180000A3FE03E740E0A08DE18D401A1FFA80F8A7
:10181000E08DC0B3B8F1000F35D000BF00BF216824
:101820000C3151E8001F21F4907021680C3141E81F
:101830000002002AF3D100BF00BF00BF21681431AD
:1018400051E8001F21F001002168143141E8000235
:10185000002AF3D100BF202084F83E00002020633E
:1018600000BF00BF21680C3151E8001F21F01000BB
:1018700021680C3141E80002002AF3D100BF414643
:101880002046FFF761FEC1E605F0800030B106F0AA
:10189000800018B1204600F0EFFFB7E605F04000E9
:1018A00030B106F0400018B1204600F0C8FDADE6AA
:1018B00000BFABE63922000810B504460CB9012080
:1018C00010BDA06900B100E000BF94F83D0028B948
:1018D000002084F83C00204600F028F8242084F8FA
:1018E0003D002068C06820F400502168C860204690
:1018F00000F044FE2068006920F4904021680861EF
:101900002068406920F02A00216848612068C0688A
:1019100040F400502168C86000202064202084F832
:101920003D0084F83E000020CAE7000010B586B0F4
:101930000446142101A8FEF70EFDF74920688842ED
:1019400076D100BF00200090F448006840F01000FD
:10195000F24908600846006800F01000009000BFDF
:1019600000BF00BF00200090EC481438006840F031
:101970000100EA49143908600846006800F00100D7
:10198000009000BF00BF4FF4C060019002200290A1
:1019900000200390032004900720059001A9E0484F
:1019A000FFF754F8DF48E04908604FF000604860F6
:1019B0000021DD488160C1604FF480610161002138
:1019C00041618161C16101624162FEF77FFF08B13F
:1019D000FEF7EEFD00BFD448A063846300BFD1488A
:1019E0007830D24908604FF0006048604021CF480D
:1019F00081600021C1604FF480610161002141617B
:101A00008161C16101624162FEF760FF08B1FEF7CA
:101A1000CFFD00BFC5486063846300BF002211464C
:101A20002520FFF797F92520FFF784F972E1FFE7FA
:101A3000BF492068884277D100BF00200090B74896
:101A4000001F006840F40030B449091F08600846D0
:101A5000006800F40030009000BF00BF00BF00200D
:101A60000090AE481438006840F00100AB491439CA
:101A700008600846006800F00100009000BF00BF49
:101A80000C2001900220029000200390032004907B
:101A90000720059001A9A248FEF7D8FFA548A6494E
:101AA00008604FF0006048600021A3488160C16079
:101AB0004FF480610161002141618161C161016276
:101AC0004162FEF703FF08B1FEF772FD00BF9A48BE
:101AD000A063846300BF97481830984908604FF0AE
:101AE000006048604021954881600021C1604FF44A
:101AF00080610161002141618161C16101624162D6
:101B0000FEF7E4FE08B1FEF753FD00BF8B486063AB
:101B1000846300BF002211462620FFF71BF9262010
:101B2000FFF708F9F6E0FFE785492068884279D198
:101B300000BF002000907948001F006840F480201A
:101B40007649091F08600846006800F4802000906C
:101B500000BF00BF00BF002000907048143800682C
:101B600040F002006D49143908600846006800F032
:101B70000200009000BF00BF4FF4406001900220BF
:101B8000029000200390032004900720059001A9F3
:101B90006C48FEF75BFF674860386B4908604FF0A0
:101BA00000604860002168488160C1604FF4806136
:101BB0000161002141618161C16101624162FEF701
:101BC00085FE08B1FEF7F4FC00BF5F48A0638463A4
:101BD00000BF584830385D4908604FF000604860E9
:101BE00040215A4881600021C1604FF48061016149
:101BF000002141618161C16101624162FEF766FEBF
:101C000008B1FEF7D5FC00BF50486063846300BF95
:101C1000002211462720FFF79DF82720FFF78AF8BA
:101C200078E0FFE74A492068884273D100BF00206E
:101C300000903A48006840F02000384908600846A3
:101C4000006800F02000009000BF00BF00BF00202F
:101C5000009032481438006840F004002F491439CD
:101C600008600846006800F00400009000BF00BF54
:101C7000C0200190022002900020039003200490D5
:101C80000820059001A93348FEF7E0FE25481838E2
:101C9000314908608005486000212F488160C1609B
:101CA0004FF480610161002141618161C161016284
:101CB0004162FEF70BFE08B1FEF77AFC00BF264832
:101CC000A063846300BF17486030244908604FF068
:101CD000206048604021214881600021C1604FF4AC
:101CE00080610161002141618161C16101624162E4
:101CF000FEF7ECFD08B1FEF75BFC00BF1748606320
:101D0000846300BF002211464720FFF723F84720D5
:101D1000FFF710F806B010BD001001404438024033
:101D2000000002404064024074010020D401002001
:101D300000440040886002403402002094020020E9
:101D40000048004000040240F40200205403002038
:101D50000014014000080240B403002014040020D5
:101D600070B504460D46164694F83E00202816D15C
:101D700005B10EB9012070BD00BF94F83C000128E8
:101D800001D10220F7E7012084F83C0000BF0020C9
:101D9000206332462946204600F006FDEBE702208C
:101DA000E9E7704770472DE9F84F04460E4617469D
:101DB00099464FF0000A94F83D0020285AD106B108
:101DC00017B90120BDE8F88F00BF94F83C00012846
:101DD00001D10220F6E7012084F83C0000BF00207A
:101DE0002064212084F83D00FEF72AFF8246A78464
:101DF000E784A068B0F5805F04D1206910B90025A0
:101E0000B04602E035464FF0000800BF002084F8DD
:101E10003C0000BF1BE05346002280212046CDF845
:101E2000009000F059FD08B10320CBE745B9B8F8A0
:101E30000000C0F308002168486008F1020803E0D0
:101E40002878216848606D1CE08C401EE084E08C9E
:101E50000028E0D15346002240212046CDF80090D2
:101E600000F03AFD08B10320ACE7202084F83D00E3
:101E70000020A7E70220A5E7F7B50446154694F829
:101E80003D00202846D1019800B10DB90120FEBDCA
:101E900000BF94F83C00012801D10220F7E701209F
:101EA00084F83C0000BF01982062A584E5840020EE
:101EB0002064212084F83D001748616BC8631748EF
:101EC000616B08641648616BC8640020616B08652B
:101ED00001AE23681A1D31682B46606BFEF76CFD5E
:101EE0006FF040002168086000BF002084F83C00CB
:101EF00000BF00BF00BF2168143151E8001F41F04E
:101F000080002168143141E80002002AF3D100BFAB
:101F10000020BCE70220BAE76D230008C5230008B3
:101F20004D2200087047704700BFFEE708B500BFAC
:101F3000002000902E48006840F400102C490860F2
:101F40000846006800F40010009000BF00BF00BF0A
:101F5000002000900846006840F4800008600846B1
:101F6000006800F48000009000BF00BF002211460E
:101F70000C20FEF7EFFE0C20FEF7DCFE00221146DF
:101F80000E20FEF7E7FE0E20FEF7D4FE00221146DB
:101F90001020FEF7DFFE1020FEF7CCFE00221146D7
:101FA0001120FEF7D7FE1120FEF7C4FE00221146D5
:101FB0003920FEF7CFFE3920FEF7BCFE0022114685
:101FC0003A20FEF7C7FE3A20FEF7B4FE0022114683
:101FD0004520FEF7BFFE4520FEF7ACFE002211466D
:101FE0004620FEF7B7FE4620FEF7A4FE08BD00001F
:101FF0003038024008B500BF002000901D4800683E
:1020000040F080001B4908600846006800F080002E
:10201000009000BF00BF00BF00200090084600688D
:1020200040F0010008600846006800F001000090E0
:1020300000BF00BF00BF002000900846006840F0CD
:10204000020008600846006800F00200009000BF2F
:1020500000BF00BF002000900846006840F0040068
:1020600008600846006800F00400009000BF00BF50
:1020700008BD00003038024010B50B480B4908601D
:102080004FF4E1304860002108488160C16001617F
:102090000C21416100218161C161FFF70DFC08B194
:1020A000FEF786FA10BD0000001001406400002019
:1020B00010B50B480B4908604FF4E130486000212F
:1020C00008488160C16001610C214161002181618A
:1020D000C161FFF7F1FB08B1FEF76AFA10BD00001D
:1020E00000440040A800002010B50B480B490860D0
:1020F0004FF4E1304860002108488160C16001610F
:102100000C21416100218161C161FFF7D5FB08B15C
:10211000FEF74EFA10BD000000480040EC00002021
:1021200010B50B480B4908604FF4E13048600021BE
:1021300008488160C16001610C2141610021816119
:10214000C161FFF7B9FB08B1FEF732FA10BD00001C
:10215000001401403001002000BFFEE700BFFEE791
:102160007047704710B5FEF771FD10BD00B593B014
:10217000302107A8FEF7EFF8142102A8FEF7EBF8CC
:1021800000BF002001902548006840F0805023499E
:1021900008600846006800F08050019000BF00BF52
:1021A00000BF002001901E48006840F480401C4998
:1021B00008600846006800F48040019000BF00BF3E
:1021C0000220079001200A9010200B9002200D9011
:1021D00000210E9108210F91A82110910221119147
:1021E0000421129107A8FEF747FF08B1FEF7E0F9B6
:1021F0000F20029002200390002004904FF4A05082
:1022000005904FF480500690052102A8FEF7F4FDDA
:1022100008B1FEF7CDF913B000BD00004038024010
:10222000007000400348006840F4700001490860F5
:102230007047000088ED00E070B50546AC6B0020EB
:10224000E085E0842046FFF7C5F970BD70B506460D
:102250000025B46B20684069C0F3C01594F83D00B8
:10226000212805D125B10020E084204600F0F7F8B0
:1022700020684069C0F3801594F83E00222805D1FB
:1022800025B10020E085204600F0A3F8206C40F046
:10229000100020642046FFF79DF970BD70B505461B
:1022A000AC6B2868006800F48070002842D1E0859B
:1022B00000BF00BF21680C3151E8001F21F480707D
:1022C00021680C3141E80002002AF3D100BF00BFB1
:1022D00000BF2168143151E8001F21F0010021687E
:1022E000143141E80002002AF3D100BF00BF00BF53
:1022F0002168143151E8001F21F040002168143199
:1023000041E80002002AF3D100BF202084F83E00FB
:10231000206B01280ED100BF00BF21680C3151E8AD
:10232000001F21F0100021680C3141E80002002A52
:10233000F3D100BF206B012804D1A18D2046FFF707
:1023400003F902E02046FFF72CFD70BD70B505468D
:10235000AC6B206B012805D1A08D41082046FFF70A
:10236000F3F802E02046FFF71DFD70BD70B505468D
:10237000AC6B2868006800F48070F8B90020E08435
:1023800000BF00BF2168143151E8001F21F0800018
:102390002168143141E80002002AF3D100BF00BFD8
:1023A00000BF21680C3151E8001F41F04000216856
:1023B0000C3141E80002002AF3D102E02046FFF789
:1023C000B1FD70BD70B50446A56B2846FFF7ABFDA7
:1023D00070BD00BF00BF02680C3252E8002F22F42B
:1023E000907102680C3242E80013002BF3D100BF59
:1023F00000BF00BF0268143252E8002F22F0010132
:102400000268143242E80013002BF3D100BF016BC5
:1024100001290ED100BF00BF02680C3252E8002F24
:1024200022F0100102680C3242E80013002BF3D1B5
:1024300000BF202180F83E1000210163704710B5D5
:1024400004462068C06820F040002168C860202051
:1024500084F83D002046FFF765FD002010BD00BF59
:1024600000BF02680C3252E8002F22F0C00102685F
:102470000C3242E80013002BF3D100BF202180F87A
:102480003D107047F8B5044694F83E00222873D1F9
:10249000A068B0F5805F0CD1206950B90025A66A0C
:1024A00020684068C0F308003080A06A801CA062E9
:1024B00015E0A56A0026A068B0F5805F03D0A0688B
:1024C00028B9206918B920684068287004E020689D
:1024D000406800F07F002870A06A401CA062E08D78
:1024E000401E80B2E085002844D12068C06820F0FA
:1024F00020002168C8602068C06820F480702168CE
:10250000C8602068406920F00100216848612020EF
:1025100084F83E00206B012826D10020206300BFF4
:1025200000BF21680C3151E8001F21F01000216824
:102530000C3141E80002002AF3D100BF2068006896
:1025400000F0100010280AD100BF00200090206881
:102550000068009020684068009000BF00BFA18D17
:102560002046FEF7F1FF02E02046FFF71AFC0020AC
:10257000F8BD01E00020FBE70220F9E72DE9F84F64
:1025800004462068006920F44050E168084321684F
:1025900008612169A068084361690843E16908434B
:1025A00000902068C06849F20C6188430099084394
:1025B0002168C8602068406920F44070A169084320
:1025C0002168486176492068884203D075492068AF
:1025D000884203D1FEF7E8FC814602E0FEF7D4FC16
:1025E0008146E069B0F5004F6CD102206168A0FB24
:1025F000015003461920A9FB007001462A463846BF
:10260000FDF732FE6421B0FBF1F04FEA001A022020
:102610006168A0FB01510B461920A9FB00712A46F5
:102620003846FDF721FE834602206168A0FB015079
:1026300003461920A9FB00712A463846FDF714FE0F
:102640006421B0FBF1F000EBC00101EB0010ABEB3B
:102650008000322101EBC0006421B0FBF1F000F0FA
:10266000F8000AEB400A02206168A0FB0150034613
:102670001920A9FB007001462A463846FDF7F4FDF3
:10268000834602206168A0FB015003461920A9FB84
:1026900000712A463846FDF7E7FD6421B0FBF1F0F2
:1026A00000EBC00101EB0010ABEB8000322101EB2D
:1026B000C0006421B0FBF1F000F007005044216835
:1026C00088606AE004206168A0FB0150034619207D
:1026D000A9FB007001462A463846FDF7C5FD824633
:1026E00004206168A0FB015003461920A9FB00707B
:1026F00001462A463846FDF7B7FD6421B0FBF1F0EC
:1027000000EBC00101EB0010AAEB8000322101EBCD
:1027100000106421B0FBF1F000F0F00A04206168C1
:10272000A0FB017003461920A9FB00513A46284638
:10273000FDF79AFD6421B0FBF1F00AEB001A0420CA
:102740006168A0FB01510B461920A9FB00712A46C4
:102750003846FDF789FD834604206168A0FB0150DF
:1027600003461920A9FB007001462A463846FDF7AA
:102770007BFD6421B0FBF1F000EBC00101EB001028
:10278000ABEB8000322101EB00106421B0FBF1F0D3
:1027900000F00F00504421688860BDE8F88F000009
:1027A000001001400014014077B581B00446154681
:1027B0000298A062A58500202064222084F83E00B3
:1027C0002A48A16BC8632A48A16B08642948A16BF9
:1027D000C8640020A16B086502AE32682368191D29
:1027E0002B46A06BFEF7E8F800BF002000902068A1
:1027F0000068009020684068009000BF00BF00BFE4
:10280000002084F83C0000BF206970B100BF00BF09
:1028100021680C3151E8001F41F4807021680C31AF
:1028200041E80002002AF3D100BF00BF00BF2168C9
:10283000143151E8001F41F001002168143141E8D2
:102840000002002AF3D100BF00BF00BF216814318D
:1028500051E8001F41F040002168143141E80002B6
:10286000002AF3D100BF002004B070BD9D220008F3
:102870004D2300084D220008014691F83D00212813
:1028800028D18868B0F5805F0BD1086948B90A6A19
:102890001088C0F308000B685860086A801C086242
:1028A00005E00B6A581C086218780B685860C88CE1
:1028B000401E80B2C88458B90868C06820F0800003
:1028C0000B68D8600868C06840F040000B68D860AA
:1028D000002070470220FCE72DE9F04104460D4638
:1028E00017469846069E34E0701C88B32EB1FEF75A
:1028F000A7F9A0EB0800B0422BD900BF00BF2168A8
:102900000C3151E8001F21F4D07021680C3141E8EE
:102910000002002AF3D100BF00BF00BF21681431BC
:1029200051E8001F21F001002168143141E8000244
:10293000002AF3D100BF202084F83D0084F83E0037
:1029400000BF002084F83C0000BF0320BDE8F081F8
:10295000FFE7206800682840A84201D1012000E07C
:102960000020B842C0D00020F0E7000038B50025B4
:1029700000241848FEF730FE1648006816498842C1
:1029800026D1144800680068C0F3001000B3114855
:10299000FEF7DBFD114800684068C5B2C5F10900CB
:1029A000C4B200BF002000900A4800680068009090
:1029B000084800684068009000BF00BF22460849F0
:1029C0000448FFF759FA092205490248FFF7C8F9F8
:1029D00038BD000064000020001001407401002098
:1029E0004000002038B5002500241848FEF7F4FD0B
:1029F000164800681649884226D1144800680068C5
:102A0000C0F3001000B31148FEF79FFD11480068A5
:102A10004068C5B2C5F10900C4B200BF00200090F3
:102A20000A48006800680090084800684068009004
:102A300000BF00BF224608490448FFF71DFA0922DB
:102A400005490248FFF78CF938BD0000A8000020B6
:102A500000440040340200204900002038B5002521
:102A600000241848FEF7B8FD164800681649884249
:102A700026D1144800680068C0F3001000B3114864
:102A8000FEF763FD114800684068C5B2C5F1090052
:102A9000C4B200BF002000900A480068006800909F
:102AA000084800684068009000BF00BF22460849FF
:102AB0000448FFF7E1F9092205490248FFF750F9F8
:102AC00038BD0000EC00002000480040F402002067
:102AD0005200002038B5002500241848FEF77CFD80
:102AE000164800681649884226D1144800680068D4
:102AF000C0F3001000B31148FEF727FD114800682D
:102B00004068C5B2C5F10900C4B200BF0020009002
:102B10000A48006800680090084800684068009013
:102B200000BF00BF224608490448FFF7A5F9092263
:102B300005490248FFF714F938BD000030010020B4
:102B400000140140B40300205B00002000BFFEE73A
:102B500002480068C0F30220704700000CED00E05E
:102B600010B5002804DB0A07130E054A135406E0CB
:102B70000A07140E034A00F00F031B1FD45410BDA4
:102B800000E400E018ED00E0FEF76CF8FFF7EEFA65
:102B9000FFF730FAFFF7CAF9FFF76EFAFFF788FA86
:102BA000FFF7A2FAFFF7BCFA0A480068C06840F0D5
:102BB000100008490968C86042F210730B220649E8
:102BC0000448FFF7F0F8092204490248FFF7C8F863
:102BD00000BFFEE7A80000200F00002049000020F1
:102BE0004FF04070E1EE100A704700061016000624
:102BF0001016000000000000000001020304060798
:102C00000809000000000102030400002C2C000849
:102C10000000002040000000C40100086C2C0008E7
:102C200040000020980A0000E001000800000000B9
:102C3000554152543120676F6F64005541525432F0
:102C400020676F6F6400554152543320676F6F6483
:102C500000554152543620676F6F64000000000039
:0C2C600010000000010000000024F4003F
:040000050800018965
:00000001FF
