:020000040800F2
:10000000B80B0020B90200087B1E0008391D00084B
:10001000791E0008BF030008011F0008000000004F
:100020000000000000000000000000007F1E00082B
:10003000C1030008000000007D1E0008811E0008AA
:10004000D3020008D3020008D3020008D30200083C
:10005000D3020008D3020008D3020008D30200082C
:10006000D3020008D3020008D3020008D30200081C
:10007000D3020008D3020008D3020008D30200080C
:10008000D3020008D3020008D3020008D3020008FC
:10009000D3020008C9030008D3020008D3020008F5
:1000A000D3020008D3020008D3020008D3020008DC
:1000B000D3020008D3020008D3020008D3020008CC
:1000C000D3020008D3020008D3020008D3020008BC
:1000D000D3020008D3020008D3020008D3020008AC
:1000E000D3020008D3020008D3020008D30200089C
:1000F000D3020008D3020008D3020008D30200088C
:10010000D3020008D3020008D3020008D30200087B
:10011000D3020008D3020008D3020008D30200086B
:10012000D3020008D3020008D3020008D30200085B
:10013000D3020008D3020008D3020008D30200084B
:10014000D3020008D3020008D3020008D30200083B
:10015000D3020008D3020008D3020008D30200082B
:10016000D3020008D3020008D3020008D30200081B
:10017000D3020008D3020008D3020008D30200080B
:10018000D3020008D3020008D3020008D3020008FB
:10019000D302000800000000D30200082104000878
:1001A00081040008D3020008D3020008D30200082B
:1001B000D3020008D3020008D3020008D3020008CB
:1001C000D3020008D3020008D3020008D3020008BB
:1001D000D3020008D302000800F002F800F05CF837
:1001E0000AA090E8000C82448344AAF10107DA4592
:1001F00001D100F051F8AFF2090EBAE80F0013F088
:10020000010F18BFFB1A43F0010318478C1D0000B3
:10021000AC1D00000A444FF0000C10F8013B13F035
:10022000070408BF10F8014B1D1108BF10F8015B4F
:10023000641E05D010F8016B641E01F8016BF9D142
:1002400013F0080F1EBF10F8014BAD1C0C1B09D199
:100250006D1E58BF01F801CBFAD505E014F8016B0B
:1002600001F8016B6D1EF9D59142D6D3704700009D
:100270000023002400250026103A28BF78C1FBD8AF
:10028000520728BF30C148BF0B6070471FB501F04F
:100290006DFE1FBD10B510BD00F058F81146FFF7F8
:1002A000F5FF01F03FFE00F076F803B4FFF7F2FF30
:1002B00003BC00F07DF8000009488047094800476A
:1002C000FEE7FEE7FEE7FEE7FEE7FEE7FEE7FEE706
:1002D000FEE7FEE704480549054A064B7047000063
:1002E000F11E0008D9010008B8050020B80B002055
:1002F000B8070020B80700204FF0000200B51346F1
:1003000094469646203922BFA0E80C50A0E80C5035
:10031000B1F12001BFF4F7AF090728BFA0E80C50E6
:1003200048BF0CC05DF804EB890028BF40F8042BDF
:1003300008BF704748BF20F8022B11F0804F18BF4C
:1003400000F8012B7047704770477047754600F002
:100350002BF8AE4605006946534620F00700854657
:1003600018B020B5FFF7B6FFBDE820404FF00006FB
:100370004FF000074FF000084FF0000B21F007018D
:10038000AC46ACE8C009ACE8C009ACE8C009ACE8D0
:10039000C0098D46704710B50446AFF30080204673
:1003A000BDE81040FFF781BF0048704758050020A6
:1003B00001491820ABBEFEE7260002007047FEE7A9
:1003C000704772B6FEE70000014800F026BB00004F
:1003D0002C04002030B587B0002405460220CDE96A
:1003E00002400120CDE90404019401A928460694A5
:1003F00000F04FFA38B90222002311462846009433
:1004000000F075FA10B1022007B030BD284600F0A8
:1004100097FD00220121284600F0A6F90020F3E70D
:10042000014800F0FABA00009004002030B587B00F
:1004300000240221CDE90241CDE9041401940546CE
:1004400001A9069400F025FA38B9022200231146CA
:100450002846009400F04BFA10B1022007B030BDDE
:10046000064924200860284600F06AFD0022082181
:10047000284600F079F90020F0E7000080A4004051
:10048000014800F0CABA0000F4040020F0B5D1E938
:1004900001650C692C430D68BEB145F080452C43C5
:1004A000D1E90665354391F820704E69406D46EA02
:1004B00007663543CE6803EBC303354300EBC30047
:1004C0000023E0E802450C4D0FE044EA8544E7E7ED
:1004D000D418D65CE77846EA0766A77864783F04C4
:1004E00047EA0424264340C01B1DCC6805EB144496
:1004F00024789C42ECD8F0BD761F0008F0B589B096
:100500000E4607461D46144624216846FFF7F4FEB2
:10051000009400242804CDE9024001940494059439
:1005200006940794324669463846089400F08CF9E0
:10053000002800D0012009B0F0BD10B5FFF7DEFFA4
:10054000002010BD5FF0010202F5017398420CD14A
:10055000084B02EB420003EB40000B6840F8063DFD
:1005600089888180D0B200F01DB8521C092AEBDBCB
:1005700070470000DC03002000EB4001074800EB5F
:10058000410010F8041D4078CA0904D0044A02EB67
:1005900001210844704700EB01207047DC03002074
:1005A0000100FFFF30B5411E184A01EB410302EB89
:1005B000430412F81320647888B004EB0223134C30
:1005C0004DF82130203C401E54F821209D1AA4F102
:1005D0002002B5F5805F52F8200003DBA0F5F8504B
:1005E000FF3805E015F5805F04DC41F6FF7528440F
:1005F00042F8210044F8213052F82100034A1844FF
:10060000303242F8210008B030BD0000DC03002089
:100610002DE9F0410746481EC0B2344CC0EBC0057E
:1006200004EBC50354F8350058600E46C8B2FFF716
:10063000A3FF381A44F835009968084442F2107153
:100640009860884202DA4942884200DC0846986095
:1006500054F83500D3ED040A00EE100AB8EEC00AD3
:1006600020EE800A83ED090A93ED020AD3ED050A14
:10067000B8EEC00A20EE800A83ED0A0A54F835006D
:100680005968D3ED060A401A00EE100AB8EEC00A07
:1006900020EE200A83ED0B0AD3ED090A93ED0A1A26
:1006A00070EE810A30EE800A83ED0C0AD3ED070A62
:1006B000B8EEE01AB4EEC10AF1EE10FA08DAD3EDA2
:1006C000080AB8EEE01AB4EEC10AF1EE10FA01D849
:1006D000B8EEE00AF1B283ED0C0ABDE8F041BDEEE0
:1006E000C00A10EE100A00F003B800000800002055
:1006F00010B54A1E072A1DD80F4A904202DD524209
:10070000904200DB1046042902D840F2FF1203E0B9
:10071000091F40F2FF22C9B2084B040A03EB410152
:10072000082301F8024D487004490548FFF705FF0A
:10073000002010BD012010BDD08AFFFF0000002066
:100740009004002070B5044600F03AFD0546601C98
:1007500002D004484068044400F032FD401BA0422F
:10076000FAD370BD8C03002030B590F85C30012BBB
:1007700007D0022B05D0016E41F002010166012075
:1007800030BD0468A36D4D0701D0DD071DD011F009
:10079000380F01D09D0718D511F4E07F01D05D0717
:1007A00013D511F4F05F01D01D070ED511F4604F81
:1007B00001D0DD0609D511F4403F01D09D0604D5D6
:1007C00011F47C0F05D05D0603D4E56D45F00105FD
:1007D000E5654C0701D0DC071DD111F0380F01D0C1
:1007E0009C0718D411F4E07F01D05C0713D411F4F6
:1007F000F05F01D01C070ED411F4604F01D0DC066D
:1008000009D411F4403F01D09C0604D411F47C0FAC
:1008100006D05B0604D50368DC6D44F00204DC6599
:100820000B0604D5036853F8DC4F14431C60CB055A
:1008300004D5036853F8E04F14431C600068426D10
:100840000A434265002030BD70B5044690F85C0054
:10085000022803D0206E40F0080007E02068D0F89E
:10086000C4309B0205D5206E40F400702066012044
:1008700070BDD0F8C400C0F301452B462046FFF7F9
:1008800005FE21680120A840C1F8CC00A065002029
:1008900070BD10B590F85C20012A07D0022A05D05F
:1008A000016E41F002010166012010BD0A687AB1B3
:1008B0000B7B0A690C7A42EA43734A69406C4968C7
:1008C00042EA847200EBC100C0E90032002010BD92
:1008D0000B7A4A690C8A42EA83720B7B006CDB0656
:1008E000496843EA04431A4340F82120EEE730B553
:1008F00090F85C50039C012D05D0016E41F004017D
:100900000166012030BD0901006841EA820141EA27
:10091000430150F8802F214322F03F021143016030
:10092000002030BD70477047F0B590F85C40022C55
:1009300003D0016E41F008014DE0046840293DD02C
:10094000D4F898502D0743D0D4F89840C4F301262A
:10095000D0F84C4006EBC60504EBC504256815F03D
:1009600080455560256839D025F0604515602568BB
:10097000284F05F00055956020CC05F00045156125
:1009800034F8045BADB2D56154F8045C05F470250D
:10099000D56054F8045C05F48015556154F8045C86
:1009A00005F40015956154F8045CC5F306651562FD
:1009B00054F8045CED0F5562002518E0D4F890500F
:1009C0002D0705D0D4F89040C4F30126846CC1E70C
:1009D000016E41F4807101660120F0BDC5F38A45C6
:1009E000C4E700BF14F805C003F805C06D1CD2F8B9
:1009F0000CC007EB1C4C9CF800C0AC45F2D800685A
:100A0000402903D0C0F89C600020F0BDC0F894607D
:100A1000FAE70000761F000870472DE9F04704460A
:100A20000068016D466D01F4E0510E40016D476DA7
:100A300001F007010F40016D426D01F0380102EA3B
:100A40000108016D456D01F471010D40016D426DAC
:100A500001F4602102EA0109016D490607D5416DE3
:100A6000490604D5402101652046FFF7D5FF2068DF
:100A7000016DC9050DD5416DC9050AD5D0F8D8203D
:100A8000D0F8E01011404FF480720265204600F06B
:100A90006FFA2EB1206806653146204600F06AFAEA
:100AA0002FB1206807653946204600F031FAB8F1C9
:100AB000000005D0216808654146204600F029FA6B
:100AC0002068016D890508D5416D890505D54FF46C
:100AD00000710165204600F04EFA2068016D09069C
:100AE0000CD5416D090609D5D0F8D420D0F8DC101A
:100AF000114080220265204600F03BFA2068016D1B
:100B0000890408D5416D890405D54FF4005101656C
:100B1000204600F02CFA2068016D090408D5416DCB
:100B2000090405D54FF400410165204600F01EFA86
:100B30002068016D490409D5416D490406D54FF47B
:100B400080410165206E40F080002066B9F1000010
:100B500005D02168086549462046FFF7E4FE25B127
:100B600020680565206E28432066206E002802D08C
:100B70002046FFF7D7FEBDE8F08700002DE9F041E1
:100B8000040006D0DFF8F48194F85C00002518B169
:100B900007E00120BDE8F08184F85D50204600F0B8
:100BA000F9F82068816921F01001816100F008FBEB
:100BB0000646032705E000BF00F002FB801B0A2861
:100BC00011D8206880690007F6D42068816941F057
:100BD0000101816100F0F4FA06460BE000F0F0FA42
:100BE000801B0A2806D9206E40F00100206684F898
:100BF0005C70CEE720688069C007EFD0206881690B
:100C000041F0020181612168414502D15C4960687F
:100C10000860207C01282068816937D041F04001BC
:100C20008161607C01282068816932D021F4804193
:100C30008161A07C0128206881692DD041F4805118
:100C4000816120688169A26821F44071114381614A
:100C50002068816921F0A40181612068016921F087
:100C600010010161E068012819D010B302281BD0DF
:100C70002068816941F0800181612068016941F04B
:100C800010010161E06803280ED012E021F040015C
:100C9000C6E741F48041CBE721F48051D0E72068DA
:100CA000816941F0040103E02068816941F020017D
:100CB0008161207EE26940066FF0FF0101EB0222B4
:100CC000A0F100701043226AA38A521E10430A0248
:100CD00002EB034318432368D861A068B0F5407F56
:100CE00010D1D4E90A0301EB0321401E0843216B14
:100CF000131303EB01110843A18C02EB01410843DC
:100D00002168C860206850F8C01FE26B1143016081
:100D10001D4A21681B48914200D11C481C4A91423F
:100D200001D100F5D460206451F8802FA38E22F405
:100D3000F81242EA03420A6000F17001616421681E
:100D400051F8802F94F8383022F0706242EA036242
:100D50000A6000F1B001A164D831E164D8312165A5
:100D600018316165D83100E020C08842FCD3A56508
:100D70002566012084F85C0000200BE70064004039
:100D80000065004000A400400068004050A70040FB
:100D9000006C00402DE9F0439BB00446142115A8D7
:100DA000FFF7AAFA54216846FFF7A6FA514B2068CC
:100DB000991400254A03504E0227504C4FF0090861
:100DC00098422DD168460E92009100F0F7FA08B1D2
:100DD000FFF7F7FA3068401C3060012807D1A06D9A
:100DE00040F00070A065A06D00F000701A90E06CFB
:100DF00040F00800E064E06CCDE9167500F00800F2
:100E00001A900320CDE91858159015A93C4800F018
:100E1000B3F800221146152000F038FA152031E011
:100E2000384BDFF8E490984231D168460E92009139
:100E300000F0C4FA08B1FFF7C4FA3068401C306013
:100E4000012807D1A06D40F00070A065A06D00F0F2
:100E500000701A90E06C40F00200E064E06CCDE9B4
:100E6000167500F002001A906020CDE91858159010
:100E700015A9484600F080F800221146572000F0DE
:100E800005FA572000F0F4F91BB0BDE8F0831F4BC2
:100E90009842F9D168460E92009100F08FFA08B19D
:100EA000FFF78FFA3068401C3060012807D1A06D31
:100EB00040F00070A065A06D00F000701A90E06C2A
:100EC00040F00200E064E06CCDE9167500F002002D
:100ED0001A90182015900B20CDE9185015A94846F6
:100EE00000F04AF800221146582000F0CFF95820AF
:100EF000C8E70000006400408803002000100240A2
:100F0000000C00480068004000040048006C0040ED
:100F1000704700B58DB000210A910B910AAB6A466B
:100F20004121FFF701FD0198002807D10098A0F2A8
:100F30000521062902D80AA9FFF704FB0DB000BD60
:100F400090F85C10012905D0016E41F004010166A2
:100F500001207047022180F85C1001688A6922F044
:100F600001028A6100210166084670477047704798
:100F700070477047704770472DE9F04FDFF82092B7
:100F8000002301260324A9F1040B85B00F2709F1E2
:100F9000040AABF1040EFAE006FA03F52A407CD00D
:100FA00091F804C00CF0030CBCF1010F02D0BCF1AD
:100FB000020F26D1D0F808C0CDF800C04FEA430C8C
:100FC00004FA0CF8CDF810C0DDF800C02CEA080CCB
:100FD000CDF800C0D1F80C80DDF810C008FA0CF88C
:100FE000DDF800C048EA0C08C0F80880D0F804C05A
:100FF0002CEA050C0D79C5F300159D4045EA0C055A
:1010000045600D79ED43AD070ED0C5684FEA430842
:1010100004FA08FC25EA0C05D1F808C00CFA08FC13
:101020004CEA050CC0F80CC00D7905F00305022D43
:1010300016D1DD0800EB850CCDF808C0DCF8208067
:101040005D074FEAD56C07FA0CF528EA05080D692B
:1010500005FA0CF5DDF808C045EA0805CCF8205083
:1010600005684FEA430CCDF808C004FA0CFC25EAE9
:101070000C0591F804C00CF00308DDF808C008FA6C
:101080000CF848EA0508C0F800804D6815F4403FA8
:101090007CD0444DD5F860C000E077E04CF0010C06
:1010A000C5F860C02D6E23F0030C05F00105009516
:1010B0003D4D65440295AD684FEA837C4FEA1C784C
:1010C00007FA08FC25EA0C05B0F1904F06D0DFF8CE
:1010D000DCC0604505D14FF0010C20E04FF0000C62
:1010E0001DE0DFF8CCC0604502D14FF0020C16E0E5
:1010F000DFF8C0C0604502D14FF0030C0FE0DFF80D
:10110000B8C0604502D14FF0040C08E0DFF8ACC075
:10111000604502D14FF0050C01E04FF0060C0CFACF
:1011200008FC4CEA050C029DC5F808C0D9F800502F
:10113000CC46D1F8048095435FEAC82800D5154312
:10114000CCF80050DAF80050D446D1F8048095432A
:101150005FEA882800D51543CCF80050DBF8005032
:10116000DC46D1F8048095435FEA883800D5154302
:10117000CCF80050DEF80050F446D1F804809543D6
:101180005FEAC83800D51543CCF800505B1C0A68EC
:1011900032FA03F57FF400AF05B0BDE8F08F000030
:1011A0000804014000100240000001400004004813
:1011B00000080048000C00480010004800140048D7
:1011C00001488068704700008C0300200248816855
:1011D00042681144816070478C03002010B50024E0
:1011E000032000F073F80F2000F008F808B1012484
:1011F00001E000F025F8204610BD000070B50E4E4D
:1012000005460024706898B14FF47A71B1FBF0F094
:101210000A490968B1FBF0F000F07AFD40B9102DE1
:1012200006D200222946501E00F030F8356000E05A
:101230000124204670BD00008C030020980300208C
:101240000A4882B0016E41F001010166016E01F0B1
:1012500001010091816D41F080518165806D00F048
:101260008050009002B000F0A1B8000000100240D1
:10127000002809DB00F01F02012191404009800095
:1012800000F1E020C0F8001170470000F0B40E4BF0
:101290001B680C46C3F30223C3F10705042D00D9D4
:1012A0000425191D072901D2002300E0DB1E0126B9
:1012B00006FA05F1491E214099409E40761E1640CF
:1012C0003143F0BC00F01DBE0CED00E0064900F01B
:1012D000070208684FF6FF03184040EA0220034A5D
:1012E00010430860704700000CED00E00000FA05B4
:1012F0002B492C4B0A6832214A432B4940B1B0F5A7
:10130000007F086829D020F4C06040F480602CE0A1
:101310000868C0F34120022804D051F8800F20F45F
:10132000807022E0D1F8800020F48070C1F8800045
:10133000086820F4C06040F400700860B2FBF3F06D
:10134000401C00E0401E4A69520501D50028F9D131
:10135000486940050AD503207047C0F341200228A0
:1013600006D051F8800F40F480700860002070476C
:10137000D1F8800040F48070C1F88000086820F443
:10138000C06040F400700860B2FBF3F0401C00E065
:10139000401E4A695205DBD50028F9D1D8E7000084
:1013A0009803002040420F0000700040024881680E
:1013B00041F4804181607047007000402DE9F8439E
:1013C000044600680026BB4D00035ED5A86D0027CB
:1013D000C00008D4A86D40F08050A865A86D012712
:1013E00000F080500090DFF8D092D9F8001041F45E
:1013F0008071C9F80010FFF7E3FE804606E000BFE9
:10140000FFF7DEFEA0EB080002282BD8D9F8000079
:10141000C005F5D5D5F8900010F4407014D0216DBA
:10142000814211D0D5F89000D5F8901020F440708A
:1014300041F48031C5F89010D5F8901021F4803136
:10144000C5F89010C5F89000C00711D0FFF7B8FE9E
:10145000804641F2883907E0FFF7B2FEA0EB0801B1
:10146000494501D903260BE0D5F890008007F3D554
:10147000D5F89000216D20F440700843C5F8900025
:101480001FB1A86D20F08050A8652078C00707D054
:10149000D5F88800616820F003000843C5F888008B
:1014A0002078800707D5D5F88800A16820F00C00C7
:1014B0000843C5F888002078400707D5D5F888008C
:1014C000E16820F030000843C5F888002078000764
:1014D00007D5D5F88800216920F0C0000843C5F879
:1014E00088002078C00607D5D5F88800616920F407
:1014F00040700843C5F888002078800607D5D5F8E5
:101500008800A16920F440600843C5F8880020786D
:10151000400607D5D5F88800E16920F4405008431B
:10152000C5F888002078000607D5D5F88800216A1C
:1015300020F440400843C5F888002088C00507D53E
:10154000D5F88800616A20F440300843C5F8880067
:101550002068800307D5D5F89C00A16A20F003001D
:101560000843C5F89C002088800507D5D5F8880079
:10157000E16A20F440200843C5F88800208840052F
:101580000FD5D5F88800216B20F440100843C5F82A
:101590008800206BB0F5801F03D1E86840F480100C
:1015A000E860208800050FD5D5F88800616B20F42D
:1015B00040000843C5F88800606BB0F5800F03D188
:1015C000E86840F48010E8602088C0040FD5D5F8A2
:1015D0008800A16B20F040700843C5F88800A06B1C
:1015E000B0F1807F03D1E86840F48010E860208883
:1015F0004FF0006180040ED5D5F88800E26B20F032
:1016000040601043C5F88800E06B884203D1E86869
:1016100040F48010E860208840040ED5D5F888009A
:10162000226C20F040601043C5F88800206C88428E
:1016300003D1E86840F48010E860208800040FD5EA
:10164000D5F88800616C20F040500843C5F8880048
:10165000606CB0F1805F03D1E86840F48030E860EE
:101660002068C0030FD5D5F88800A16C20F0404059
:101670000843C5F88800A06CB0F1804F03D1E8683A
:1016800040F48030E860206840030FD5D5F89C0016
:10169000E16C20F440100843C5F89C00E06CB0F504
:1016A000001F03D1E86840F48010E8603046BDE8D0
:1016B000F883000000100240007000402DE9F04760
:1016C0000E4605004FF0000725D0DFF8AC81D8F8B2
:1016D000000000F00F00B0420CD2D8F8001021F04A
:1016E0000F013143C8F80010D8F8000000F00F00D7
:1016F000B04210D12968614CC80741F2883A5AD0EB
:101700006868DFF87C91032808D0022820682DD073
:10171000400500282CDB0120BDE8F087206880010F
:10172000F9D5E06800F00302E068C0F30310401C44
:10173000032A19D0534A00BFB2FBF0F0E268C2F3AB
:1017400006225043E268C2F34162521C5200B0FBD1
:10175000F2F0484517D9A06810F0F00F0CD08807B8
:1017600011D5A86840B10EE0474AE5E78003D0E70D
:1017700000F092F8484506D9A06820F0F00040F04B
:101780008000A0608027A068696820F003000843FB
:10179000A060FFF715FD814606E000BFFFF710FDD2
:1017A000A0EB090151453AD8A068696800F00C0027
:1017B000B0EB810FF2D12868810714D5400703D51B
:1017C000A06840F4E060A0602878000705D5A06814
:1017D00020F4605040F4E060A060A068A96820F0A8
:1017E000F000084304E0802F03D1A06820F0F0004F
:1017F000A060D8F80010404601F00F01B14216D9A0
:10180000016821F00F0131430160FFF7D9FC074661
:1018100007E000BFFFF7D4FCC11B514501D90320ED
:101820007AE7D8F8000000F00F00B042F2D1287833
:10183000400705D5A068E96820F4E0600843A0608F
:101840002878000706D5A068296920F4605040EA8E
:10185000C100A06000F020F8A1680C4AC1F3031198
:10186000515C01F01F01C84009490860094800683F
:10187000BDE8F047FFF7C2BC002002400010024064
:1018800000B4C4040024F40000127A00861F00088B
:10189000980300208C030020184910B58868C0F315
:1018A00081021748012A0BD08A684310C2F38102D3
:1018B000022A06D08A68C2F38102032A03D00020DC
:1018C00010BD184610BDCA6802F00304CA68C2F30E
:1018D0000312521C032C02D0B0FBF2F001E0B3FB68
:1018E000F2F0CA68C968C2F306225043C1F34161ED
:1018F000491C4900B0FBF1F010BD0000001002408F
:101900000024F4002DE9F84304007AD02078FA4D41
:10191000C00747D0A868E96800F00C0001F0030197
:101920000C2802D0082817D001E0032914D06068E1
:10193000B0F5803F17D0B0F5A02F286817D020F45D
:1019400080302860286820F4802028606068E0B13A
:10195000FFF736FC064614E02868800322D560684D
:101960000028D2D01EE0286840F48030EDE740F433
:1019700080202860F7E700BFFFF722FC801B642867
:1019800070D828688003F7D50CE0FFF719FC0646ED
:1019900005E000BFFFF714FC801B6428F0D828681E
:1019A0008003F7D4207880074CD5A868E96800F058
:1019B0000C0001F003010C2802D004280DD001E036
:1019C00002290AD0E068002828682BD040F48070F3
:1019D0002860FFF7F5FB064619E02868400502D5A8
:1019E000E068002891D06868217C20F0FE4040EA41
:1019F00001606860C1480068FFF700FC002800D162
:101A000020E076E1FFF7DCFB801B0228B8D82868CD
:101A10004005F7D56868217C20F0FE4040EA01606F
:101A200068600FE020F480702860FFF7C9FB06466D
:101A300005E000BFFFF7C4FB801B0228A0D8286880
:101A40004005F7D42078000729D560690028D5F82B
:101A5000940013D040F00100C5F89400FFF7B0FBEC
:101A6000064606E090E000BFFFF7AAFB801B0228B5
:101A700086D8D5F894008007F6D510E020F0010054
:101A8000C5F89400FFF79CFB064604E0FFF798FBBF
:101A9000801B022878D8D5F894008007F6D42078E7
:101AA000400761D5A86D0026C00008D4A86D40F09D
:101AB0008050A865A86D012600F0805000909048E5
:101AC0000168C90511D40168804641F48071016044
:101AD000FFF776FB074604E0FFF772FBC01B022806
:101AE00052D8D8F80000C005F6D5A068012815D056
:101AF0000528D5F8900016D020F00100C5F8900018
:101B0000D5F8900020F00400C5F89000A06841F2DC
:101B10008838B8B1FFF754FB07460EE0D5F89000BF
:101B200040F00100F0E740F00400C5F89000F5E750
:101B3000FFF746FBC11B414526D8D5F8900080072A
:101B4000F6D50CE0FFF73CFB074604E0FFF738FB57
:101B5000C11B414518D8D5F890008007F6D41EB1B6
:101B6000A86D20F08050A8652078800629D5A0694E
:101B70000028D5F8980013D040F00100C5F898006F
:101B8000FFF71EFB064606E077E000BFFFF718FBF5
:101B9000801B022877D8D5F898008007F6D510E08A
:101BA00020F00100C5F89800FFF70AFB064604E0A4
:101BB000FFF706FB801B022865D8D5F89800800740
:101BC000F6D4E069F0B3A968C1F38101032961D0BB
:101BD0000228286820F0807028600BD0E86820F088
:101BE0000300E860E86847490840E860FFF7E8FA62
:101BF00004464BE0FFF7E4FA064604E0FFF7E0FA9C
:101C0000801B02283FD828688001F7D4F4E9080136
:101C10006FF00F0202EB01110843218A52044908B8
:101C200002EB4151A26841EA02210843217D4FF0B5
:101C30007E42490802EB41610843217B40EAC160D2
:101C4000E96800E062E0304A11400843E860286833
:101C500040F080702860E86840F08070E860FFF72E
:101C6000AFFA044605E000BFFFF7AAFA001B0228FE
:101C700009D828688001F7D548E004E0FFF7A0FA0A
:101C8000001B022802D90320BDE8F88328688001E0
:101C9000F4D43BE00128F7D0E868226A00F00301A1
:101CA000914226D1616A00F0F00209011039914297
:101CB0001FD1A26A00F4FE41B1EB022F19D194F8B2
:101CC0002C2000F07841B1EBC26F12D1218E00F4CC
:101CD000C00249084905A1F50011914209D194F8C3
:101CE000341000F0C06049084906A1F1007181423A
:101CF0000CD00120C8E70000001002408C03002037
:101D000000700040FFFFEEFE0C809F010020BBE74B
:101D100010B5401EB0F1807F01D3012010BD4FF0FF
:101D2000E02460610F21601700F0EBF80020A06153
:101D300007202061002010BDFEE7000070B51248AA
:101D400010490F230160002141608160C16001746E
:101D5000417481740122C0E90532062403254362DF
:101D600000F12806C0E9074586E83400C0E90D21E6
:101D7000C163FEF703FF002803D0BDE87040FEF703
:101D800020BB70BD006400402C04002070B51248D8
:101D900010490F230160002141608160C16001741E
:101DA000417481740122C0E905320624032543628F
:101DB00000F12806C0E9074586E83400C0E90D2196
:101DC000C163FEF7DBFE002803D0BDE87040FEF7DC
:101DD000F8BA70BD006800409004002070B5124849
:101DE00010490F230160002141608160C1600174CE
:101DF000417481740122C0E905320624032543623F
:101E000000F12806C0E9074586E83400C0E90D2145
:101E1000C163FEF7B3FE002803D0BDE87040FEF7B3
:101E2000D0BA70BD006C0040F4040020114808B521
:101E3000C16C41F02001C164C16C01F0200100912E
:101E4000C16C41F00101C164C16C01F0010100915C
:101E5000C16C41F00801C164C16C01F0080100913E
:101E6000C16C41F00201C164C06C00F0020000903E
:101E700008BD000000100240FEE7FEE77047704713
:101E8000FFF7A4B900B593B038216846FEF734FADD
:101E900014210EA8FEF730FA4FF40070FFF728FA6D
:101EA0000220C1010391402104910421CDE90801E0
:101EB00000904B21CDE90A1007900C900D906846D8
:101EC000FFF720FD08B172B6FEE70F200E90032049
:101ED0000F90002010901190129004210EA8FFF78F
:101EE000EDFB002801D072B6FEE713B000BD000084
:101EF0000248016841F470010160704788ED00E01C
:101F0000FEE70907090E002804DB00F1E02080F855
:101F10000014704700F00F0000F1E02080F8141D5D
:101F200070470000FFF75AF9FFF7ACFFFFF77EFF9D
:101F3000FFF704FFFFF72AFFFFF750FF0848FEF7FF
:101F400049FA0848FEF772FA0748FEF76FFA0121CE
:101F50009620FEF75DFB0120FEF7F4FBF7E700009B
:101F60002C04002090040020F40400204FF0407066
:101F7000E1EE100A70470001020304050607080C91
:101F80001014182030400000000000000000010282
:101F90000304060708090000B81F0008000000201D
:101FA0009C030000140200082C2000089C03002061
:101FB0001C08000070020008011A83A04214E0937C
:101FC000040526206CFBFF09A6381A48381B803F01
:101FD000400ACE403853F401463F0AD7A33C2308B9
:101FE000020C1FF8FDFF3832C808082B6666263F32
:101FF00096438B381A2C70080D2ACDCC0C3F8FC21B
:10200000753CCDCC4C3D3808082B6666E63E0AD7B9
:10201000233841456666A63F29381A40480BC0C0A0
:0C202000FE3832101923611324F4000074
:04000005080001D915
:00000001FF
