:020000040800F2
:10000000180700206502000811190008E91400080B
:100010000D1900085B040008311A000800000000F8
:10002000000000000000000000000000511900085E
:100030005F040008000000004F1900085319000871
:100040007F0200087F0200087F0200087F0200088C
:100050007F0200087F0200087F0200087F0200087C
:100060007F0200087F0200087F0200087F0200086C
:100070007F0200087F0200087F0200087F0200085C
:100080007F0200087F0200087F0200087F0200084C
:100090007F0200087F0200087F0200087F0200083C
:1000A0007F0200087F0200087F0200087F0200082C
:1000B0007F0200087F0200087F0200087F0200081C
:1000C0007F0200087F0200087F0200087F0200080C
:1000D0007F0200087F0200087F0200087F020008FC
:1000E0007F0200087F0200087F0200087F020008EC
:1000F0007F0200087F0200087F0200087F020008DC
:100100007F0200087F0200087F0200087F020008CB
:100110007F0200087F0200087F0200087F020008BB
:100120007F0200087F0200087F0200087F020008AB
:100130007F02000800000000000000007F020008AD
:100140007F0200087F0200087F0200087F0200088B
:100150007F0200087F0200087F0200087F0200087B
:100160007F0200087F0200087F0200087F0200086B
:100170007F0200087F0200087F02000800000000E4
:10018000000000007F0200080000000000000000E6
:100190007F02000800000000000000007F0200084D
:1001A0000000000000000000000000007F020008C6
:1001B0007F0200087F0200087F0200087F0200081B
:1001C0007F02000800F002F800F03CF80AA090E876
:1001D000000C82448344AAF10107DA4501D100F002
:1001E00031F8AFF2090EBAE80F0013F0010F18BF93
:1001F000FB1A43F0010318471C1900003C190000CA
:10020000103A24BF78C878C1FAD8520724BF30C842
:1002100030C144BF04680C60704700000023002414
:1002200000250026103A28BF78C1FBD8520728BF06
:1002300030C148BF0B6070471FB501F059FC1FBDAE
:1002400010B510BD00F0CFF81146FFF7F5FF01F033
:1002500035FC00F0EDF803B4FFF7F2FF03BC00F04B
:10026000F5F800000948804709480047FEE7FEE727
:10027000FEE7FEE7FEE7FEE7FEE7FEE7FEE7FEE756
:1002800004480549054A064B704700001D1A00083E
:10029000C5010008180100201807002018030020DD
:1002A0001803002053EA020C00F069802DE9F04B9E
:1002B0004FF00006002B1FBFB3FA83F503FA05F4D5
:1002C00024FA05F65E4012BF1643B2FA82F502FA2E
:1002D00005F4C5F120051EBF22FA05FC44EA0C0412
:1002E000203556EA044C4FEA144418BF641C4FF002
:1002F00000084FF00009904271EB030C39D300293C
:1003000019BFB1FA81F701FA07F6B0FA80F700FADF
:1003100007F6C7F120071EBF20FA07FC46EA0C06C5
:100320002037B6FBF4FCA7EB0507103F07F01F0BC7
:10033000CBF120060CFA0BFB2CFA06F644BFB346B1
:100340000026202FA4BF5E464FF0000B5BEA060C90
:1003500008BF4FF0010B19EB0B09ABFB027C48EB1C
:100360000608C01B06FB02CC0BFB03CC71EB0C0197
:10037000C1E70B46024641464846BDE8F08B13B53F
:100380004FF000004FF00001AFF30080BDE81C40CB
:1003900070474FF0000200B5134694469646203948
:1003A00022BFA0E80C50A0E80C50B1F12001BFF42E
:1003B000F7AF090728BFA0E80C5048BF0CC05DF894
:1003C00004EB890028BF40F8042B08BF704748BFE2
:1003D00020F8022B11F0804F18BF00F8012B704756
:1003E000704770477047754600F02CF8AE46050020
:1003F0006946534620F00700854618B020B5FFF740
:100400003FFFBDE820404FF000064FF000074FF0DF
:1004100000084FF0000B21F00701AC46ACE8C00922
:10042000ACE8C009ACE8C009ACE8C0098D4670472B
:1004300010B50446AFF300802046BDE81040FFF73A
:100440000ABF000000487047B8000020014918208A
:10045000ABBEFEE726000200704700BFFEE7704714
:1004600072B600BFFEE7000070B5044600F002F966
:1004700006462546681C10B104480078054400BFB4
:1004800000F0F8F8801BA842FAD370BD08000020E5
:10049000F8B502460B460025002400200021D1E0DB
:1004A000012606FA01F51E6806EA0504AC4274D17D
:1004B0001E7906F00306012E04D01E7906F003060D
:1004C000022E13D190684F000326BE40B0434F0068
:1004D000DE68BE4030439060506801268E40B043D5
:1004E0001E79C6F300168E40304350601E7906F028
:1004F0000306032E09D0D0684F000326BE40B04348
:100500004F009E68BE403043D0601E7906F003065F
:10051000022E13D1CF0802F1200656F827004E070D
:10052000F70E0F26BE40B0434F07FF0E1E69BE40B8
:100530003043CF0802F1200646F8270010684F002C
:100540000326BE40B0431E7906F003064F00BE40AE
:10055000304310605E6806F44036002E71D000BF54
:1005600000260096394E366846F48046374F3E6086
:100570003E46366806F48046009600BF00BF344E03
:100580008F0856F827008E07370F0F26BE40B0435E
:10059000304EB24202D100261FE052E02E4EB2424F
:1005A00001D1012619E02D4EB24201D1022614E0FC
:1005B0002B4EB24201D103260FE02A4EB24201D1A6
:1005C00004260AE0284EB24201D1052605E0274E56
:1005D000B24201D1062600E007268F073F0FBE403A
:1005E00030431B4E8F0846F82700214E3068A04349
:1005F0005E6806F4801606B120431D4E3060361D3D
:100600003068A0435E6806F4001606B12043184E19
:10061000361D3060164E361F3068A0435E6806F403
:10062000003606B12043124E361F3060361F306848
:10063000A0435E6806F4803606B120430C4E083EA7
:100640003060491C1029FFF42BAFF8BD443802403C
:100650000838014000000240000402400008024047
:10066000000C02400010024000140240001802403A
:10067000083C01400148006870470000000000206D
:1006800070B504460CB9012070BD94F83D0028B93E
:10069000002084F83C00204600F08CF9242084F8E7
:1006A0003D002068006820F0010021680860206893
:1006B000006840F40040216808602068006820F469
:1006C00000402168086000F0E5FB05465C49606871
:1006D000884206D85B48854201D2012007E000200D
:1006E00005E05948854201D2012000E000200128A0
:1006F00000D1C9E75548B5FBF0F62068406820F006
:100700003F003043216848604D496068884201D805
:10071000701C07E04FF4967070434FF47A71B0FB91
:10072000F1F0401C2168096A21F03F01084321686B
:10073000086243496068884214D8681E61684900AD
:10074000B0FBF1F0401CC0F30B00042801D20420E0
:100750003DE0681E61684900B0FBF1F0401CC0F349
:100760000B0034E0A06838B9681E616801EB4101F4
:10077000B0FBF1F0401C0AE0681E616801EBC102A9
:1007800002EB0111B0FBF1F0401C40F48040C0F3DB
:100790000B0008B901201AE0A06848B9681E61681A
:1007A00001EB4101B0FBF1F0401CC0F30B000CE089
:1007B000681E616801EBC10202EB0111B0FBF1F0B0
:1007C000401CC0F30B0040F4804040F4004021681E
:1007D000C9694CF6FF72914308432168C861D4E9A6
:1007E000070108432168096821F0C0010843216816
:1007F0000860D4E9031008432168896848F2FF3291
:100800009143084321688860D4E9050108432168C1
:10081000C96821F0FF0108432168C86020680068AA
:1008200040F001002168086000202064202084F846
:100830003D000020206384F83E0000BF24E7000054
:10084000A086010080841E0000093D0040420F0088
:100850002DE9FC5F04460F4690469946DDE90CAB56
:100860000E9EFFF707FF054694F83D0020287DD136
:10087000192301224D492046009500F0F5FE10B1E4
:100880000220BDE8FC9F00BF94F83C00012801D184
:100890000220F6E7012084F83C0000BF20680068D1
:1008A00000F0010028B92068006840F001002168CC
:1008B00008602068006820F400602168086021203A
:1008C00084F83D00402084F83E0000202064C4F8F5
:1008D00024A0A4F82AB0608D20853548E0624B46FC
:1008E000424639462046CDE9006500F01FFE08B1BA
:1008F0000120C6E731E02A463146204600F059FF84
:1009000050B1206C042805D12068006840F40070C4
:10091000216808600120B4E7606A007821680861F6
:10092000606A401C6062208D401E2085608D401EE4
:10093000608520684069C0F3800070B1208D60B18F
:10094000606A007821680861606A401C6062208DDE
:10095000401E2085608D401E6085208D0028CAD1F4
:100960002A463146204600F051FE00E01CE050B11E
:10097000206C042805D12068006840F400702168CC
:10098000086001207DE72068006840F4007021685D
:100990000860202084F83D00002084F83E0000BF5D
:1009A00084F83C0000BF6CE702206AE702001000F8
:1009B0000000FFFF10B586B00446142101A8FFF720
:1009C000E8FC4449206888422FD100BF00200090F5
:1009D0004148006840F002003F490860084600684E
:1009E00000F00200009000BF00BFC0200190122064
:1009F000029000200390032004900420059001A998
:100A00003648FFF745FD00BF002000903248103007
:100A1000006840F400103049103108600846006852
:100A200000F40010009000BF51E02D49206888427A
:100A30004DD100BF002000902748006840F004001E
:100A4000254908600846006800F00400009000BFD7
:100A500000BF00BF002000900846006840F0010081
:100A600008600846006800F00100009000BF00BF69
:100A7000481501901220029000200390032004905A
:100A80000420059001A91748FFF702FD4FF480707C
:100A90000190122002900020039003200490042073
:100AA000059001A91048FFF7F3FC00BF002000905B
:100AB00009481030006840F4000007491031086010
:100AC0000846006800F40000009000BF00BF06B0B8
:100AD00010BD0000005400403038024000040240C5
:100AE000005C00400008024000000240034800682B
:100AF0000349097808440149086070470000002054
:100B00000800002010B50D48006840F400700B4943
:100B100008600846006840F4806008600846006885
:100B200040F480700860032000F092F80F2000F07D
:100B300007F800F02BF8002010BD0000003C024038
:100B400070B504460E4800784FF47A71B1FBF0F0AE
:100B50000C490968B1FBF0F5284600F0ABFC08B180
:100B6000012070BD102C07D200222146501E00F03B
:100B700031F80548046001E00120F2E70020F0E7C9
:100B8000080000200C0000200400002008B500BF71
:100B9000002000900E48006840F480400C49086036
:100BA0000846006800F48040009000BF00BF00BF0E
:100BB00000200090081F006840F08050091F086066
:100BC0000846006800F08050009000BF00BF08BDDC
:100BD000443802402DE9F05F80460D461646002756
:100BE00000F050FF074639462A46334601F0070019
:100BF000C0F1070ABAF1040F02D94FF0040A01E06C
:100C0000C0F1070AD14600F1040ABAF1070F02D277
:100C10004FF0000A01E0A0F1030AD4464FF0010AA8
:100C20000AFA09FAAAF1010A0AEA020A0AFA0CFA0D
:100C30004FF0010B0BFA0CFBABF1010B0BEA030BB2
:100C40004AEA0B042146404600F024FFBDE8F09F2D
:100C500000BF00F00702064B19684FF6FF0319406A
:100C6000044B0B4343EA0221014B196000BF70475C
:100C70000CED00E00000FA0538B5002400BF0020AC
:100C800000901D48006840F080501B4908600846ED
:100C9000006800F08050009000BF00BF012017499D
:100CA0000864FFF7E7FC044607E0FFF7E3FC001BDE
:100CB000B0F57A7F01D9032038BD1148406800F4AF
:100CC0008030B0F5803FF0D101200C494864FFF737
:100CD000D1FC044607E0FFF7CDFC001BB0F57A7F9E
:100CE00001D90320E8E70648406800F40030B0F579
:100CF000003FF0D10020DFE74038024000000E4204
:100D00000070004070B504460D460CB9012070BD5E
:100D10005848006800F00F00A84209D255490D70EC
:100D20000846006800F00F00A84201D00120EEE75D
:100D3000207800F0020002281DD1207800F0040085
:100D4000042805D14C48006840F4E0504A49086046
:100D5000207800F00800082805D14748006840F4D2
:100D60006040454908604448006820F0F000A168F0
:100D7000084341490860207800F00100A8B360688A
:100D8000012807D13C4808380068C0F34040B8B992
:100D90000120BCE76068022802D06068032807D100
:100DA000354808380068C0F3406048B90120AEE714
:100DB000314808380068C0F3400008B90120A6E7B0
:100DC0002D48006820F00300616808432A49086044
:100DD000FFF750FC064609E0FFF74CFC801B41F290
:100DE0008831884202D9032091E707E02248006851
:100DF00000F00C006168B0EB810FEDD11D48006878
:100E000000F00F00A84209D91A490D700846006881
:100E100000F00F00A84201D0012078E7207800F010
:100E20000400042807D11448006820F4E050E16869
:100E3000084311490860207800F00800082808D10C
:100E40000D48006820F46040216940EAC1000A4969
:100E5000086000F02FF808490968C1F30311074A38
:100E6000515CC8400649086006480068FFF768FE04
:100E700000204CE7003C024008380240FA1A000803
:100E80000C000020040000200148006870470000AA
:100E90000C00002000B5FFF7F7FF04490968C1F313
:100EA0008221034A515CC84000BD0000083802405E
:100EB0000A1B00082DE9F047002400250026A14662
:100EC000A2463F48006800F00C0030B1042807D06B
:100ED000082808D00C286BD138E0DFF8E8A06AE0D9
:100EE000DFF8E4A067E03648001F006800F03F0428
:100EF0003348001F006800F4800078B13248304960
:100F0000091F0968C1F38811A0FB01700146224640
:100F100000233846FFF7C6F905460DE02948284961
:100F2000091F0968C1F38811A0FB01712246002343
:100F30003846FFF7B7F905462148001F0068C0F39F
:100F40000140401C4600B5FBF6FA34E01C48001F87
:100F5000006800F03F041A48001F006800F4800099
:100F600078B119481649091F0968C1F38811A0FB17
:100F700001700146224600233846FFF793F90546E3
:100F80000EE010480E49091F0968C1F38811A0FB43
:100F900001700146224600233846FFF783F90546D3
:100FA0000748001F0068C0F30279B5FBF9FA02E0B8
:100FB000DFF810A000BF00BF5046BDE8F08700007A
:100FC000083802400024F40040787D01F8B504465A
:100FD0000CB90120F8BD207800F0010000286FD086
:100FE000FE48006800F00C0004281BD0FB48006895
:100FF00000F00C00082807D1F848001F006800F432
:101000008000B0F5800F0DD0F448006800F00C00AF
:101010000C2813D1F148001F006800F48000B0F5DF
:10102000800F0BD1ED4808380068C0F3404000281D
:1010300059D06068002856D10120CBE700BF606816
:10104000B0F5803F08D1E5480838006840F48030AA
:10105000E249083908601EE06068B0F5A02F0DD1A4
:10106000DE480838006840F48020DC490839086010
:101070000846006840F4803008600CE0D748083823
:10108000006820F48030D5490839086008460068B7
:1010900020F48020086000BF606890B1FFF7EAFA92
:1010A000054606E0FFF7E6FA401B642801D9032055
:1010B00090E7CA4808380068C0F340400028F1D0E3
:1010C00011E0FFF7D7FA054606E0FFF7D3FA401B19
:1010D000642801D903207DE7C04808380068C0F3C0
:1010E00040400028F1D1207800F0020002286BD1A6
:1010F000BA48006800F00C00B8B1B848006800F0C9
:101100000C00082805D1B548001F006800F48000D5
:1011100058B1B248006800F00C000C281CD1AF4850
:10112000001F006800F48000B0B9AC4808380068BF
:10113000C0F3400020B1E068012801D0012049E758
:10114000A6480838006820F0F800216940EAC1008C
:10115000A2490839086037E0E06800B30120A049DF
:101160000860FFF787FA054606E0FFF783FA401BA1
:10117000022801D903202DE7984808380068C0F3F9
:1011800040000028F1D095480838006820F0F800A9
:10119000216940EAC10091490839086014E0002043
:1011A0008F490860FFF766FA054606E0FFF762FA26
:1011B000401B022801D903200CE788480838006842
:1011C000C0F340000028F1D1207800F00800082882
:1011D0002CD16069A8B1012082490860FFF74AFA62
:1011E000054606E0FFF746FA401B022801D9032016
:1011F000F0E67A486C300068C0F340000028F1D077
:1012000014E0002077490860FFF734FA054606E04D
:10121000FFF730FA401B022801D90320DAE66F48B5
:101220006C300068C0F340000028F1D1207800F055
:101230000400042870D1002768483830006800F0A6
:10124000805090B900BF002000906448383000689A
:1012500040F080506149383108600846006800F06D
:101260008050009000BF00BF01275F48006800F475
:101270008070B0B95C48006840F480705A490860DA
:10128000FFF7F8F9054606E0FFF7F4F9401B0228DE
:1012900001D903209EE65448006800F480700028BD
:1012A000F2D000BFA068012808D14C48683000681F
:1012B00040F001004949683108601DE0A068052838
:1012C0000DD146486830006840F004004349683159
:1012D00008600846006840F0010008600CE03F48E4
:1012E0006830006820F001003C4968310860084619
:1012F000006820F00400086000BFA068A8B1FFF7F4
:10130000B9F9054609E0FFF7B5F9401B41F288310C
:10131000884202D903205DE626E030486830006844
:10132000C0F340000028EED013E0FFF7A3F9054614
:1013300008E0FFF79FF9401B41F28831884201D94C
:10134000032047E6254868300068C0F340000028C5
:10135000EFD1012F07D121483830006820F08050AC
:101360001E493831086000BFA069002851D01B48D1
:10137000006800F00C00082861D0A069022849D15B
:10138000002017490866FFF775F9054606E0FFF7E4
:1013900071F9401B022801D903201BE60F480838C9
:1013A0000068C0F340600028F1D1D4E90701084388
:1013B000616A40EA81110122A06AC2EB500041EA51
:1013C00000412C20005D41EA00613020005D41EACF
:1013D00000700249091F0860012007E00838024038
:1013E00000004742800E4742007000402F490866C7
:1013F000FFF740F9054606E0FFF73CF9401B0228DD
:1014000001D90320E6E52A480068C0F340600028BF
:10141000F2D048E0002025490866FFF72BF9054681
:1014200006E0FFF727F9401B022801D90320D1E588
:101430001F480068C0F340600028F2D133E0A06983
:10144000012800D1C6E51A48001D0668A0690128D8
:1014500027D006F48001E069814222D106F03F01E5
:10146000206A81421DD147F6C0703040616AB0EBFE
:10147000811F16D106F440310122A06AC2EB500050
:10148000B1EB004F0DD106F070612C20005DB1EB87
:10149000006F06D106F0E0413020005DB1EB007F27
:1014A00001D0012096E5002094E5000000004742AD
:1014B0000038024070B504462546681EB0F1807FB2
:1014C00001D301200FE0681E4FF0E02148610F2199
:1014D0004FF0FF3000F0DEFA00204FF0E02188618D
:1014E00007200861002070BD00BFFEE701460868C4
:1014F0004069C0F38020B0B16FF480600A68506129
:1015000000200863202081F83D00002081F83E0083
:10151000086C40F00400086400BF002081F83C0023
:1015200000BF012070470020FCE700002DE9F843D0
:101530000446884615469946DDE908672068006834
:1015400040F4807021680860334600224FF001119A
:101550002046009700F088F860B12068006800F429
:101560008070B0F5807F02D14FF4007020640320BA
:10157000BDE8F88308F0FE00216808613B4632466A
:101580002149204600F0B3F808B10120F0E700BF80
:1015900000200090206840690090206880690090D9
:1015A00000BF00BF3A463146204600F002F950B174
:1015B000206C042805D12068006840F40070216880
:1015C00008600120D4E7B9F1010F03D1E8B2216826
:1015D000086117E0C5F30720216808613A463146E3
:1015E000204600F0E6F850B1206C042805D12068B0
:1015F000006840F40070216808600120B8E7E8B294
:10160000216808610020B3E70200010070B50446BC
:101610000D46164620E02046FFF768FF08B101207E
:1016200070BD681CC0B1FFF725F8801BA84200D828
:1016300095B900202063202084F83D00002084F824
:101640003E00206C40F02000206400BF002084F8A1
:101650003C0000BF0120E3E720684069C0F3800040
:101660000028D8D00020DBE72DE9F04104460D46E4
:1016700017461E46DDF818801CE0701CD0B1FEF73E
:10168000F9FFA0EB0800B04200D89EB9002020630B
:10169000202084F83D00002084F83E00206C40F0BB
:1016A0002000206400BF002084F83C0000BF01201F
:1016B000BDE8F081C5F3074001280AD120684069E0
:1016C000A9B20840A9B2884201D101200BE0002054
:1016D00009E020688069A9B20840A9B2884201D116
:1016E000012000E00020B842C7D00020E0E72DE94B
:1016F000F04104460D4616461F463DE0206840690D
:10170000C0F38020E8B12068006840F400702168D0
:1017100008606FF480602168486100202063202009
:1017200084F83D00002084F83E00206C40F0040066
:10173000206400BF002084F83C0000BF0120BDE809
:10174000F081701CC0B1FEF795FFC01BB04200D8FD
:1017500096B900202063202084F83D00002084F802
:101760003E00206C40F02000206400BF002084F880
:101770003C0000BF0120E2E7C5F3074001280AD181
:1017800020684069A9B20840A9B2884201D101206D
:101790000BE0002009E020688069A9B20840A9B2E6
:1017A000884201D1012000E000200028A6D00020BE
:1017B000C5E770B504460D46164620E02046FFF703
:1017C00095FE08B1012070BD681CC0B1FEF752FF44
:1017D000801BA84200D895B900202063202084F8FF
:1017E0003D00002084F83E00206C40F02000206482
:1017F00000BF002084F83C0000BF0120E3E7206820
:101800004069C0F3C0100028D8D00020DBE70000FA
:1018100008B500BF002000901D48006840F080001F
:101820001B4908600846006800F08000009000BF77
:1018300000BF00BF002000900846006840F0040090
:1018400008600846006800F00400009000BF00BF78
:1018500000BF002000900846006840F001000860CA
:101860000846006800F00100009000BF00BF00BF04
:10187000002000900846006840F00200086008461A
:10188000006800F00200009000BF00BF08BD00002B
:101890003038024010B50B480B4908600B484860CF
:1018A000002109488160C1604FF48041016100213D
:1018B00041618161C1610162FEF7E2FE08B1FEF79C
:1018C000CFFD10BD0054004010000020A086010094
:1018D00010B50B480B4908600B48486000210948C7
:1018E0008160C1604FF480410161002141618161EB
:1018F000C1610162FEF7C4FE08B1FEF7B1FD10BD83
:10190000005C004064000020A086010000BFFEE7EC
:1019100000BFFEE770B50646002415E004F1B001F3
:10192000C8B200F087F8002000F084F8102000F022
:1019300081F8002504E0304600F090F8681CC5B23C
:10194000802DF8DB601CC4B2082CE7DB70BD70474B
:10195000704710B5FFF7CAF810BD000000B593B08E
:10196000342106A8FEF715FD142101A8FEF711FD8C
:1019700000BF002000902748006840F080502549B3
:1019800008600846006800F08050009000BF00BF6B
:1019900000BF002000902048006840F440401E49ED
:1019A00008600846006800F44040009000BF00BF97
:1019B000022006900120099010200A9002200C902D
:1019C00000210D9108210E91B4210F910221109157
:1019D0001191129106A8FFF7F9FA08B1FEF740FD40
:1019E000FFF74AF908B1FEF73BFD0F2001900220F6
:1019F0000290002003904FF4A05004904FF48050C8
:101A00000590052101A8FFF77DF908B1FEF728FD33
:101A100013B000BD40380240007000400348006829
:101A200040F47000014908607047000088ED00E054
:101A300000BFFEE701B584B042F21070012104AA94
:101A40000B46CDE900210290002278210248FEF7E2
:101A5000FFFE05B000BD00001000002001B584B0FD
:101A600042F21070012104AA0B46CDE90021029038
:101A7000402278210248FEF7EBFE05B000BD0000D1
:101A80001000002002480068C0F3022070470000E8
:101A90000CED00E010B5002804DB0A07130E054A20
:101AA000135406E00A07140E034A00F00F031B1F2D
:101AB000D45410BD00E400E018ED00E0FFF722F878
:101AC000FFF74CFFFFF7A4FEFFF7E4FEFFF700FF70
:101AD0000DE0FF20FFF71EFF4FF4FA60FEF7C4FC95
:101AE0000020FFF717FF4FF4FA60FEF7BDFCF0E7A8
:101AF0004FF04070E1EE100A704700000000000057
:101B000000000102030406070809000000000102AA
:101B100003040000341B0008000000201000000037
:101B200000020008441B0008100000200807000005
:101B30001C0200080000000010000000010000006E
:041B40000024F40089
:04000005080001C529
:00000001FF
