:020000040800F2
:10000000B00B00206902000835210008E91F000834
:10001000312100085F040008092B000800000000DF
:10002000000000000000000000000000FD250008A6
:10003000410500080000000039210008FF250008E4
:10004000830200088302000883020008830200087C
:10005000830200088302000883020008830200086C
:10006000830200088302000883020008830200085C
:10007000830200088302000883020008830200084C
:10008000830200088302000883020008830200083C
:100090006504000883020008750400088302000854
:1000A000830200088302000883020008830200081C
:1000B000830200088302000883020008830200080C
:1000C00083020008830200088302000883020008FC
:1000D000830200088302000883020008F92A00084E
:1000E00083020008830200088302000883020008DC
:1000F00083020008830200088302000883020008CC
:1001000083020008830200088302000883020008BB
:1001100083020008830200088302000883020008AB
:10012000830200088302000883020008830200089B
:1001300083020008000000000000000083020008A5
:100140008302000885040008950400088302000863
:10015000830200088302000883020008830200086B
:10016000830200088302000883020008830200085B
:100170008302000883020008000000000000000065
:10018000830200088302000800F002F800F05CF827
:100190000AA090E8000C82448344AAF10107DA45E2
:1001A00001D100F051F8AFF2090EBAE80F0013F0D8
:1001B000010F18BFFB1A43F001031847882C0000F9
:1001C000A82C00000A444FF0000C10F8013B13F07B
:1001D000070408BF10F8014B1D1108BF10F8015BA0
:1001E000641E05D010F8016B641E01F8016BF9D193
:1001F00013F0080F1EBF10F8014BAD1C0C1B09D1EA
:100200006D1E58BF01F801CBFAD505E014F8016B5B
:1002100001F8016B6D1EF9D59142D6D370470000ED
:100220000023002400250026103A28BF78C1FBD8FF
:10023000520728BF30C148BF0B6070471FB502F09E
:10024000F0FD1FBD10B510BD00F0CFF81146FFF74F
:10025000F5FF02F077FC00F0EDF803B4FFF7F2FFD2
:1002600003BC00F0F5F80000094880470948004742
:10027000FEE7FEE7FEE7FEE7FEE7FEE7FEE7FEE756
:10028000FEE7FEE704480549054A064B70470000B3
:10029000C126000889010008B0050020B00B00202D
:1002A000B0070020B007002053EA020C00F069807C
:1002B0002DE9F04B4FF00006002B1FBFB3FA83F57A
:1002C00003FA05F424FA05F65E4012BF1643B2FAAB
:1002D00082F502FA05F4C5F120051EBF22FA05FCDD
:1002E00044EA0C04203556EA044C4FEA144418BF83
:1002F000641C4FF000084FF00009904271EB030CB2
:1003000039D3002919BFB1FA81F701FA07F6B0FA1B
:1003100080F700FA07F6C7F120071EBF20FA07FC96
:1003200046EA0C062037B6FBF4FCA7EB0507103FA6
:1003300007F01F0BCBF120060CFA0BFB2CFA06F68C
:1003400044BFB3460026202FA4BF5E464FF0000BEB
:100350005BEA060C08BF4FF0010B19EB0B09ABFB76
:10036000027C48EB0608C01B06FB02CC0BFB03CC4F
:1003700071EB0C01C1E70B46024641464846BDE819
:10038000F08B13B54FF000004FF00001AFF3008089
:10039000BDE81C4070474FF0000200B5134694467C
:1003A0009646203922BFA0E80C50A0E80C50B1F1CD
:1003B0002001BFF4F7AF090728BFA0E80C5048BFE1
:1003C0000CC05DF804EB890028BF40F8042B08BF7F
:1003D000704748BF20F8022B11F0804F18BF00F87B
:1003E000012B7047704770477047754600F02CF836
:1003F000AE4605006946534620F00700854618B012
:1004000020B5FFF73FFFBDE820404FF000064FF05A
:1004100000074FF000084FF0000B21F00701AC4639
:10042000ACE8C009ACE8C009ACE8C009ACE8C00958
:100430008D46704710B50446AFF300802046BDE8F6
:100440001040FFF70ABF0000004870475005002029
:1004500001491820ABBEFEE726000200704700BF2E
:10046000FEE7000010B5024800F0C5FA10BD00001C
:100470002404002010B5024800F0BDFA10BD0000B1
:100480002404002010B5024800F0B5FA10BD0000A9
:100490004C04002010B5024800F0ADFA10BD000079
:1004A0004C04002030B58BB0054623492868096804
:1004B00088421AD100200690079001200890002061
:1004C00001900290039004900590012009900A90F9
:1004D00001A9284600F024F9284600F058FD022121
:1004E000284600F05DF8044620E0144928680968B1
:1004F00088421BD10F200690002007900120089011
:100500000020019002900390049001200590099032
:100510000F200A9001A9284600F002F9284600F0B1
:1005200036FD1021284600F03BF804460CB100F0DF
:1005300008F80BB030BD0000240400204C0400205B
:10054000704772B67047000010B52DED028BB0EE0B
:10055000408AF0EE608A9FED100B53EC102B51ECAB
:10056000180B02F0B7FB00D20EE09FED0B0B53EC23
:10057000102B51EC180B02F01DFB05D851EC180B99
:1005800002F000FB41EC180BB0EE480AF0EE680AEE
:10059000BDEC028B10BD0000000000000000000058
:1005A00010B5024692F82030012B01D0022B06D163
:1005B00010684069084314686061002010BD506AEB
:1005C00040F4802050620120F8E7F0B504460D4663
:1005D0001E4694F8207020688368A86800B900E07F
:1005E00000BF012F01D0022F7CD103F0806030B911
:1005F00003F0006018B903F08050002873D0C3F3F3
:100600000161022905D9606A40F40000606201209E
:10061000F0BD012088403060A86860B9B5F800C01E
:10062000E86840EA4C5C206800F5C07000EB0110FF
:10063000C0F800C00FE0D5E901C040EACC00D5F811
:100640000CC040EA0C00D4F800C00CF5C07C0CEBE8
:10065000011CCCF80000D5F810C0206800F5C0706F
:1006600000EB0110C0F804C0287D01280ED12068DD
:1006700000F5C07000EB0110406840F4807C2068F9
:1006800000F5C07000EB0110C0F804C0D07900067E
:1006900092F806C040EA0C4092F805C040EA0C2CE3
:1006A00010794CEA000C206800F5C07000EB0110D6
:1006B000C0F80CC0D078000692F802C040EA0C40A6
:1006C00092F801C040EA0C2092F800C040EA0C0009
:1006D000D4F800C00CF5C07C0CEB011CCCF8080071
:1006E000206801E016E00FE000F5C07000EB01109B
:1006F000006840F0010C206800F5C07000EB0110AC
:10070000C0F800C0002083E7606A40F40010606217
:1007100001207DE7606A40F480206062012077E775
:10072000F0B504460A46216894F82050012D01D006
:10073000022D7ED1424901F50071086840F00100A8
:100740000860086820F47C5008600868566A40EA2F
:1007500006200860107D00F01F06012000FA06F355
:10076000C8699843C861A1F50071D069C8B9D1F8CA
:100770000C029843C1F80C02908880B2968940EA36
:10078000064601F51070576940F83760108880B24E
:10079000168940EA064601F51070576900EBC7005C
:1007A0004660D069012819D1D1F80C021843C1F86C
:1007B0000C02908880B2168840EA064601F5107057
:1007C000576940F83760908980B2168940EA06463A
:1007D00001F51070576900EBC7004660906928B9B1
:1007E000D1F804029843C1F8040204E0D1F80402ED
:1007F0001843C1F80402106928B9D1F814029843CB
:10080000C1F8140204E0D1F814021843C1F814022C
:10081000106A012804D1D1F81C021843C1F81C0247
:10082000D1F8000220F00100C1F800020020F0BD64
:10083000FFE7606A40F4802060620120F7E7000073
:1008400000640040704770B5044694F82050012DB4
:1008500001D0022D7DD151B92068C06800F003009D
:1008600080B9606A40F400106062012070BD2068A9
:10087000006900F0030028B9606A40F4001060626B
:100880000120F3E7206800F5D87000EB0110006844
:1008900000F004009060906840B9206800F5D870BE
:1008A00000EB01100068400D106007E0206800F5C3
:1008B000D87000EB01100068C0085060206800F597
:1008C000D87000EB0110006800F00200D0602068D2
:1008D00000F5D87000EB0110406800F00F001061C7
:1008E000206800F5D87000EB0110406800F47F40EC
:1008F000000A9061206800F5D87000EB0110406894
:10090000000C5061206800F5D87000EB0110806881
:100910001870206800F5D87000EB0110806800F4B2
:100920007F40000A5870206800F5D87000EB011075
:10093000806800F47F00000C9870206800F5D87083
:1009400000EB01108068000ED870206800F5D870A8
:1009500000E02FE000EB0110C0681871206800F57E
:10096000D87000EB0110C06800F47F40000A587195
:10097000206800F5D87000EB0110C06800F47F001B
:10098000000C9871206800F5D87000EB0110C06869
:10099000000ED87131B92068C06840F02000266888
:1009A000F06005E02068006940F0200026683061B2
:1009B00000205BE7606A40F480206062012055E718
:1009C0000146002091F82020012A01D0022A11D1ED
:1009D0000B689B6803F0806303B1401C0B689B6845
:1009E00003F0006303B1401C0B689B6803F0805365
:1009F00003B1401C70472DE9F05F044600252068D4
:100A000046692068D0F80490206887682068D0F88C
:100A10000CA02068D0F810B02068D0F8188006F03C
:100A20000100002855D007F00100C0B10120216865
:100A3000886007F0020018B1204600F0D8FA0EE0F6
:100A400007F0040010B145F4006508E007F0080065
:100A500010B145F4805502E0204600F0C7FA07F4D3
:100A60008070C8B14FF480702168886007F400700E
:100A700018B1204600F0BDFA0EE007F4806010B116
:100A800045F4005508E007F4006010B145F48045D6
:100A900002E0204600F0ACFA07F48030C8B14FF411
:100AA00080302168886007F4003018B1204600F0DB
:100AB000A2FA0EE007F4802010B145F4004508E0EA
:100AC00007F4002010B145F4803502E0204600F024
:100AD00091FA06F0080038B10AF0100020B145F490
:100AE000007510202168C86006F0040040B10AF0CB
:100AF000080028B108202168C860204600F01EFACE
:100B000006F0020038B12068C06800F0030010B1A0
:100B1000204600F015FA06F0400038B10BF0100046
:100B200020B145F4806510202168086106F020009E
:100B300040B10BF0080028B1082021680861204668
:100B400000F022FA06F0100038B12068006900F0C9
:100B5000030010B1204600F018FA06F4003040B14E
:100B600009F0100028B1102021684860204600F0EC
:100B70000DFA06F4803040B109F0080028B10820D1
:100B800021684860204600F037FA06F4004088B338
:100B900009F0040078B306F4807020B108F0010079
:100BA00008B145F0010506F4007020B108F002001C
:100BB00008B145F0020506F4806020B108F0040099
:100BC00008B145F0040506F40060A0B108F070001B
:100BD00088B108F07000402817D006DC10280BD030
:100BE00020280CD0302819D10CE0502810D06028D3
:100BF00014D110E01DE019E045F008050FE045F0C4
:100C000010050CE045F0200509E045F0400506E040
:100C100045F0800503E045F4807500E000BF00BFAB
:100C20002068806920F070002168886104202168B4
:100C300048602DB1606A284360622046FFF702FEDB
:100C4000BDE8F09F70B504460CB9012070BD94F862
:100C5000200010B9204600F0AFF82068006840F08E
:100C600001002168086000F041FB05460DE000F03E
:100C70003DFB401B0A2808D9606A40F400306062DE
:100C8000052084F820000120E0E72068406800F09B
:100C900001000028EBD02068006820F002002168E5
:100CA000086000F023FB05460DE000F01FFB401B31
:100CB0000A2808D9606A40F400306062052084F890
:100CC00020000120C2E72068406800F002000028F0
:100CD000EBD1207E012806D12068006840F080001A
:100CE0002168086005E02068006820F08000216825
:100CF0000860607E012806D12068006840F040004E
:100D00002168086005E02068006820F04000216844
:100D10000860A07E012806D12068006840F020000D
:100D20002168086005E02068006820F02000216844
:100D30000860E07E012806D12068006820F01000DD
:100D40002168086005E02068006840F01000216814
:100D50000860207F012806D12068006840F0080064
:100D60002168086005E02068006820F0080021681C
:100D70000860607F012806D12068006840F0040008
:100D80002168086005E02068006820F00400216800
:100D90000860D4E9020108432169084361690843F6
:100DA0006168491E08432168C86100206062012013
:100DB00084F82000002049E710B586B004461421CD
:100DC00001A8FFF7E8FA5749206888424AD15648F7
:100DD0000068401C544908600846006801280FD18B
:100DE00000BF002000905148006840F000704F495B
:100DF00008600846006800F00070009000BF00BF67
:100E000000BF0020009049481038006840F0010001
:100E10004649103908600846006800F0010000905B
:100E200000BF00BF4FF4C05001900220029000208C
:100E30000390032004900920059001A93C4800F08C
:100E40005BF900221146142000F0DAFA142000F0B9
:100E5000C7FA00221146162000F0D2FA162000F040
:100E6000BFFA5DE033492068884259D100BF0020B5
:100E700000902E48006840F080602C4908600846C9
:100E8000006800F08060009000BF00BF2648006846
:100E9000401C254908600846006801280FD100BFA2
:100EA000002000902148006840F000701F49086051
:100EB0000846006800F00070009000BF00BF00BF4F
:100EC0000020009019481038006840F002001749CF
:100ED000103908600846006800F00200009000BF6A
:100EE00000BF4FF440500190022002900020039078
:100EF000032004900920059001A90F4800F0FCF898
:100F000000221146412000F07BFA412000F068FAEF
:100F100000221146422000F073FA422000F060FAED
:100F200006B010BD006400400000002040380240C0
:100F300000000240006800400004024070470000CA
:100F400010B58AB004460F4920680968884217D155
:100F500000200190029001AB03AA00210948FFF78D
:100F600072FC059858B90398B0F5007F07D903982B
:100F7000B0F5027F03D801A9039801F00FF900BF73
:100F80000AB010BD2404002070477047704770B548
:100F9000044694F82000012822D1022084F8200081
:100FA0002068006820F001002168086000F09EF9C8
:100FB00005460DE000F09AF9401B0A2808D9606A3E
:100FC00040F400306062052084F82000012070BDEC
:100FD0002068406800F001000028EBD16062F6E76D
:100FE000606A40F4002060620120F0E770477047BB
:100FF0007047704770477047704770B50446A56DDD
:1010000000F074F9064694F83500022808D08020D4
:10101000606500BF002084F8340000BF012070BD6F
:101020002068006820F01600216808602068406988
:1010300020F0800021684861206C08B9A06C28B1BC
:101040002068006820F008002168086020680068B7
:1010500020F001002168086010E000F047F9801BD3
:1010600005280BD920206065032084F8350000BFD7
:10107000002084F8340000BF0320D0E72068006817
:1010800000F001000028E8D194F85C103F2088406F
:10109000A860012084F8350000BF002084F83400E7
:1010A00000BF00BFBBE7014691F83500022803D01E
:1010B0008020486501207047052081F835000868C8
:1010C000006820F001000A6810600020F3E70000CB
:1010D00070B5044600F00AF906462546681C10B1B2
:1010E00004480078054400BF00F000F9801BA842C6
:1010F000FAD370BD0C000020F8B502460B4600255F
:10110000002400200021D6E0012606FA01F51E6821
:1011100006EA0504AC4274D11E7906F00306012EDE
:1011200004D01E7906F00306022E13D190684F00FA
:101130000326BE40B0434F00DE68BE40304390609F
:10114000506801268E40B0431E79C6F300168E40CB
:10115000304350601E7906F00306032E09D0D06894
:101160004F000326BE40B0434F009E68BE40304350
:10117000D0601E7906F00306022E13D1CF0802F1CB
:10118000200656F827004E07F70E0F26BE40B04344
:101190004F07FF0E1E69BE403043CF0802F1200604
:1011A00046F8270010684F000326BE40B0431E7962
:1011B00006F003064F00BE40304310605E6806F440
:1011C0004036002E76D000BF002600963C4E366892
:1011D00046F480463A4F3E603E46366806F4804606
:1011E000009600BF00BF374E8F0856F827008E07C5
:1011F000370F0F26BE40B043334EB24202D1002615
:1012000024E057E0314EB24201D101261EE0304EBB
:10121000B24201D1022619E02E4EB24201D103267C
:1012200014E02D4EB24201D104260FE02B4EB24203
:1012300001D105260AE02A4EB24201D1062605E078
:10124000284EB24201D1072600E008268F073F0F43
:10125000BE4030431B4E8F0846F82700224E3068B0
:10126000A0435E6806F4801606B120431E4E30602F
:10127000361D3068A0435E6806F4001606B12043B0
:10128000194E361D3060184E361F3068A0435E6818
:1012900006F4003606B12043134E361F3060361F69
:1012A0003068A0435E6806F4803606B120430E4ED7
:1012B000083E3060491C1029FFF426AFF8BD00003D
:1012C0004438024008380140000002400004024057
:1012D00000080240000C02400010024000140240CE
:1012E00000180240001C0240083C01400148006810
:1012F0007047000004000020034800680349097893
:101300000844014908607047040000200C000020D8
:1013100010B50D48006840F400700B49086008469D
:10132000006840F4806008600846006840F48070FF
:101330000860032000F0A2F80F2000F007F800F08A
:101340002BF8002010BD0000003C024070B50446A0
:101350000E4800784FF47A71B1FBF0F00C4909683F
:10136000B1FBF0F5284600F02BFC08B1012070BD60
:10137000102C07D200222146501E00F041F80548EB
:10138000046001E00120F2E70020F0E70C000020FB
:10139000100000200800002008B500BF00200090C9
:1013A0000E48006840F480400C4908600846006818
:1013B00000F48040009000BF00BF00BF00200090FC
:1013C000081F006840F08050091F08600846006848
:1013D00000F08050009000BF00BF08BD44380240BC
:1013E00001460846002809DB00F01F0301229A404D
:1013F00043099B0003F1E023C3F8002100BF7047BD
:101400002DE9F05F80460D461646002701F07EFB71
:10141000074639462A46334601F00700C0F1070A5D
:10142000BAF1040F02D94FF0040A01E0C0F1070A33
:10143000D14600F1040ABAF1070F02D24FF0000AB8
:1014400001E0A0F1030AD4464FF0010A0AFA09FAB2
:10145000AAF1010A0AEA020A0AFA0CFA4FF0010B91
:101460000BFA0CFBABF1010B0BEA030B4AEA0B0482
:101470002146404601F052FBBDE8F09F00BF00F05E
:101480000702064B19684FF6FF031940044B0B4344
:1014900043EA0221014B196000BF70470CED00E0E8
:1014A0000000FA0570B504460D460CB9012070BD68
:1014B0005848006800F00700A84209D255490D704D
:1014C0000846006800F00700A84201D00120EEE7BE
:1014D000207800F0020002281DD1207800F00400DE
:1014E000042805D14C48006840F4E0504A4908609F
:1014F000207800F00800082805D14748006840F42B
:101500006040454908604448006820F0F000A16848
:10151000084341490860207800F00100A8B36068E2
:10152000012807D13C4808380068C0F34040B8B9EA
:101530000120BCE76068022802D06068032807D158
:10154000354808380068C0F3406048B90120AEE76C
:10155000314808380068C0F3400008B90120A6E708
:101560002D48006820F00300616808432A4908609C
:10157000FFF7BCFE064609E0FFF7B8FE801B41F20C
:101580008831884202D9032091E707E022480068A9
:1015900000F00C006168B0EB810FEDD11D480068D0
:1015A00000F00700A84209D91A490D7008460068E2
:1015B00000F00700A84201D0012078E7207800F071
:1015C0000400042807D11448006820F4E050E168C2
:1015D000084311490860207800F00800082808D165
:1015E0000D48006820F46040216940EAC1000A49C2
:1015F000086000F03FF808490968C1F30311074A81
:10160000515CC8400649086006480068FFF79EFE26
:1016100000204CE7003C0240083802402C2E000815
:1016200010000020080000200148006870470000FA
:101630001000002000B5FFF7F7FF04490968C1F367
:101640008221034A515CC84000BD000008380240B6
:101650003C2E000800B5FFF7E7FF04490968C1F315
:101660004231034A515CC84000BD000008380240C6
:101670003C2E00082DE9F047002400250026A14655
:101680002548006800F00C0020B1042805D0082887
:101690003AD105E0DFF8849039E0DFF8849036E055
:1016A0001D48001F006800F03F041B48001F006831
:1016B00000F4800078B11A481749091F0968C1F37E
:1016C0008811A0FB01700146224600233846FEF730
:1016D000EBFD05460EE011480F49091F0968C1F3EB
:1016E0008811A0FB01700146224600233846FEF710
:1016F000DBFD05460848001F0068C0F30140401CA0
:101700004600B5FBF6F902E0DFF8109000BF00BF1D
:101710004846BDE8F0870000083802400024F40085
:1017200040787D01F8B504460CB90120F8BD207859
:1017300000F00100002874D0F948006800F00C00A7
:1017400004280DD0F648006800F00C00082813D1DA
:10175000F348001F006800F48000B0F5800F0BD143
:10176000EF4808380068C0F34040002859D060684E
:10177000002856D10120D9E700BF6068B0F5803F4E
:1017800008D1E7480838006840F48030E449083957
:1017900008601EE06068B0F5A02F0DD1E048083861
:1017A000006840F48020DE49083908600846006877
:1017B00040F4803008600CE0D9480838006820F414
:1017C0008030D749083908600846006820F4802036
:1017D000086000BF606890B1FFF788FD054606E02D
:1017E000FFF784FD401B642801D903209EE7CC4805
:1017F00008380068C0F340400028F1D011E0FFF73E
:1018000075FD054606E0FFF771FD401B642801D910
:1018100003208BE7C24808380068C0F34040002826
:10182000F1D1207800F0020002285FD1BC480068A6
:1018300000F00C0058B1BA48006800F00C0008280D
:101840001CD1B748001F006800F48000B0B9B4484C
:1018500008380068C0F3400020B1E068012801D0DA
:10186000012063E7AE480838006820F0F8002169DD
:1018700040EAC100AA490839086037E0E06800B3CF
:101880000120A8490860FFF731FD054606E0FFF793
:101890002DFD401B022801D9032047E7A048083846
:1018A0000068C0F340000028F1D09D480838006867
:1018B00020F0F800216940EAC10099490839086020
:1018C00014E0002097490860FFF710FD054606E088
:1018D000FFF70CFD401B022801D9032026E79048A2
:1018E00008380068C0F340000028F1D1207800F0EB
:1018F000080008282CD16069A8B101208A49086035
:10190000FFF7F4FC054606E0FFF7F0FC401B022859
:1019100001D903200AE782486C300068C0F3400018
:101920000028F1D014E000207F490860FFF7DEFCBA
:10193000054606E0FFF7DAFC401B022801D9032028
:10194000F4E677486C300068C0F340000028F1D11D
:10195000207800F00400042870D100277048383047
:10196000006800F0805090B900BF002000906C48E3
:101970003830006840F080506949383108600846C6
:10198000006800F08050009000BF00BF012767484A
:10199000006800F48070B0B96448006840F480705A
:1019A00062490860FFF7A2FC054606E0FFF79EFCCF
:1019B000401B022801D90320B8E65C48006800F407
:1019C00080700028F2D000BFA068012808D15448D8
:1019D0006830006840F001005149683108601DE03E
:1019E000A06805280DD14E486830006840F004001A
:1019F0004B49683108600846006840F00100086003
:101A00000CE047486830006820F001004449683124
:101A100008600846006820F00400086000BFA06865
:101A2000A8B1FFF763FC054609E0FFF75FFC401B28
:101A300041F28831884202D9032077E626E038480F
:101A400068300068C0F340000028EED013E0FFF7D4
:101A50004DFC054608E0FFF749FC401B41F2883188
:101A6000884201D9032061E62D4868300068C0F340
:101A700040000028EFD1012F07D1294838300068F5
:101A800020F0805026493831086000BFA069002846
:101A900045D02348006800F00C0008285DD0A069FC
:101AA000022845D100201F490866FFF71FFC0546A4
:101AB00006E0FFF71BFC401B022801D9032035E696
:101AC000174808380068C0F340600028F1D1D4E915
:101AD00007010843616A40EA81110122A06AC2EB52
:101AE000500041EA00412C20005D41EA00600C49B1
:101AF000091F086001200B490866FFF7F7FB054640
:101B000006E0FFF7F3FB401B022801D903200DE696
:101B1000034808380068C0F340600028F1D049E06D
:101B20000838024000004742800E474200700040E3
:101B3000002021490866FFF7D9FB054606E0FFF7BC
:101B4000D5FB401B022801D90320EFE51B480068A4
:101B5000C0F340600028F2D12CE0A069012800D138
:101B6000E4E51648001D0668A069012820D006F4A7
:101B70008001E06981421BD106F03F01206A814269
:101B800016D147F6C0703040616AB0EB811F0FD1AB
:101B900006F440310122A06AC2EB5000B1EB004FC5
:101BA00006D106F070612C20005DB1EB006F01D012
:101BB0000120BBE50020B9E50000474200380240A3
:101BC00070B504462546681EB0F1807F01D3012020
:101BD0000FE0681E4FF0E02148610F214FF0FF3009
:101BE00000F09CFF00204FF0E02188610720086191
:101BF000002070BD704770472DE9F84F04462068FB
:101C000005682068C668206847694FF00009CA4621
:101C100005F00F09B9F1000F0AD105F0200038B125
:101C200006F0200020B1204600F0A4FDBDE8F88FAA
:101C3000B9F1000F7CD007F0010018B906F49070DC
:101C4000002875D005F0010030B106F4807018B19D
:101C5000206C40F00100206405F0040030B107F072
:101C6000010018B1206C40F00200206405F0020071
:101C700030B107F0010018B1206C40F0040020647E
:101C800005F0080048B106F0200010B907F0010087
:101C900018B1206C40F008002064206C002846D069
:101CA00005F0200028B106F0200010B1204600F019
:101CB00061FD20684069C0F3801A206C00F00800C4
:101CC00010B9BAF1000F2DD0204600F00DFD2068AC
:101CD000406900F04000402820D100BF00BF2168CB
:101CE000143151E8001F21F040002168143141E80F
:101CF0000002002AF3D100BFA06B50B17548A16B60
:101D00000865A06BFFF7CFF988B1A06B016D88471C
:101D10000DE02046FFF76FFF09E009E02046FFF7DE
:101D20006AFF04E02046FFF766FF002020647DE79D
:101D3000206B012876D105F01000002872D006F043
:101D400010000028FAD000BF002000902068006832
:101D5000009020684068009000BF00BF2068406984
:101D600000F0400040285ED1A06B006840681FFA78
:101D700080F8B8F1000F54D0A08D404551DDA4F893
:101D80002E80A06BC069B0F5807F43D000BF00BF3C
:101D900021680C3151E8001F21F4807021680C315A
:101DA00041E80002002AF3D100BF00BF00BF216854
:101DB000143151E8001F21F001002168143141E87D
:101DC0000002002AF3D100BF00BF00BF2168143118
:101DD00051E8001F21F040002168143141E8000261
:101DE000002AF3D100BF202084F83E0000202063A9
:101DF00000BF00BF21680C3151E8001F21F0100026
:101E000021680C3141E80002002AF3D100BFA06B29
:101E1000FFF7F3F8A08DE28D801A81B22046FFF71C
:101E2000E9FE03E740E0A08DE18D401A1FFA80F83B
:101E3000E08DC0B3B8F1000F35D000BF00BF2168FE
:101E40000C3151E8001F21F4907021680C3141E8F9
:101E50000002002AF3D100BF00BF00BF2168143187
:101E600051E8001F21F001002168143141E800020F
:101E7000002AF3D100BF202084F83E000020206318
:101E800000BF00BF21680C3151E8001F21F0100095
:101E900021680C3141E80002002AF3D100BF41461D
:101EA0002046FFF7A7FEC1E605F0800030B106F03E
:101EB000800018B1204600F0EFFDB7E605F04000C5
:101EC00030B106F0400018B1204600F043FCADE60A
:101ED00000BFABE6D526000810B504460CB90120BA
:101EE00010BDA06900B100E000BF94F83D0028B922
:101EF000002084F83C00204600F028F8242084F8D4
:101F00003D002068C06820F400502168C860204669
:101F100000F0ACFC2068006920F490402168086162
:101F20002068406920F02A00216848612068C06864
:101F300040F400502168C86000202064202084F80C
:101F40003D0084F83E000020CAE7000010B586B0CE
:101F50000446142101A8FEF71EFA1F492068884292
:101F600038D100BF002000901C48006840F4802059
:101F70001A4908600846006800F48020009000BFFD
:101F800000BF00BF0020009014481038006840F0E7
:101F900002001249103908600846006800F002008B
:101FA000009000BF00BF4FF44060019002200290FB
:101FB00000200390032004900720059001A9084801
:101FC000FFF79AF8002211462720FFF719FA272079
:101FD000FFF706FA06B010BD004800404038024046
:101FE000000402407047704700BFFEE710B50E487E
:101FF0000E4908600620486000210C488160C160DD
:102000004FF4403101614FF48011416100210176AC
:1020100041768176C17601774177FEF713FE08B1EC
:10202000FEF78FFA10BD0000006400402404002079
:1020300010B50E480E4908600620486000210C4883
:102040008160C1604FF4403101614FF48011416102
:102050000021017641768176C17601774177FEF7DE
:10206000F1FD08B1FEF76DFA10BD000000680040F8
:102070004C04002008B500BF002000901D480068F7
:1020800040F004001B4908600846006800F00400A6
:10209000009000BF00BF00BF00200090084600680D
:1020A00040F0800008600846006800F08000009062
:1020B00000BF00BF00BF002000900846006840F04D
:1020C000020008600846006800F00200009000BFAF
:1020D00000BF00BF002000900846006840F00100EB
:1020E00008600846006800F00100009000BF00BFD3
:1020F00008BD00003038024010B50B480B4908609D
:102100004FF416504860002108488160C1600161A9
:102110000C21416100218161C161FFF7DDFE08B141
:10212000FEF70FFA10BD00000048004074040020C4
:1021300000BFFEE700BFFEE770472DE9F04387B020
:1021400007460C4615461E464FF001084FF00009A1
:10215000002003900490019505963846FEF730FC68
:1021600000F0FF0904E03846FEF72AFC00F0FF0902
:10217000B9F1000FF7D00220FEF7AAFF0123224693
:1021800001A93846FEF721FA8046B8F1000F03D0C6
:10219000022007B0BDE8F0830020FAE770B50546DD
:1021A0000E46012413E004F50070A8420ED1601E13
:1021B000C0EBC0000849084431680160B1888180E3
:1021C000B1798171E0B200F039F870BD641C092C5E
:1021D000E9DB00BFF9E70000B804002010B50146B4
:1021E00000204A1EC2EBC202134B1A44927801230C
:1021F000B3EBE21F11D14A1EC2EBC2020E4B1A44CE
:10220000D3784A1EC2EBC2020B4C2244927803EBF5
:102210000222A2F57F40FF380DE04A1EC2EBC20247
:10222000054B1A44D3784A1EC2EBC202024C224428
:10223000927803EB022010BDB804002010B588B0DE
:102240000146481EC0EBC0021F4B1A445278C0EB37
:10225000C0031D4CE35C02EB03224DF820205DF827
:1022600020201A4B53F82030D21AB2F5805F09DBD8
:10227000174A52F82020A2F5F852FF3A144B43F8BF
:10228000202011E05DF82020104B53F82030D21AA6
:1022900012F5805F08DC0E4A52F8202041F6FF73E9
:1022A0001A440B4B43F820205DF82020074B43F8DD
:1022B0002020074A52F820205DF820301A44054BB0
:1022C00043F8202008B010BDB804002030050020DD
:1022D00010050020F004002070B505460C46012CC6
:1022E00030DB082C2EDC002600BF1748854201DCBD
:1022F000054604E042F21070854200DB0546042CDE
:102300000BDC4FF40076C5F307216000801E0F4AF6
:1023100011546000401E15540CE040F2FF16201FBF
:10232000C4B2C5F307216000801E094A1154600041
:10233000401E1554B2B2082304490648FFF7FDFEBB
:10234000002070BD0120FCE7F0D8FFFF1C04002036
:10235000140400202404002070B52DED068B0646E1
:102360000D46681EC4B200EE106AB8EEC00AA1485D
:1023700000EB841080ED000AE8B2FFF72FFF00EEBB
:10238000100AB8EEC00A9B4800EB841080ED010AE9
:10239000984800EB841090ED020A964800EB8410F8
:1023A00080ED030A934800EB841090ED000A9148F9
:1023B00000EB8410D0ED010A30EE600A8D4800EB8E
:1023C000841080ED020A8B4800EB841090ED0E0A19
:1023D00010EE101A084600F0B3FC41EC180B8548CB
:1023E00000EB841090ED020A10EE101A084600F07F
:1023F000A7FC41EC1A0BB0EE4A0AF0EE6A0AFEF7AF
:10240000A3F8B0EE409AF0EE609A53EC182B51EC22
:10241000190B00F0CFFB06D29FED770A754800EB51
:10242000841080ED020A734800EB841090ED040ADA
:10243000704800EB8410D0ED020A30EE200A6D489F
:1024400000EB841080ED040A6A4800EB841090EDE4
:10245000040A684800EB8410D0ED0F0AB4EEE00ADD
:10246000F1EE10FA05DB634800EB841090ED0F0AE3
:102470001DE0604800EB841090ED040A5D4800EB1D
:102480008410D0ED0F0AF1EE600AB4EEE00AF1EE2E
:1024900010FA07D8574800EB841090ED0F0AB1EE00
:1024A000400A04E0534800EB841090ED040A5148C0
:1024B00000EB841080ED040A4E4800EB841090ED90
:1024C000050A4C4800EB8410D0ED020A20EE200AE9
:1024D000484800EB841080ED0A0A464800EB84105F
:1024E00090ED060A434800EB8410D0ED040A20EE7C
:1024F000200A404800EB841080ED0B0A3D4800EBB9
:10250000841090ED020A3B4800EB8410D0ED030AE2
:1025100030EE600A374800EB8410D0ED070A20EE59
:10252000200A344800EB841080ED0C0A314800EB9F
:10253000841090ED0A0A2F4800EB8410D0ED0B0AAE
:1025400030EE200A2B4800EB8410D0ED0C0A30EE60
:10255000200A284800EB841080ED0D0A254800EB86
:102560008410D0ED0D0A234800EB841090ED080A8A
:10257000B8EEC00AF4EEC00AF1EE10FA07DB1D480F
:1025800000EB841090ED080AB8EEC00A1DE019486F
:1025900000EB8410D0ED0D0A164800EB841090ED8E
:1025A000090AB8EEC00AF4EEC00AF1EE10FA07D834
:1025B000104800EB841090ED090AB8EEC00A04E060
:1025C0000C4800EB841090ED0D0A0A4800EB8410D3
:1025D00080ED0D0AE9B2074A02EB841292ED0D0A72
:1025E000BDEEC00A10EE100AFFF776FEBDEC068BBA
:1025F00070BD00001400002000000000704710B5FE
:10260000FEF77AFE10BD000000B593B0302107A898
:10261000FDF7C1FE142102A8FDF7BDFE00BF00209A
:1026200001902548006840F0805023490860084622
:10263000006800F08050019000BF00BF00BF002084
:1026400001901E48006840F480401C49086008461C
:10265000006800F48040019000BF00BF0220079096
:1026600001200A9010200B9002200D9000210E9165
:1026700008210F91A821109102211191042112919A
:1026800007A8FFF74FF808B1FDF75BFF0F20029096
:1026900002200390002004904FF4A05005904FF4C6
:1026A00080500690052102A8FEF7FCFE08B1FDF758
:1026B00048FF13B000BD00004038024000700040E9
:1026C0000348006840F4700001490860704700004A
:1026D00088ED00E070B50546AC6B0020E085E08435
:1026E0002046FFF788FA70BD00BF00BF02680C32B9
:1026F00052E8002F22F4907102680C3242E8001375
:10270000002BF3D100BF00BF00BF0268143252E8B3
:10271000002F22F001010268143242E80013002B5E
:10272000F3D100BF016B01290ED100BF00BF0268C9
:102730000C3252E8002F22F0100102680C3242E8FD
:102740000013002BF3D100BF202180F83E100021A0
:102750000163704710B504462068C06820F040004F
:102760002168C860202084F83D002046FFF73BFC2C
:10277000002010BDF8B5044694F83E00222873D11D
:10278000A068B0F5805F0CD1206950B90025A66A19
:1027900020684068C0F308003080A06A801CA062F6
:1027A00015E0A56A0026A068B0F5805F03D0A06898
:1027B00028B9206918B920684068287004E02068AA
:1027C000406800F07F002870A06A401CA062E08D85
:1027D000401E80B2E085002844D12068C06820F007
:1027E00020002168C8602068C06820F480702168DB
:1027F000C8602068406920F00100216848612020FD
:1028000084F83E00206B012826D10020206300BF01
:1028100000BF21680C3151E8001F21F01000216831
:102820000C3141E80002002AF3D100BF20680068A3
:1028300000F0100010280AD100BF0020009020688E
:102840000068009020684068009000BF00BFA18D24
:102850002046FFF7CFF902E02046FFF7C3FB002038
:10286000F8BD01E00020FBE70220F9E72DE9F84F71
:1028700004462068006920F44050E168084321685C
:1028800008612169A068084361690843E169084358
:1028900000902068C06849F20C61884300990843A1
:1028A0002168C8602068406920F44070A16908432D
:1028B0002168486176492068884203D075492068BC
:1028C000884203D1FEF7C6FE814602E0FEF7B2FE63
:1028D0008146E069B0F5004F6CD102206168A0FB31
:1028E000015003461920A9FB007001462A463846CC
:1028F000FDF7DAFC6421B0FBF1F04FEA001A022088
:102900006168A0FB01510B461920A9FB00712A4602
:102910003846FDF7C9FC834602206168A0FB0150E0
:1029200003461920A9FB00712A463846FDF7BCFC76
:102930006421B0FBF1F000EBC00101EB0010ABEB48
:102940008000322101EBC0006421B0FBF1F000F007
:10295000F8000AEB400A02206168A0FB0150034620
:102960001920A9FB007001462A463846FDF79CFC59
:10297000834602206168A0FB015003461920A9FB91
:1029800000712A463846FDF78FFC6421B0FBF1F058
:1029900000EBC00101EB0010ABEB8000322101EB3A
:1029A000C0006421B0FBF1F000F007005044216842
:1029B00088606AE004206168A0FB0150034619208A
:1029C000A9FB007001462A463846FDF76DFC824699
:1029D00004206168A0FB015003461920A9FB007088
:1029E00001462A463846FDF75FFC6421B0FBF1F052
:1029F00000EBC00101EB0010AAEB8000322101EBDB
:102A000000106421B0FBF1F000F0F00A04206168CE
:102A1000A0FB017003461920A9FB00513A46284645
:102A2000FDF742FC6421B0FBF1F00AEB001A042030
:102A30006168A0FB01510B461920A9FB00712A46D1
:102A40003846FDF731FC834604206168A0FB015045
:102A500003461920A9FB007001462A463846FDF7B7
:102A600023FC6421B0FBF1F000EBC00101EB00108E
:102A7000ABEB8000322101EB00106421B0FBF1F0E0
:102A800000F00F00504421688860BDE8F88F000016
:102A90000010014000140140014691F83D0021283A
:102AA00028D18868B0F5805F0BD1086948B90A6AF7
:102AB0001088C0F308000B685860086A801C086220
:102AC00005E00B6A581C086218780B685860C88CBF
:102AD000401E80B2C88458B90868C06820F08000E1
:102AE0000B68D8600868C06840F040000B68D86088
:102AF000002070470220FCE710B50248FFF77CF881
:102B000010BD00007404002000BFFEE7024800680A
:102B1000C0F30220704700000CED00E010B5002863
:102B200004DB0A07130E054A135406E00A07140EC5
:102B3000034A00F00F031B1FD45410BD00E400E053
:102B400018ED00E0FEF7E4FBFFF75EFDFFF792FAF9
:102B5000FFF74CFAFFF76CFAFFF7CEFA0748FDF7DC
:102B6000A1FC0748FDF79EFC07E0012140F2DC5084
:102B7000FFF7F2FB0120FEF7ABFAF6E72404002092
:102B80004C04002081F00041704780F00040704705
:102B900021F00041704720F000407047491058BFB5
:102BA000C1F140415B1058BFC3F140438B42EFF38A
:102BB0000080704751EA030C17D41CF5801F58BFE2
:102BC000BCF5801F00F10680994218BF704708BF0E
:102BD0009042704707D711F5801F58BF13F5801F2B
:102BE00019D499427047894270471CF5801F08D557
:102BF000BCF5801FF7D58B4218BF704708BF8242D3
:102C000070474FF4001C1CEB410F38BF1CEB430F07
:102C100001D28B42704770B500F008F89224490049
:102C20004FF000514FF08053FFF7B8BF0EF1020E86
:102C30002EF0030E5EF8046B364205D4012A43EBF6
:102C4000030515F5001F12D8012841EB010C1CF5F6
:102C5000001F0CD80ED14FEAD17C15F5001F0CEBEC
:102C60004C0C0CF1020C08BF4CEBD37C04E04FF091
:102C7000080C01E04FEAD37C0CEB4C0526FA05F674
:102C800006F00706B6F1040C06D20EEB860CBDE882
:102C900070404CF0010C6047DFE80CF0090B0202B9
:102CA0004FF000414FF00000A1F5002170BD194622
:102CB0001046012851EB010418BFD4F5001484BF5D
:102CC000002001F0004170BD0808A0F500114FEA96
:102CD0003101704753EA010C17D41CF5801F58BF0F
:102CE000BCF5801F00F106808B4218BF704708BFFB
:102CF0008242704707D713F5801F58BF11F5801F18
:102D000019D48B4270479B4270471CF5801F08D531
:102D1000BCF5801FF7D5994218BF704708BF904295
:102D200070474FF4001C1CEB430F38BF1CEB410FE6
:102D300001D2994270470FB40CBC03BCFFF76BBFC4
:102D400043004FEAD30C4FEA3C0C43401FBF4007FF
:102D50000CF1605113F0FE4F70471CF0006F03D16F
:102D600000200CF0004170470CF0004343EA507023
:102D700010B540EACC0000F00EF800BF0000009251
:102D80004FEA0001FFF7A0BF4FF000414FF00000F5
:102D9000A1F5002170470EF1020E2EF0030E5EF831
:102DA000044B244204D44FEA4102B2F17F4F11D8C0
:102DB0004FEA4003B3F17F4F0CD80ED14FEAD07CDD
:102DC000B2F17F4F0CEB4C0C0CF1020C08BF4CEB3A
:102DD000D17C04E04FF0080C01E04FEAD17C0CEB11
:102DE0004C0324FA03F404F00704B4F1040C06D2F3
:102DF0000EEB840CBDE810404CF0010C6047DFE89E
:102E00000CF0070802024FF00040A0F5800010BD52
:102E10000846420018BFD2F1807288BF00F000401F
:102E200010BD4FF04070E1EE100A70470000000046
:102E3000000000000102030406070809000000006A
:102E400001020304642E0008000000202404000096
:102E5000C4010008E42E0008240400208C070000B0
:102E6000200200088132104201031824F482411B21
:102E7000803E040412C1FFFF1A20240B5A7A4440FA
:102E80000D7ACDCC4C3F800940400BB24041C0850B
:102E9000CDCCCC3D23B0360B1250C94013C84204F0
:102EA00014409C460D600AD7233C40310915400868
:102EB0000938CDCC4C400AD7A33B400B3DCC3DC09C
:102EC0000E363E6F12833A80314A3FC00B182041C4
:102ED000400B184843C04B4C4040091A800B12FA73
:042EE000444000006A
:040000050800018965
:00000001FF
