:020000040800F2
:100000007007002065020008C9190008531800088D
:10001000C51900085B040008BD1C000800000000B2
:10002000000000000000000000000000DD1B0008D0
:100030005F04000800000000CD190008DF1B000865
:100040007F0200087F0200087F0200087F0200088C
:100050007F0200087F0200087F0200087F0200087C
:100060007F0200087F0200087F0200087F0200086C
:100070007F0200087F0200087F0200087F0200085C
:100080007F0200087F0200087F0200087F0200084C
:100090007F0200087F0200087F0200087F0200083C
:1000A0007F0200087F0200087F0200087F0200082C
:1000B0007F0200087F0200087F0200087F0200081C
:1000C0007F0200087F0200087F0200087F0200080C
:1000D0007F0200087F0200087F0200087F020008FC
:1000E0007F0200087F0200087F0200087F020008EC
:1000F0007F0200087F0200087F0200087F020008DC
:100100007F0200087F0200087F0200087F020008CB
:100110007F0200087F0200087F0200087F020008BB
:100120007F0200087F0200087F0200087F020008AB
:100130007F02000800000000000000007F020008AD
:100140007F0200087F0200087F0200087F0200088B
:100150007F0200087F0200087F0200087F0200087B
:100160007F0200087F0200087F0200087F0200086B
:100170007F0200087F0200087F02000800000000E4
:10018000000000007F0200080000000000000000E6
:100190007F02000800000000000000007F0200084D
:1001A0000000000000000000000000007F020008C6
:1001B0007F0200087F0200087F0200087F0200081B
:1001C0007F02000800F002F800F03CF80AA090E876
:1001D000000C82448344AAF10107DA4501D100F002
:1001E00031F8AFF2090EBAE80F0013F0010F18BF93
:1001F000FB1A43F001031847481B0000681B00006E
:10020000103A24BF78C878C1FAD8520724BF30C842
:1002100030C144BF04680C60704700000023002414
:1002200000250026103A28BF78C1FBD8520728BF06
:1002300030C148BF0B6070471FB501F070FD1FBD96
:1002400010B510BD00F0CFF81146FFF7F5FF01F033
:1002500053FD00F0EDF803B4FFF7F2FF03BC00F02C
:10026000F5F800000948804709480047FEE7FEE727
:10027000FEE7FEE7FEE7FEE7FEE7FEE7FEE7FEE756
:1002800004480549054A064B70470000A91C0008B0
:10029000C5010008700100207007002070030020D5
:1002A0007003002053EA020C00F069802DE9F04B46
:1002B0004FF00006002B1FBFB3FA83F503FA05F4D5
:1002C00024FA05F65E4012BF1643B2FA82F502FA2E
:1002D00005F4C5F120051EBF22FA05FC44EA0C0412
:1002E000203556EA044C4FEA144418BF641C4FF002
:1002F00000084FF00009904271EB030C39D300293C
:1003000019BFB1FA81F701FA07F6B0FA80F700FADF
:1003100007F6C7F120071EBF20FA07FC46EA0C06C5
:100320002037B6FBF4FCA7EB0507103F07F01F0BC7
:10033000CBF120060CFA0BFB2CFA06F644BFB346B1
:100340000026202FA4BF5E464FF0000B5BEA060C90
:1003500008BF4FF0010B19EB0B09ABFB027C48EB1C
:100360000608C01B06FB02CC0BFB03CC71EB0C0197
:10037000C1E70B46024641464846BDE8F08B13B53F
:100380004FF000004FF00001AFF30080BDE81C40CB
:1003900070474FF0000200B5134694469646203948
:1003A00022BFA0E80C50A0E80C50B1F12001BFF42E
:1003B000F7AF090728BFA0E80C5048BF0CC05DF894
:1003C00004EB890028BF40F8042B08BF704748BFE2
:1003D00020F8022B11F0804F18BF00F8012B704756
:1003E000704770477047754600F02CF8AE46050020
:1003F0006946534620F00700854618B020B5FFF740
:100400003FFFBDE820404FF000064FF000074FF0DF
:1004100000084FF0000B21F00701AC46ACE8C00922
:10042000ACE8C009ACE8C009ACE8C0098D4670472B
:1004300010B50446AFF300802046BDE81040FFF73A
:100440000ABF0000004870470C0100200149182035
:10045000ABBEFEE726000200704700BFFEE7704714
:1004600038B50546002000900024002210210F48D6
:1004700000F004FA0A2301226946284601F002F836
:1004800001221021094800F0F9F9BDF80000C0F37D
:10049000CB04BDF800000121B1EBE03F01D10448DD
:1004A000048803480480204638BD00000004024050
:1004B0001200002038B505460020009000240022DC
:1004C0004FF400410E4800F0D9F90A230122694691
:1004D000284600F0D7FF0122D103094800F0CEF9E9
:1004E000BDF80000C0F3CB04BDF800000121B1EB62
:1004F000E03F01D10348048802480480204638BD0B
:10050000000002401000002010B53148FFF7A8FF9E
:10051000304988803048FFF7CDFF2E49C880084613
:1005200080882E498988401AB0F5006F06DD2C4876
:100530008068A0F580502A4988600DE025488088B1
:1005400026498988401A10F5006F05DA244880682A
:1005500000F5805022498860214880681D498988BB
:1005600008442049B1F90410401A1F49886019480D
:1005700080881A4988801748C088C988401AB0F511
:10058000006F06DD1648C068A0F580501449C860A9
:100590000DE01048C0881149C988401A10F5006F55
:1005A00005DA0F48C06800F580500D49C8600C4856
:1005B000C0680849C98808440A49B1F90610401AB8
:1005C0000949C8600348C0880449C88010BD0000BC
:1005D00014000020F60000206C0000200001002024
:1005E000C4000020EC000020D800002010B520211D
:1005F000194801F06DFA002407E01748FFF730FFB3
:10060000002000F035F8601CC4B2322CF5DB124833
:10061000FFF726FF00B211498880084680881049FC
:10062000888020210F4801F053FA002407E00D488C
:10063000FFF740FF002000F01BF8601CC4B2322C12
:10064000F5DB0848FFF736FF00B20449C8800846CA
:10065000C0880349C88010BD14000020EC000020B1
:10066000000100206C00002072B600BFFEE7000011
:1006700070B5044600F008F906462546681C10B11E
:1006800004480078054400BF00F0FEF8801BA84233
:10069000FAD370BD08000020F8B502460B460025CD
:1006A000002400200021D1E0012606FA01F51E6891
:1006B00006EA0504AC4274D11E7906F00306012E49
:1006C00004D01E7906F00306022E13D190684F0065
:1006D0000326BE40B0434F00DE68BE40304390600A
:1006E000506801268E40B0431E79C6F300168E4036
:1006F000304350601E7906F00306032E09D0D068FF
:100700004F000326BE40B0434F009E68BE403043BA
:10071000D0601E7906F00306022E13D1CF0802F135
:10072000200656F827004E07F70E0F26BE40B043AE
:100730004F07FF0E1E69BE403043CF0802F120066E
:1007400046F8270010684F000326BE40B0431E79CC
:1007500006F003064F00BE40304310605E6806F4AA
:100760004036002E71D000BF00260096394E366804
:1007700046F48046374F3E603E46366806F4804673
:10078000009600BF00BF344E8F0856F827008E0732
:10079000370F0F26BE40B043304EB24202D1002682
:1007A0001FE052E02E4EB24201D1012619E02D4E3B
:1007B000B24201D1022614E02B4EB24201D10326EF
:1007C0000FE02A4EB24201D104260AE0284EB2427E
:1007D00001D1052605E0274EB24201D1062600E0F0
:1007E00007268F073F0FBE4030431B4E8F0846F849
:1007F0002700214E3068A0435E6806F4801606B1DB
:1008000020431D4E3060361D3068A0435E6806F4FC
:10081000001606B12043184E361D3060164E361FA6
:100820003068A0435E6806F4003606B12043124EDD
:10083000361F3060361F3068A0435E6806F480368D
:1008400006B120430C4E083E3060491C1029FFF4CD
:100850002BAFF8BD44380240083801400000024088
:100860000004024000080240000C02400010024058
:100870000014024000180240083C01400AB18161A6
:1008800001E00B0483617047014800687047000075
:100890000000002003480068034909780844014922
:1008A00008607047000000200800002010B50D48C7
:1008B000006840F400700B4908600846006840F486
:1008C000806008600846006840F48070086003207B
:1008D00000F092F80F2000F007F800F02BF800204D
:1008E00010BD0000003C024070B504460E48007880
:1008F0004FF47A71B1FBF0F00C490968B1FBF0F5E7
:10090000284600F08CFF08B1012070BD102C07D2E2
:1009100000222146501E00F031F80548046001E035
:100920000120F2E70020F0E7080000200C00002082
:100930000400002008B500BF002000900E480068A9
:1009400040F480400C4908600846006800F480408C
:10095000009000BF00BF00BF00200090081F00688B
:1009600040F08050091F08600846006800F0805081
:10097000009000BF00BF08BD443802402DE9F05F81
:1009800080460D461646002701F09AF9074639467B
:100990002A46334601F00700C0F1070ABAF1040FF6
:1009A00002D94FF0040A01E0C0F1070AD14600F174
:1009B000040ABAF1070F02D24FF0000A01E0A0F1D9
:1009C000030AD4464FF0010A0AFA09FAAAF1010A09
:1009D0000AEA020A0AFA0CFA4FF0010B0BFA0CFBB6
:1009E000ABF1010B0BEA030B4AEA0B04214640462C
:1009F00001F06EF9BDE8F09F00BF00F00702064B62
:100A000019684FF6FF031940044B0B4343EA0221D8
:100A1000014B196000BF70470CED00E00000FA05C3
:100A200038B5002400BF002000901D48006840F049
:100A300080501B4908600846006800F08050009014
:100A400000BF00BF012017490864FFF71DFF0446DF
:100A500007E0FFF719FF001BB0F57A7F01D90320EB
:100A600038BD1148406800F48030B0F5803FF0D1C7
:100A700001200C494864FFF707FF044607E0FFF731
:100A800003FF001BB0F57A7F01D90320E8E7064891
:100A9000406800F40030B0F5003FF0D10020DFE7FF
:100AA0004038024000000E420070004070B504461D
:100AB0000D460CB9012070BD5848006800F00F00C9
:100AC000A84209D255490D700846006800F00F0091
:100AD000A84201D00120EEE7207800F002000228B1
:100AE0001DD1207800F00400042805D14C4800688E
:100AF00040F4E0504A490860207800F008000828D7
:100B000005D14748006840F46040454908604448C2
:100B1000006820F0F000A16808434149086020788F
:100B200000F00100A8B36068012807D13C480838EC
:100B30000068C0F34040B8B90120BCE760680228F3
:100B400002D06068032807D1354808380068C0F330
:100B5000406048B90120AEE7314808380068C0F36A
:100B6000400008B90120A6E72D48006820F00300E6
:100B7000616808432A490860FFF786FE064609E0D7
:100B8000FFF782FE801B41F28831884202D90320A0
:100B900091E707E02248006800F00C006168B0EBC4
:100BA000810FEDD11D48006800F00F00A84209D95F
:100BB0001A490D700846006800F00F00A84201D0E5
:100BC000012078E7207800F00400042807D11448B9
:100BD000006820F4E050E16808431149086020787B
:100BE00000F00800082808D10D48006820F4604093
:100BF000216940EAC1000A49086000F019F8084973
:100C00000968C1F30311074A515CC84006490860EE
:100C100006480068FFF768FE00204CE7003C0240F1
:100C200008380240281D00080C00002004000020A5
:100C30002DE9F047002400250026A146A2463F48A2
:100C4000006800F00C0030B1042807D0082808D054
:100C50000C286BD138E0DFF8E8A06AE0DFF8E4A008
:100C600067E03648001F006800F03F043348001F6B
:100C7000006800F4800078B132483049091F0968E3
:100C8000C1F38811A0FB01700146224600233846BB
:100C9000FFF708FB05460DE029482849091F0968A8
:100CA000C1F38811A0FB0171224600233846FFF7EB
:100CB000F9FA05462148001F0068C0F30140401CB6
:100CC0004600B5FBF6FA34E01C48001F006800F04F
:100CD0003F041A48001F006800F4800078B11948EA
:100CE0001649091F0968C1F38811A0FB017001466C
:100CF000224600233846FFF7D5FA05460EE0104895
:100D00000E49091F0968C1F38811A0FB0170014653
:100D1000224600233846FFF7C5FA05460748001F5C
:100D20000068C0F30279B5FBF9FA02E0DFF810A021
:100D300000BF00BF5046BDE8F08700000838024001
:100D40000024F40040787D01F8B504460CB9012078
:100D5000F8BD207800F0010000286FD0FE48006840
:100D600000F00C0004281BD0FB48006800F00C00C9
:100D7000082807D1F848001F006800F48000B0F58B
:100D8000800F0DD0F448006800F00C000C2813D13F
:100D9000F148001F006800F48000B0F5800F0BD10F
:100DA000ED4808380068C0F34040002859D060681A
:100DB000002856D10120CBE700BF6068B0F5803F26
:100DC00008D1E5480838006840F48030E249083925
:100DD00008601EE06068B0F5A02F0DD1DE4808382D
:100DE000006840F48020DC49083908600846006843
:100DF00040F4803008600CE0D7480838006820F4E0
:100E00008030D549083908600846006820F4802001
:100E1000086000BF606890B1FFF736FD054606E048
:100E2000FFF732FD401B642801D9032090E7CA4830
:100E300008380068C0F340400028F1D011E0FFF707
:100E400023FD054606E0FFF71FFD401B642801D97E
:100E500003207DE7C04808380068C0F34040002800
:100E6000F1D1207800F0020002286BD1BA48006866
:100E700000F00C00B8B1B848006800F00C00082879
:100E800005D1B548001F006800F4800058B1B24891
:100E9000006800F00C000C281CD1AF48001F00684F
:100EA00000F48000B0B9AC4808380068C0F34000D6
:100EB00020B1E068012801D0012049E7A6480838A0
:100EC000006820F0F800216940EAC100A249083911
:100ED000086037E0E06800B30120A0490860FFF730
:100EE000D3FC054606E0FFF7CFFC401B022801D9E2
:100EF00003202DE7984808380068C0F34000002818
:100F0000F1D095480838006820F0F800216940EADF
:100F1000C10091490839086014E000208F49086039
:100F2000FFF7B2FC054606E0FFF7AEFC401B0228C7
:100F300001D903200CE7884808380068C0F3400056
:100F40000028F1D1207800F0080008282CD1606931
:100F5000A8B1012082490860FFF796FC054606E02B
:100F6000FFF792FC401B022801D90320F0E67A48E3
:100F70006C300068C0F340000028F1D014E000207D
:100F800077490860FFF780FC054606E0FFF77CFC28
:100F9000401B022801D90320DAE66F486C30006854
:100FA000C0F340000028F1D1207800F004000428AC
:100FB00070D1002768483830006800F0805090B940
:100FC00000BF0020009064483830006840F0805036
:100FD0006149383108600846006800F08050009090
:100FE00000BF00BF01275F48006800F48070B0B9FF
:100FF0005C48006840F480705A490860FFF744FC80
:10100000054606E0FFF740FC401B022801D90320FB
:101010009EE65448006800F480700028F2D000BFBB
:10102000A068012808D14C486830006840F00100F1
:101030004949683108601DE0A06805280DD146487F
:101040006830006840F00400434968310860084691
:10105000006840F0010008600CE03F48683000681C
:1010600020F001003C49683108600846006820F023
:101070000400086000BFA068A8B1FFF705FC0546A2
:1010800009E0FFF701FC401B41F28831884202D998
:1010900003205DE626E0304868300068C0F3400079
:1010A0000028EED013E0FFF7EFFB054608E0FFF75E
:1010B000EBFB401B41F28831884201D9032047E60F
:1010C000254868300068C0F340000028EFD1012FA8
:1010D00007D121483830006820F080501E4938314F
:1010E000086000BFA069002851D01B48006800F0CC
:1010F0000C00082861D0A069022849D100201749B6
:101100000866FFF7C1FB054606E0FFF7BDFB401B85
:10111000022801D903201BE60F4808380068C0F3F5
:1011200040600028F1D1D4E907010843616A40EA30
:1011300081110122A06AC2EB500041EA00412C203B
:10114000005D41EA00613020005D41EA0070024923
:10115000091F0860012007E00838024000004742EC
:10116000800E4742007000402F490866FFF78CFB55
:10117000054606E0FFF788FB401B022801D9032043
:10118000E6E52A480068C0F340600028F2D048E055
:10119000002025490866FFF777FB054606E0FFF7C4
:1011A00073FB401B022801D90320D1E51F480068CA
:1011B000C0F340600028F2D133E0A069012800D1DB
:1011C000C6E51A48001D0668A069012827D006F464
:1011D0008001E069814222D106F03F01206A81420C
:1011E0001DD147F6C0703040616AB0EB811F16D147
:1011F00006F440310122A06AC2EB5000B1EB004F6F
:101200000DD106F070612C20005DB1EB006F06D1AE
:1012100006F0E0413020005DB1EB007F01D00120FD
:1012200096E5002094E500000000474200380240A7
:1012300010B504460CB9012010BD606A38B9606869
:10124000B0F5827F00D105E00021E16102E00021DC
:10125000216161610021A16294F8510028B9002048
:1012600084F85000204600F047F8022084F851002E
:101270002068006820F0400021680860A08800F421
:101280008270218901F404410843A18901F40061BD
:101290000843217C01F002010843217D01F0010196
:1012A0000843218B01F400710843217F01F03801CC
:1012B00008432021095D01F080010843218D01F4DC
:1012C00000510843216808600421A06901EA104028
:1012D00094F8241001F01001084321684860206848
:1012E000C06920F400602168C861002060650120A9
:1012F00084F8510000209FE710B586B00446142101
:1013000001A8FFF746F85A49206888424ED100BF2D
:10131000002000905748006840F48040554908601C
:101320000846006800F48040009000BF00BF00BF86
:10133000002000904F481038006840F004004D49EC
:10134000103908600846006800F00400009000BFF3
:1013500000BF00BF002000900846006840F0020077
:1013600008600846006800F00200009000BF00BF5F
:10137000042001900220029000200390032004909A
:101380000520059001A93C48FFF786F94FF48060DD
:101390000190022002900020039003200490052079
:1013A000059001A93548FFF777F95FE034492068D7
:1013B00088425BD100BF002000902E48006840F4B6
:1013C00000402C4908600846006800F40040009086
:1013D00000BF00BF00BF0020009026481038006802
:1013E00040F002002349103908600846006800F008
:1013F0000200009000BF00BF00BF00200090084620
:10140000006840F0040008600846006800F004002E
:10141000009000BF00BF0120019002200290002038
:101420000390032004900720059001A91348FFF7BB
:1014300033F94FF4006001900220029000200390E5
:10144000032004900620059001A90B48FFF724F91A
:1014500008200190022002900020039003200490B5
:101460000620059001A90548FFF716F906B010BD42
:1014700000380040403802400008024000040240AA
:10148000003C00402DE9F8430446884616461D46B8
:101490004FF000096068B0F5827F0DD1A06858B99F
:1014A000042084F8510033464246414620460095C8
:1014B00000F0A0F8BDE8F88300BF94F850000128C0
:1014C00001D10220F6E7012084F8500000BFFFF7A9
:1014D000DBF9074694F85100012802D04FF00209C9
:1014E0007EE0B8F1000F00D016B94FF0010977E0A7
:1014F000042084F8510000206065C4F83880A68775
:10150000E6872063A086E08620646064A068B0F56A
:10151000004F0BD12068006820F04000216808606F
:101520002068006820F48040216808602068006816
:1015300000F04000402805D02068006840F04000DE
:1015400021680860E068F8B91AE02068806800F057
:10155000010050B12068007BA16B0870A06B401C9B
:10156000A063E08F401EE0870AE0FFF78DF9C01B03
:10157000A84201D3681C00B915B94FF003092FE048
:10158000E08F0028E1D11EE01AE02068806800F0BA
:10159000010050B12068C068A16B0880A06B801C5E
:1015A000A063E08F401EE0870AE0FFF76DF9C01BE3
:1015B000A84201D3681C00B915B94FF003090FE028
:1015C000E08F0028E1D13A462946204600F0FFF995
:1015D00008B120206065606D08B14FF0010900BFBF
:1015E000012084F8510000BF002084F8500000BFA3
:1015F00048465FE72DE9FF5F0446884691461D4651
:101600000E9E012002900020019000BF94F850002F
:10161000012803D1022004B0BDE8F09F012084F826
:10162000500000BFFFF730F9074694F851B06068EA
:101630000390AA46BBF1010F0BD00398B0F5827F4F
:1016400004D1A06810B9BBF1040F02D002200190B0
:10165000DBE0B8F1000F03D0B9F1000F00D015B9ED
:1016600001200190D1E094F85100042802D0052017
:1016700084F8510000206065C4F83890E587A5879C
:10168000C4F83080E586A586206460642068006820
:1016900000F04000402805D02068006840F040007D
:1016A00021680860E068B0F5006F4AD1606810B149
:1016B000BAF1010F09D1206B00882168C860206B46
:1016C000801C2063E08E401EE08633E02068806846
:1016D00000F00200022810D1E08E70B102980128BB
:1016E0000BD1206B00882168C860206B801C2063B0
:1016F000E08E401EE086002002902068806800F0A6
:10170000010068B1E08F58B12068C068A16B088003
:10171000A06B801CA063E08F401EE0870120029038
:10172000FFF7B2F8C01BB04204D3701C10B1032005
:1017300001906AE0E08E0028C8D1E08F0028C5D172
:101740004AE0606810B1BAF1010F09D1206B00784E
:1017500021680873206B401C2063E08E401EE086E9
:1017600034E02068806800F00200022810D1E08E8A
:1017700070B1029801280BD1206B007821680873A2
:10178000206B401C2063E08E401EE086002002900B
:101790002068806800F0010068B1E08F58B12068CF
:1017A000C068A16B0870A06B401CA063E08F401E56
:1017B000E08701200290FFF767F8C01BB04201D319
:1017C000701C00B916B9032001901EE0E08E0028BD
:1017D000C7D1E08F0028C4D13A463146204600F0F8
:1017E00041F920B101200190202060650DE0A06842
:1017F00050B900BF002000902068C06800902068A9
:101800008068009000BF00BF00BF012084F8510035
:1018100000BF002084F8500000BF0198FBE670B5BF
:1018200004462546681EB0F1807F01D301200FE0F9
:10183000681E4FF0E02148610F214FF0FF3000F0AB
:1018400047FA00204FF0E02188610720086100205E
:1018500070BD00BFFEE7000000B587B0142102A8EC
:10186000FEF797FD00BF002001902F48006840F070
:1018700080002D4908600846006800F08000019053
:1018800000BF00BF00BF002001900846006840F084
:10189000040008600846006800F00400019000BFE2
:1018A00000BF00BF002001900846006840F0020021
:1018B00008600846006800F00200019000BF00BF09
:1018C00000BF002001900846006840F00100086059
:1018D0000846006800F00100019000BF00BF002230
:1018E0004FF400411148FEF7C9FF002210211048B3
:1018F000FEF7C4FF4FF40040029001200390002047
:101900000490059002A90948FEF7C6FE1020029037
:101910000120039000200490059002A90448FEF7DE
:10192000BBFE07B000BD000030380240000002409E
:101930000004024010B50E480E49086000204860BF
:101940004FF400410B4881600911C160022101611F
:10195000012141614902816100210162416281628C
:101960000A21C162FFF764FC08B1FEF77DFE10BDDD
:10197000003800401400002010B5104810490860DD
:101980004FF48270486000210D4881604FF400617F
:10199000C16002210161012141614902816120216F
:1019A000C16100210162416281620A21C162FFF7C7
:1019B0003FFC08B1FEF758FE10BD0000003C00409F
:1019C0006C00002000BFFEE700BFFEE77047F8B5DF
:1019D00004460E4615466068B0F5827F0DD1A068BA
:1019E000B0F5004F03D0A068B0F5806F05D1206836
:1019F000006820F04000216808606068B0F5827FD0
:101A00001FD1A068B0F5806F0DD033460022802131
:101A10002046009500F076F808B3606D40F0200095
:101A200060650320F8BD3346002201212046009561
:101A300000F068F898B1606D40F020006065032008
:101A4000F0E73346002201212046009500F05AF8C5
:101A500028B1606D40F0200060650320E2E70020BF
:101A6000E0E700007CB504460D46164616480068BF
:101A70001821B0FBF1F01549B0FBF1F04FF47A7189
:101A8000484301906068B0F5827F0DD12B4600225B
:101A900080212046009600F035F898B1606D40F046
:101AA0002000606503207CBD00BF019800B908E0FC
:101AB0000198401E019020688068C0F3C010002883
:101AC000F3D100BF0020EEE70C00002040420F00E1
:101AD0000268126822F0400203681A600268126805
:101AE0004FF6C7731A4003681A60026812680A4307
:101AF00003681A600268126842F0400203681A60C4
:101B0000704700002DE9F84F04460D4690461E46EA
:101B1000DDF82890FEF7B8FEA0EB0900371AFEF7B3
:101B2000B3FE82462C480068C0F3CB307843009067
:101B300045E0701C002842D0FEF7A6FEA0EB0A008C
:101B4000B84200D2A7BB2068406820F0E0002168BE
:101B500048606068B0F5827F0DD1A068B0F5004F95
:101B600003D0A068B0F5806F05D12068006820F030
:101B7000400021680860A06AB0F5005F0DD100BF89
:101B80002068006820F40050216808602068006820
:101B900040F400502168086000BF012084F8510023
:101BA00000BF002084F8500000BF0320BDE8F88F7C
:101BB000FFE7009800B900270098401E00902068B9
:101BC00080682840A84201D1012000E00020404563
:101BD000AFD10020EAE700000C000020704710B5EC
:101BE000FEF758FE10BD000000B593B0342106A8E2
:101BF000FEF7CFFB142101A8FEF7CBFB00BF0020AE
:101C000000902748006840F0805025490860084649
:101C1000006800F08050009000BF00BF00BF0020AF
:101C200000902048006840F440401E490860084683
:101C3000006800F44040009000BF00BF0220069002
:101C40000120099010200A9002200C9000210D9193
:101C500008210E91B4210F9102211091119112913E
:101C600006A8FFF771F808B1FEF7FEFCFEF7D8FEF4
:101C700008B1FEF7F9FC0F2001900220029000202D
:101C800003904FF4A05004904FF48050059005212C
:101C900001A8FEF70BFF08B1FEF7E6FC13B000BD8C
:101CA00040380240007000400348006840F4700073
:101CB000014908607047000088ED00E000BFFEE7C2
:101CC00002480068C0F30220704700000CED00E0FD
:101CD00010B5002804DB0A07130E054A135406E06A
:101CE0000A07140E034A00F00F031B1FD45410BD43
:101CF00000E400E018ED00E0FEF7D8FDFFF774FF08
:101D0000FFF7AAFDFFF738FEFFF714FEFEF76EFCA3
:101D100004E0FEF7F9FB0120FEF7AAFCF9E74FF01B
:101D20004070E1EE100A7047000000000000000063
:101D30000102030406070809000000000102030471
:101D4000601D0008000000201400000000020008D0
:101D5000741D0008140000205C0700001C0200082D
:101D60000000000010000000010000000024F4004A
:041D7000000000006F
:04000005080001C529
:00000001FF
